{
  "contracts/Verifier.sol": {
    "Verifier": {
      "abi": [
        {
          "anonymous": false,
          "inputs": [
            {
              "indexed": false,
              "internalType": "bool",
              "name": "r",
              "type": "bool"
            },
            {
              "indexed": false,
              "internalType": "uint256[24]",
              "name": "values",
              "type": "uint256[24]"
            }
          ],
          "name": "Verified",
          "type": "event"
        },
        {
          "inputs": [
            {
              "components": [
                {
                  "components": [
                    {
                      "internalType": "uint256",
                      "name": "X",
                      "type": "uint256"
                    },
                    {
                      "internalType": "uint256",
                      "name": "Y",
                      "type": "uint256"
                    }
                  ],
                  "internalType": "struct Pairing.G1Point[]",
                  "name": "comms_1",
                  "type": "tuple[]"
                },
                {
                  "components": [
                    {
                      "internalType": "uint256",
                      "name": "X",
                      "type": "uint256"
                    },
                    {
                      "internalType": "uint256",
                      "name": "Y",
                      "type": "uint256"
                    }
                  ],
                  "internalType": "struct Pairing.G1Point[]",
                  "name": "comms_2",
                  "type": "tuple[]"
                },
                {
                  "components": [
                    {
                      "internalType": "uint256",
                      "name": "X",
                      "type": "uint256"
                    },
                    {
                      "internalType": "uint256",
                      "name": "Y",
                      "type": "uint256"
                    }
                  ],
                  "internalType": "struct Pairing.G1Point",
                  "name": "degree_bound_comms_2_g1",
                  "type": "tuple"
                },
                {
                  "components": [
                    {
                      "internalType": "uint256",
                      "name": "X",
                      "type": "uint256"
                    },
                    {
                      "internalType": "uint256",
                      "name": "Y",
                      "type": "uint256"
                    }
                  ],
                  "internalType": "struct Pairing.G1Point[]",
                  "name": "comms_3",
                  "type": "tuple[]"
                },
                {
                  "components": [
                    {
                      "internalType": "uint256",
                      "name": "X",
                      "type": "uint256"
                    },
                    {
                      "internalType": "uint256",
                      "name": "Y",
                      "type": "uint256"
                    }
                  ],
                  "internalType": "struct Pairing.G1Point",
                  "name": "degree_bound_comms_3_g2",
                  "type": "tuple"
                },
                {
                  "internalType": "uint256[]",
                  "name": "evals",
                  "type": "uint256[]"
                },
                {
                  "components": [
                    {
                      "internalType": "uint256",
                      "name": "X",
                      "type": "uint256"
                    },
                    {
                      "internalType": "uint256",
                      "name": "Y",
                      "type": "uint256"
                    }
                  ],
                  "internalType": "struct Pairing.G1Point",
                  "name": "batch_lc_proof_1",
                  "type": "tuple"
                },
                {
                  "internalType": "uint256",
                  "name": "batch_lc_proof_1_r",
                  "type": "uint256"
                },
                {
                  "components": [
                    {
                      "internalType": "uint256",
                      "name": "X",
                      "type": "uint256"
                    },
                    {
                      "internalType": "uint256",
                      "name": "Y",
                      "type": "uint256"
                    }
                  ],
                  "internalType": "struct Pairing.G1Point",
                  "name": "batch_lc_proof_2",
                  "type": "tuple"
                }
              ],
              "internalType": "struct Verifier.Proof",
              "name": "proof",
              "type": "tuple"
            },
            {
              "internalType": "uint256[24]",
              "name": "input",
              "type": "uint256[24]"
            }
          ],
          "name": "verifyTx",
          "outputs": [
            {
              "internalType": "bool",
              "name": "",
              "type": "bool"
            }
          ],
          "stateMutability": "nonpayable",
          "type": "function"
        }
      ],
      "evm": {
        "bytecode": {
          "linkReferences": {},
          "object": "608060405234801561001057600080fd5b50615abe80620000216000396000f3fe608060405234801561001057600080fd5b506004361061002b5760003560e01c8063dfb2168f14610030575b600080fd5b61004a600480360381019061004591906150d9565b610060565b6040516100579190615151565b60405180910390f35b600061006a6149aa565b60005b60188110156100b7578381601881106100895761008861516c565b5b60200201518282601f81106100a1576100a061516c565b5b602002018181525050808060010191505061006d565b5060006100c48286610111565b90508015610106577fc2174f6b49c0309425c616f874c514eb1cc8ed66990fa3154b33f9890dff586681856040516100fd929190615246565b60405180910390a15b809250505092915050565b60008061011c6131f1565b905060005b601f81101561017a577f30644e72e131a029b85045b68181585d2833e84879b9709143e1f593f00000018582601f811061015e5761015d61516c565b5b60200201511061016d57600080fd5b8080600101915050610121565b506000806101866149cd565b7f4d41524c494e2d32303139d570010000000000d570010000000000c1982c000060001b816000601981106101be576101bd61516c565b5b6020020181815250507c3b347fc0677245f7bbf87fa4ab8110414c017cdd67c384ab003c64807f60001b816001601981106101fc576101fb61516c565b5b6020020181815250507fcab709a3bb7becee13357b6366f710991e18df2f6d94675ec66b9a1a75d4157260001b8160026019811061023d5761023c61516c565b5b6020020181815250507f4bc015000000000000000000000000000000000000000000000000000000000060001b8160036019811061027e5761027d61516c565b5b6020020181815250507a01000000000000000000000000000000000000000000000000000060001b816004601981106102ba576102b961516c565b5b6020020181815250507a0193a62a572de733c881b3c32fb998b781b750477744cef4c9822260001b816005601981106102f6576102f561516c565b5b6020020181815250507fc330adf02a01a32822a381d3772088c90dca9f45b316f9f808b3f3db5bfb22c060001b816006601981106103375761033661516c565b5b6020020181815250507fa813660a6303000000000000000000000000000000000000000000000000000060001b816007601981106103785761037761516c565b5b6020020181815250507701000000000000000000000000000000000000000000000060001b816008601981106103b1576103b061516c565b5b6020020181815250507701e5a3dd8c44ebf0d734f4e11bea3ab44dfde495f484d5b160001b816009601981106103ea576103e961516c565b5b6020020181815250507f6fde9367cc578a491d26039844621b90d51b16b179235bc2c31945e354897e7b60001b81600a6019811061042b5761042a61516c565b5b6020020181815250507fbfcd6eb2ef07943328000000000000000000000000000000000000000000000060001b81600b6019811061046c5761046b61516c565b5b6020020181815250507401000000000000000000000000000000000000000060001b81600c601981106104a2576104a161516c565b5b60200201818152505074019d1d5293def9616a6dd1b71baa26d1c3c6d806d160001b81600d601981106104d8576104d761516c565b5b6020020181815250507fa709dcaf6236edbecd5e8a155945dfa802b94f5043574075017bb35789d4ea3460001b81600e601981106105195761051861516c565b5b6020020181815250507fee6cefac4153e5e69532e50e000000000000000000000000000000000000000060001b81600f6019811061055a5761055961516c565b5b6020020181815250507101000000000000000000000000000000000060001b8160106019811061058d5761058c61516c565b5b6020020181815250507101ceb9732e20b72db8f452e407bd11eb0cca60001b816011601981106105c0576105bf61516c565b5b6020020181815250507fc16682ae48a7b72f26f1423aea6905d034206021085a674440749352254d8b7e60001b816012601981106106015761060061516c565b5b6020020181815250507fc8271012e0ec60ecbbd0adea08e206000000000000000000000000000000000060001b816013601981106106425761064161516c565b5b6020020181815250506e01000000000000000000000000000060001b816014601981106106725761067161516c565b5b6020020181815250506e0133b93ed4318d7b732acaabb8a40f60001b816015601981106106a2576106a161516c565b5b6020020181815250507f8ef321e1f53ef625d9de2f0e9168e908572ff8f714ca88c3dc6096c65a99b76760001b816016601981106106e3576106e261516c565b5b6020020181815250507f1d825f07f163954bfc3595fb0e2a40c89b0e000000000000000000000000000060001b816017601981106107245761072361516c565b5b6020020181815250506b01000000000000000000000060001b816018601981106107515761075061516c565b5b6020020181815250506000600160581b905061076b6149aa565b60005b601f8110156107c0576107978a82601f811061078d5761078c61516c565b5b6020020151613836565b8282601f81106107aa576107a961516c565b5b602002018181525050808060010191505061076e565b508282826040516020016107d69392919061541d565b6040516020818303038152906040528051906020012094505050506000905060006001905060008060405180604001604052806000815260200161081a6001613836565b815250905061084b886000015160008151811061083a5761083961516c565b5b602002602001015160000151613836565b61087789600001516000815181106108665761086561516c565b5b602002602001015160200151613836565b8384848760405160200161089096959493929190615544565b6040516020818303038152906040526108cb89600001516001815181106108ba576108b961516c565b5b602002602001015160000151613836565b6108f78a600001516001815181106108e6576108e561516c565b5b602002602001015160200151613836565b8485858860405160200161091096959493929190615544565b60405160208183030381529060405261094b8a6000015160028151811061093a5761093961516c565b5b602002602001015160000151613836565b6109778b600001516002815181106109665761096561516c565b5b602002602001015160200151613836565b8586868960405160200161099096959493929190615544565b6040516020818303038152906040526109cb8b600001516003815181106109ba576109b961516c565b5b602002602001015160000151613836565b6109f78c600001516003815181106109e6576109e561516c565b5b602002602001015160200151613836565b8687878a604051602001610a1096959493929190615544565b60405160208183030381529060405288604051602001610a34959493929190615646565b604051602081830303815290604052805190602001209450505050610a576149f0565b6000610a638484613982565b80945081925050505b6000610a7b8262020000613a82565b03610a9757610a8a8484613982565b8094508192505050610a6c565b610aa081613ae2565b82600060078110610ab457610ab361516c565b5b602002018181525050610ac78484613982565b8094508192505050610ad881613ae2565b82600160078110610aec57610aeb61516c565b5b602002018181525050610aff8484613982565b8094508192505050610b1081613ae2565b82600260078110610b2457610b2361516c565b5b602002018181525050610b378484613982565b8094508192505050610b4881613ae2565b82600360078110610b5c57610b5b61516c565b5b6020020181815250505060009150600060019050600080604051806040016040528060008152602001610b8f6001613836565b8152509050610bc08960200151600081518110610baf57610bae61516c565b5b602002602001015160000151613836565b610bec8a60200151600081518110610bdb57610bda61516c565b5b602002602001015160200151613836565b83848487604051602001610c0596959493929190615544565b604051602081830303815290604052610c408a60200151600181518110610c2f57610c2e61516c565b5b602002602001015160000151613836565b610c6c8b60200151600181518110610c5b57610c5a61516c565b5b602002602001015160200151613836565b8486610c7f8e6040015160000151613836565b610c908f6040015160200151613836565b88604051602001610ca79796959493929190615695565b604051602081830303815290604052610ce28b60200151600281518110610cd157610cd061516c565b5b602002602001015160000151613836565b610d0e8c60200151600281518110610cfd57610cfc61516c565b5b602002602001015160200151613836565b85868689604051602001610d2796959493929190615544565b60405160208183030381529060405288604051602001610d4a9493929190615716565b6040516020818303038152906040528051906020012095505050506000610d718484613982565b80945081925050505b6000610d898262020000613a82565b03610da557610d988484613982565b8094508192505050610d7a565b610dae81613ae2565b82600460078110610dc257610dc161516c565b5b6020020181815250505060009150600060019050600080604051806040016040528060008152602001610df56001613836565b8152509050610e268960600151600081518110610e1557610e1461516c565b5b602002602001015160000151613836565b610e528a60600151600081518110610e4157610e4061516c565b5b602002602001015160200151613836565b8385610e658d6080015160000151613836565b610e768e6080015160200151613836565b87604051602001610e8d9796959493929190615695565b604051602081830303815290604052610ec88a60600151600181518110610eb757610eb661516c565b5b602002602001015160000151613836565b610ef48b60600151600181518110610ee357610ee261516c565b5b602002602001015160200151613836565b84858588604051602001610f0d96959493929190615544565b60405160208183030381529060405287604051602001610f2f93929190615758565b6040516020818303038152906040528051906020012095505050506000610f568484613982565b8094508192505050610f6781613ae2565b82600560078110610f7b57610f7a61516c565b5b602002018181525050506000915060008660a001515167ffffffffffffffff811115610faa57610fa9614c40565b5b604051908082528060200260200182016040528015610fd85781602001602082028036833780820191505090505b50905060005b8760a001515181101561103e576110128860a0015182815181106110055761100461516c565b5b6020026020010151613836565b8282815181106110255761102461516c565b5b6020026020010181815250508080600101915050610fde565b50808460405160200161105292919061581e565b6040516020818303038152906040528051906020012093505060006110778484613d97565b809450819250505080826006600781106110945761109361516c565b5b602002018181525050506110a6614a12565b6110ae614a3f565b6110b6614a61565b6110f4846000600781106110cd576110cc61516c565b5b6020020151856004600781106110e6576110e561516c565b5b602002015162020000613e36565b816000600681106111085761110761516c565b5b602002018181525050611136846000600781106111285761112761516c565b5b602002015162020000613a82565b8160016006811061114a5761114961516c565b5b6020020181815250506111788460046007811061116a5761116961516c565b5b602002015162020000613a82565b8160026006811061118c5761118b61516c565b5b6020020181815250506111b8846004600781106111ac576111ab61516c565b5b60200201516020613a82565b816003600681106111cc576111cb61516c565b5b60200201818152505060006111f8856004600781106111ee576111ed61516c565b5b6020020151613ef3565b90508060006020811061120e5761120d61516c565b5b6020020151826004600681106112275761122661516c565b5b6020020181815250506000600190505b602081101561131f577f30644e72e131a029b85045b68181585d2833e84879b9709143e1f593f00000018061126f5761126e615846565b5b7f30644e72e131a029b85045b68181585d2833e84879b9709143e1f593f00000018061129e5761129d615846565b5b8d6001846112ac91906158a4565b601f81106112bd576112bc61516c565b5b60200201518484602081106112d5576112d461516c565b5b602002015109846004600681106112ef576112ee61516c565b5b602002015108836004600681106113095761130861516c565b5b6020020181815250508080600101915050611237565b5050611346846005600781106113385761133761516c565b5b602002015162400000613a82565b8160056006811061135a5761135961516c565b5b60200201818152505061136b614a83565b611373614aa5565b8a60a0015160008151811061138b5761138a61516c565b5b6020026020010151826000600481106113a7576113a661516c565b5b6020020181815250508a60a001516002815181106113c8576113c761516c565b5b6020026020010151826002600481106113e4576113e361516c565b5b6020020181815250508a60a001516003815181106114055761140461516c565b5b6020026020010151826003600481106114215761142061516c565b5b6020020181815250508a602001516001815181106114425761144161516c565b5b60200260200101518160006004811061145e5761145d61516c565b5b60200201819052508a6020015160008151811061147e5761147d61516c565b5b60200260200101518160026004811061149a5761149961516c565b5b60200201819052508a600001516002815181106114ba576114b961516c565b5b6020026020010151816003600481106114d6576114d561516c565b5b60200201819052506114e66149f0565b6001816000600781106114fc576114fb61516c565b5b6020020181815250507f30644e72e131a029b85045b68181585d2833e84879b9709143e1f593f00000018061153457611533615846565b5b7f30644e72e131a029b85045b68181585d2833e84879b9709143e1f593f00000018061156357611562615846565b5b7f30644e72e131a029b85045b68181585d2833e84879b9709143e1f593f00000018061159257611591615846565b5b8e60a001516003815181106115aa576115a961516c565b5b60200260200101518a6003600781106115c6576115c561516c565b5b602002015109896001600781106115e0576115df61516c565b5b602002015108856000600681106115fa576115f961516c565b5b602002015109816001600781106116145761161361516c565b5b6020020181815250507f30644e72e131a029b85045b68181585d2833e84879b9709143e1f593f00000018061164c5761164b615846565b5b7f30644e72e131a029b85045b68181585d2833e84879b9709143e1f593f00000018061167b5761167a615846565b5b8d60a001516003815181106116935761169261516c565b5b6020026020010151896002600781106116af576116ae61516c565b5b602002015109856000600681106116c9576116c861516c565b5b602002015109816002600781106116e3576116e261516c565b5b6020020181815250507f30644e72e131a029b85045b68181585d2833e84879b9709143e1f593f00000018061171b5761171a615846565b5b61176660008e60a001516002815181106117385761173761516c565b5b60200260200101517f30644e72e131a029b85045b68181585d2833e84879b9709143e1f593f0000001614171565b8560036006811061177a5761177961516c565b5b602002015109816003600781106117945761179361516c565b5b6020020181815250507f30644e72e131a029b85045b68181585d2833e84879b9709143e1f593f0000001806117cc576117cb615846565b5b61181760008e60a001516002815181106117e9576117e861516c565b5b60200260200101517f30644e72e131a029b85045b68181585d2833e84879b9709143e1f593f0000001614171565b8560046006811061182b5761182a61516c565b5b602002015109816004600781106118455761184461516c565b5b6020020181815250506118926000856002600681106118675761186661516c565b5b60200201517f30644e72e131a029b85045b68181585d2833e84879b9709143e1f593f0000001614171565b816005600781106118a6576118a561516c565b5b6020020181815250507f30644e72e131a029b85045b68181585d2833e84879b9709143e1f593f0000001806118de576118dd615846565b5b6119226000896004600781106118f7576118f661516c565b5b60200201517f30644e72e131a029b85045b68181585d2833e84879b9709143e1f593f0000001614171565b8d60a0015160008151811061193a5761193961516c565b5b602002602001015109816006600781106119575761195661516c565b5b6020020181815250508b600001516003815181106119785761197761516c565b5b6020026020010151826001600481106119945761199361516c565b5b6020020181905250611a106119e9826001600781106119b6576119b561516c565b5b60200201518e600001516001815181106119d3576119d261516c565b5b602002602001015161419990919063ffffffff16565b836001600481106119fd576119fc61516c565b5b602002015161423b90919063ffffffff16565b82600160048110611a2457611a2361516c565b5b6020020181905250611aa0611a7982600360078110611a4657611a4561516c565b5b60200201518e60000151600081518110611a6357611a6261516c565b5b602002602001015161419990919063ffffffff16565b83600160048110611a8d57611a8c61516c565b5b602002015161423b90919063ffffffff16565b82600160048110611ab457611ab361516c565b5b6020020181905250611b30611b0982600560078110611ad657611ad561516c565b5b60200201518e60200151600281518110611af357611af261516c565b5b602002602001015161419990919063ffffffff16565b83600160048110611b1d57611b1c61516c565b5b602002015161423b90919063ffffffff16565b82600160048110611b4457611b4361516c565b5b6020020181905250611ba783600160048110611b6357611b6261516c565b5b602002015182600260078110611b7c57611b7b61516c565b5b60200201517f30644e72e131a029b85045b68181585d2833e84879b9709143e1f593f0000001614171565b83600160048110611bbb57611bba61516c565b5b602002018181525050611c1f83600160048110611bdb57611bda61516c565b5b602002015182600460078110611bf457611bf361516c565b5b60200201517f30644e72e131a029b85045b68181585d2833e84879b9709143e1f593f0000001614171565b83600160048110611c3357611c3261516c565b5b602002018181525050611c9783600160048110611c5357611c5261516c565b5b602002015182600660078110611c6c57611c6b61516c565b5b60200201517f30644e72e131a029b85045b68181585d2833e84879b9709143e1f593f0000001614171565b83600160048110611cab57611caa61516c565b5b6020020181815250505080600060048110611cc957611cc861516c565b5b602002015185600060028110611ce257611ce161516c565b5b602002018190525081600060048110611cfe57611cfd61516c565b5b602002015184600060028110611d1757611d1661516c565b5b602002018181525050600086600660078110611d3657611d3561516c565b5b602002015190506000611d8c611d79611d7486600060048110611d5c57611d5b61516c565b5b60200201518e6040015161419990919063ffffffff16565b614303565b8e6040015161423b90919063ffffffff16565b9050611da1828261419990919063ffffffff16565b9050611dce8188600060028110611dbb57611dba61516c565b5b602002015161423b90919063ffffffff16565b87600060028110611de257611de161516c565b5b6020020181905250507f30644e72e131a029b85045b68181585d2833e84879b9709143e1f593f000000180611e1a57611e19615846565b5b87600660078110611e2e57611e2d61516c565b5b602002015182099050611e8c611e658284600160048110611e5257611e5161516c565b5b602002015161419990919063ffffffff16565b87600060028110611e7957611e7861516c565b5b602002015161423b90919063ffffffff16565b86600060028110611ea057611e9f61516c565b5b60200201819052507f30644e72e131a029b85045b68181585d2833e84879b9709143e1f593f000000180611ed757611ed6615846565b5b7f30644e72e131a029b85045b68181585d2833e84879b9709143e1f593f000000180611f0657611f05615846565b5b8285600160048110611f1b57611f1a61516c565b5b60200201510986600060028110611f3557611f3461516c565b5b60200201510885600060028110611f4f57611f4e61516c565b5b6020020181815250507f30644e72e131a029b85045b68181585d2833e84879b9709143e1f593f000000180611f8757611f86615846565b5b87600660078110611f9b57611f9a61516c565b5b602002015182099050611ff9611fd28284600260048110611fbf57611fbe61516c565b5b602002015161419990919063ffffffff16565b87600060028110611fe657611fe561516c565b5b602002015161423b90919063ffffffff16565b8660006002811061200d5761200c61516c565b5b60200201819052507f30644e72e131a029b85045b68181585d2833e84879b9709143e1f593f00000018061204457612043615846565b5b7f30644e72e131a029b85045b68181585d2833e84879b9709143e1f593f00000018061207357612072615846565b5b82856002600481106120885761208761516c565b5b602002015109866000600281106120a2576120a161516c565b5b602002015108856000600281106120bc576120bb61516c565b5b6020020181815250507f30644e72e131a029b85045b68181585d2833e84879b9709143e1f593f0000001806120f4576120f3615846565b5b876006600781106121085761210761516c565b5b60200201518209905061216661213f828460036004811061212c5761212b61516c565b5b602002015161419990919063ffffffff16565b876000600281106121535761215261516c565b5b602002015161423b90919063ffffffff16565b8660006002811061217a5761217961516c565b5b60200201819052507f30644e72e131a029b85045b68181585d2833e84879b9709143e1f593f0000001806121b1576121b0615846565b5b7f30644e72e131a029b85045b68181585d2833e84879b9709143e1f593f0000001806121e0576121df615846565b5b82856003600481106121f5576121f461516c565b5b6020020151098660006002811061220f5761220e61516c565b5b602002015108856000600281106122295761222861516c565b5b60200201818152505050505061223d614a3f565b612245614a12565b8a60a0015160018151811061225d5761225c61516c565b5b6020026020010151826000600281106122795761227861516c565b5b6020020181815250508a6060015160008151811061229a5761229961516c565b5b6020026020010151816000600281106122b6576122b561516c565b5b60200201819052506122c6614ad2565b60007f30644e72e131a029b85045b68181585d2833e84879b9709143e1f593f0000001806122f7576122f6615846565b5b8560026006811061230b5761230a61516c565b5b6020020151866001600681106123245761232361516c565b5b60200201510990507f30644e72e131a029b85045b68181585d2833e84879b9709143e1f593f00000018061235b5761235a615846565b5b81896001600781106123705761236f61516c565b5b6020020151098260006008811061238a5761238961516c565b5b6020020181815250507f30644e72e131a029b85045b68181585d2833e84879b9709143e1f593f0000001806123c2576123c1615846565b5b81896002600781106123d7576123d661516c565b5b602002015109826001600881106123f1576123f061516c565b5b6020020181815250507f30644e72e131a029b85045b68181585d2833e84879b9709143e1f593f00000018061242957612428615846565b5b818960036007811061243e5761243d61516c565b5b602002015109826002600881106124585761245761516c565b5b6020020181815250505060007f30644e72e131a029b85045b68181585d2833e84879b9709143e1f593f00000018061249357612492615846565b5b8d60a001516001815181106124ab576124aa61516c565b5b6020026020010151896005600781106124c7576124c661516c565b5b60200201510990507f30644e72e131a029b85045b68181585d2833e84879b9709143e1f593f0000001806124fe576124fd615846565b5b7f30644e72e131a029b85045b68181585d2833e84879b9709143e1f593f00000018061252d5761252c615846565b5b612539624000006143a8565b8f60a001516002815181106125515761255061516c565b5b602002602001015109820890507f30644e72e131a029b85045b68181585d2833e84879b9709143e1f593f00000018061258d5761258c615846565b5b61261a60007f30644e72e131a029b85045b68181585d2833e84879b9709143e1f593f0000001806125c1576125c0615846565b5b8b6000600781106125d5576125d461516c565b5b60200201518c6004600781106125ee576125ed61516c565b5b6020020151097f30644e72e131a029b85045b68181585d2833e84879b9709143e1f593f0000001614171565b8209826003600881106126305761262f61516c565b5b6020020181815250507f30644e72e131a029b85045b68181585d2833e84879b9709143e1f593f00000018061266857612667615846565b5b8860006007811061267c5761267b61516c565b5b60200201518209826004600881106126975761269661516c565b5b6020020181815250507f30644e72e131a029b85045b68181585d2833e84879b9709143e1f593f0000001806126cf576126ce615846565b5b886004600781106126e3576126e261516c565b5b60200201518209826005600881106126fe576126fd61516c565b5b6020020181815250506127336000827f30644e72e131a029b85045b68181585d2833e84879b9709143e1f593f0000001614171565b826006600881106127475761274661516c565b5b6020020181815250505061279560008560056006811061276a5761276961516c565b5b60200201517f30644e72e131a029b85045b68181585d2833e84879b9709143e1f593f0000001614171565b816007600881106127a9576127a861516c565b5b6020020181815250506127fc816000600881106127c9576127c861516c565b5b60200201518b600001516002815181106127e6576127e561516c565b5b602002602001015161419990919063ffffffff16565b826001600281106128105761280f61516c565b5b602002018190525061288c612865826001600881106128325761283161516c565b5b60200201518c6000015160038151811061284f5761284e61516c565b5b602002602001015161419990919063ffffffff16565b836001600281106128795761287861516c565b5b602002015161423b90919063ffffffff16565b826001600281106128a05761289f61516c565b5b602002018190525061291c6128f5826002600881106128c2576128c161516c565b5b60200201518c600001516004815181106128df576128de61516c565b5b602002602001015161419990919063ffffffff16565b836001600281106129095761290861516c565b5b602002015161423b90919063ffffffff16565b826001600281106129305761292f61516c565b5b60200201819052506129ac612985826004600881106129525761295161516c565b5b60200201518c6000015160008151811061296f5761296e61516c565b5b602002602001015161419990919063ffffffff16565b836001600281106129995761299861516c565b5b602002015161423b90919063ffffffff16565b826001600281106129c0576129bf61516c565b5b6020020181905250612a3c612a15826005600881106129e2576129e161516c565b5b60200201518c600001516001815181106129ff576129fe61516c565b5b602002602001015161419990919063ffffffff16565b83600160028110612a2957612a2861516c565b5b602002015161423b90919063ffffffff16565b82600160028110612a5057612a4f61516c565b5b6020020181905250612acc612aa582600660088110612a7257612a7161516c565b5b60200201518c60000151600581518110612a8f57612a8e61516c565b5b602002602001015161419990919063ffffffff16565b83600160028110612ab957612ab861516c565b5b602002015161423b90919063ffffffff16565b82600160028110612ae057612adf61516c565b5b6020020181905250612b5c612b3582600760088110612b0257612b0161516c565b5b60200201518e60600151600181518110612b1f57612b1e61516c565b5b602002602001015161419990919063ffffffff16565b83600160028110612b4957612b4861516c565b5b602002015161423b90919063ffffffff16565b82600160028110612b7057612b6f61516c565b5b6020020181905250612bbc600082600360088110612b9157612b9061516c565b5b60200201517f30644e72e131a029b85045b68181585d2833e84879b9709143e1f593f0000001614171565b83600160028110612bd057612bcf61516c565b5b6020020181815250505080600060028110612bee57612bed61516c565b5b602002015185600160028110612c0757612c0661516c565b5b602002018190525081600060028110612c2357612c2261516c565b5b602002015184600160028110612c3c57612c3b61516c565b5b602002018181525050600086600660078110612c5b57612c5a61516c565b5b602002015190506000612cb1612c9e612c9986600060028110612c8157612c8061516c565b5b60200201518e6060015161419990919063ffffffff16565b614303565b8e6080015161423b90919063ffffffff16565b9050612cc6828261419990919063ffffffff16565b9050612cf38188600160028110612ce057612cdf61516c565b5b602002015161423b90919063ffffffff16565b87600160028110612d0757612d0661516c565b5b6020020181905250507f30644e72e131a029b85045b68181585d2833e84879b9709143e1f593f000000180612d3f57612d3e615846565b5b87600660078110612d5357612d5261516c565b5b602002015182099050612db1612d8a8284600160028110612d7757612d7661516c565b5b602002015161419990919063ffffffff16565b87600160028110612d9e57612d9d61516c565b5b602002015161423b90919063ffffffff16565b86600160028110612dc557612dc461516c565b5b60200201819052507f30644e72e131a029b85045b68181585d2833e84879b9709143e1f593f000000180612dfc57612dfb615846565b5b7f30644e72e131a029b85045b68181585d2833e84879b9709143e1f593f000000180612e2b57612e2a615846565b5b8285600160028110612e4057612e3f61516c565b5b60200201510986600160028110612e5a57612e5961516c565b5b60200201510885600160028110612e7457612e7361516c565b5b60200201818152505050505050600082600060028110612e9757612e9661516c565b5b60200201516000015183600060028110612eb457612eb361516c565b5b60200201516020015184600160028110612ed157612ed061516c565b5b60200201516000015185600160028110612eee57612eed61516c565b5b60200201516020015189604051602001612f0c9594939291906158d8565b6040516020818303038152906040528051906020012060001c9050612f2f614af5565b612f37614a12565b612f90612f6987600460078110612f5157612f5061516c565b5b60200201518d60c0015161419990919063ffffffff16565b86600060028110612f7d57612f7c61516c565b5b602002015161423b90919063ffffffff16565b81600060028110612fa457612fa361516c565b5b6020020181905250613006612fdf87600560078110612fc657612fc561516c565b5b60200201518d610100015161419990919063ffffffff16565b86600160028110612ff357612ff261516c565b5b602002015161423b90919063ffffffff16565b8160016002811061301a5761301961516c565b5b6020020181905250613077613050848360016002811061303d5761303c61516c565b5b602002015161419990919063ffffffff16565b826000600281106130645761306361516c565b5b602002015161423b90919063ffffffff16565b91505060006130aa613097848d610100015161419990919063ffffffff16565b8c60c0015161423b90919063ffffffff16565b905060007f30644e72e131a029b85045b68181585d2833e84879b9709143e1f593f0000001806130dd576130dc615846565b5b7f30644e72e131a029b85045b68181585d2833e84879b9709143e1f593f00000018061310c5761310b615846565b5b85876001600281106131215761312061516c565b5b6020020151098660006002811061313b5761313a61516c565b5b6020020151089050613178613169613164838d602001516000015161419990919063ffffffff16565b614303565b8461423b90919063ffffffff16565b92506131b36131a461319f8e60e001518d602001516020015161419990919063ffffffff16565b614303565b8461423b90919063ffffffff16565b925060006131db6131c384614303565b8c6020015160600151868e60200151604001516143fc565b9050809b50505050505050505050505092915050565b6131f9614b0f565b600667ffffffffffffffff81111561321457613213614c40565b5b60405190808252806020026020018201604052801561324d57816020015b61323a614af5565b8152602001906001900390816132325790505b50816000018190525060405180604001604052807f09b7ca7f80643c00ab84c367dd7c014c411081aba47ff8bbf7457267c07f343b81526020017f15c04b7215d4751a9a6bc65e67946d2fdf181e9910f766637b3513eeec7bbba381525081600001516000815181106132c3576132c261516c565b5b602002602001018190525060405180604001604052807f012af0ad30c32282c9f4ce44774750b781b798b92fc3b381c833e72d572aa69381526020017f03630a6613a8c022fb5bdbf3b308f8f916b3459fca0dc9882077d381a32228a3815250816000015160018151811061333b5761333a61516c565b5b602002602001018190525060405180604001604052807f1d498a57cc6793de6fb1d584f495e4fd4db43aea1be1f434d7f0eb448cdda3e581526020017f28339407efb26ecdbf7b7e8954e34519c3c25b2379b1161bd5901b624498032681525081600001516002815181106133b3576133b261516c565b5b602002602001018190525060405180604001604052807f158a5ecdbeed3662afdc09a7d106d8c6c3d126aa1bb7d16d6a61f9de93521d9d81526020017f0ee53295e6e55341acef6cee34ead48957b37b0175405743504fb902a8df4559815250816000015160038151811061342b5761342a61516c565b5b602002602001018190525060405180604001604052807f0569ea3a42f1262fb7a748ae8266c1ca0ceb11bd07e452f4b82db7202e73b9ce81526020017f06e208eaadd0bbec60ece0121027c87e8b4d255293744044675a0821602034d081525081600001516004815181106134a3576134a261516c565b5b602002602001018190525060405180604001604052807f2f5708e968910e2fded925f63ef5e121f38e0fa4b8abca2a737b8d31d43eb93381526020017f0e9bc8402a0efb9535fc4b9563f1075f821d67b7995ac69660dcc388ca14f7f8815250816000015160058151811061351b5761351a61516c565b5b602002602001018190525060405180604001604052807f2e26adfe66fe7ba43ad7de86e921214965c935513b6b3e117eed5c49529df43081526020017f01e1ff151bf133b24d3d2c0b48d615d280604465cd74ba599a1866d467390b4381525081602001516000018190525060405180604001604052807e5a7ccbdfe61ffb88f26b9104952ee8397e682695ad98de92e82eebffaebd6b81526020017f0b501f33dfa33901a68be7f69f8b8ef8da80da7e7f798d18f41eae84974ebdb4815250816020015160200181905250604051806040016040528060405180604001604052807f01f0375c0049e79789e570a23999bd4a772c16ba004ed44e2af28e0442b5f64f81526020017f18d327455b14bf79ea81f290fdb214aad9cb99a819bd8530439ac5a5e280b522815250815260200160405180604001604052807f12941b425ad951d75f3f356e0c64c213b05747f94f90deb6485d53cf81581d4f81526020017f09a08d8dcfd5ba5d0c110a08a1dae2e3e5fa0732e9476ec20873916d165cd9db815250815250816020015160400181905250604051806040016040528060405180604001604052807f138372f9b5f3f2a2affbd51379d1c3bc18e68b0c068b5098aed5af5e6ad5db6981526020017f15cf3f836b4ab57f52ddeaea346e16576db3818b91915bb8c958304dc88528f8815250815260200160405180604001604052807f172393eb63b889f28fc573e54fa74d90f326b5bd34650cc8529177028e4e45f581526020017f24a46e6042e02ad7be5fe45478dac5216dea2c02d94788d821401e6b5522e74b81525081525081602001516060018190525060405180604001604052807f1433c34c309bd1482fd0cd815c63fe5882a2b7d18753c5a5941ab119e3bf6eb381526020017f231f0bdbcf41e1bbbfaf7a664904ced941933a2b0686879c13825c315c821d31815250816040018190525060405180604001604052807f0f76dedd75eff6dfc1f283967f6452ed091aed0908fd019d1e6b1b971688f0a181526020017f20d1bc3f70b453cdf04de8900bfa3203a55213441524ad925cc4287d00677f73815250816060018190525090565b600081905060087eff00ff00ff00ff00ff00ff00ff00ff00ff00ff00ff00ff00ff00ff00ff00ff8216901b60087fff00ff00ff00ff00ff00ff00ff00ff00ff00ff00ff00ff00ff00ff00ff00ff008316901c17905060107dffff0000ffff0000ffff0000ffff0000ffff0000ffff0000ffff0000ffff8216901b60107fffff0000ffff0000ffff0000ffff0000ffff0000ffff0000ffff0000ffff00008316901c17905060207bffffffff00000000ffffffff00000000ffffffff00000000ffffffff8216901b60207fffffffff00000000ffffffff00000000ffffffff00000000ffffffff000000008316901c179050604077ffffffffffffffff0000000000000000ffffffffffffffff8216901b60407fffffffffffffffff0000000000000000ffffffffffffffff00000000000000008316901c179050608081901b608082901c179050919050565b6000805b600115613a7a57600080600090505b6004811015613a0f5760408160036139ad91906158a4565b6139b79190615937565b67ffffffffffffffff87876040516020016139d39291906159bf565b6040516020818303038152906040528051906020012060001c16901b82179150600185613a0091906159eb565b94508080600101915050613995565b50613a1981613836565b90507f3fffffffffffffffffffffffffffffffffffffffffffffffffffffffffffffff811690507f30644e72e131a029b85045b68181585d2833e84879b9709143e1f593f0000001811015613a745780849250925050613a7b565b50613986565b5b9250929050565b6000613ada613ab284847f30644e72e131a029b85045b68181585d2833e84879b9709143e1f593f0000001614545565b60017f30644e72e131a029b85045b68181585d2833e84879b9709143e1f593f0000001614171565b905092915050565b6000613aec614a83565b613af4614a83565b60005b6004811015613b995767ffffffffffffffff604082613b169190615937565b86901c16838260048110613b2d57613b2c61516c565b5b60200201818152505067ffffffffffffffff604082613b4c9190615937565b7f30644e72e131a029b85045b68181585d2833e84879b9709143e1f593f0000001901c16828260048110613b8357613b8261516c565b5b6020020181815250508080600101915050613af7565b5060005b6004811015613d405760006801000000000000000080613bc057613bbf615846565b5b67c2e1f593efffffff858460048110613bdc57613bdb61516c565b5b6020020151099050600060408185600060048110613bfd57613bfc61516c565b5b602002015184613c0d9190615937565b878660048110613c2057613c1f61516c565b5b6020020151613c2f9190615a23565b613c399190615a23565b901c905060005b6004811015613d0757600082868360048110613c5f57613c5e61516c565b5b602002015185613c6f9190615937565b8860048589613c7e9190615a23565b613c889190615a57565b60048110613c9957613c9861516c565b5b6020020151613ca89190615a23565b613cb29190615a23565b905067ffffffffffffffff81168760048488613cce9190615a23565b613cd89190615a57565b60048110613ce957613ce861516c565b5b602002018181525050604081901c9250508080600101915050613c40565b508085600485613d179190615a57565b60048110613d2857613d2761516c565b5b60200201818152505050508080600101915050613b9d565b5060005b6004811015613d8f57604081613d5a9190615937565b67ffffffffffffffff848360048110613d7657613d7561516c565b5b602002015116901b841793508080600101915050613d44565b505050919050565b600080600080600090505b6002811015613e1c576040816003613dba91906158a4565b613dc49190615937565b67ffffffffffffffff8787604051602001613de09291906159bf565b6040516020818303038152906040528051906020012060001c16901b82179150600185613e0d91906159eb565b94508080600101915050613da2565b50613e2681613836565b9050808492509250509250929050565b6000828403613e4457600080fd5b6000613e83613e538685613a82565b613e5d8686613a82565b7f30644e72e131a029b85045b68181585d2833e84879b9709143e1f593f0000001614171565b90507f30644e72e131a029b85045b68181585d2833e84879b9709143e1f593f000000180613eb457613eb3615846565b5b613ee7613ee287877f30644e72e131a029b85045b68181585d2833e84879b9709143e1f593f0000001614171565b6143a8565b82099150509392505050565b613efb614b49565b613f03614b49565b60006020905060007f09c532c6306b93d29678200d47c0b2a99c18d51b838eeb1d3eed4c533bb512d090506000613f3a8684613a82565b90506000613f47836143a8565b905060008203613fde5760006001905060005b85811015613fd757888203613f96576001878260208110613f7e57613f7d61516c565b5b6020020181815250508697505050505050505061416c565b7f30644e72e131a029b85045b68181585d2833e84879b9709143e1f593f000000180613fc557613fc4615846565b5b85830991508080600101915050613f5a565b5050614166565b60007f30644e72e131a029b85045b68181585d2833e84879b9709143e1f593f00000018061400f5761400e615846565b5b85614019856143a8565b09905060006001905060005b86811015614156577f30644e72e131a029b85045b68181585d2833e84879b9709143e1f593f00000018061405c5761405b615846565b5b836140888c857f30644e72e131a029b85045b68181585d2833e84879b9709143e1f593f0000001614171565b0988826020811061409c5761409b61516c565b5b6020020181815250506140c58882602081106140bb576140ba61516c565b5b60200201516143a8565b8882602081106140d8576140d761516c565b5b6020020181815250507f30644e72e131a029b85045b68181585d2833e84879b9709143e1f593f0000001806141105761410f615846565b5b84840992507f30644e72e131a029b85045b68181585d2833e84879b9709143e1f593f00000018061414457614143615846565b5b86830991508080600101915050614025565b508697505050505050505061416c565b50505050505b919050565b6000818061418257614181615846565b5b838361418e91906158a4565b850890509392505050565b6141a1614af5565b6141a9614b6c565b8360000151816000600381106141c2576141c161516c565b5b6020020181815250508360200151816001600381106141e4576141e361516c565b5b60200201818152505082816002600381106142025761420161516c565b5b602002018181525050600060608360808460076107d05a03fa9050806000810361422857fe5b508061423357600080fd5b505092915050565b614243614af5565b61424b614a83565b8360000151816000600481106142645761426361516c565b5b6020020181815250508360200151816001600481106142865761428561516c565b5b6020020181815250508260000151816002600481106142a8576142a761516c565b5b6020020181815250508260200151816003600481106142ca576142c961516c565b5b602002018181525050600060608360c08460066107d05a03fa905080600081036142f057fe5b50806142fb57600080fd5b505092915050565b61430b614af5565b60007f30644e72e131a029b85045b68181585d97816a916871ca8d3c208c16d87cfd47905060008360000151148015614348575060008360200151145b1561436c5760405180604001604052806000815260200160008152509150506143a3565b6040518060400160405280846000015181526020018285602001516143919190615a57565b8361439c91906158a4565b8152509150505b919050565b60006143f5827f30644e72e131a029b85045b68181585d2833e84879b9709143e1f593efffffff7f30644e72e131a029b85045b68181585d2833e84879b9709143e1f593f0000001614545565b9050919050565b600080600267ffffffffffffffff81111561441a57614419614c40565b5b60405190808252806020026020018201604052801561445357816020015b614440614af5565b8152602001906001900390816144385790505b5090506000600267ffffffffffffffff81111561447357614472614c40565b5b6040519080825280602002602001820160405280156144ac57816020015b614499614b8e565b8152602001906001900390816144915790505b50905086826000815181106144c4576144c361516c565b5b602002602001018190525084826001815181106144e4576144e361516c565b5b602002602001018190525085816000815181106145045761450361516c565b5b602002602001018190525083816001815181106145245761452361516c565b5b6020026020010181905250614539828261465a565b92505050949350505050565b600080614550614bb4565b614558614a61565b60208160006006811061456e5761456d61516c565b5b60200201818152505060208160016006811061458d5761458c61516c565b5b6020020181815250506020816002600681106145ac576145ab61516c565b5b60200201818152505086816003600681106145ca576145c961516c565b5b60200201818152505085816004600681106145e8576145e761516c565b5b60200201818152505084816005600681106146065761460561516c565b5b60200201818152505060208260c08360056107d05a03fa9250826000810361462a57fe5b508261463557600080fd5b816000600181106146495761464861516c565b5b602002015193505050509392505050565b6000815183511461466a57600080fd5b600083519050600060068261467f9190615937565b905060008167ffffffffffffffff81111561469d5761469c614c40565b5b6040519080825280602002602001820160405280156146cb5781602001602082028036833780820191505090505b50905060005b8381101561494a578681815181106146ec576146eb61516c565b5b6020026020010151600001518260006006846147089190615937565b6147129190615a23565b815181106147235761472261516c565b5b6020026020010181815250508681815181106147425761474161516c565b5b60200260200101516020015182600160068461475e9190615937565b6147689190615a23565b815181106147795761477861516c565b5b6020026020010181815250508581815181106147985761479761516c565b5b6020026020010151600001516001600281106147b7576147b661516c565b5b60200201518260026006846147cc9190615937565b6147d69190615a23565b815181106147e7576147e661516c565b5b6020026020010181815250508581815181106148065761480561516c565b5b6020026020010151600001516000600281106148255761482461516c565b5b602002015182600360068461483a9190615937565b6148449190615a23565b815181106148555761485461516c565b5b6020026020010181815250508581815181106148745761487361516c565b5b6020026020010151602001516001600281106148935761489261516c565b5b60200201518260046006846148a89190615937565b6148b29190615a23565b815181106148c3576148c261516c565b5b6020026020010181815250508581815181106148e2576148e161516c565b5b6020026020010151602001516000600281106149015761490061516c565b5b60200201518260056006846149169190615937565b6149209190615a23565b815181106149315761493061516c565b5b60200260200101818152505080806001019150506146d1565b50614953614bb4565b6000602082602086026020860160086107d05a03fa9050806000810361497557fe5b508061498057600080fd5b6000826000600181106149965761499561516c565b5b602002015114159550505050505092915050565b604051806103e00160405280601f90602082028036833780820191505090505090565b604051806103200160405280601990602082028036833780820191505090505090565b6040518060e00160405280600790602082028036833780820191505090505090565b60405180604001604052806002905b614a29614af5565b815260200190600190039081614a215790505090565b6040518060400160405280600290602082028036833780820191505090505090565b6040518060c00160405280600690602082028036833780820191505090505090565b6040518060800160405280600490602082028036833780820191505090505090565b60405180608001604052806004905b614abc614af5565b815260200190600190039081614ab45790505090565b604051806101000160405280600890602082028036833780820191505090505090565b604051806040016040528060008152602001600081525090565b604051806080016040528060608152602001614b29614bd6565b8152602001614b36614af5565b8152602001614b43614af5565b81525090565b604051806104000160405280602090602082028036833780820191505090505090565b6040518060600160405280600390602082028036833780820191505090505090565b6040518060400160405280614ba1614a3f565b8152602001614bae614a3f565b81525090565b6040518060200160405280600190602082028036833780820191505090505090565b6040518060800160405280614be9614af5565b8152602001614bf6614af5565b8152602001614c03614b8e565b8152602001614c10614b8e565b81525090565b6000604051905090565b600080fd5b600080fd5b600080fd5b6000601f19601f8301169050919050565b7f4e487b7100000000000000000000000000000000000000000000000000000000600052604160045260246000fd5b614c7882614c2f565b810181811067ffffffffffffffff82111715614c9757614c96614c40565b5b80604052505050565b6000614caa614c16565b9050614cb68282614c6f565b919050565b600080fd5b600080fd5b600067ffffffffffffffff821115614ce057614cdf614c40565b5b602082029050602081019050919050565b600080fd5b6000819050919050565b614d0981614cf6565b8114614d1457600080fd5b50565b600081359050614d2681614d00565b92915050565b600060408284031215614d4257614d41614c2a565b5b614d4c6040614ca0565b90506000614d5c84828501614d17565b6000830152506020614d7084828501614d17565b60208301525092915050565b6000614d8f614d8a84614cc5565b614ca0565b90508083825260208201905060408402830185811115614db257614db1614cf1565b5b835b81811015614ddb5780614dc78882614d2c565b845260208401935050604081019050614db4565b5050509392505050565b600082601f830112614dfa57614df9614cc0565b5b8135614e0a848260208601614d7c565b91505092915050565b600067ffffffffffffffff821115614e2e57614e2d614c40565b5b602082029050602081019050919050565b6000614e52614e4d84614e13565b614ca0565b90508083825260208201905060208402830185811115614e7557614e74614cf1565b5b835b81811015614e9e5780614e8a8882614d17565b845260208401935050602081019050614e77565b5050509392505050565b600082601f830112614ebd57614ebc614cc0565b5b8135614ecd848260208601614e3f565b91505092915050565b60006101a08284031215614eed57614eec614c2a565b5b614ef8610120614ca0565b9050600082013567ffffffffffffffff811115614f1857614f17614cbb565b5b614f2484828501614de5565b600083015250602082013567ffffffffffffffff811115614f4857614f47614cbb565b5b614f5484828501614de5565b6020830152506040614f6884828501614d2c565b604083015250608082013567ffffffffffffffff811115614f8c57614f8b614cbb565b5b614f9884828501614de5565b60608301525060a0614fac84828501614d2c565b60808301525060e082013567ffffffffffffffff811115614fd057614fcf614cbb565b5b614fdc84828501614ea8565b60a083015250610100614ff184828501614d2c565b60c08301525061014061500684828501614d17565b60e08301525061016061501b84828501614d2c565b6101008301525092915050565b600067ffffffffffffffff82111561504357615042614c40565b5b602082029050919050565b600061506161505c84615028565b614ca0565b9050806020840283018581111561507b5761507a614cf1565b5b835b818110156150a457806150908882614d17565b84526020840193505060208101905061507d565b5050509392505050565b600082601f8301126150c3576150c2614cc0565b5b60186150d084828561504e565b91505092915050565b60008061032083850312156150f1576150f0614c20565b5b600083013567ffffffffffffffff81111561510f5761510e614c25565b5b61511b85828601614ed6565b925050602061512c858286016150ae565b9150509250929050565b60008115159050919050565b61514b81615136565b82525050565b60006020820190506151666000830184615142565b92915050565b7f4e487b7100000000000000000000000000000000000000000000000000000000600052603260045260246000fd5b600060189050919050565b600081905092915050565b6000819050919050565b6151c481614cf6565b82525050565b60006151d683836151bb565b60208301905092915050565b6000602082019050919050565b6151f88161519b565b61520281846151a6565b925061520d826151b1565b8060005b8381101561523e57815161522587826151ca565b9650615230836151e2565b925050600181019050615211565b505050505050565b60006103208201905061525c6000830185615142565b61526960208301846151ef565b9392505050565b600060199050919050565b600081905092915050565b6000819050919050565b6000819050919050565b6152a381615290565b82525050565b60006152b5838361529a565b60208301905092915050565b6000602082019050919050565b6152d781615270565b6152e1818461527b565b92506152ec82615286565b8060005b8381101561531d57815161530487826152a9565b965061530f836152c1565b9250506001810190506152f0565b505050505050565b60007fffffffffffffffffffffffffffffffffffffffffff000000000000000000000082169050919050565b6000819050919050565b61536c61536782615325565b615351565b82525050565b6000601f9050919050565b600081905092915050565b6000819050919050565b61539b81614cf6565b82525050565b60006153ad8383615392565b60208301905092915050565b6000602082019050919050565b6153cf81615372565b6153d9818461537d565b92506153e482615388565b8060005b838110156154155781516153fc87826153a1565b9650615407836153b9565b9250506001810190506153e8565b505050505050565b600061542982866152ce565b6103208201915061543a828561535b565b60158201915061544a82846153c6565b6103e082019150819050949350505050565b6000819050919050565b61547761547282614cf6565b61545c565b82525050565b600060ff82169050919050565b60008160f81b9050919050565b60006154a28261548a565b9050919050565b6154ba6154b58261547d565b615497565b82525050565b600060029050919050565b600081905092915050565b6000819050919050565b6000602082019050919050565b6154f6816154c0565b61550081846154cb565b925061550b826154d6565b8060005b8381101561553c57815161552387826153a1565b965061552e836154e0565b92505060018101905061550f565b505050505050565b60006155508289615466565b6020820191506155608288615466565b60208201915061557082876154a9565b60018201915061558082866154a9565b60018201915061559082856154ed565b6040820191506155a082846154a9565b600182019150819050979650505050505050565b600081519050919050565b600081905092915050565b60005b838110156155e85780820151818401526020810190506155cd565b60008484015250505050565b60006155ff826155b4565b61560981856155bf565b93506156198185602086016155ca565b80840191505092915050565b6000819050919050565b61564061563b82615290565b615625565b82525050565b600061565282886155f4565b915061565e82876155f4565b915061566a82866155f4565b915061567682856155f4565b9150615682828461562f565b6020820191508190509695505050505050565b60006156a1828a615466565b6020820191506156b18289615466565b6020820191506156c182886154a9565b6001820191506156d182876154a9565b6001820191506156e18286615466565b6020820191506156f18285615466565b60208201915061570182846154a9565b60018201915081905098975050505050505050565b600061572282876155f4565b915061572e82866155f4565b915061573a82856155f4565b9150615746828461562f565b60208201915081905095945050505050565b600061576482866155f4565b915061577082856155f4565b915061577c828461562f565b602082019150819050949350505050565b600081519050919050565b600081905092915050565b6000819050602082019050919050565b6000602082019050919050565b60006157cb8261578d565b6157d58185615798565b93506157e0836157a3565b8060005b838110156158115781516157f888826153a1565b9750615803836157b3565b9250506001810190506157e4565b5085935050505092915050565b600061582a82856157c0565b9150615836828461562f565b6020820191508190509392505050565b7f4e487b7100000000000000000000000000000000000000000000000000000000600052601260045260246000fd5b7f4e487b7100000000000000000000000000000000000000000000000000000000600052601160045260246000fd5b60006158af82614cf6565b91506158ba83614cf6565b92508282039050818111156158d2576158d1615875565b5b92915050565b60006158e48288615466565b6020820191506158f48287615466565b6020820191506159048286615466565b6020820191506159148285615466565b602082019150615924828461562f565b6020820191508190509695505050505050565b600061594282614cf6565b915061594d83614cf6565b925082820261595b81614cf6565b9150828204841483151761597257615971615875565b5b5092915050565b600063ffffffff82169050919050565b60008160e01b9050919050565b60006159a182615989565b9050919050565b6159b96159b482615979565b615996565b82525050565b60006159cb828561562f565b6020820191506159db82846159a8565b6004820191508190509392505050565b60006159f682615979565b9150615a0183615979565b9250828201905063ffffffff811115615a1d57615a1c615875565b5b92915050565b6000615a2e82614cf6565b9150615a3983614cf6565b9250828201905080821115615a5157615a50615875565b5b92915050565b6000615a6282614cf6565b9150615a6d83614cf6565b925082615a7d57615a7c615846565b5b82820690509291505056fea2646970667358221220fb9d1a02520bcda0c920c763126b1740ffc79b3acc3caecbfae21334a7407e5a64736f6c63430008180033",
          "opcodes": "PUSH1 0x80 PUSH1 0x40 MSTORE CALLVALUE DUP1 ISZERO PUSH2 0x10 JUMPI PUSH1 0x0 DUP1 REVERT JUMPDEST POP PUSH2 0x5ABE DUP1 PUSH3 0x21 PUSH1 0x0 CODECOPY PUSH1 0x0 RETURN INVALID PUSH1 0x80 PUSH1 0x40 MSTORE CALLVALUE DUP1 ISZERO PUSH2 0x10 JUMPI PUSH1 0x0 DUP1 REVERT JUMPDEST POP PUSH1 0x4 CALLDATASIZE LT PUSH2 0x2B JUMPI PUSH1 0x0 CALLDATALOAD PUSH1 0xE0 SHR DUP1 PUSH4 0xDFB2168F EQ PUSH2 0x30 JUMPI JUMPDEST PUSH1 0x0 DUP1 REVERT JUMPDEST PUSH2 0x4A PUSH1 0x4 DUP1 CALLDATASIZE SUB DUP2 ADD SWAP1 PUSH2 0x45 SWAP2 SWAP1 PUSH2 0x50D9 JUMP JUMPDEST PUSH2 0x60 JUMP JUMPDEST PUSH1 0x40 MLOAD PUSH2 0x57 SWAP2 SWAP1 PUSH2 0x5151 JUMP JUMPDEST PUSH1 0x40 MLOAD DUP1 SWAP2 SUB SWAP1 RETURN JUMPDEST PUSH1 0x0 PUSH2 0x6A PUSH2 0x49AA JUMP JUMPDEST PUSH1 0x0 JUMPDEST PUSH1 0x18 DUP2 LT ISZERO PUSH2 0xB7 JUMPI DUP4 DUP2 PUSH1 0x18 DUP2 LT PUSH2 0x89 JUMPI PUSH2 0x88 PUSH2 0x516C JUMP JUMPDEST JUMPDEST PUSH1 0x20 MUL ADD MLOAD DUP3 DUP3 PUSH1 0x1F DUP2 LT PUSH2 0xA1 JUMPI PUSH2 0xA0 PUSH2 0x516C JUMP JUMPDEST JUMPDEST PUSH1 0x20 MUL ADD DUP2 DUP2 MSTORE POP POP DUP1 DUP1 PUSH1 0x1 ADD SWAP2 POP POP PUSH2 0x6D JUMP JUMPDEST POP PUSH1 0x0 PUSH2 0xC4 DUP3 DUP7 PUSH2 0x111 JUMP JUMPDEST SWAP1 POP DUP1 ISZERO PUSH2 0x106 JUMPI PUSH32 0xC2174F6B49C0309425C616F874C514EB1CC8ED66990FA3154B33F9890DFF5866 DUP2 DUP6 PUSH1 0x40 MLOAD PUSH2 0xFD SWAP3 SWAP2 SWAP1 PUSH2 0x5246 JUMP JUMPDEST PUSH1 0x40 MLOAD DUP1 SWAP2 SUB SWAP1 LOG1 JUMPDEST DUP1 SWAP3 POP POP POP SWAP3 SWAP2 POP POP JUMP JUMPDEST PUSH1 0x0 DUP1 PUSH2 0x11C PUSH2 0x31F1 JUMP JUMPDEST SWAP1 POP PUSH1 0x0 JUMPDEST PUSH1 0x1F DUP2 LT ISZERO PUSH2 0x17A JUMPI PUSH32 0x30644E72E131A029B85045B68181585D2833E84879B9709143E1F593F0000001 DUP6 DUP3 PUSH1 0x1F DUP2 LT PUSH2 0x15E JUMPI PUSH2 0x15D PUSH2 0x516C JUMP JUMPDEST JUMPDEST PUSH1 0x20 MUL ADD MLOAD LT PUSH2 0x16D JUMPI PUSH1 0x0 DUP1 REVERT JUMPDEST DUP1 DUP1 PUSH1 0x1 ADD SWAP2 POP POP PUSH2 0x121 JUMP JUMPDEST POP PUSH1 0x0 DUP1 PUSH2 0x186 PUSH2 0x49CD JUMP JUMPDEST PUSH32 0x4D41524C494E2D32303139D570010000000000D570010000000000C1982C0000 PUSH1 0x0 SHL DUP2 PUSH1 0x0 PUSH1 0x19 DUP2 LT PUSH2 0x1BE JUMPI PUSH2 0x1BD PUSH2 0x516C JUMP JUMPDEST JUMPDEST PUSH1 0x20 MUL ADD DUP2 DUP2 MSTORE POP POP PUSH29 0x3B347FC0677245F7BBF87FA4AB8110414C017CDD67C384AB003C64807F PUSH1 0x0 SHL DUP2 PUSH1 0x1 PUSH1 0x19 DUP2 LT PUSH2 0x1FC JUMPI PUSH2 0x1FB PUSH2 0x516C JUMP JUMPDEST JUMPDEST PUSH1 0x20 MUL ADD DUP2 DUP2 MSTORE POP POP PUSH32 0xCAB709A3BB7BECEE13357B6366F710991E18DF2F6D94675EC66B9A1A75D41572 PUSH1 0x0 SHL DUP2 PUSH1 0x2 PUSH1 0x19 DUP2 LT PUSH2 0x23D JUMPI PUSH2 0x23C PUSH2 0x516C JUMP JUMPDEST JUMPDEST PUSH1 0x20 MUL ADD DUP2 DUP2 MSTORE POP POP PUSH32 0x4BC0150000000000000000000000000000000000000000000000000000000000 PUSH1 0x0 SHL DUP2 PUSH1 0x3 PUSH1 0x19 DUP2 LT PUSH2 0x27E JUMPI PUSH2 0x27D PUSH2 0x516C JUMP JUMPDEST JUMPDEST PUSH1 0x20 MUL ADD DUP2 DUP2 MSTORE POP POP PUSH27 0x10000000000000000000000000000000000000000000000000000 PUSH1 0x0 SHL DUP2 PUSH1 0x4 PUSH1 0x19 DUP2 LT PUSH2 0x2BA JUMPI PUSH2 0x2B9 PUSH2 0x516C JUMP JUMPDEST JUMPDEST PUSH1 0x20 MUL ADD DUP2 DUP2 MSTORE POP POP PUSH27 0x193A62A572DE733C881B3C32FB998B781B750477744CEF4C98222 PUSH1 0x0 SHL DUP2 PUSH1 0x5 PUSH1 0x19 DUP2 LT PUSH2 0x2F6 JUMPI PUSH2 0x2F5 PUSH2 0x516C JUMP JUMPDEST JUMPDEST PUSH1 0x20 MUL ADD DUP2 DUP2 MSTORE POP POP PUSH32 0xC330ADF02A01A32822A381D3772088C90DCA9F45B316F9F808B3F3DB5BFB22C0 PUSH1 0x0 SHL DUP2 PUSH1 0x6 PUSH1 0x19 DUP2 LT PUSH2 0x337 JUMPI PUSH2 0x336 PUSH2 0x516C JUMP JUMPDEST JUMPDEST PUSH1 0x20 MUL ADD DUP2 DUP2 MSTORE POP POP PUSH32 0xA813660A63030000000000000000000000000000000000000000000000000000 PUSH1 0x0 SHL DUP2 PUSH1 0x7 PUSH1 0x19 DUP2 LT PUSH2 0x378 JUMPI PUSH2 0x377 PUSH2 0x516C JUMP JUMPDEST JUMPDEST PUSH1 0x20 MUL ADD DUP2 DUP2 MSTORE POP POP PUSH24 0x10000000000000000000000000000000000000000000000 PUSH1 0x0 SHL DUP2 PUSH1 0x8 PUSH1 0x19 DUP2 LT PUSH2 0x3B1 JUMPI PUSH2 0x3B0 PUSH2 0x516C JUMP JUMPDEST JUMPDEST PUSH1 0x20 MUL ADD DUP2 DUP2 MSTORE POP POP PUSH24 0x1E5A3DD8C44EBF0D734F4E11BEA3AB44DFDE495F484D5B1 PUSH1 0x0 SHL DUP2 PUSH1 0x9 PUSH1 0x19 DUP2 LT PUSH2 0x3EA JUMPI PUSH2 0x3E9 PUSH2 0x516C JUMP JUMPDEST JUMPDEST PUSH1 0x20 MUL ADD DUP2 DUP2 MSTORE POP POP PUSH32 0x6FDE9367CC578A491D26039844621B90D51B16B179235BC2C31945E354897E7B PUSH1 0x0 SHL DUP2 PUSH1 0xA PUSH1 0x19 DUP2 LT PUSH2 0x42B JUMPI PUSH2 0x42A PUSH2 0x516C JUMP JUMPDEST JUMPDEST PUSH1 0x20 MUL ADD DUP2 DUP2 MSTORE POP POP PUSH32 0xBFCD6EB2EF079433280000000000000000000000000000000000000000000000 PUSH1 0x0 SHL DUP2 PUSH1 0xB PUSH1 0x19 DUP2 LT PUSH2 0x46C JUMPI PUSH2 0x46B PUSH2 0x516C JUMP JUMPDEST JUMPDEST PUSH1 0x20 MUL ADD DUP2 DUP2 MSTORE POP POP PUSH21 0x10000000000000000000000000000000000000000 PUSH1 0x0 SHL DUP2 PUSH1 0xC PUSH1 0x19 DUP2 LT PUSH2 0x4A2 JUMPI PUSH2 0x4A1 PUSH2 0x516C JUMP JUMPDEST JUMPDEST PUSH1 0x20 MUL ADD DUP2 DUP2 MSTORE POP POP PUSH21 0x19D1D5293DEF9616A6DD1B71BAA26D1C3C6D806D1 PUSH1 0x0 SHL DUP2 PUSH1 0xD PUSH1 0x19 DUP2 LT PUSH2 0x4D8 JUMPI PUSH2 0x4D7 PUSH2 0x516C JUMP JUMPDEST JUMPDEST PUSH1 0x20 MUL ADD DUP2 DUP2 MSTORE POP POP PUSH32 0xA709DCAF6236EDBECD5E8A155945DFA802B94F5043574075017BB35789D4EA34 PUSH1 0x0 SHL DUP2 PUSH1 0xE PUSH1 0x19 DUP2 LT PUSH2 0x519 JUMPI PUSH2 0x518 PUSH2 0x516C JUMP JUMPDEST JUMPDEST PUSH1 0x20 MUL ADD DUP2 DUP2 MSTORE POP POP PUSH32 0xEE6CEFAC4153E5E69532E50E0000000000000000000000000000000000000000 PUSH1 0x0 SHL DUP2 PUSH1 0xF PUSH1 0x19 DUP2 LT PUSH2 0x55A JUMPI PUSH2 0x559 PUSH2 0x516C JUMP JUMPDEST JUMPDEST PUSH1 0x20 MUL ADD DUP2 DUP2 MSTORE POP POP PUSH18 0x10000000000000000000000000000000000 PUSH1 0x0 SHL DUP2 PUSH1 0x10 PUSH1 0x19 DUP2 LT PUSH2 0x58D JUMPI PUSH2 0x58C PUSH2 0x516C JUMP JUMPDEST JUMPDEST PUSH1 0x20 MUL ADD DUP2 DUP2 MSTORE POP POP PUSH18 0x1CEB9732E20B72DB8F452E407BD11EB0CCA PUSH1 0x0 SHL DUP2 PUSH1 0x11 PUSH1 0x19 DUP2 LT PUSH2 0x5C0 JUMPI PUSH2 0x5BF PUSH2 0x516C JUMP JUMPDEST JUMPDEST PUSH1 0x20 MUL ADD DUP2 DUP2 MSTORE POP POP PUSH32 0xC16682AE48A7B72F26F1423AEA6905D034206021085A674440749352254D8B7E PUSH1 0x0 SHL DUP2 PUSH1 0x12 PUSH1 0x19 DUP2 LT PUSH2 0x601 JUMPI PUSH2 0x600 PUSH2 0x516C JUMP JUMPDEST JUMPDEST PUSH1 0x20 MUL ADD DUP2 DUP2 MSTORE POP POP PUSH32 0xC8271012E0EC60ECBBD0ADEA08E2060000000000000000000000000000000000 PUSH1 0x0 SHL DUP2 PUSH1 0x13 PUSH1 0x19 DUP2 LT PUSH2 0x642 JUMPI PUSH2 0x641 PUSH2 0x516C JUMP JUMPDEST JUMPDEST PUSH1 0x20 MUL ADD DUP2 DUP2 MSTORE POP POP PUSH15 0x10000000000000000000000000000 PUSH1 0x0 SHL DUP2 PUSH1 0x14 PUSH1 0x19 DUP2 LT PUSH2 0x672 JUMPI PUSH2 0x671 PUSH2 0x516C JUMP JUMPDEST JUMPDEST PUSH1 0x20 MUL ADD DUP2 DUP2 MSTORE POP POP PUSH15 0x133B93ED4318D7B732ACAABB8A40F PUSH1 0x0 SHL DUP2 PUSH1 0x15 PUSH1 0x19 DUP2 LT PUSH2 0x6A2 JUMPI PUSH2 0x6A1 PUSH2 0x516C JUMP JUMPDEST JUMPDEST PUSH1 0x20 MUL ADD DUP2 DUP2 MSTORE POP POP PUSH32 0x8EF321E1F53EF625D9DE2F0E9168E908572FF8F714CA88C3DC6096C65A99B767 PUSH1 0x0 SHL DUP2 PUSH1 0x16 PUSH1 0x19 DUP2 LT PUSH2 0x6E3 JUMPI PUSH2 0x6E2 PUSH2 0x516C JUMP JUMPDEST JUMPDEST PUSH1 0x20 MUL ADD DUP2 DUP2 MSTORE POP POP PUSH32 0x1D825F07F163954BFC3595FB0E2A40C89B0E0000000000000000000000000000 PUSH1 0x0 SHL DUP2 PUSH1 0x17 PUSH1 0x19 DUP2 LT PUSH2 0x724 JUMPI PUSH2 0x723 PUSH2 0x516C JUMP JUMPDEST JUMPDEST PUSH1 0x20 MUL ADD DUP2 DUP2 MSTORE POP POP PUSH12 0x10000000000000000000000 PUSH1 0x0 SHL DUP2 PUSH1 0x18 PUSH1 0x19 DUP2 LT PUSH2 0x751 JUMPI PUSH2 0x750 PUSH2 0x516C JUMP JUMPDEST JUMPDEST PUSH1 0x20 MUL ADD DUP2 DUP2 MSTORE POP POP PUSH1 0x0 PUSH1 0x1 PUSH1 0x58 SHL SWAP1 POP PUSH2 0x76B PUSH2 0x49AA JUMP JUMPDEST PUSH1 0x0 JUMPDEST PUSH1 0x1F DUP2 LT ISZERO PUSH2 0x7C0 JUMPI PUSH2 0x797 DUP11 DUP3 PUSH1 0x1F DUP2 LT PUSH2 0x78D JUMPI PUSH2 0x78C PUSH2 0x516C JUMP JUMPDEST JUMPDEST PUSH1 0x20 MUL ADD MLOAD PUSH2 0x3836 JUMP JUMPDEST DUP3 DUP3 PUSH1 0x1F DUP2 LT PUSH2 0x7AA JUMPI PUSH2 0x7A9 PUSH2 0x516C JUMP JUMPDEST JUMPDEST PUSH1 0x20 MUL ADD DUP2 DUP2 MSTORE POP POP DUP1 DUP1 PUSH1 0x1 ADD SWAP2 POP POP PUSH2 0x76E JUMP JUMPDEST POP DUP3 DUP3 DUP3 PUSH1 0x40 MLOAD PUSH1 0x20 ADD PUSH2 0x7D6 SWAP4 SWAP3 SWAP2 SWAP1 PUSH2 0x541D JUMP JUMPDEST PUSH1 0x40 MLOAD PUSH1 0x20 DUP2 DUP4 SUB SUB DUP2 MSTORE SWAP1 PUSH1 0x40 MSTORE DUP1 MLOAD SWAP1 PUSH1 0x20 ADD KECCAK256 SWAP5 POP POP POP POP PUSH1 0x0 SWAP1 POP PUSH1 0x0 PUSH1 0x1 SWAP1 POP PUSH1 0x0 DUP1 PUSH1 0x40 MLOAD DUP1 PUSH1 0x40 ADD PUSH1 0x40 MSTORE DUP1 PUSH1 0x0 DUP2 MSTORE PUSH1 0x20 ADD PUSH2 0x81A PUSH1 0x1 PUSH2 0x3836 JUMP JUMPDEST DUP2 MSTORE POP SWAP1 POP PUSH2 0x84B DUP9 PUSH1 0x0 ADD MLOAD PUSH1 0x0 DUP2 MLOAD DUP2 LT PUSH2 0x83A JUMPI PUSH2 0x839 PUSH2 0x516C JUMP JUMPDEST JUMPDEST PUSH1 0x20 MUL PUSH1 0x20 ADD ADD MLOAD PUSH1 0x0 ADD MLOAD PUSH2 0x3836 JUMP JUMPDEST PUSH2 0x877 DUP10 PUSH1 0x0 ADD MLOAD PUSH1 0x0 DUP2 MLOAD DUP2 LT PUSH2 0x866 JUMPI PUSH2 0x865 PUSH2 0x516C JUMP JUMPDEST JUMPDEST PUSH1 0x20 MUL PUSH1 0x20 ADD ADD MLOAD PUSH1 0x20 ADD MLOAD PUSH2 0x3836 JUMP JUMPDEST DUP4 DUP5 DUP5 DUP8 PUSH1 0x40 MLOAD PUSH1 0x20 ADD PUSH2 0x890 SWAP7 SWAP6 SWAP5 SWAP4 SWAP3 SWAP2 SWAP1 PUSH2 0x5544 JUMP JUMPDEST PUSH1 0x40 MLOAD PUSH1 0x20 DUP2 DUP4 SUB SUB DUP2 MSTORE SWAP1 PUSH1 0x40 MSTORE PUSH2 0x8CB DUP10 PUSH1 0x0 ADD MLOAD PUSH1 0x1 DUP2 MLOAD DUP2 LT PUSH2 0x8BA JUMPI PUSH2 0x8B9 PUSH2 0x516C JUMP JUMPDEST JUMPDEST PUSH1 0x20 MUL PUSH1 0x20 ADD ADD MLOAD PUSH1 0x0 ADD MLOAD PUSH2 0x3836 JUMP JUMPDEST PUSH2 0x8F7 DUP11 PUSH1 0x0 ADD MLOAD PUSH1 0x1 DUP2 MLOAD DUP2 LT PUSH2 0x8E6 JUMPI PUSH2 0x8E5 PUSH2 0x516C JUMP JUMPDEST JUMPDEST PUSH1 0x20 MUL PUSH1 0x20 ADD ADD MLOAD PUSH1 0x20 ADD MLOAD PUSH2 0x3836 JUMP JUMPDEST DUP5 DUP6 DUP6 DUP9 PUSH1 0x40 MLOAD PUSH1 0x20 ADD PUSH2 0x910 SWAP7 SWAP6 SWAP5 SWAP4 SWAP3 SWAP2 SWAP1 PUSH2 0x5544 JUMP JUMPDEST PUSH1 0x40 MLOAD PUSH1 0x20 DUP2 DUP4 SUB SUB DUP2 MSTORE SWAP1 PUSH1 0x40 MSTORE PUSH2 0x94B DUP11 PUSH1 0x0 ADD MLOAD PUSH1 0x2 DUP2 MLOAD DUP2 LT PUSH2 0x93A JUMPI PUSH2 0x939 PUSH2 0x516C JUMP JUMPDEST JUMPDEST PUSH1 0x20 MUL PUSH1 0x20 ADD ADD MLOAD PUSH1 0x0 ADD MLOAD PUSH2 0x3836 JUMP JUMPDEST PUSH2 0x977 DUP12 PUSH1 0x0 ADD MLOAD PUSH1 0x2 DUP2 MLOAD DUP2 LT PUSH2 0x966 JUMPI PUSH2 0x965 PUSH2 0x516C JUMP JUMPDEST JUMPDEST PUSH1 0x20 MUL PUSH1 0x20 ADD ADD MLOAD PUSH1 0x20 ADD MLOAD PUSH2 0x3836 JUMP JUMPDEST DUP6 DUP7 DUP7 DUP10 PUSH1 0x40 MLOAD PUSH1 0x20 ADD PUSH2 0x990 SWAP7 SWAP6 SWAP5 SWAP4 SWAP3 SWAP2 SWAP1 PUSH2 0x5544 JUMP JUMPDEST PUSH1 0x40 MLOAD PUSH1 0x20 DUP2 DUP4 SUB SUB DUP2 MSTORE SWAP1 PUSH1 0x40 MSTORE PUSH2 0x9CB DUP12 PUSH1 0x0 ADD MLOAD PUSH1 0x3 DUP2 MLOAD DUP2 LT PUSH2 0x9BA JUMPI PUSH2 0x9B9 PUSH2 0x516C JUMP JUMPDEST JUMPDEST PUSH1 0x20 MUL PUSH1 0x20 ADD ADD MLOAD PUSH1 0x0 ADD MLOAD PUSH2 0x3836 JUMP JUMPDEST PUSH2 0x9F7 DUP13 PUSH1 0x0 ADD MLOAD PUSH1 0x3 DUP2 MLOAD DUP2 LT PUSH2 0x9E6 JUMPI PUSH2 0x9E5 PUSH2 0x516C JUMP JUMPDEST JUMPDEST PUSH1 0x20 MUL PUSH1 0x20 ADD ADD MLOAD PUSH1 0x20 ADD MLOAD PUSH2 0x3836 JUMP JUMPDEST DUP7 DUP8 DUP8 DUP11 PUSH1 0x40 MLOAD PUSH1 0x20 ADD PUSH2 0xA10 SWAP7 SWAP6 SWAP5 SWAP4 SWAP3 SWAP2 SWAP1 PUSH2 0x5544 JUMP JUMPDEST PUSH1 0x40 MLOAD PUSH1 0x20 DUP2 DUP4 SUB SUB DUP2 MSTORE SWAP1 PUSH1 0x40 MSTORE DUP9 PUSH1 0x40 MLOAD PUSH1 0x20 ADD PUSH2 0xA34 SWAP6 SWAP5 SWAP4 SWAP3 SWAP2 SWAP1 PUSH2 0x5646 JUMP JUMPDEST PUSH1 0x40 MLOAD PUSH1 0x20 DUP2 DUP4 SUB SUB DUP2 MSTORE SWAP1 PUSH1 0x40 MSTORE DUP1 MLOAD SWAP1 PUSH1 0x20 ADD KECCAK256 SWAP5 POP POP POP POP PUSH2 0xA57 PUSH2 0x49F0 JUMP JUMPDEST PUSH1 0x0 PUSH2 0xA63 DUP5 DUP5 PUSH2 0x3982 JUMP JUMPDEST DUP1 SWAP5 POP DUP2 SWAP3 POP POP POP JUMPDEST PUSH1 0x0 PUSH2 0xA7B DUP3 PUSH3 0x20000 PUSH2 0x3A82 JUMP JUMPDEST SUB PUSH2 0xA97 JUMPI PUSH2 0xA8A DUP5 DUP5 PUSH2 0x3982 JUMP JUMPDEST DUP1 SWAP5 POP DUP2 SWAP3 POP POP POP PUSH2 0xA6C JUMP JUMPDEST PUSH2 0xAA0 DUP2 PUSH2 0x3AE2 JUMP JUMPDEST DUP3 PUSH1 0x0 PUSH1 0x7 DUP2 LT PUSH2 0xAB4 JUMPI PUSH2 0xAB3 PUSH2 0x516C JUMP JUMPDEST JUMPDEST PUSH1 0x20 MUL ADD DUP2 DUP2 MSTORE POP POP PUSH2 0xAC7 DUP5 DUP5 PUSH2 0x3982 JUMP JUMPDEST DUP1 SWAP5 POP DUP2 SWAP3 POP POP POP PUSH2 0xAD8 DUP2 PUSH2 0x3AE2 JUMP JUMPDEST DUP3 PUSH1 0x1 PUSH1 0x7 DUP2 LT PUSH2 0xAEC JUMPI PUSH2 0xAEB PUSH2 0x516C JUMP JUMPDEST JUMPDEST PUSH1 0x20 MUL ADD DUP2 DUP2 MSTORE POP POP PUSH2 0xAFF DUP5 DUP5 PUSH2 0x3982 JUMP JUMPDEST DUP1 SWAP5 POP DUP2 SWAP3 POP POP POP PUSH2 0xB10 DUP2 PUSH2 0x3AE2 JUMP JUMPDEST DUP3 PUSH1 0x2 PUSH1 0x7 DUP2 LT PUSH2 0xB24 JUMPI PUSH2 0xB23 PUSH2 0x516C JUMP JUMPDEST JUMPDEST PUSH1 0x20 MUL ADD DUP2 DUP2 MSTORE POP POP PUSH2 0xB37 DUP5 DUP5 PUSH2 0x3982 JUMP JUMPDEST DUP1 SWAP5 POP DUP2 SWAP3 POP POP POP PUSH2 0xB48 DUP2 PUSH2 0x3AE2 JUMP JUMPDEST DUP3 PUSH1 0x3 PUSH1 0x7 DUP2 LT PUSH2 0xB5C JUMPI PUSH2 0xB5B PUSH2 0x516C JUMP JUMPDEST JUMPDEST PUSH1 0x20 MUL ADD DUP2 DUP2 MSTORE POP POP POP PUSH1 0x0 SWAP2 POP PUSH1 0x0 PUSH1 0x1 SWAP1 POP PUSH1 0x0 DUP1 PUSH1 0x40 MLOAD DUP1 PUSH1 0x40 ADD PUSH1 0x40 MSTORE DUP1 PUSH1 0x0 DUP2 MSTORE PUSH1 0x20 ADD PUSH2 0xB8F PUSH1 0x1 PUSH2 0x3836 JUMP JUMPDEST DUP2 MSTORE POP SWAP1 POP PUSH2 0xBC0 DUP10 PUSH1 0x20 ADD MLOAD PUSH1 0x0 DUP2 MLOAD DUP2 LT PUSH2 0xBAF JUMPI PUSH2 0xBAE PUSH2 0x516C JUMP JUMPDEST JUMPDEST PUSH1 0x20 MUL PUSH1 0x20 ADD ADD MLOAD PUSH1 0x0 ADD MLOAD PUSH2 0x3836 JUMP JUMPDEST PUSH2 0xBEC DUP11 PUSH1 0x20 ADD MLOAD PUSH1 0x0 DUP2 MLOAD DUP2 LT PUSH2 0xBDB JUMPI PUSH2 0xBDA PUSH2 0x516C JUMP JUMPDEST JUMPDEST PUSH1 0x20 MUL PUSH1 0x20 ADD ADD MLOAD PUSH1 0x20 ADD MLOAD PUSH2 0x3836 JUMP JUMPDEST DUP4 DUP5 DUP5 DUP8 PUSH1 0x40 MLOAD PUSH1 0x20 ADD PUSH2 0xC05 SWAP7 SWAP6 SWAP5 SWAP4 SWAP3 SWAP2 SWAP1 PUSH2 0x5544 JUMP JUMPDEST PUSH1 0x40 MLOAD PUSH1 0x20 DUP2 DUP4 SUB SUB DUP2 MSTORE SWAP1 PUSH1 0x40 MSTORE PUSH2 0xC40 DUP11 PUSH1 0x20 ADD MLOAD PUSH1 0x1 DUP2 MLOAD DUP2 LT PUSH2 0xC2F JUMPI PUSH2 0xC2E PUSH2 0x516C JUMP JUMPDEST JUMPDEST PUSH1 0x20 MUL PUSH1 0x20 ADD ADD MLOAD PUSH1 0x0 ADD MLOAD PUSH2 0x3836 JUMP JUMPDEST PUSH2 0xC6C DUP12 PUSH1 0x20 ADD MLOAD PUSH1 0x1 DUP2 MLOAD DUP2 LT PUSH2 0xC5B JUMPI PUSH2 0xC5A PUSH2 0x516C JUMP JUMPDEST JUMPDEST PUSH1 0x20 MUL PUSH1 0x20 ADD ADD MLOAD PUSH1 0x20 ADD MLOAD PUSH2 0x3836 JUMP JUMPDEST DUP5 DUP7 PUSH2 0xC7F DUP15 PUSH1 0x40 ADD MLOAD PUSH1 0x0 ADD MLOAD PUSH2 0x3836 JUMP JUMPDEST PUSH2 0xC90 DUP16 PUSH1 0x40 ADD MLOAD PUSH1 0x20 ADD MLOAD PUSH2 0x3836 JUMP JUMPDEST DUP9 PUSH1 0x40 MLOAD PUSH1 0x20 ADD PUSH2 0xCA7 SWAP8 SWAP7 SWAP6 SWAP5 SWAP4 SWAP3 SWAP2 SWAP1 PUSH2 0x5695 JUMP JUMPDEST PUSH1 0x40 MLOAD PUSH1 0x20 DUP2 DUP4 SUB SUB DUP2 MSTORE SWAP1 PUSH1 0x40 MSTORE PUSH2 0xCE2 DUP12 PUSH1 0x20 ADD MLOAD PUSH1 0x2 DUP2 MLOAD DUP2 LT PUSH2 0xCD1 JUMPI PUSH2 0xCD0 PUSH2 0x516C JUMP JUMPDEST JUMPDEST PUSH1 0x20 MUL PUSH1 0x20 ADD ADD MLOAD PUSH1 0x0 ADD MLOAD PUSH2 0x3836 JUMP JUMPDEST PUSH2 0xD0E DUP13 PUSH1 0x20 ADD MLOAD PUSH1 0x2 DUP2 MLOAD DUP2 LT PUSH2 0xCFD JUMPI PUSH2 0xCFC PUSH2 0x516C JUMP JUMPDEST JUMPDEST PUSH1 0x20 MUL PUSH1 0x20 ADD ADD MLOAD PUSH1 0x20 ADD MLOAD PUSH2 0x3836 JUMP JUMPDEST DUP6 DUP7 DUP7 DUP10 PUSH1 0x40 MLOAD PUSH1 0x20 ADD PUSH2 0xD27 SWAP7 SWAP6 SWAP5 SWAP4 SWAP3 SWAP2 SWAP1 PUSH2 0x5544 JUMP JUMPDEST PUSH1 0x40 MLOAD PUSH1 0x20 DUP2 DUP4 SUB SUB DUP2 MSTORE SWAP1 PUSH1 0x40 MSTORE DUP9 PUSH1 0x40 MLOAD PUSH1 0x20 ADD PUSH2 0xD4A SWAP5 SWAP4 SWAP3 SWAP2 SWAP1 PUSH2 0x5716 JUMP JUMPDEST PUSH1 0x40 MLOAD PUSH1 0x20 DUP2 DUP4 SUB SUB DUP2 MSTORE SWAP1 PUSH1 0x40 MSTORE DUP1 MLOAD SWAP1 PUSH1 0x20 ADD KECCAK256 SWAP6 POP POP POP POP PUSH1 0x0 PUSH2 0xD71 DUP5 DUP5 PUSH2 0x3982 JUMP JUMPDEST DUP1 SWAP5 POP DUP2 SWAP3 POP POP POP JUMPDEST PUSH1 0x0 PUSH2 0xD89 DUP3 PUSH3 0x20000 PUSH2 0x3A82 JUMP JUMPDEST SUB PUSH2 0xDA5 JUMPI PUSH2 0xD98 DUP5 DUP5 PUSH2 0x3982 JUMP JUMPDEST DUP1 SWAP5 POP DUP2 SWAP3 POP POP POP PUSH2 0xD7A JUMP JUMPDEST PUSH2 0xDAE DUP2 PUSH2 0x3AE2 JUMP JUMPDEST DUP3 PUSH1 0x4 PUSH1 0x7 DUP2 LT PUSH2 0xDC2 JUMPI PUSH2 0xDC1 PUSH2 0x516C JUMP JUMPDEST JUMPDEST PUSH1 0x20 MUL ADD DUP2 DUP2 MSTORE POP POP POP PUSH1 0x0 SWAP2 POP PUSH1 0x0 PUSH1 0x1 SWAP1 POP PUSH1 0x0 DUP1 PUSH1 0x40 MLOAD DUP1 PUSH1 0x40 ADD PUSH1 0x40 MSTORE DUP1 PUSH1 0x0 DUP2 MSTORE PUSH1 0x20 ADD PUSH2 0xDF5 PUSH1 0x1 PUSH2 0x3836 JUMP JUMPDEST DUP2 MSTORE POP SWAP1 POP PUSH2 0xE26 DUP10 PUSH1 0x60 ADD MLOAD PUSH1 0x0 DUP2 MLOAD DUP2 LT PUSH2 0xE15 JUMPI PUSH2 0xE14 PUSH2 0x516C JUMP JUMPDEST JUMPDEST PUSH1 0x20 MUL PUSH1 0x20 ADD ADD MLOAD PUSH1 0x0 ADD MLOAD PUSH2 0x3836 JUMP JUMPDEST PUSH2 0xE52 DUP11 PUSH1 0x60 ADD MLOAD PUSH1 0x0 DUP2 MLOAD DUP2 LT PUSH2 0xE41 JUMPI PUSH2 0xE40 PUSH2 0x516C JUMP JUMPDEST JUMPDEST PUSH1 0x20 MUL PUSH1 0x20 ADD ADD MLOAD PUSH1 0x20 ADD MLOAD PUSH2 0x3836 JUMP JUMPDEST DUP4 DUP6 PUSH2 0xE65 DUP14 PUSH1 0x80 ADD MLOAD PUSH1 0x0 ADD MLOAD PUSH2 0x3836 JUMP JUMPDEST PUSH2 0xE76 DUP15 PUSH1 0x80 ADD MLOAD PUSH1 0x20 ADD MLOAD PUSH2 0x3836 JUMP JUMPDEST DUP8 PUSH1 0x40 MLOAD PUSH1 0x20 ADD PUSH2 0xE8D SWAP8 SWAP7 SWAP6 SWAP5 SWAP4 SWAP3 SWAP2 SWAP1 PUSH2 0x5695 JUMP JUMPDEST PUSH1 0x40 MLOAD PUSH1 0x20 DUP2 DUP4 SUB SUB DUP2 MSTORE SWAP1 PUSH1 0x40 MSTORE PUSH2 0xEC8 DUP11 PUSH1 0x60 ADD MLOAD PUSH1 0x1 DUP2 MLOAD DUP2 LT PUSH2 0xEB7 JUMPI PUSH2 0xEB6 PUSH2 0x516C JUMP JUMPDEST JUMPDEST PUSH1 0x20 MUL PUSH1 0x20 ADD ADD MLOAD PUSH1 0x0 ADD MLOAD PUSH2 0x3836 JUMP JUMPDEST PUSH2 0xEF4 DUP12 PUSH1 0x60 ADD MLOAD PUSH1 0x1 DUP2 MLOAD DUP2 LT PUSH2 0xEE3 JUMPI PUSH2 0xEE2 PUSH2 0x516C JUMP JUMPDEST JUMPDEST PUSH1 0x20 MUL PUSH1 0x20 ADD ADD MLOAD PUSH1 0x20 ADD MLOAD PUSH2 0x3836 JUMP JUMPDEST DUP5 DUP6 DUP6 DUP9 PUSH1 0x40 MLOAD PUSH1 0x20 ADD PUSH2 0xF0D SWAP7 SWAP6 SWAP5 SWAP4 SWAP3 SWAP2 SWAP1 PUSH2 0x5544 JUMP JUMPDEST PUSH1 0x40 MLOAD PUSH1 0x20 DUP2 DUP4 SUB SUB DUP2 MSTORE SWAP1 PUSH1 0x40 MSTORE DUP8 PUSH1 0x40 MLOAD PUSH1 0x20 ADD PUSH2 0xF2F SWAP4 SWAP3 SWAP2 SWAP1 PUSH2 0x5758 JUMP JUMPDEST PUSH1 0x40 MLOAD PUSH1 0x20 DUP2 DUP4 SUB SUB DUP2 MSTORE SWAP1 PUSH1 0x40 MSTORE DUP1 MLOAD SWAP1 PUSH1 0x20 ADD KECCAK256 SWAP6 POP POP POP POP PUSH1 0x0 PUSH2 0xF56 DUP5 DUP5 PUSH2 0x3982 JUMP JUMPDEST DUP1 SWAP5 POP DUP2 SWAP3 POP POP POP PUSH2 0xF67 DUP2 PUSH2 0x3AE2 JUMP JUMPDEST DUP3 PUSH1 0x5 PUSH1 0x7 DUP2 LT PUSH2 0xF7B JUMPI PUSH2 0xF7A PUSH2 0x516C JUMP JUMPDEST JUMPDEST PUSH1 0x20 MUL ADD DUP2 DUP2 MSTORE POP POP POP PUSH1 0x0 SWAP2 POP PUSH1 0x0 DUP7 PUSH1 0xA0 ADD MLOAD MLOAD PUSH8 0xFFFFFFFFFFFFFFFF DUP2 GT ISZERO PUSH2 0xFAA JUMPI PUSH2 0xFA9 PUSH2 0x4C40 JUMP JUMPDEST JUMPDEST PUSH1 0x40 MLOAD SWAP1 DUP1 DUP3 MSTORE DUP1 PUSH1 0x20 MUL PUSH1 0x20 ADD DUP3 ADD PUSH1 0x40 MSTORE DUP1 ISZERO PUSH2 0xFD8 JUMPI DUP2 PUSH1 0x20 ADD PUSH1 0x20 DUP3 MUL DUP1 CALLDATASIZE DUP4 CALLDATACOPY DUP1 DUP3 ADD SWAP2 POP POP SWAP1 POP JUMPDEST POP SWAP1 POP PUSH1 0x0 JUMPDEST DUP8 PUSH1 0xA0 ADD MLOAD MLOAD DUP2 LT ISZERO PUSH2 0x103E JUMPI PUSH2 0x1012 DUP9 PUSH1 0xA0 ADD MLOAD DUP3 DUP2 MLOAD DUP2 LT PUSH2 0x1005 JUMPI PUSH2 0x1004 PUSH2 0x516C JUMP JUMPDEST JUMPDEST PUSH1 0x20 MUL PUSH1 0x20 ADD ADD MLOAD PUSH2 0x3836 JUMP JUMPDEST DUP3 DUP3 DUP2 MLOAD DUP2 LT PUSH2 0x1025 JUMPI PUSH2 0x1024 PUSH2 0x516C JUMP JUMPDEST JUMPDEST PUSH1 0x20 MUL PUSH1 0x20 ADD ADD DUP2 DUP2 MSTORE POP POP DUP1 DUP1 PUSH1 0x1 ADD SWAP2 POP POP PUSH2 0xFDE JUMP JUMPDEST POP DUP1 DUP5 PUSH1 0x40 MLOAD PUSH1 0x20 ADD PUSH2 0x1052 SWAP3 SWAP2 SWAP1 PUSH2 0x581E JUMP JUMPDEST PUSH1 0x40 MLOAD PUSH1 0x20 DUP2 DUP4 SUB SUB DUP2 MSTORE SWAP1 PUSH1 0x40 MSTORE DUP1 MLOAD SWAP1 PUSH1 0x20 ADD KECCAK256 SWAP4 POP POP PUSH1 0x0 PUSH2 0x1077 DUP5 DUP5 PUSH2 0x3D97 JUMP JUMPDEST DUP1 SWAP5 POP DUP2 SWAP3 POP POP POP DUP1 DUP3 PUSH1 0x6 PUSH1 0x7 DUP2 LT PUSH2 0x1094 JUMPI PUSH2 0x1093 PUSH2 0x516C JUMP JUMPDEST JUMPDEST PUSH1 0x20 MUL ADD DUP2 DUP2 MSTORE POP POP POP PUSH2 0x10A6 PUSH2 0x4A12 JUMP JUMPDEST PUSH2 0x10AE PUSH2 0x4A3F JUMP JUMPDEST PUSH2 0x10B6 PUSH2 0x4A61 JUMP JUMPDEST PUSH2 0x10F4 DUP5 PUSH1 0x0 PUSH1 0x7 DUP2 LT PUSH2 0x10CD JUMPI PUSH2 0x10CC PUSH2 0x516C JUMP JUMPDEST JUMPDEST PUSH1 0x20 MUL ADD MLOAD DUP6 PUSH1 0x4 PUSH1 0x7 DUP2 LT PUSH2 0x10E6 JUMPI PUSH2 0x10E5 PUSH2 0x516C JUMP JUMPDEST JUMPDEST PUSH1 0x20 MUL ADD MLOAD PUSH3 0x20000 PUSH2 0x3E36 JUMP JUMPDEST DUP2 PUSH1 0x0 PUSH1 0x6 DUP2 LT PUSH2 0x1108 JUMPI PUSH2 0x1107 PUSH2 0x516C JUMP JUMPDEST JUMPDEST PUSH1 0x20 MUL ADD DUP2 DUP2 MSTORE POP POP PUSH2 0x1136 DUP5 PUSH1 0x0 PUSH1 0x7 DUP2 LT PUSH2 0x1128 JUMPI PUSH2 0x1127 PUSH2 0x516C JUMP JUMPDEST JUMPDEST PUSH1 0x20 MUL ADD MLOAD PUSH3 0x20000 PUSH2 0x3A82 JUMP JUMPDEST DUP2 PUSH1 0x1 PUSH1 0x6 DUP2 LT PUSH2 0x114A JUMPI PUSH2 0x1149 PUSH2 0x516C JUMP JUMPDEST JUMPDEST PUSH1 0x20 MUL ADD DUP2 DUP2 MSTORE POP POP PUSH2 0x1178 DUP5 PUSH1 0x4 PUSH1 0x7 DUP2 LT PUSH2 0x116A JUMPI PUSH2 0x1169 PUSH2 0x516C JUMP JUMPDEST JUMPDEST PUSH1 0x20 MUL ADD MLOAD PUSH3 0x20000 PUSH2 0x3A82 JUMP JUMPDEST DUP2 PUSH1 0x2 PUSH1 0x6 DUP2 LT PUSH2 0x118C JUMPI PUSH2 0x118B PUSH2 0x516C JUMP JUMPDEST JUMPDEST PUSH1 0x20 MUL ADD DUP2 DUP2 MSTORE POP POP PUSH2 0x11B8 DUP5 PUSH1 0x4 PUSH1 0x7 DUP2 LT PUSH2 0x11AC JUMPI PUSH2 0x11AB PUSH2 0x516C JUMP JUMPDEST JUMPDEST PUSH1 0x20 MUL ADD MLOAD PUSH1 0x20 PUSH2 0x3A82 JUMP JUMPDEST DUP2 PUSH1 0x3 PUSH1 0x6 DUP2 LT PUSH2 0x11CC JUMPI PUSH2 0x11CB PUSH2 0x516C JUMP JUMPDEST JUMPDEST PUSH1 0x20 MUL ADD DUP2 DUP2 MSTORE POP POP PUSH1 0x0 PUSH2 0x11F8 DUP6 PUSH1 0x4 PUSH1 0x7 DUP2 LT PUSH2 0x11EE JUMPI PUSH2 0x11ED PUSH2 0x516C JUMP JUMPDEST JUMPDEST PUSH1 0x20 MUL ADD MLOAD PUSH2 0x3EF3 JUMP JUMPDEST SWAP1 POP DUP1 PUSH1 0x0 PUSH1 0x20 DUP2 LT PUSH2 0x120E JUMPI PUSH2 0x120D PUSH2 0x516C JUMP JUMPDEST JUMPDEST PUSH1 0x20 MUL ADD MLOAD DUP3 PUSH1 0x4 PUSH1 0x6 DUP2 LT PUSH2 0x1227 JUMPI PUSH2 0x1226 PUSH2 0x516C JUMP JUMPDEST JUMPDEST PUSH1 0x20 MUL ADD DUP2 DUP2 MSTORE POP POP PUSH1 0x0 PUSH1 0x1 SWAP1 POP JUMPDEST PUSH1 0x20 DUP2 LT ISZERO PUSH2 0x131F JUMPI PUSH32 0x30644E72E131A029B85045B68181585D2833E84879B9709143E1F593F0000001 DUP1 PUSH2 0x126F JUMPI PUSH2 0x126E PUSH2 0x5846 JUMP JUMPDEST JUMPDEST PUSH32 0x30644E72E131A029B85045B68181585D2833E84879B9709143E1F593F0000001 DUP1 PUSH2 0x129E JUMPI PUSH2 0x129D PUSH2 0x5846 JUMP JUMPDEST JUMPDEST DUP14 PUSH1 0x1 DUP5 PUSH2 0x12AC SWAP2 SWAP1 PUSH2 0x58A4 JUMP JUMPDEST PUSH1 0x1F DUP2 LT PUSH2 0x12BD JUMPI PUSH2 0x12BC PUSH2 0x516C JUMP JUMPDEST JUMPDEST PUSH1 0x20 MUL ADD MLOAD DUP5 DUP5 PUSH1 0x20 DUP2 LT PUSH2 0x12D5 JUMPI PUSH2 0x12D4 PUSH2 0x516C JUMP JUMPDEST JUMPDEST PUSH1 0x20 MUL ADD MLOAD MULMOD DUP5 PUSH1 0x4 PUSH1 0x6 DUP2 LT PUSH2 0x12EF JUMPI PUSH2 0x12EE PUSH2 0x516C JUMP JUMPDEST JUMPDEST PUSH1 0x20 MUL ADD MLOAD ADDMOD DUP4 PUSH1 0x4 PUSH1 0x6 DUP2 LT PUSH2 0x1309 JUMPI PUSH2 0x1308 PUSH2 0x516C JUMP JUMPDEST JUMPDEST PUSH1 0x20 MUL ADD DUP2 DUP2 MSTORE POP POP DUP1 DUP1 PUSH1 0x1 ADD SWAP2 POP POP PUSH2 0x1237 JUMP JUMPDEST POP POP PUSH2 0x1346 DUP5 PUSH1 0x5 PUSH1 0x7 DUP2 LT PUSH2 0x1338 JUMPI PUSH2 0x1337 PUSH2 0x516C JUMP JUMPDEST JUMPDEST PUSH1 0x20 MUL ADD MLOAD PUSH3 0x400000 PUSH2 0x3A82 JUMP JUMPDEST DUP2 PUSH1 0x5 PUSH1 0x6 DUP2 LT PUSH2 0x135A JUMPI PUSH2 0x1359 PUSH2 0x516C JUMP JUMPDEST JUMPDEST PUSH1 0x20 MUL ADD DUP2 DUP2 MSTORE POP POP PUSH2 0x136B PUSH2 0x4A83 JUMP JUMPDEST PUSH2 0x1373 PUSH2 0x4AA5 JUMP JUMPDEST DUP11 PUSH1 0xA0 ADD MLOAD PUSH1 0x0 DUP2 MLOAD DUP2 LT PUSH2 0x138B JUMPI PUSH2 0x138A PUSH2 0x516C JUMP JUMPDEST JUMPDEST PUSH1 0x20 MUL PUSH1 0x20 ADD ADD MLOAD DUP3 PUSH1 0x0 PUSH1 0x4 DUP2 LT PUSH2 0x13A7 JUMPI PUSH2 0x13A6 PUSH2 0x516C JUMP JUMPDEST JUMPDEST PUSH1 0x20 MUL ADD DUP2 DUP2 MSTORE POP POP DUP11 PUSH1 0xA0 ADD MLOAD PUSH1 0x2 DUP2 MLOAD DUP2 LT PUSH2 0x13C8 JUMPI PUSH2 0x13C7 PUSH2 0x516C JUMP JUMPDEST JUMPDEST PUSH1 0x20 MUL PUSH1 0x20 ADD ADD MLOAD DUP3 PUSH1 0x2 PUSH1 0x4 DUP2 LT PUSH2 0x13E4 JUMPI PUSH2 0x13E3 PUSH2 0x516C JUMP JUMPDEST JUMPDEST PUSH1 0x20 MUL ADD DUP2 DUP2 MSTORE POP POP DUP11 PUSH1 0xA0 ADD MLOAD PUSH1 0x3 DUP2 MLOAD DUP2 LT PUSH2 0x1405 JUMPI PUSH2 0x1404 PUSH2 0x516C JUMP JUMPDEST JUMPDEST PUSH1 0x20 MUL PUSH1 0x20 ADD ADD MLOAD DUP3 PUSH1 0x3 PUSH1 0x4 DUP2 LT PUSH2 0x1421 JUMPI PUSH2 0x1420 PUSH2 0x516C JUMP JUMPDEST JUMPDEST PUSH1 0x20 MUL ADD DUP2 DUP2 MSTORE POP POP DUP11 PUSH1 0x20 ADD MLOAD PUSH1 0x1 DUP2 MLOAD DUP2 LT PUSH2 0x1442 JUMPI PUSH2 0x1441 PUSH2 0x516C JUMP JUMPDEST JUMPDEST PUSH1 0x20 MUL PUSH1 0x20 ADD ADD MLOAD DUP2 PUSH1 0x0 PUSH1 0x4 DUP2 LT PUSH2 0x145E JUMPI PUSH2 0x145D PUSH2 0x516C JUMP JUMPDEST JUMPDEST PUSH1 0x20 MUL ADD DUP2 SWAP1 MSTORE POP DUP11 PUSH1 0x20 ADD MLOAD PUSH1 0x0 DUP2 MLOAD DUP2 LT PUSH2 0x147E JUMPI PUSH2 0x147D PUSH2 0x516C JUMP JUMPDEST JUMPDEST PUSH1 0x20 MUL PUSH1 0x20 ADD ADD MLOAD DUP2 PUSH1 0x2 PUSH1 0x4 DUP2 LT PUSH2 0x149A JUMPI PUSH2 0x1499 PUSH2 0x516C JUMP JUMPDEST JUMPDEST PUSH1 0x20 MUL ADD DUP2 SWAP1 MSTORE POP DUP11 PUSH1 0x0 ADD MLOAD PUSH1 0x2 DUP2 MLOAD DUP2 LT PUSH2 0x14BA JUMPI PUSH2 0x14B9 PUSH2 0x516C JUMP JUMPDEST JUMPDEST PUSH1 0x20 MUL PUSH1 0x20 ADD ADD MLOAD DUP2 PUSH1 0x3 PUSH1 0x4 DUP2 LT PUSH2 0x14D6 JUMPI PUSH2 0x14D5 PUSH2 0x516C JUMP JUMPDEST JUMPDEST PUSH1 0x20 MUL ADD DUP2 SWAP1 MSTORE POP PUSH2 0x14E6 PUSH2 0x49F0 JUMP JUMPDEST PUSH1 0x1 DUP2 PUSH1 0x0 PUSH1 0x7 DUP2 LT PUSH2 0x14FC JUMPI PUSH2 0x14FB PUSH2 0x516C JUMP JUMPDEST JUMPDEST PUSH1 0x20 MUL ADD DUP2 DUP2 MSTORE POP POP PUSH32 0x30644E72E131A029B85045B68181585D2833E84879B9709143E1F593F0000001 DUP1 PUSH2 0x1534 JUMPI PUSH2 0x1533 PUSH2 0x5846 JUMP JUMPDEST JUMPDEST PUSH32 0x30644E72E131A029B85045B68181585D2833E84879B9709143E1F593F0000001 DUP1 PUSH2 0x1563 JUMPI PUSH2 0x1562 PUSH2 0x5846 JUMP JUMPDEST JUMPDEST PUSH32 0x30644E72E131A029B85045B68181585D2833E84879B9709143E1F593F0000001 DUP1 PUSH2 0x1592 JUMPI PUSH2 0x1591 PUSH2 0x5846 JUMP JUMPDEST JUMPDEST DUP15 PUSH1 0xA0 ADD MLOAD PUSH1 0x3 DUP2 MLOAD DUP2 LT PUSH2 0x15AA JUMPI PUSH2 0x15A9 PUSH2 0x516C JUMP JUMPDEST JUMPDEST PUSH1 0x20 MUL PUSH1 0x20 ADD ADD MLOAD DUP11 PUSH1 0x3 PUSH1 0x7 DUP2 LT PUSH2 0x15C6 JUMPI PUSH2 0x15C5 PUSH2 0x516C JUMP JUMPDEST JUMPDEST PUSH1 0x20 MUL ADD MLOAD MULMOD DUP10 PUSH1 0x1 PUSH1 0x7 DUP2 LT PUSH2 0x15E0 JUMPI PUSH2 0x15DF PUSH2 0x516C JUMP JUMPDEST JUMPDEST PUSH1 0x20 MUL ADD MLOAD ADDMOD DUP6 PUSH1 0x0 PUSH1 0x6 DUP2 LT PUSH2 0x15FA JUMPI PUSH2 0x15F9 PUSH2 0x516C JUMP JUMPDEST JUMPDEST PUSH1 0x20 MUL ADD MLOAD MULMOD DUP2 PUSH1 0x1 PUSH1 0x7 DUP2 LT PUSH2 0x1614 JUMPI PUSH2 0x1613 PUSH2 0x516C JUMP JUMPDEST JUMPDEST PUSH1 0x20 MUL ADD DUP2 DUP2 MSTORE POP POP PUSH32 0x30644E72E131A029B85045B68181585D2833E84879B9709143E1F593F0000001 DUP1 PUSH2 0x164C JUMPI PUSH2 0x164B PUSH2 0x5846 JUMP JUMPDEST JUMPDEST PUSH32 0x30644E72E131A029B85045B68181585D2833E84879B9709143E1F593F0000001 DUP1 PUSH2 0x167B JUMPI PUSH2 0x167A PUSH2 0x5846 JUMP JUMPDEST JUMPDEST DUP14 PUSH1 0xA0 ADD MLOAD PUSH1 0x3 DUP2 MLOAD DUP2 LT PUSH2 0x1693 JUMPI PUSH2 0x1692 PUSH2 0x516C JUMP JUMPDEST JUMPDEST PUSH1 0x20 MUL PUSH1 0x20 ADD ADD MLOAD DUP10 PUSH1 0x2 PUSH1 0x7 DUP2 LT PUSH2 0x16AF JUMPI PUSH2 0x16AE PUSH2 0x516C JUMP JUMPDEST JUMPDEST PUSH1 0x20 MUL ADD MLOAD MULMOD DUP6 PUSH1 0x0 PUSH1 0x6 DUP2 LT PUSH2 0x16C9 JUMPI PUSH2 0x16C8 PUSH2 0x516C JUMP JUMPDEST JUMPDEST PUSH1 0x20 MUL ADD MLOAD MULMOD DUP2 PUSH1 0x2 PUSH1 0x7 DUP2 LT PUSH2 0x16E3 JUMPI PUSH2 0x16E2 PUSH2 0x516C JUMP JUMPDEST JUMPDEST PUSH1 0x20 MUL ADD DUP2 DUP2 MSTORE POP POP PUSH32 0x30644E72E131A029B85045B68181585D2833E84879B9709143E1F593F0000001 DUP1 PUSH2 0x171B JUMPI PUSH2 0x171A PUSH2 0x5846 JUMP JUMPDEST JUMPDEST PUSH2 0x1766 PUSH1 0x0 DUP15 PUSH1 0xA0 ADD MLOAD PUSH1 0x2 DUP2 MLOAD DUP2 LT PUSH2 0x1738 JUMPI PUSH2 0x1737 PUSH2 0x516C JUMP JUMPDEST JUMPDEST PUSH1 0x20 MUL PUSH1 0x20 ADD ADD MLOAD PUSH32 0x30644E72E131A029B85045B68181585D2833E84879B9709143E1F593F0000001 PUSH2 0x4171 JUMP JUMPDEST DUP6 PUSH1 0x3 PUSH1 0x6 DUP2 LT PUSH2 0x177A JUMPI PUSH2 0x1779 PUSH2 0x516C JUMP JUMPDEST JUMPDEST PUSH1 0x20 MUL ADD MLOAD MULMOD DUP2 PUSH1 0x3 PUSH1 0x7 DUP2 LT PUSH2 0x1794 JUMPI PUSH2 0x1793 PUSH2 0x516C JUMP JUMPDEST JUMPDEST PUSH1 0x20 MUL ADD DUP2 DUP2 MSTORE POP POP PUSH32 0x30644E72E131A029B85045B68181585D2833E84879B9709143E1F593F0000001 DUP1 PUSH2 0x17CC JUMPI PUSH2 0x17CB PUSH2 0x5846 JUMP JUMPDEST JUMPDEST PUSH2 0x1817 PUSH1 0x0 DUP15 PUSH1 0xA0 ADD MLOAD PUSH1 0x2 DUP2 MLOAD DUP2 LT PUSH2 0x17E9 JUMPI PUSH2 0x17E8 PUSH2 0x516C JUMP JUMPDEST JUMPDEST PUSH1 0x20 MUL PUSH1 0x20 ADD ADD MLOAD PUSH32 0x30644E72E131A029B85045B68181585D2833E84879B9709143E1F593F0000001 PUSH2 0x4171 JUMP JUMPDEST DUP6 PUSH1 0x4 PUSH1 0x6 DUP2 LT PUSH2 0x182B JUMPI PUSH2 0x182A PUSH2 0x516C JUMP JUMPDEST JUMPDEST PUSH1 0x20 MUL ADD MLOAD MULMOD DUP2 PUSH1 0x4 PUSH1 0x7 DUP2 LT PUSH2 0x1845 JUMPI PUSH2 0x1844 PUSH2 0x516C JUMP JUMPDEST JUMPDEST PUSH1 0x20 MUL ADD DUP2 DUP2 MSTORE POP POP PUSH2 0x1892 PUSH1 0x0 DUP6 PUSH1 0x2 PUSH1 0x6 DUP2 LT PUSH2 0x1867 JUMPI PUSH2 0x1866 PUSH2 0x516C JUMP JUMPDEST JUMPDEST PUSH1 0x20 MUL ADD MLOAD PUSH32 0x30644E72E131A029B85045B68181585D2833E84879B9709143E1F593F0000001 PUSH2 0x4171 JUMP JUMPDEST DUP2 PUSH1 0x5 PUSH1 0x7 DUP2 LT PUSH2 0x18A6 JUMPI PUSH2 0x18A5 PUSH2 0x516C JUMP JUMPDEST JUMPDEST PUSH1 0x20 MUL ADD DUP2 DUP2 MSTORE POP POP PUSH32 0x30644E72E131A029B85045B68181585D2833E84879B9709143E1F593F0000001 DUP1 PUSH2 0x18DE JUMPI PUSH2 0x18DD PUSH2 0x5846 JUMP JUMPDEST JUMPDEST PUSH2 0x1922 PUSH1 0x0 DUP10 PUSH1 0x4 PUSH1 0x7 DUP2 LT PUSH2 0x18F7 JUMPI PUSH2 0x18F6 PUSH2 0x516C JUMP JUMPDEST JUMPDEST PUSH1 0x20 MUL ADD MLOAD PUSH32 0x30644E72E131A029B85045B68181585D2833E84879B9709143E1F593F0000001 PUSH2 0x4171 JUMP JUMPDEST DUP14 PUSH1 0xA0 ADD MLOAD PUSH1 0x0 DUP2 MLOAD DUP2 LT PUSH2 0x193A JUMPI PUSH2 0x1939 PUSH2 0x516C JUMP JUMPDEST JUMPDEST PUSH1 0x20 MUL PUSH1 0x20 ADD ADD MLOAD MULMOD DUP2 PUSH1 0x6 PUSH1 0x7 DUP2 LT PUSH2 0x1957 JUMPI PUSH2 0x1956 PUSH2 0x516C JUMP JUMPDEST JUMPDEST PUSH1 0x20 MUL ADD DUP2 DUP2 MSTORE POP POP DUP12 PUSH1 0x0 ADD MLOAD PUSH1 0x3 DUP2 MLOAD DUP2 LT PUSH2 0x1978 JUMPI PUSH2 0x1977 PUSH2 0x516C JUMP JUMPDEST JUMPDEST PUSH1 0x20 MUL PUSH1 0x20 ADD ADD MLOAD DUP3 PUSH1 0x1 PUSH1 0x4 DUP2 LT PUSH2 0x1994 JUMPI PUSH2 0x1993 PUSH2 0x516C JUMP JUMPDEST JUMPDEST PUSH1 0x20 MUL ADD DUP2 SWAP1 MSTORE POP PUSH2 0x1A10 PUSH2 0x19E9 DUP3 PUSH1 0x1 PUSH1 0x7 DUP2 LT PUSH2 0x19B6 JUMPI PUSH2 0x19B5 PUSH2 0x516C JUMP JUMPDEST JUMPDEST PUSH1 0x20 MUL ADD MLOAD DUP15 PUSH1 0x0 ADD MLOAD PUSH1 0x1 DUP2 MLOAD DUP2 LT PUSH2 0x19D3 JUMPI PUSH2 0x19D2 PUSH2 0x516C JUMP JUMPDEST JUMPDEST PUSH1 0x20 MUL PUSH1 0x20 ADD ADD MLOAD PUSH2 0x4199 SWAP1 SWAP2 SWAP1 PUSH4 0xFFFFFFFF AND JUMP JUMPDEST DUP4 PUSH1 0x1 PUSH1 0x4 DUP2 LT PUSH2 0x19FD JUMPI PUSH2 0x19FC PUSH2 0x516C JUMP JUMPDEST JUMPDEST PUSH1 0x20 MUL ADD MLOAD PUSH2 0x423B SWAP1 SWAP2 SWAP1 PUSH4 0xFFFFFFFF AND JUMP JUMPDEST DUP3 PUSH1 0x1 PUSH1 0x4 DUP2 LT PUSH2 0x1A24 JUMPI PUSH2 0x1A23 PUSH2 0x516C JUMP JUMPDEST JUMPDEST PUSH1 0x20 MUL ADD DUP2 SWAP1 MSTORE POP PUSH2 0x1AA0 PUSH2 0x1A79 DUP3 PUSH1 0x3 PUSH1 0x7 DUP2 LT PUSH2 0x1A46 JUMPI PUSH2 0x1A45 PUSH2 0x516C JUMP JUMPDEST JUMPDEST PUSH1 0x20 MUL ADD MLOAD DUP15 PUSH1 0x0 ADD MLOAD PUSH1 0x0 DUP2 MLOAD DUP2 LT PUSH2 0x1A63 JUMPI PUSH2 0x1A62 PUSH2 0x516C JUMP JUMPDEST JUMPDEST PUSH1 0x20 MUL PUSH1 0x20 ADD ADD MLOAD PUSH2 0x4199 SWAP1 SWAP2 SWAP1 PUSH4 0xFFFFFFFF AND JUMP JUMPDEST DUP4 PUSH1 0x1 PUSH1 0x4 DUP2 LT PUSH2 0x1A8D JUMPI PUSH2 0x1A8C PUSH2 0x516C JUMP JUMPDEST JUMPDEST PUSH1 0x20 MUL ADD MLOAD PUSH2 0x423B SWAP1 SWAP2 SWAP1 PUSH4 0xFFFFFFFF AND JUMP JUMPDEST DUP3 PUSH1 0x1 PUSH1 0x4 DUP2 LT PUSH2 0x1AB4 JUMPI PUSH2 0x1AB3 PUSH2 0x516C JUMP JUMPDEST JUMPDEST PUSH1 0x20 MUL ADD DUP2 SWAP1 MSTORE POP PUSH2 0x1B30 PUSH2 0x1B09 DUP3 PUSH1 0x5 PUSH1 0x7 DUP2 LT PUSH2 0x1AD6 JUMPI PUSH2 0x1AD5 PUSH2 0x516C JUMP JUMPDEST JUMPDEST PUSH1 0x20 MUL ADD MLOAD DUP15 PUSH1 0x20 ADD MLOAD PUSH1 0x2 DUP2 MLOAD DUP2 LT PUSH2 0x1AF3 JUMPI PUSH2 0x1AF2 PUSH2 0x516C JUMP JUMPDEST JUMPDEST PUSH1 0x20 MUL PUSH1 0x20 ADD ADD MLOAD PUSH2 0x4199 SWAP1 SWAP2 SWAP1 PUSH4 0xFFFFFFFF AND JUMP JUMPDEST DUP4 PUSH1 0x1 PUSH1 0x4 DUP2 LT PUSH2 0x1B1D JUMPI PUSH2 0x1B1C PUSH2 0x516C JUMP JUMPDEST JUMPDEST PUSH1 0x20 MUL ADD MLOAD PUSH2 0x423B SWAP1 SWAP2 SWAP1 PUSH4 0xFFFFFFFF AND JUMP JUMPDEST DUP3 PUSH1 0x1 PUSH1 0x4 DUP2 LT PUSH2 0x1B44 JUMPI PUSH2 0x1B43 PUSH2 0x516C JUMP JUMPDEST JUMPDEST PUSH1 0x20 MUL ADD DUP2 SWAP1 MSTORE POP PUSH2 0x1BA7 DUP4 PUSH1 0x1 PUSH1 0x4 DUP2 LT PUSH2 0x1B63 JUMPI PUSH2 0x1B62 PUSH2 0x516C JUMP JUMPDEST JUMPDEST PUSH1 0x20 MUL ADD MLOAD DUP3 PUSH1 0x2 PUSH1 0x7 DUP2 LT PUSH2 0x1B7C JUMPI PUSH2 0x1B7B PUSH2 0x516C JUMP JUMPDEST JUMPDEST PUSH1 0x20 MUL ADD MLOAD PUSH32 0x30644E72E131A029B85045B68181585D2833E84879B9709143E1F593F0000001 PUSH2 0x4171 JUMP JUMPDEST DUP4 PUSH1 0x1 PUSH1 0x4 DUP2 LT PUSH2 0x1BBB JUMPI PUSH2 0x1BBA PUSH2 0x516C JUMP JUMPDEST JUMPDEST PUSH1 0x20 MUL ADD DUP2 DUP2 MSTORE POP POP PUSH2 0x1C1F DUP4 PUSH1 0x1 PUSH1 0x4 DUP2 LT PUSH2 0x1BDB JUMPI PUSH2 0x1BDA PUSH2 0x516C JUMP JUMPDEST JUMPDEST PUSH1 0x20 MUL ADD MLOAD DUP3 PUSH1 0x4 PUSH1 0x7 DUP2 LT PUSH2 0x1BF4 JUMPI PUSH2 0x1BF3 PUSH2 0x516C JUMP JUMPDEST JUMPDEST PUSH1 0x20 MUL ADD MLOAD PUSH32 0x30644E72E131A029B85045B68181585D2833E84879B9709143E1F593F0000001 PUSH2 0x4171 JUMP JUMPDEST DUP4 PUSH1 0x1 PUSH1 0x4 DUP2 LT PUSH2 0x1C33 JUMPI PUSH2 0x1C32 PUSH2 0x516C JUMP JUMPDEST JUMPDEST PUSH1 0x20 MUL ADD DUP2 DUP2 MSTORE POP POP PUSH2 0x1C97 DUP4 PUSH1 0x1 PUSH1 0x4 DUP2 LT PUSH2 0x1C53 JUMPI PUSH2 0x1C52 PUSH2 0x516C JUMP JUMPDEST JUMPDEST PUSH1 0x20 MUL ADD MLOAD DUP3 PUSH1 0x6 PUSH1 0x7 DUP2 LT PUSH2 0x1C6C JUMPI PUSH2 0x1C6B PUSH2 0x516C JUMP JUMPDEST JUMPDEST PUSH1 0x20 MUL ADD MLOAD PUSH32 0x30644E72E131A029B85045B68181585D2833E84879B9709143E1F593F0000001 PUSH2 0x4171 JUMP JUMPDEST DUP4 PUSH1 0x1 PUSH1 0x4 DUP2 LT PUSH2 0x1CAB JUMPI PUSH2 0x1CAA PUSH2 0x516C JUMP JUMPDEST JUMPDEST PUSH1 0x20 MUL ADD DUP2 DUP2 MSTORE POP POP POP DUP1 PUSH1 0x0 PUSH1 0x4 DUP2 LT PUSH2 0x1CC9 JUMPI PUSH2 0x1CC8 PUSH2 0x516C JUMP JUMPDEST JUMPDEST PUSH1 0x20 MUL ADD MLOAD DUP6 PUSH1 0x0 PUSH1 0x2 DUP2 LT PUSH2 0x1CE2 JUMPI PUSH2 0x1CE1 PUSH2 0x516C JUMP JUMPDEST JUMPDEST PUSH1 0x20 MUL ADD DUP2 SWAP1 MSTORE POP DUP2 PUSH1 0x0 PUSH1 0x4 DUP2 LT PUSH2 0x1CFE JUMPI PUSH2 0x1CFD PUSH2 0x516C JUMP JUMPDEST JUMPDEST PUSH1 0x20 MUL ADD MLOAD DUP5 PUSH1 0x0 PUSH1 0x2 DUP2 LT PUSH2 0x1D17 JUMPI PUSH2 0x1D16 PUSH2 0x516C JUMP JUMPDEST JUMPDEST PUSH1 0x20 MUL ADD DUP2 DUP2 MSTORE POP POP PUSH1 0x0 DUP7 PUSH1 0x6 PUSH1 0x7 DUP2 LT PUSH2 0x1D36 JUMPI PUSH2 0x1D35 PUSH2 0x516C JUMP JUMPDEST JUMPDEST PUSH1 0x20 MUL ADD MLOAD SWAP1 POP PUSH1 0x0 PUSH2 0x1D8C PUSH2 0x1D79 PUSH2 0x1D74 DUP7 PUSH1 0x0 PUSH1 0x4 DUP2 LT PUSH2 0x1D5C JUMPI PUSH2 0x1D5B PUSH2 0x516C JUMP JUMPDEST JUMPDEST PUSH1 0x20 MUL ADD MLOAD DUP15 PUSH1 0x40 ADD MLOAD PUSH2 0x4199 SWAP1 SWAP2 SWAP1 PUSH4 0xFFFFFFFF AND JUMP JUMPDEST PUSH2 0x4303 JUMP JUMPDEST DUP15 PUSH1 0x40 ADD MLOAD PUSH2 0x423B SWAP1 SWAP2 SWAP1 PUSH4 0xFFFFFFFF AND JUMP JUMPDEST SWAP1 POP PUSH2 0x1DA1 DUP3 DUP3 PUSH2 0x4199 SWAP1 SWAP2 SWAP1 PUSH4 0xFFFFFFFF AND JUMP JUMPDEST SWAP1 POP PUSH2 0x1DCE DUP2 DUP9 PUSH1 0x0 PUSH1 0x2 DUP2 LT PUSH2 0x1DBB JUMPI PUSH2 0x1DBA PUSH2 0x516C JUMP JUMPDEST JUMPDEST PUSH1 0x20 MUL ADD MLOAD PUSH2 0x423B SWAP1 SWAP2 SWAP1 PUSH4 0xFFFFFFFF AND JUMP JUMPDEST DUP8 PUSH1 0x0 PUSH1 0x2 DUP2 LT PUSH2 0x1DE2 JUMPI PUSH2 0x1DE1 PUSH2 0x516C JUMP JUMPDEST JUMPDEST PUSH1 0x20 MUL ADD DUP2 SWAP1 MSTORE POP POP PUSH32 0x30644E72E131A029B85045B68181585D2833E84879B9709143E1F593F0000001 DUP1 PUSH2 0x1E1A JUMPI PUSH2 0x1E19 PUSH2 0x5846 JUMP JUMPDEST JUMPDEST DUP8 PUSH1 0x6 PUSH1 0x7 DUP2 LT PUSH2 0x1E2E JUMPI PUSH2 0x1E2D PUSH2 0x516C JUMP JUMPDEST JUMPDEST PUSH1 0x20 MUL ADD MLOAD DUP3 MULMOD SWAP1 POP PUSH2 0x1E8C PUSH2 0x1E65 DUP3 DUP5 PUSH1 0x1 PUSH1 0x4 DUP2 LT PUSH2 0x1E52 JUMPI PUSH2 0x1E51 PUSH2 0x516C JUMP JUMPDEST JUMPDEST PUSH1 0x20 MUL ADD MLOAD PUSH2 0x4199 SWAP1 SWAP2 SWAP1 PUSH4 0xFFFFFFFF AND JUMP JUMPDEST DUP8 PUSH1 0x0 PUSH1 0x2 DUP2 LT PUSH2 0x1E79 JUMPI PUSH2 0x1E78 PUSH2 0x516C JUMP JUMPDEST JUMPDEST PUSH1 0x20 MUL ADD MLOAD PUSH2 0x423B SWAP1 SWAP2 SWAP1 PUSH4 0xFFFFFFFF AND JUMP JUMPDEST DUP7 PUSH1 0x0 PUSH1 0x2 DUP2 LT PUSH2 0x1EA0 JUMPI PUSH2 0x1E9F PUSH2 0x516C JUMP JUMPDEST JUMPDEST PUSH1 0x20 MUL ADD DUP2 SWAP1 MSTORE POP PUSH32 0x30644E72E131A029B85045B68181585D2833E84879B9709143E1F593F0000001 DUP1 PUSH2 0x1ED7 JUMPI PUSH2 0x1ED6 PUSH2 0x5846 JUMP JUMPDEST JUMPDEST PUSH32 0x30644E72E131A029B85045B68181585D2833E84879B9709143E1F593F0000001 DUP1 PUSH2 0x1F06 JUMPI PUSH2 0x1F05 PUSH2 0x5846 JUMP JUMPDEST JUMPDEST DUP3 DUP6 PUSH1 0x1 PUSH1 0x4 DUP2 LT PUSH2 0x1F1B JUMPI PUSH2 0x1F1A PUSH2 0x516C JUMP JUMPDEST JUMPDEST PUSH1 0x20 MUL ADD MLOAD MULMOD DUP7 PUSH1 0x0 PUSH1 0x2 DUP2 LT PUSH2 0x1F35 JUMPI PUSH2 0x1F34 PUSH2 0x516C JUMP JUMPDEST JUMPDEST PUSH1 0x20 MUL ADD MLOAD ADDMOD DUP6 PUSH1 0x0 PUSH1 0x2 DUP2 LT PUSH2 0x1F4F JUMPI PUSH2 0x1F4E PUSH2 0x516C JUMP JUMPDEST JUMPDEST PUSH1 0x20 MUL ADD DUP2 DUP2 MSTORE POP POP PUSH32 0x30644E72E131A029B85045B68181585D2833E84879B9709143E1F593F0000001 DUP1 PUSH2 0x1F87 JUMPI PUSH2 0x1F86 PUSH2 0x5846 JUMP JUMPDEST JUMPDEST DUP8 PUSH1 0x6 PUSH1 0x7 DUP2 LT PUSH2 0x1F9B JUMPI PUSH2 0x1F9A PUSH2 0x516C JUMP JUMPDEST JUMPDEST PUSH1 0x20 MUL ADD MLOAD DUP3 MULMOD SWAP1 POP PUSH2 0x1FF9 PUSH2 0x1FD2 DUP3 DUP5 PUSH1 0x2 PUSH1 0x4 DUP2 LT PUSH2 0x1FBF JUMPI PUSH2 0x1FBE PUSH2 0x516C JUMP JUMPDEST JUMPDEST PUSH1 0x20 MUL ADD MLOAD PUSH2 0x4199 SWAP1 SWAP2 SWAP1 PUSH4 0xFFFFFFFF AND JUMP JUMPDEST DUP8 PUSH1 0x0 PUSH1 0x2 DUP2 LT PUSH2 0x1FE6 JUMPI PUSH2 0x1FE5 PUSH2 0x516C JUMP JUMPDEST JUMPDEST PUSH1 0x20 MUL ADD MLOAD PUSH2 0x423B SWAP1 SWAP2 SWAP1 PUSH4 0xFFFFFFFF AND JUMP JUMPDEST DUP7 PUSH1 0x0 PUSH1 0x2 DUP2 LT PUSH2 0x200D JUMPI PUSH2 0x200C PUSH2 0x516C JUMP JUMPDEST JUMPDEST PUSH1 0x20 MUL ADD DUP2 SWAP1 MSTORE POP PUSH32 0x30644E72E131A029B85045B68181585D2833E84879B9709143E1F593F0000001 DUP1 PUSH2 0x2044 JUMPI PUSH2 0x2043 PUSH2 0x5846 JUMP JUMPDEST JUMPDEST PUSH32 0x30644E72E131A029B85045B68181585D2833E84879B9709143E1F593F0000001 DUP1 PUSH2 0x2073 JUMPI PUSH2 0x2072 PUSH2 0x5846 JUMP JUMPDEST JUMPDEST DUP3 DUP6 PUSH1 0x2 PUSH1 0x4 DUP2 LT PUSH2 0x2088 JUMPI PUSH2 0x2087 PUSH2 0x516C JUMP JUMPDEST JUMPDEST PUSH1 0x20 MUL ADD MLOAD MULMOD DUP7 PUSH1 0x0 PUSH1 0x2 DUP2 LT PUSH2 0x20A2 JUMPI PUSH2 0x20A1 PUSH2 0x516C JUMP JUMPDEST JUMPDEST PUSH1 0x20 MUL ADD MLOAD ADDMOD DUP6 PUSH1 0x0 PUSH1 0x2 DUP2 LT PUSH2 0x20BC JUMPI PUSH2 0x20BB PUSH2 0x516C JUMP JUMPDEST JUMPDEST PUSH1 0x20 MUL ADD DUP2 DUP2 MSTORE POP POP PUSH32 0x30644E72E131A029B85045B68181585D2833E84879B9709143E1F593F0000001 DUP1 PUSH2 0x20F4 JUMPI PUSH2 0x20F3 PUSH2 0x5846 JUMP JUMPDEST JUMPDEST DUP8 PUSH1 0x6 PUSH1 0x7 DUP2 LT PUSH2 0x2108 JUMPI PUSH2 0x2107 PUSH2 0x516C JUMP JUMPDEST JUMPDEST PUSH1 0x20 MUL ADD MLOAD DUP3 MULMOD SWAP1 POP PUSH2 0x2166 PUSH2 0x213F DUP3 DUP5 PUSH1 0x3 PUSH1 0x4 DUP2 LT PUSH2 0x212C JUMPI PUSH2 0x212B PUSH2 0x516C JUMP JUMPDEST JUMPDEST PUSH1 0x20 MUL ADD MLOAD PUSH2 0x4199 SWAP1 SWAP2 SWAP1 PUSH4 0xFFFFFFFF AND JUMP JUMPDEST DUP8 PUSH1 0x0 PUSH1 0x2 DUP2 LT PUSH2 0x2153 JUMPI PUSH2 0x2152 PUSH2 0x516C JUMP JUMPDEST JUMPDEST PUSH1 0x20 MUL ADD MLOAD PUSH2 0x423B SWAP1 SWAP2 SWAP1 PUSH4 0xFFFFFFFF AND JUMP JUMPDEST DUP7 PUSH1 0x0 PUSH1 0x2 DUP2 LT PUSH2 0x217A JUMPI PUSH2 0x2179 PUSH2 0x516C JUMP JUMPDEST JUMPDEST PUSH1 0x20 MUL ADD DUP2 SWAP1 MSTORE POP PUSH32 0x30644E72E131A029B85045B68181585D2833E84879B9709143E1F593F0000001 DUP1 PUSH2 0x21B1 JUMPI PUSH2 0x21B0 PUSH2 0x5846 JUMP JUMPDEST JUMPDEST PUSH32 0x30644E72E131A029B85045B68181585D2833E84879B9709143E1F593F0000001 DUP1 PUSH2 0x21E0 JUMPI PUSH2 0x21DF PUSH2 0x5846 JUMP JUMPDEST JUMPDEST DUP3 DUP6 PUSH1 0x3 PUSH1 0x4 DUP2 LT PUSH2 0x21F5 JUMPI PUSH2 0x21F4 PUSH2 0x516C JUMP JUMPDEST JUMPDEST PUSH1 0x20 MUL ADD MLOAD MULMOD DUP7 PUSH1 0x0 PUSH1 0x2 DUP2 LT PUSH2 0x220F JUMPI PUSH2 0x220E PUSH2 0x516C JUMP JUMPDEST JUMPDEST PUSH1 0x20 MUL ADD MLOAD ADDMOD DUP6 PUSH1 0x0 PUSH1 0x2 DUP2 LT PUSH2 0x2229 JUMPI PUSH2 0x2228 PUSH2 0x516C JUMP JUMPDEST JUMPDEST PUSH1 0x20 MUL ADD DUP2 DUP2 MSTORE POP POP POP POP POP PUSH2 0x223D PUSH2 0x4A3F JUMP JUMPDEST PUSH2 0x2245 PUSH2 0x4A12 JUMP JUMPDEST DUP11 PUSH1 0xA0 ADD MLOAD PUSH1 0x1 DUP2 MLOAD DUP2 LT PUSH2 0x225D JUMPI PUSH2 0x225C PUSH2 0x516C JUMP JUMPDEST JUMPDEST PUSH1 0x20 MUL PUSH1 0x20 ADD ADD MLOAD DUP3 PUSH1 0x0 PUSH1 0x2 DUP2 LT PUSH2 0x2279 JUMPI PUSH2 0x2278 PUSH2 0x516C JUMP JUMPDEST JUMPDEST PUSH1 0x20 MUL ADD DUP2 DUP2 MSTORE POP POP DUP11 PUSH1 0x60 ADD MLOAD PUSH1 0x0 DUP2 MLOAD DUP2 LT PUSH2 0x229A JUMPI PUSH2 0x2299 PUSH2 0x516C JUMP JUMPDEST JUMPDEST PUSH1 0x20 MUL PUSH1 0x20 ADD ADD MLOAD DUP2 PUSH1 0x0 PUSH1 0x2 DUP2 LT PUSH2 0x22B6 JUMPI PUSH2 0x22B5 PUSH2 0x516C JUMP JUMPDEST JUMPDEST PUSH1 0x20 MUL ADD DUP2 SWAP1 MSTORE POP PUSH2 0x22C6 PUSH2 0x4AD2 JUMP JUMPDEST PUSH1 0x0 PUSH32 0x30644E72E131A029B85045B68181585D2833E84879B9709143E1F593F0000001 DUP1 PUSH2 0x22F7 JUMPI PUSH2 0x22F6 PUSH2 0x5846 JUMP JUMPDEST JUMPDEST DUP6 PUSH1 0x2 PUSH1 0x6 DUP2 LT PUSH2 0x230B JUMPI PUSH2 0x230A PUSH2 0x516C JUMP JUMPDEST JUMPDEST PUSH1 0x20 MUL ADD MLOAD DUP7 PUSH1 0x1 PUSH1 0x6 DUP2 LT PUSH2 0x2324 JUMPI PUSH2 0x2323 PUSH2 0x516C JUMP JUMPDEST JUMPDEST PUSH1 0x20 MUL ADD MLOAD MULMOD SWAP1 POP PUSH32 0x30644E72E131A029B85045B68181585D2833E84879B9709143E1F593F0000001 DUP1 PUSH2 0x235B JUMPI PUSH2 0x235A PUSH2 0x5846 JUMP JUMPDEST JUMPDEST DUP2 DUP10 PUSH1 0x1 PUSH1 0x7 DUP2 LT PUSH2 0x2370 JUMPI PUSH2 0x236F PUSH2 0x516C JUMP JUMPDEST JUMPDEST PUSH1 0x20 MUL ADD MLOAD MULMOD DUP3 PUSH1 0x0 PUSH1 0x8 DUP2 LT PUSH2 0x238A JUMPI PUSH2 0x2389 PUSH2 0x516C JUMP JUMPDEST JUMPDEST PUSH1 0x20 MUL ADD DUP2 DUP2 MSTORE POP POP PUSH32 0x30644E72E131A029B85045B68181585D2833E84879B9709143E1F593F0000001 DUP1 PUSH2 0x23C2 JUMPI PUSH2 0x23C1 PUSH2 0x5846 JUMP JUMPDEST JUMPDEST DUP2 DUP10 PUSH1 0x2 PUSH1 0x7 DUP2 LT PUSH2 0x23D7 JUMPI PUSH2 0x23D6 PUSH2 0x516C JUMP JUMPDEST JUMPDEST PUSH1 0x20 MUL ADD MLOAD MULMOD DUP3 PUSH1 0x1 PUSH1 0x8 DUP2 LT PUSH2 0x23F1 JUMPI PUSH2 0x23F0 PUSH2 0x516C JUMP JUMPDEST JUMPDEST PUSH1 0x20 MUL ADD DUP2 DUP2 MSTORE POP POP PUSH32 0x30644E72E131A029B85045B68181585D2833E84879B9709143E1F593F0000001 DUP1 PUSH2 0x2429 JUMPI PUSH2 0x2428 PUSH2 0x5846 JUMP JUMPDEST JUMPDEST DUP2 DUP10 PUSH1 0x3 PUSH1 0x7 DUP2 LT PUSH2 0x243E JUMPI PUSH2 0x243D PUSH2 0x516C JUMP JUMPDEST JUMPDEST PUSH1 0x20 MUL ADD MLOAD MULMOD DUP3 PUSH1 0x2 PUSH1 0x8 DUP2 LT PUSH2 0x2458 JUMPI PUSH2 0x2457 PUSH2 0x516C JUMP JUMPDEST JUMPDEST PUSH1 0x20 MUL ADD DUP2 DUP2 MSTORE POP POP POP PUSH1 0x0 PUSH32 0x30644E72E131A029B85045B68181585D2833E84879B9709143E1F593F0000001 DUP1 PUSH2 0x2493 JUMPI PUSH2 0x2492 PUSH2 0x5846 JUMP JUMPDEST JUMPDEST DUP14 PUSH1 0xA0 ADD MLOAD PUSH1 0x1 DUP2 MLOAD DUP2 LT PUSH2 0x24AB JUMPI PUSH2 0x24AA PUSH2 0x516C JUMP JUMPDEST JUMPDEST PUSH1 0x20 MUL PUSH1 0x20 ADD ADD MLOAD DUP10 PUSH1 0x5 PUSH1 0x7 DUP2 LT PUSH2 0x24C7 JUMPI PUSH2 0x24C6 PUSH2 0x516C JUMP JUMPDEST JUMPDEST PUSH1 0x20 MUL ADD MLOAD MULMOD SWAP1 POP PUSH32 0x30644E72E131A029B85045B68181585D2833E84879B9709143E1F593F0000001 DUP1 PUSH2 0x24FE JUMPI PUSH2 0x24FD PUSH2 0x5846 JUMP JUMPDEST JUMPDEST PUSH32 0x30644E72E131A029B85045B68181585D2833E84879B9709143E1F593F0000001 DUP1 PUSH2 0x252D JUMPI PUSH2 0x252C PUSH2 0x5846 JUMP JUMPDEST JUMPDEST PUSH2 0x2539 PUSH3 0x400000 PUSH2 0x43A8 JUMP JUMPDEST DUP16 PUSH1 0xA0 ADD MLOAD PUSH1 0x2 DUP2 MLOAD DUP2 LT PUSH2 0x2551 JUMPI PUSH2 0x2550 PUSH2 0x516C JUMP JUMPDEST JUMPDEST PUSH1 0x20 MUL PUSH1 0x20 ADD ADD MLOAD MULMOD DUP3 ADDMOD SWAP1 POP PUSH32 0x30644E72E131A029B85045B68181585D2833E84879B9709143E1F593F0000001 DUP1 PUSH2 0x258D JUMPI PUSH2 0x258C PUSH2 0x5846 JUMP JUMPDEST JUMPDEST PUSH2 0x261A PUSH1 0x0 PUSH32 0x30644E72E131A029B85045B68181585D2833E84879B9709143E1F593F0000001 DUP1 PUSH2 0x25C1 JUMPI PUSH2 0x25C0 PUSH2 0x5846 JUMP JUMPDEST JUMPDEST DUP12 PUSH1 0x0 PUSH1 0x7 DUP2 LT PUSH2 0x25D5 JUMPI PUSH2 0x25D4 PUSH2 0x516C JUMP JUMPDEST JUMPDEST PUSH1 0x20 MUL ADD MLOAD DUP13 PUSH1 0x4 PUSH1 0x7 DUP2 LT PUSH2 0x25EE JUMPI PUSH2 0x25ED PUSH2 0x516C JUMP JUMPDEST JUMPDEST PUSH1 0x20 MUL ADD MLOAD MULMOD PUSH32 0x30644E72E131A029B85045B68181585D2833E84879B9709143E1F593F0000001 PUSH2 0x4171 JUMP JUMPDEST DUP3 MULMOD DUP3 PUSH1 0x3 PUSH1 0x8 DUP2 LT PUSH2 0x2630 JUMPI PUSH2 0x262F PUSH2 0x516C JUMP JUMPDEST JUMPDEST PUSH1 0x20 MUL ADD DUP2 DUP2 MSTORE POP POP PUSH32 0x30644E72E131A029B85045B68181585D2833E84879B9709143E1F593F0000001 DUP1 PUSH2 0x2668 JUMPI PUSH2 0x2667 PUSH2 0x5846 JUMP JUMPDEST JUMPDEST DUP9 PUSH1 0x0 PUSH1 0x7 DUP2 LT PUSH2 0x267C JUMPI PUSH2 0x267B PUSH2 0x516C JUMP JUMPDEST JUMPDEST PUSH1 0x20 MUL ADD MLOAD DUP3 MULMOD DUP3 PUSH1 0x4 PUSH1 0x8 DUP2 LT PUSH2 0x2697 JUMPI PUSH2 0x2696 PUSH2 0x516C JUMP JUMPDEST JUMPDEST PUSH1 0x20 MUL ADD DUP2 DUP2 MSTORE POP POP PUSH32 0x30644E72E131A029B85045B68181585D2833E84879B9709143E1F593F0000001 DUP1 PUSH2 0x26CF JUMPI PUSH2 0x26CE PUSH2 0x5846 JUMP JUMPDEST JUMPDEST DUP9 PUSH1 0x4 PUSH1 0x7 DUP2 LT PUSH2 0x26E3 JUMPI PUSH2 0x26E2 PUSH2 0x516C JUMP JUMPDEST JUMPDEST PUSH1 0x20 MUL ADD MLOAD DUP3 MULMOD DUP3 PUSH1 0x5 PUSH1 0x8 DUP2 LT PUSH2 0x26FE JUMPI PUSH2 0x26FD PUSH2 0x516C JUMP JUMPDEST JUMPDEST PUSH1 0x20 MUL ADD DUP2 DUP2 MSTORE POP POP PUSH2 0x2733 PUSH1 0x0 DUP3 PUSH32 0x30644E72E131A029B85045B68181585D2833E84879B9709143E1F593F0000001 PUSH2 0x4171 JUMP JUMPDEST DUP3 PUSH1 0x6 PUSH1 0x8 DUP2 LT PUSH2 0x2747 JUMPI PUSH2 0x2746 PUSH2 0x516C JUMP JUMPDEST JUMPDEST PUSH1 0x20 MUL ADD DUP2 DUP2 MSTORE POP POP POP PUSH2 0x2795 PUSH1 0x0 DUP6 PUSH1 0x5 PUSH1 0x6 DUP2 LT PUSH2 0x276A JUMPI PUSH2 0x2769 PUSH2 0x516C JUMP JUMPDEST JUMPDEST PUSH1 0x20 MUL ADD MLOAD PUSH32 0x30644E72E131A029B85045B68181585D2833E84879B9709143E1F593F0000001 PUSH2 0x4171 JUMP JUMPDEST DUP2 PUSH1 0x7 PUSH1 0x8 DUP2 LT PUSH2 0x27A9 JUMPI PUSH2 0x27A8 PUSH2 0x516C JUMP JUMPDEST JUMPDEST PUSH1 0x20 MUL ADD DUP2 DUP2 MSTORE POP POP PUSH2 0x27FC DUP2 PUSH1 0x0 PUSH1 0x8 DUP2 LT PUSH2 0x27C9 JUMPI PUSH2 0x27C8 PUSH2 0x516C JUMP JUMPDEST JUMPDEST PUSH1 0x20 MUL ADD MLOAD DUP12 PUSH1 0x0 ADD MLOAD PUSH1 0x2 DUP2 MLOAD DUP2 LT PUSH2 0x27E6 JUMPI PUSH2 0x27E5 PUSH2 0x516C JUMP JUMPDEST JUMPDEST PUSH1 0x20 MUL PUSH1 0x20 ADD ADD MLOAD PUSH2 0x4199 SWAP1 SWAP2 SWAP1 PUSH4 0xFFFFFFFF AND JUMP JUMPDEST DUP3 PUSH1 0x1 PUSH1 0x2 DUP2 LT PUSH2 0x2810 JUMPI PUSH2 0x280F PUSH2 0x516C JUMP JUMPDEST JUMPDEST PUSH1 0x20 MUL ADD DUP2 SWAP1 MSTORE POP PUSH2 0x288C PUSH2 0x2865 DUP3 PUSH1 0x1 PUSH1 0x8 DUP2 LT PUSH2 0x2832 JUMPI PUSH2 0x2831 PUSH2 0x516C JUMP JUMPDEST JUMPDEST PUSH1 0x20 MUL ADD MLOAD DUP13 PUSH1 0x0 ADD MLOAD PUSH1 0x3 DUP2 MLOAD DUP2 LT PUSH2 0x284F JUMPI PUSH2 0x284E PUSH2 0x516C JUMP JUMPDEST JUMPDEST PUSH1 0x20 MUL PUSH1 0x20 ADD ADD MLOAD PUSH2 0x4199 SWAP1 SWAP2 SWAP1 PUSH4 0xFFFFFFFF AND JUMP JUMPDEST DUP4 PUSH1 0x1 PUSH1 0x2 DUP2 LT PUSH2 0x2879 JUMPI PUSH2 0x2878 PUSH2 0x516C JUMP JUMPDEST JUMPDEST PUSH1 0x20 MUL ADD MLOAD PUSH2 0x423B SWAP1 SWAP2 SWAP1 PUSH4 0xFFFFFFFF AND JUMP JUMPDEST DUP3 PUSH1 0x1 PUSH1 0x2 DUP2 LT PUSH2 0x28A0 JUMPI PUSH2 0x289F PUSH2 0x516C JUMP JUMPDEST JUMPDEST PUSH1 0x20 MUL ADD DUP2 SWAP1 MSTORE POP PUSH2 0x291C PUSH2 0x28F5 DUP3 PUSH1 0x2 PUSH1 0x8 DUP2 LT PUSH2 0x28C2 JUMPI PUSH2 0x28C1 PUSH2 0x516C JUMP JUMPDEST JUMPDEST PUSH1 0x20 MUL ADD MLOAD DUP13 PUSH1 0x0 ADD MLOAD PUSH1 0x4 DUP2 MLOAD DUP2 LT PUSH2 0x28DF JUMPI PUSH2 0x28DE PUSH2 0x516C JUMP JUMPDEST JUMPDEST PUSH1 0x20 MUL PUSH1 0x20 ADD ADD MLOAD PUSH2 0x4199 SWAP1 SWAP2 SWAP1 PUSH4 0xFFFFFFFF AND JUMP JUMPDEST DUP4 PUSH1 0x1 PUSH1 0x2 DUP2 LT PUSH2 0x2909 JUMPI PUSH2 0x2908 PUSH2 0x516C JUMP JUMPDEST JUMPDEST PUSH1 0x20 MUL ADD MLOAD PUSH2 0x423B SWAP1 SWAP2 SWAP1 PUSH4 0xFFFFFFFF AND JUMP JUMPDEST DUP3 PUSH1 0x1 PUSH1 0x2 DUP2 LT PUSH2 0x2930 JUMPI PUSH2 0x292F PUSH2 0x516C JUMP JUMPDEST JUMPDEST PUSH1 0x20 MUL ADD DUP2 SWAP1 MSTORE POP PUSH2 0x29AC PUSH2 0x2985 DUP3 PUSH1 0x4 PUSH1 0x8 DUP2 LT PUSH2 0x2952 JUMPI PUSH2 0x2951 PUSH2 0x516C JUMP JUMPDEST JUMPDEST PUSH1 0x20 MUL ADD MLOAD DUP13 PUSH1 0x0 ADD MLOAD PUSH1 0x0 DUP2 MLOAD DUP2 LT PUSH2 0x296F JUMPI PUSH2 0x296E PUSH2 0x516C JUMP JUMPDEST JUMPDEST PUSH1 0x20 MUL PUSH1 0x20 ADD ADD MLOAD PUSH2 0x4199 SWAP1 SWAP2 SWAP1 PUSH4 0xFFFFFFFF AND JUMP JUMPDEST DUP4 PUSH1 0x1 PUSH1 0x2 DUP2 LT PUSH2 0x2999 JUMPI PUSH2 0x2998 PUSH2 0x516C JUMP JUMPDEST JUMPDEST PUSH1 0x20 MUL ADD MLOAD PUSH2 0x423B SWAP1 SWAP2 SWAP1 PUSH4 0xFFFFFFFF AND JUMP JUMPDEST DUP3 PUSH1 0x1 PUSH1 0x2 DUP2 LT PUSH2 0x29C0 JUMPI PUSH2 0x29BF PUSH2 0x516C JUMP JUMPDEST JUMPDEST PUSH1 0x20 MUL ADD DUP2 SWAP1 MSTORE POP PUSH2 0x2A3C PUSH2 0x2A15 DUP3 PUSH1 0x5 PUSH1 0x8 DUP2 LT PUSH2 0x29E2 JUMPI PUSH2 0x29E1 PUSH2 0x516C JUMP JUMPDEST JUMPDEST PUSH1 0x20 MUL ADD MLOAD DUP13 PUSH1 0x0 ADD MLOAD PUSH1 0x1 DUP2 MLOAD DUP2 LT PUSH2 0x29FF JUMPI PUSH2 0x29FE PUSH2 0x516C JUMP JUMPDEST JUMPDEST PUSH1 0x20 MUL PUSH1 0x20 ADD ADD MLOAD PUSH2 0x4199 SWAP1 SWAP2 SWAP1 PUSH4 0xFFFFFFFF AND JUMP JUMPDEST DUP4 PUSH1 0x1 PUSH1 0x2 DUP2 LT PUSH2 0x2A29 JUMPI PUSH2 0x2A28 PUSH2 0x516C JUMP JUMPDEST JUMPDEST PUSH1 0x20 MUL ADD MLOAD PUSH2 0x423B SWAP1 SWAP2 SWAP1 PUSH4 0xFFFFFFFF AND JUMP JUMPDEST DUP3 PUSH1 0x1 PUSH1 0x2 DUP2 LT PUSH2 0x2A50 JUMPI PUSH2 0x2A4F PUSH2 0x516C JUMP JUMPDEST JUMPDEST PUSH1 0x20 MUL ADD DUP2 SWAP1 MSTORE POP PUSH2 0x2ACC PUSH2 0x2AA5 DUP3 PUSH1 0x6 PUSH1 0x8 DUP2 LT PUSH2 0x2A72 JUMPI PUSH2 0x2A71 PUSH2 0x516C JUMP JUMPDEST JUMPDEST PUSH1 0x20 MUL ADD MLOAD DUP13 PUSH1 0x0 ADD MLOAD PUSH1 0x5 DUP2 MLOAD DUP2 LT PUSH2 0x2A8F JUMPI PUSH2 0x2A8E PUSH2 0x516C JUMP JUMPDEST JUMPDEST PUSH1 0x20 MUL PUSH1 0x20 ADD ADD MLOAD PUSH2 0x4199 SWAP1 SWAP2 SWAP1 PUSH4 0xFFFFFFFF AND JUMP JUMPDEST DUP4 PUSH1 0x1 PUSH1 0x2 DUP2 LT PUSH2 0x2AB9 JUMPI PUSH2 0x2AB8 PUSH2 0x516C JUMP JUMPDEST JUMPDEST PUSH1 0x20 MUL ADD MLOAD PUSH2 0x423B SWAP1 SWAP2 SWAP1 PUSH4 0xFFFFFFFF AND JUMP JUMPDEST DUP3 PUSH1 0x1 PUSH1 0x2 DUP2 LT PUSH2 0x2AE0 JUMPI PUSH2 0x2ADF PUSH2 0x516C JUMP JUMPDEST JUMPDEST PUSH1 0x20 MUL ADD DUP2 SWAP1 MSTORE POP PUSH2 0x2B5C PUSH2 0x2B35 DUP3 PUSH1 0x7 PUSH1 0x8 DUP2 LT PUSH2 0x2B02 JUMPI PUSH2 0x2B01 PUSH2 0x516C JUMP JUMPDEST JUMPDEST PUSH1 0x20 MUL ADD MLOAD DUP15 PUSH1 0x60 ADD MLOAD PUSH1 0x1 DUP2 MLOAD DUP2 LT PUSH2 0x2B1F JUMPI PUSH2 0x2B1E PUSH2 0x516C JUMP JUMPDEST JUMPDEST PUSH1 0x20 MUL PUSH1 0x20 ADD ADD MLOAD PUSH2 0x4199 SWAP1 SWAP2 SWAP1 PUSH4 0xFFFFFFFF AND JUMP JUMPDEST DUP4 PUSH1 0x1 PUSH1 0x2 DUP2 LT PUSH2 0x2B49 JUMPI PUSH2 0x2B48 PUSH2 0x516C JUMP JUMPDEST JUMPDEST PUSH1 0x20 MUL ADD MLOAD PUSH2 0x423B SWAP1 SWAP2 SWAP1 PUSH4 0xFFFFFFFF AND JUMP JUMPDEST DUP3 PUSH1 0x1 PUSH1 0x2 DUP2 LT PUSH2 0x2B70 JUMPI PUSH2 0x2B6F PUSH2 0x516C JUMP JUMPDEST JUMPDEST PUSH1 0x20 MUL ADD DUP2 SWAP1 MSTORE POP PUSH2 0x2BBC PUSH1 0x0 DUP3 PUSH1 0x3 PUSH1 0x8 DUP2 LT PUSH2 0x2B91 JUMPI PUSH2 0x2B90 PUSH2 0x516C JUMP JUMPDEST JUMPDEST PUSH1 0x20 MUL ADD MLOAD PUSH32 0x30644E72E131A029B85045B68181585D2833E84879B9709143E1F593F0000001 PUSH2 0x4171 JUMP JUMPDEST DUP4 PUSH1 0x1 PUSH1 0x2 DUP2 LT PUSH2 0x2BD0 JUMPI PUSH2 0x2BCF PUSH2 0x516C JUMP JUMPDEST JUMPDEST PUSH1 0x20 MUL ADD DUP2 DUP2 MSTORE POP POP POP DUP1 PUSH1 0x0 PUSH1 0x2 DUP2 LT PUSH2 0x2BEE JUMPI PUSH2 0x2BED PUSH2 0x516C JUMP JUMPDEST JUMPDEST PUSH1 0x20 MUL ADD MLOAD DUP6 PUSH1 0x1 PUSH1 0x2 DUP2 LT PUSH2 0x2C07 JUMPI PUSH2 0x2C06 PUSH2 0x516C JUMP JUMPDEST JUMPDEST PUSH1 0x20 MUL ADD DUP2 SWAP1 MSTORE POP DUP2 PUSH1 0x0 PUSH1 0x2 DUP2 LT PUSH2 0x2C23 JUMPI PUSH2 0x2C22 PUSH2 0x516C JUMP JUMPDEST JUMPDEST PUSH1 0x20 MUL ADD MLOAD DUP5 PUSH1 0x1 PUSH1 0x2 DUP2 LT PUSH2 0x2C3C JUMPI PUSH2 0x2C3B PUSH2 0x516C JUMP JUMPDEST JUMPDEST PUSH1 0x20 MUL ADD DUP2 DUP2 MSTORE POP POP PUSH1 0x0 DUP7 PUSH1 0x6 PUSH1 0x7 DUP2 LT PUSH2 0x2C5B JUMPI PUSH2 0x2C5A PUSH2 0x516C JUMP JUMPDEST JUMPDEST PUSH1 0x20 MUL ADD MLOAD SWAP1 POP PUSH1 0x0 PUSH2 0x2CB1 PUSH2 0x2C9E PUSH2 0x2C99 DUP7 PUSH1 0x0 PUSH1 0x2 DUP2 LT PUSH2 0x2C81 JUMPI PUSH2 0x2C80 PUSH2 0x516C JUMP JUMPDEST JUMPDEST PUSH1 0x20 MUL ADD MLOAD DUP15 PUSH1 0x60 ADD MLOAD PUSH2 0x4199 SWAP1 SWAP2 SWAP1 PUSH4 0xFFFFFFFF AND JUMP JUMPDEST PUSH2 0x4303 JUMP JUMPDEST DUP15 PUSH1 0x80 ADD MLOAD PUSH2 0x423B SWAP1 SWAP2 SWAP1 PUSH4 0xFFFFFFFF AND JUMP JUMPDEST SWAP1 POP PUSH2 0x2CC6 DUP3 DUP3 PUSH2 0x4199 SWAP1 SWAP2 SWAP1 PUSH4 0xFFFFFFFF AND JUMP JUMPDEST SWAP1 POP PUSH2 0x2CF3 DUP2 DUP9 PUSH1 0x1 PUSH1 0x2 DUP2 LT PUSH2 0x2CE0 JUMPI PUSH2 0x2CDF PUSH2 0x516C JUMP JUMPDEST JUMPDEST PUSH1 0x20 MUL ADD MLOAD PUSH2 0x423B SWAP1 SWAP2 SWAP1 PUSH4 0xFFFFFFFF AND JUMP JUMPDEST DUP8 PUSH1 0x1 PUSH1 0x2 DUP2 LT PUSH2 0x2D07 JUMPI PUSH2 0x2D06 PUSH2 0x516C JUMP JUMPDEST JUMPDEST PUSH1 0x20 MUL ADD DUP2 SWAP1 MSTORE POP POP PUSH32 0x30644E72E131A029B85045B68181585D2833E84879B9709143E1F593F0000001 DUP1 PUSH2 0x2D3F JUMPI PUSH2 0x2D3E PUSH2 0x5846 JUMP JUMPDEST JUMPDEST DUP8 PUSH1 0x6 PUSH1 0x7 DUP2 LT PUSH2 0x2D53 JUMPI PUSH2 0x2D52 PUSH2 0x516C JUMP JUMPDEST JUMPDEST PUSH1 0x20 MUL ADD MLOAD DUP3 MULMOD SWAP1 POP PUSH2 0x2DB1 PUSH2 0x2D8A DUP3 DUP5 PUSH1 0x1 PUSH1 0x2 DUP2 LT PUSH2 0x2D77 JUMPI PUSH2 0x2D76 PUSH2 0x516C JUMP JUMPDEST JUMPDEST PUSH1 0x20 MUL ADD MLOAD PUSH2 0x4199 SWAP1 SWAP2 SWAP1 PUSH4 0xFFFFFFFF AND JUMP JUMPDEST DUP8 PUSH1 0x1 PUSH1 0x2 DUP2 LT PUSH2 0x2D9E JUMPI PUSH2 0x2D9D PUSH2 0x516C JUMP JUMPDEST JUMPDEST PUSH1 0x20 MUL ADD MLOAD PUSH2 0x423B SWAP1 SWAP2 SWAP1 PUSH4 0xFFFFFFFF AND JUMP JUMPDEST DUP7 PUSH1 0x1 PUSH1 0x2 DUP2 LT PUSH2 0x2DC5 JUMPI PUSH2 0x2DC4 PUSH2 0x516C JUMP JUMPDEST JUMPDEST PUSH1 0x20 MUL ADD DUP2 SWAP1 MSTORE POP PUSH32 0x30644E72E131A029B85045B68181585D2833E84879B9709143E1F593F0000001 DUP1 PUSH2 0x2DFC JUMPI PUSH2 0x2DFB PUSH2 0x5846 JUMP JUMPDEST JUMPDEST PUSH32 0x30644E72E131A029B85045B68181585D2833E84879B9709143E1F593F0000001 DUP1 PUSH2 0x2E2B JUMPI PUSH2 0x2E2A PUSH2 0x5846 JUMP JUMPDEST JUMPDEST DUP3 DUP6 PUSH1 0x1 PUSH1 0x2 DUP2 LT PUSH2 0x2E40 JUMPI PUSH2 0x2E3F PUSH2 0x516C JUMP JUMPDEST JUMPDEST PUSH1 0x20 MUL ADD MLOAD MULMOD DUP7 PUSH1 0x1 PUSH1 0x2 DUP2 LT PUSH2 0x2E5A JUMPI PUSH2 0x2E59 PUSH2 0x516C JUMP JUMPDEST JUMPDEST PUSH1 0x20 MUL ADD MLOAD ADDMOD DUP6 PUSH1 0x1 PUSH1 0x2 DUP2 LT PUSH2 0x2E74 JUMPI PUSH2 0x2E73 PUSH2 0x516C JUMP JUMPDEST JUMPDEST PUSH1 0x20 MUL ADD DUP2 DUP2 MSTORE POP POP POP POP POP POP PUSH1 0x0 DUP3 PUSH1 0x0 PUSH1 0x2 DUP2 LT PUSH2 0x2E97 JUMPI PUSH2 0x2E96 PUSH2 0x516C JUMP JUMPDEST JUMPDEST PUSH1 0x20 MUL ADD MLOAD PUSH1 0x0 ADD MLOAD DUP4 PUSH1 0x0 PUSH1 0x2 DUP2 LT PUSH2 0x2EB4 JUMPI PUSH2 0x2EB3 PUSH2 0x516C JUMP JUMPDEST JUMPDEST PUSH1 0x20 MUL ADD MLOAD PUSH1 0x20 ADD MLOAD DUP5 PUSH1 0x1 PUSH1 0x2 DUP2 LT PUSH2 0x2ED1 JUMPI PUSH2 0x2ED0 PUSH2 0x516C JUMP JUMPDEST JUMPDEST PUSH1 0x20 MUL ADD MLOAD PUSH1 0x0 ADD MLOAD DUP6 PUSH1 0x1 PUSH1 0x2 DUP2 LT PUSH2 0x2EEE JUMPI PUSH2 0x2EED PUSH2 0x516C JUMP JUMPDEST JUMPDEST PUSH1 0x20 MUL ADD MLOAD PUSH1 0x20 ADD MLOAD DUP10 PUSH1 0x40 MLOAD PUSH1 0x20 ADD PUSH2 0x2F0C SWAP6 SWAP5 SWAP4 SWAP3 SWAP2 SWAP1 PUSH2 0x58D8 JUMP JUMPDEST PUSH1 0x40 MLOAD PUSH1 0x20 DUP2 DUP4 SUB SUB DUP2 MSTORE SWAP1 PUSH1 0x40 MSTORE DUP1 MLOAD SWAP1 PUSH1 0x20 ADD KECCAK256 PUSH1 0x0 SHR SWAP1 POP PUSH2 0x2F2F PUSH2 0x4AF5 JUMP JUMPDEST PUSH2 0x2F37 PUSH2 0x4A12 JUMP JUMPDEST PUSH2 0x2F90 PUSH2 0x2F69 DUP8 PUSH1 0x4 PUSH1 0x7 DUP2 LT PUSH2 0x2F51 JUMPI PUSH2 0x2F50 PUSH2 0x516C JUMP JUMPDEST JUMPDEST PUSH1 0x20 MUL ADD MLOAD DUP14 PUSH1 0xC0 ADD MLOAD PUSH2 0x4199 SWAP1 SWAP2 SWAP1 PUSH4 0xFFFFFFFF AND JUMP JUMPDEST DUP7 PUSH1 0x0 PUSH1 0x2 DUP2 LT PUSH2 0x2F7D JUMPI PUSH2 0x2F7C PUSH2 0x516C JUMP JUMPDEST JUMPDEST PUSH1 0x20 MUL ADD MLOAD PUSH2 0x423B SWAP1 SWAP2 SWAP1 PUSH4 0xFFFFFFFF AND JUMP JUMPDEST DUP2 PUSH1 0x0 PUSH1 0x2 DUP2 LT PUSH2 0x2FA4 JUMPI PUSH2 0x2FA3 PUSH2 0x516C JUMP JUMPDEST JUMPDEST PUSH1 0x20 MUL ADD DUP2 SWAP1 MSTORE POP PUSH2 0x3006 PUSH2 0x2FDF DUP8 PUSH1 0x5 PUSH1 0x7 DUP2 LT PUSH2 0x2FC6 JUMPI PUSH2 0x2FC5 PUSH2 0x516C JUMP JUMPDEST JUMPDEST PUSH1 0x20 MUL ADD MLOAD DUP14 PUSH2 0x100 ADD MLOAD PUSH2 0x4199 SWAP1 SWAP2 SWAP1 PUSH4 0xFFFFFFFF AND JUMP JUMPDEST DUP7 PUSH1 0x1 PUSH1 0x2 DUP2 LT PUSH2 0x2FF3 JUMPI PUSH2 0x2FF2 PUSH2 0x516C JUMP JUMPDEST JUMPDEST PUSH1 0x20 MUL ADD MLOAD PUSH2 0x423B SWAP1 SWAP2 SWAP1 PUSH4 0xFFFFFFFF AND JUMP JUMPDEST DUP2 PUSH1 0x1 PUSH1 0x2 DUP2 LT PUSH2 0x301A JUMPI PUSH2 0x3019 PUSH2 0x516C JUMP JUMPDEST JUMPDEST PUSH1 0x20 MUL ADD DUP2 SWAP1 MSTORE POP PUSH2 0x3077 PUSH2 0x3050 DUP5 DUP4 PUSH1 0x1 PUSH1 0x2 DUP2 LT PUSH2 0x303D JUMPI PUSH2 0x303C PUSH2 0x516C JUMP JUMPDEST JUMPDEST PUSH1 0x20 MUL ADD MLOAD PUSH2 0x4199 SWAP1 SWAP2 SWAP1 PUSH4 0xFFFFFFFF AND JUMP JUMPDEST DUP3 PUSH1 0x0 PUSH1 0x2 DUP2 LT PUSH2 0x3064 JUMPI PUSH2 0x3063 PUSH2 0x516C JUMP JUMPDEST JUMPDEST PUSH1 0x20 MUL ADD MLOAD PUSH2 0x423B SWAP1 SWAP2 SWAP1 PUSH4 0xFFFFFFFF AND JUMP JUMPDEST SWAP2 POP POP PUSH1 0x0 PUSH2 0x30AA PUSH2 0x3097 DUP5 DUP14 PUSH2 0x100 ADD MLOAD PUSH2 0x4199 SWAP1 SWAP2 SWAP1 PUSH4 0xFFFFFFFF AND JUMP JUMPDEST DUP13 PUSH1 0xC0 ADD MLOAD PUSH2 0x423B SWAP1 SWAP2 SWAP1 PUSH4 0xFFFFFFFF AND JUMP JUMPDEST SWAP1 POP PUSH1 0x0 PUSH32 0x30644E72E131A029B85045B68181585D2833E84879B9709143E1F593F0000001 DUP1 PUSH2 0x30DD JUMPI PUSH2 0x30DC PUSH2 0x5846 JUMP JUMPDEST JUMPDEST PUSH32 0x30644E72E131A029B85045B68181585D2833E84879B9709143E1F593F0000001 DUP1 PUSH2 0x310C JUMPI PUSH2 0x310B PUSH2 0x5846 JUMP JUMPDEST JUMPDEST DUP6 DUP8 PUSH1 0x1 PUSH1 0x2 DUP2 LT PUSH2 0x3121 JUMPI PUSH2 0x3120 PUSH2 0x516C JUMP JUMPDEST JUMPDEST PUSH1 0x20 MUL ADD MLOAD MULMOD DUP7 PUSH1 0x0 PUSH1 0x2 DUP2 LT PUSH2 0x313B JUMPI PUSH2 0x313A PUSH2 0x516C JUMP JUMPDEST JUMPDEST PUSH1 0x20 MUL ADD MLOAD ADDMOD SWAP1 POP PUSH2 0x3178 PUSH2 0x3169 PUSH2 0x3164 DUP4 DUP14 PUSH1 0x20 ADD MLOAD PUSH1 0x0 ADD MLOAD PUSH2 0x4199 SWAP1 SWAP2 SWAP1 PUSH4 0xFFFFFFFF AND JUMP JUMPDEST PUSH2 0x4303 JUMP JUMPDEST DUP5 PUSH2 0x423B SWAP1 SWAP2 SWAP1 PUSH4 0xFFFFFFFF AND JUMP JUMPDEST SWAP3 POP PUSH2 0x31B3 PUSH2 0x31A4 PUSH2 0x319F DUP15 PUSH1 0xE0 ADD MLOAD DUP14 PUSH1 0x20 ADD MLOAD PUSH1 0x20 ADD MLOAD PUSH2 0x4199 SWAP1 SWAP2 SWAP1 PUSH4 0xFFFFFFFF AND JUMP JUMPDEST PUSH2 0x4303 JUMP JUMPDEST DUP5 PUSH2 0x423B SWAP1 SWAP2 SWAP1 PUSH4 0xFFFFFFFF AND JUMP JUMPDEST SWAP3 POP PUSH1 0x0 PUSH2 0x31DB PUSH2 0x31C3 DUP5 PUSH2 0x4303 JUMP JUMPDEST DUP13 PUSH1 0x20 ADD MLOAD PUSH1 0x60 ADD MLOAD DUP7 DUP15 PUSH1 0x20 ADD MLOAD PUSH1 0x40 ADD MLOAD PUSH2 0x43FC JUMP JUMPDEST SWAP1 POP DUP1 SWAP12 POP POP POP POP POP POP POP POP POP POP POP POP SWAP3 SWAP2 POP POP JUMP JUMPDEST PUSH2 0x31F9 PUSH2 0x4B0F JUMP JUMPDEST PUSH1 0x6 PUSH8 0xFFFFFFFFFFFFFFFF DUP2 GT ISZERO PUSH2 0x3214 JUMPI PUSH2 0x3213 PUSH2 0x4C40 JUMP JUMPDEST JUMPDEST PUSH1 0x40 MLOAD SWAP1 DUP1 DUP3 MSTORE DUP1 PUSH1 0x20 MUL PUSH1 0x20 ADD DUP3 ADD PUSH1 0x40 MSTORE DUP1 ISZERO PUSH2 0x324D JUMPI DUP2 PUSH1 0x20 ADD JUMPDEST PUSH2 0x323A PUSH2 0x4AF5 JUMP JUMPDEST DUP2 MSTORE PUSH1 0x20 ADD SWAP1 PUSH1 0x1 SWAP1 SUB SWAP1 DUP2 PUSH2 0x3232 JUMPI SWAP1 POP JUMPDEST POP DUP2 PUSH1 0x0 ADD DUP2 SWAP1 MSTORE POP PUSH1 0x40 MLOAD DUP1 PUSH1 0x40 ADD PUSH1 0x40 MSTORE DUP1 PUSH32 0x9B7CA7F80643C00AB84C367DD7C014C411081ABA47FF8BBF7457267C07F343B DUP2 MSTORE PUSH1 0x20 ADD PUSH32 0x15C04B7215D4751A9A6BC65E67946D2FDF181E9910F766637B3513EEEC7BBBA3 DUP2 MSTORE POP DUP2 PUSH1 0x0 ADD MLOAD PUSH1 0x0 DUP2 MLOAD DUP2 LT PUSH2 0x32C3 JUMPI PUSH2 0x32C2 PUSH2 0x516C JUMP JUMPDEST JUMPDEST PUSH1 0x20 MUL PUSH1 0x20 ADD ADD DUP2 SWAP1 MSTORE POP PUSH1 0x40 MLOAD DUP1 PUSH1 0x40 ADD PUSH1 0x40 MSTORE DUP1 PUSH32 0x12AF0AD30C32282C9F4CE44774750B781B798B92FC3B381C833E72D572AA693 DUP2 MSTORE PUSH1 0x20 ADD PUSH32 0x3630A6613A8C022FB5BDBF3B308F8F916B3459FCA0DC9882077D381A32228A3 DUP2 MSTORE POP DUP2 PUSH1 0x0 ADD MLOAD PUSH1 0x1 DUP2 MLOAD DUP2 LT PUSH2 0x333B JUMPI PUSH2 0x333A PUSH2 0x516C JUMP JUMPDEST JUMPDEST PUSH1 0x20 MUL PUSH1 0x20 ADD ADD DUP2 SWAP1 MSTORE POP PUSH1 0x40 MLOAD DUP1 PUSH1 0x40 ADD PUSH1 0x40 MSTORE DUP1 PUSH32 0x1D498A57CC6793DE6FB1D584F495E4FD4DB43AEA1BE1F434D7F0EB448CDDA3E5 DUP2 MSTORE PUSH1 0x20 ADD PUSH32 0x28339407EFB26ECDBF7B7E8954E34519C3C25B2379B1161BD5901B6244980326 DUP2 MSTORE POP DUP2 PUSH1 0x0 ADD MLOAD PUSH1 0x2 DUP2 MLOAD DUP2 LT PUSH2 0x33B3 JUMPI PUSH2 0x33B2 PUSH2 0x516C JUMP JUMPDEST JUMPDEST PUSH1 0x20 MUL PUSH1 0x20 ADD ADD DUP2 SWAP1 MSTORE POP PUSH1 0x40 MLOAD DUP1 PUSH1 0x40 ADD PUSH1 0x40 MSTORE DUP1 PUSH32 0x158A5ECDBEED3662AFDC09A7D106D8C6C3D126AA1BB7D16D6A61F9DE93521D9D DUP2 MSTORE PUSH1 0x20 ADD PUSH32 0xEE53295E6E55341ACEF6CEE34EAD48957B37B0175405743504FB902A8DF4559 DUP2 MSTORE POP DUP2 PUSH1 0x0 ADD MLOAD PUSH1 0x3 DUP2 MLOAD DUP2 LT PUSH2 0x342B JUMPI PUSH2 0x342A PUSH2 0x516C JUMP JUMPDEST JUMPDEST PUSH1 0x20 MUL PUSH1 0x20 ADD ADD DUP2 SWAP1 MSTORE POP PUSH1 0x40 MLOAD DUP1 PUSH1 0x40 ADD PUSH1 0x40 MSTORE DUP1 PUSH32 0x569EA3A42F1262FB7A748AE8266C1CA0CEB11BD07E452F4B82DB7202E73B9CE DUP2 MSTORE PUSH1 0x20 ADD PUSH32 0x6E208EAADD0BBEC60ECE0121027C87E8B4D255293744044675A0821602034D0 DUP2 MSTORE POP DUP2 PUSH1 0x0 ADD MLOAD PUSH1 0x4 DUP2 MLOAD DUP2 LT PUSH2 0x34A3 JUMPI PUSH2 0x34A2 PUSH2 0x516C JUMP JUMPDEST JUMPDEST PUSH1 0x20 MUL PUSH1 0x20 ADD ADD DUP2 SWAP1 MSTORE POP PUSH1 0x40 MLOAD DUP1 PUSH1 0x40 ADD PUSH1 0x40 MSTORE DUP1 PUSH32 0x2F5708E968910E2FDED925F63EF5E121F38E0FA4B8ABCA2A737B8D31D43EB933 DUP2 MSTORE PUSH1 0x20 ADD PUSH32 0xE9BC8402A0EFB9535FC4B9563F1075F821D67B7995AC69660DCC388CA14F7F8 DUP2 MSTORE POP DUP2 PUSH1 0x0 ADD MLOAD PUSH1 0x5 DUP2 MLOAD DUP2 LT PUSH2 0x351B JUMPI PUSH2 0x351A PUSH2 0x516C JUMP JUMPDEST JUMPDEST PUSH1 0x20 MUL PUSH1 0x20 ADD ADD DUP2 SWAP1 MSTORE POP PUSH1 0x40 MLOAD DUP1 PUSH1 0x40 ADD PUSH1 0x40 MSTORE DUP1 PUSH32 0x2E26ADFE66FE7BA43AD7DE86E921214965C935513B6B3E117EED5C49529DF430 DUP2 MSTORE PUSH1 0x20 ADD PUSH32 0x1E1FF151BF133B24D3D2C0B48D615D280604465CD74BA599A1866D467390B43 DUP2 MSTORE POP DUP2 PUSH1 0x20 ADD MLOAD PUSH1 0x0 ADD DUP2 SWAP1 MSTORE POP PUSH1 0x40 MLOAD DUP1 PUSH1 0x40 ADD PUSH1 0x40 MSTORE DUP1 PUSH31 0x5A7CCBDFE61FFB88F26B9104952EE8397E682695AD98DE92E82EEBFFAEBD6B DUP2 MSTORE PUSH1 0x20 ADD PUSH32 0xB501F33DFA33901A68BE7F69F8B8EF8DA80DA7E7F798D18F41EAE84974EBDB4 DUP2 MSTORE POP DUP2 PUSH1 0x20 ADD MLOAD PUSH1 0x20 ADD DUP2 SWAP1 MSTORE POP PUSH1 0x40 MLOAD DUP1 PUSH1 0x40 ADD PUSH1 0x40 MSTORE DUP1 PUSH1 0x40 MLOAD DUP1 PUSH1 0x40 ADD PUSH1 0x40 MSTORE DUP1 PUSH32 0x1F0375C0049E79789E570A23999BD4A772C16BA004ED44E2AF28E0442B5F64F DUP2 MSTORE PUSH1 0x20 ADD PUSH32 0x18D327455B14BF79EA81F290FDB214AAD9CB99A819BD8530439AC5A5E280B522 DUP2 MSTORE POP DUP2 MSTORE PUSH1 0x20 ADD PUSH1 0x40 MLOAD DUP1 PUSH1 0x40 ADD PUSH1 0x40 MSTORE DUP1 PUSH32 0x12941B425AD951D75F3F356E0C64C213B05747F94F90DEB6485D53CF81581D4F DUP2 MSTORE PUSH1 0x20 ADD PUSH32 0x9A08D8DCFD5BA5D0C110A08A1DAE2E3E5FA0732E9476EC20873916D165CD9DB DUP2 MSTORE POP DUP2 MSTORE POP DUP2 PUSH1 0x20 ADD MLOAD PUSH1 0x40 ADD DUP2 SWAP1 MSTORE POP PUSH1 0x40 MLOAD DUP1 PUSH1 0x40 ADD PUSH1 0x40 MSTORE DUP1 PUSH1 0x40 MLOAD DUP1 PUSH1 0x40 ADD PUSH1 0x40 MSTORE DUP1 PUSH32 0x138372F9B5F3F2A2AFFBD51379D1C3BC18E68B0C068B5098AED5AF5E6AD5DB69 DUP2 MSTORE PUSH1 0x20 ADD PUSH32 0x15CF3F836B4AB57F52DDEAEA346E16576DB3818B91915BB8C958304DC88528F8 DUP2 MSTORE POP DUP2 MSTORE PUSH1 0x20 ADD PUSH1 0x40 MLOAD DUP1 PUSH1 0x40 ADD PUSH1 0x40 MSTORE DUP1 PUSH32 0x172393EB63B889F28FC573E54FA74D90F326B5BD34650CC8529177028E4E45F5 DUP2 MSTORE PUSH1 0x20 ADD PUSH32 0x24A46E6042E02AD7BE5FE45478DAC5216DEA2C02D94788D821401E6B5522E74B DUP2 MSTORE POP DUP2 MSTORE POP DUP2 PUSH1 0x20 ADD MLOAD PUSH1 0x60 ADD DUP2 SWAP1 MSTORE POP PUSH1 0x40 MLOAD DUP1 PUSH1 0x40 ADD PUSH1 0x40 MSTORE DUP1 PUSH32 0x1433C34C309BD1482FD0CD815C63FE5882A2B7D18753C5A5941AB119E3BF6EB3 DUP2 MSTORE PUSH1 0x20 ADD PUSH32 0x231F0BDBCF41E1BBBFAF7A664904CED941933A2B0686879C13825C315C821D31 DUP2 MSTORE POP DUP2 PUSH1 0x40 ADD DUP2 SWAP1 MSTORE POP PUSH1 0x40 MLOAD DUP1 PUSH1 0x40 ADD PUSH1 0x40 MSTORE DUP1 PUSH32 0xF76DEDD75EFF6DFC1F283967F6452ED091AED0908FD019D1E6B1B971688F0A1 DUP2 MSTORE PUSH1 0x20 ADD PUSH32 0x20D1BC3F70B453CDF04DE8900BFA3203A55213441524AD925CC4287D00677F73 DUP2 MSTORE POP DUP2 PUSH1 0x60 ADD DUP2 SWAP1 MSTORE POP SWAP1 JUMP JUMPDEST PUSH1 0x0 DUP2 SWAP1 POP PUSH1 0x8 PUSH31 0xFF00FF00FF00FF00FF00FF00FF00FF00FF00FF00FF00FF00FF00FF00FF00FF DUP3 AND SWAP1 SHL PUSH1 0x8 PUSH32 0xFF00FF00FF00FF00FF00FF00FF00FF00FF00FF00FF00FF00FF00FF00FF00FF00 DUP4 AND SWAP1 SHR OR SWAP1 POP PUSH1 0x10 PUSH30 0xFFFF0000FFFF0000FFFF0000FFFF0000FFFF0000FFFF0000FFFF0000FFFF DUP3 AND SWAP1 SHL PUSH1 0x10 PUSH32 0xFFFF0000FFFF0000FFFF0000FFFF0000FFFF0000FFFF0000FFFF0000FFFF0000 DUP4 AND SWAP1 SHR OR SWAP1 POP PUSH1 0x20 PUSH28 0xFFFFFFFF00000000FFFFFFFF00000000FFFFFFFF00000000FFFFFFFF DUP3 AND SWAP1 SHL PUSH1 0x20 PUSH32 0xFFFFFFFF00000000FFFFFFFF00000000FFFFFFFF00000000FFFFFFFF00000000 DUP4 AND SWAP1 SHR OR SWAP1 POP PUSH1 0x40 PUSH24 0xFFFFFFFFFFFFFFFF0000000000000000FFFFFFFFFFFFFFFF DUP3 AND SWAP1 SHL PUSH1 0x40 PUSH32 0xFFFFFFFFFFFFFFFF0000000000000000FFFFFFFFFFFFFFFF0000000000000000 DUP4 AND SWAP1 SHR OR SWAP1 POP PUSH1 0x80 DUP2 SWAP1 SHL PUSH1 0x80 DUP3 SWAP1 SHR OR SWAP1 POP SWAP2 SWAP1 POP JUMP JUMPDEST PUSH1 0x0 DUP1 JUMPDEST PUSH1 0x1 ISZERO PUSH2 0x3A7A JUMPI PUSH1 0x0 DUP1 PUSH1 0x0 SWAP1 POP JUMPDEST PUSH1 0x4 DUP2 LT ISZERO PUSH2 0x3A0F JUMPI PUSH1 0x40 DUP2 PUSH1 0x3 PUSH2 0x39AD SWAP2 SWAP1 PUSH2 0x58A4 JUMP JUMPDEST PUSH2 0x39B7 SWAP2 SWAP1 PUSH2 0x5937 JUMP JUMPDEST PUSH8 0xFFFFFFFFFFFFFFFF DUP8 DUP8 PUSH1 0x40 MLOAD PUSH1 0x20 ADD PUSH2 0x39D3 SWAP3 SWAP2 SWAP1 PUSH2 0x59BF JUMP JUMPDEST PUSH1 0x40 MLOAD PUSH1 0x20 DUP2 DUP4 SUB SUB DUP2 MSTORE SWAP1 PUSH1 0x40 MSTORE DUP1 MLOAD SWAP1 PUSH1 0x20 ADD KECCAK256 PUSH1 0x0 SHR AND SWAP1 SHL DUP3 OR SWAP2 POP PUSH1 0x1 DUP6 PUSH2 0x3A00 SWAP2 SWAP1 PUSH2 0x59EB JUMP JUMPDEST SWAP5 POP DUP1 DUP1 PUSH1 0x1 ADD SWAP2 POP POP PUSH2 0x3995 JUMP JUMPDEST POP PUSH2 0x3A19 DUP2 PUSH2 0x3836 JUMP JUMPDEST SWAP1 POP PUSH32 0x3FFFFFFFFFFFFFFFFFFFFFFFFFFFFFFFFFFFFFFFFFFFFFFFFFFFFFFFFFFFFFFF DUP2 AND SWAP1 POP PUSH32 0x30644E72E131A029B85045B68181585D2833E84879B9709143E1F593F0000001 DUP2 LT ISZERO PUSH2 0x3A74 JUMPI DUP1 DUP5 SWAP3 POP SWAP3 POP POP PUSH2 0x3A7B JUMP JUMPDEST POP PUSH2 0x3986 JUMP JUMPDEST JUMPDEST SWAP3 POP SWAP3 SWAP1 POP JUMP JUMPDEST PUSH1 0x0 PUSH2 0x3ADA PUSH2 0x3AB2 DUP5 DUP5 PUSH32 0x30644E72E131A029B85045B68181585D2833E84879B9709143E1F593F0000001 PUSH2 0x4545 JUMP JUMPDEST PUSH1 0x1 PUSH32 0x30644E72E131A029B85045B68181585D2833E84879B9709143E1F593F0000001 PUSH2 0x4171 JUMP JUMPDEST SWAP1 POP SWAP3 SWAP2 POP POP JUMP JUMPDEST PUSH1 0x0 PUSH2 0x3AEC PUSH2 0x4A83 JUMP JUMPDEST PUSH2 0x3AF4 PUSH2 0x4A83 JUMP JUMPDEST PUSH1 0x0 JUMPDEST PUSH1 0x4 DUP2 LT ISZERO PUSH2 0x3B99 JUMPI PUSH8 0xFFFFFFFFFFFFFFFF PUSH1 0x40 DUP3 PUSH2 0x3B16 SWAP2 SWAP1 PUSH2 0x5937 JUMP JUMPDEST DUP7 SWAP1 SHR AND DUP4 DUP3 PUSH1 0x4 DUP2 LT PUSH2 0x3B2D JUMPI PUSH2 0x3B2C PUSH2 0x516C JUMP JUMPDEST JUMPDEST PUSH1 0x20 MUL ADD DUP2 DUP2 MSTORE POP POP PUSH8 0xFFFFFFFFFFFFFFFF PUSH1 0x40 DUP3 PUSH2 0x3B4C SWAP2 SWAP1 PUSH2 0x5937 JUMP JUMPDEST PUSH32 0x30644E72E131A029B85045B68181585D2833E84879B9709143E1F593F0000001 SWAP1 SHR AND DUP3 DUP3 PUSH1 0x4 DUP2 LT PUSH2 0x3B83 JUMPI PUSH2 0x3B82 PUSH2 0x516C JUMP JUMPDEST JUMPDEST PUSH1 0x20 MUL ADD DUP2 DUP2 MSTORE POP POP DUP1 DUP1 PUSH1 0x1 ADD SWAP2 POP POP PUSH2 0x3AF7 JUMP JUMPDEST POP PUSH1 0x0 JUMPDEST PUSH1 0x4 DUP2 LT ISZERO PUSH2 0x3D40 JUMPI PUSH1 0x0 PUSH9 0x10000000000000000 DUP1 PUSH2 0x3BC0 JUMPI PUSH2 0x3BBF PUSH2 0x5846 JUMP JUMPDEST JUMPDEST PUSH8 0xC2E1F593EFFFFFFF DUP6 DUP5 PUSH1 0x4 DUP2 LT PUSH2 0x3BDC JUMPI PUSH2 0x3BDB PUSH2 0x516C JUMP JUMPDEST JUMPDEST PUSH1 0x20 MUL ADD MLOAD MULMOD SWAP1 POP PUSH1 0x0 PUSH1 0x40 DUP2 DUP6 PUSH1 0x0 PUSH1 0x4 DUP2 LT PUSH2 0x3BFD JUMPI PUSH2 0x3BFC PUSH2 0x516C JUMP JUMPDEST JUMPDEST PUSH1 0x20 MUL ADD MLOAD DUP5 PUSH2 0x3C0D SWAP2 SWAP1 PUSH2 0x5937 JUMP JUMPDEST DUP8 DUP7 PUSH1 0x4 DUP2 LT PUSH2 0x3C20 JUMPI PUSH2 0x3C1F PUSH2 0x516C JUMP JUMPDEST JUMPDEST PUSH1 0x20 MUL ADD MLOAD PUSH2 0x3C2F SWAP2 SWAP1 PUSH2 0x5A23 JUMP JUMPDEST PUSH2 0x3C39 SWAP2 SWAP1 PUSH2 0x5A23 JUMP JUMPDEST SWAP1 SHR SWAP1 POP PUSH1 0x0 JUMPDEST PUSH1 0x4 DUP2 LT ISZERO PUSH2 0x3D07 JUMPI PUSH1 0x0 DUP3 DUP7 DUP4 PUSH1 0x4 DUP2 LT PUSH2 0x3C5F JUMPI PUSH2 0x3C5E PUSH2 0x516C JUMP JUMPDEST JUMPDEST PUSH1 0x20 MUL ADD MLOAD DUP6 PUSH2 0x3C6F SWAP2 SWAP1 PUSH2 0x5937 JUMP JUMPDEST DUP9 PUSH1 0x4 DUP6 DUP10 PUSH2 0x3C7E SWAP2 SWAP1 PUSH2 0x5A23 JUMP JUMPDEST PUSH2 0x3C88 SWAP2 SWAP1 PUSH2 0x5A57 JUMP JUMPDEST PUSH1 0x4 DUP2 LT PUSH2 0x3C99 JUMPI PUSH2 0x3C98 PUSH2 0x516C JUMP JUMPDEST JUMPDEST PUSH1 0x20 MUL ADD MLOAD PUSH2 0x3CA8 SWAP2 SWAP1 PUSH2 0x5A23 JUMP JUMPDEST PUSH2 0x3CB2 SWAP2 SWAP1 PUSH2 0x5A23 JUMP JUMPDEST SWAP1 POP PUSH8 0xFFFFFFFFFFFFFFFF DUP2 AND DUP8 PUSH1 0x4 DUP5 DUP9 PUSH2 0x3CCE SWAP2 SWAP1 PUSH2 0x5A23 JUMP JUMPDEST PUSH2 0x3CD8 SWAP2 SWAP1 PUSH2 0x5A57 JUMP JUMPDEST PUSH1 0x4 DUP2 LT PUSH2 0x3CE9 JUMPI PUSH2 0x3CE8 PUSH2 0x516C JUMP JUMPDEST JUMPDEST PUSH1 0x20 MUL ADD DUP2 DUP2 MSTORE POP POP PUSH1 0x40 DUP2 SWAP1 SHR SWAP3 POP POP DUP1 DUP1 PUSH1 0x1 ADD SWAP2 POP POP PUSH2 0x3C40 JUMP JUMPDEST POP DUP1 DUP6 PUSH1 0x4 DUP6 PUSH2 0x3D17 SWAP2 SWAP1 PUSH2 0x5A57 JUMP JUMPDEST PUSH1 0x4 DUP2 LT PUSH2 0x3D28 JUMPI PUSH2 0x3D27 PUSH2 0x516C JUMP JUMPDEST JUMPDEST PUSH1 0x20 MUL ADD DUP2 DUP2 MSTORE POP POP POP POP DUP1 DUP1 PUSH1 0x1 ADD SWAP2 POP POP PUSH2 0x3B9D JUMP JUMPDEST POP PUSH1 0x0 JUMPDEST PUSH1 0x4 DUP2 LT ISZERO PUSH2 0x3D8F JUMPI PUSH1 0x40 DUP2 PUSH2 0x3D5A SWAP2 SWAP1 PUSH2 0x5937 JUMP JUMPDEST PUSH8 0xFFFFFFFFFFFFFFFF DUP5 DUP4 PUSH1 0x4 DUP2 LT PUSH2 0x3D76 JUMPI PUSH2 0x3D75 PUSH2 0x516C JUMP JUMPDEST JUMPDEST PUSH1 0x20 MUL ADD MLOAD AND SWAP1 SHL DUP5 OR SWAP4 POP DUP1 DUP1 PUSH1 0x1 ADD SWAP2 POP POP PUSH2 0x3D44 JUMP JUMPDEST POP POP POP SWAP2 SWAP1 POP JUMP JUMPDEST PUSH1 0x0 DUP1 PUSH1 0x0 DUP1 PUSH1 0x0 SWAP1 POP JUMPDEST PUSH1 0x2 DUP2 LT ISZERO PUSH2 0x3E1C JUMPI PUSH1 0x40 DUP2 PUSH1 0x3 PUSH2 0x3DBA SWAP2 SWAP1 PUSH2 0x58A4 JUMP JUMPDEST PUSH2 0x3DC4 SWAP2 SWAP1 PUSH2 0x5937 JUMP JUMPDEST PUSH8 0xFFFFFFFFFFFFFFFF DUP8 DUP8 PUSH1 0x40 MLOAD PUSH1 0x20 ADD PUSH2 0x3DE0 SWAP3 SWAP2 SWAP1 PUSH2 0x59BF JUMP JUMPDEST PUSH1 0x40 MLOAD PUSH1 0x20 DUP2 DUP4 SUB SUB DUP2 MSTORE SWAP1 PUSH1 0x40 MSTORE DUP1 MLOAD SWAP1 PUSH1 0x20 ADD KECCAK256 PUSH1 0x0 SHR AND SWAP1 SHL DUP3 OR SWAP2 POP PUSH1 0x1 DUP6 PUSH2 0x3E0D SWAP2 SWAP1 PUSH2 0x59EB JUMP JUMPDEST SWAP5 POP DUP1 DUP1 PUSH1 0x1 ADD SWAP2 POP POP PUSH2 0x3DA2 JUMP JUMPDEST POP PUSH2 0x3E26 DUP2 PUSH2 0x3836 JUMP JUMPDEST SWAP1 POP DUP1 DUP5 SWAP3 POP SWAP3 POP POP SWAP3 POP SWAP3 SWAP1 POP JUMP JUMPDEST PUSH1 0x0 DUP3 DUP5 SUB PUSH2 0x3E44 JUMPI PUSH1 0x0 DUP1 REVERT JUMPDEST PUSH1 0x0 PUSH2 0x3E83 PUSH2 0x3E53 DUP7 DUP6 PUSH2 0x3A82 JUMP JUMPDEST PUSH2 0x3E5D DUP7 DUP7 PUSH2 0x3A82 JUMP JUMPDEST PUSH32 0x30644E72E131A029B85045B68181585D2833E84879B9709143E1F593F0000001 PUSH2 0x4171 JUMP JUMPDEST SWAP1 POP PUSH32 0x30644E72E131A029B85045B68181585D2833E84879B9709143E1F593F0000001 DUP1 PUSH2 0x3EB4 JUMPI PUSH2 0x3EB3 PUSH2 0x5846 JUMP JUMPDEST JUMPDEST PUSH2 0x3EE7 PUSH2 0x3EE2 DUP8 DUP8 PUSH32 0x30644E72E131A029B85045B68181585D2833E84879B9709143E1F593F0000001 PUSH2 0x4171 JUMP JUMPDEST PUSH2 0x43A8 JUMP JUMPDEST DUP3 MULMOD SWAP2 POP POP SWAP4 SWAP3 POP POP POP JUMP JUMPDEST PUSH2 0x3EFB PUSH2 0x4B49 JUMP JUMPDEST PUSH2 0x3F03 PUSH2 0x4B49 JUMP JUMPDEST PUSH1 0x0 PUSH1 0x20 SWAP1 POP PUSH1 0x0 PUSH32 0x9C532C6306B93D29678200D47C0B2A99C18D51B838EEB1D3EED4C533BB512D0 SWAP1 POP PUSH1 0x0 PUSH2 0x3F3A DUP7 DUP5 PUSH2 0x3A82 JUMP JUMPDEST SWAP1 POP PUSH1 0x0 PUSH2 0x3F47 DUP4 PUSH2 0x43A8 JUMP JUMPDEST SWAP1 POP PUSH1 0x0 DUP3 SUB PUSH2 0x3FDE JUMPI PUSH1 0x0 PUSH1 0x1 SWAP1 POP PUSH1 0x0 JUMPDEST DUP6 DUP2 LT ISZERO PUSH2 0x3FD7 JUMPI DUP9 DUP3 SUB PUSH2 0x3F96 JUMPI PUSH1 0x1 DUP8 DUP3 PUSH1 0x20 DUP2 LT PUSH2 0x3F7E JUMPI PUSH2 0x3F7D PUSH2 0x516C JUMP JUMPDEST JUMPDEST PUSH1 0x20 MUL ADD DUP2 DUP2 MSTORE POP POP DUP7 SWAP8 POP POP POP POP POP POP POP POP PUSH2 0x416C JUMP JUMPDEST PUSH32 0x30644E72E131A029B85045B68181585D2833E84879B9709143E1F593F0000001 DUP1 PUSH2 0x3FC5 JUMPI PUSH2 0x3FC4 PUSH2 0x5846 JUMP JUMPDEST JUMPDEST DUP6 DUP4 MULMOD SWAP2 POP DUP1 DUP1 PUSH1 0x1 ADD SWAP2 POP POP PUSH2 0x3F5A JUMP JUMPDEST POP POP PUSH2 0x4166 JUMP JUMPDEST PUSH1 0x0 PUSH32 0x30644E72E131A029B85045B68181585D2833E84879B9709143E1F593F0000001 DUP1 PUSH2 0x400F JUMPI PUSH2 0x400E PUSH2 0x5846 JUMP JUMPDEST JUMPDEST DUP6 PUSH2 0x4019 DUP6 PUSH2 0x43A8 JUMP JUMPDEST MULMOD SWAP1 POP PUSH1 0x0 PUSH1 0x1 SWAP1 POP PUSH1 0x0 JUMPDEST DUP7 DUP2 LT ISZERO PUSH2 0x4156 JUMPI PUSH32 0x30644E72E131A029B85045B68181585D2833E84879B9709143E1F593F0000001 DUP1 PUSH2 0x405C JUMPI PUSH2 0x405B PUSH2 0x5846 JUMP JUMPDEST JUMPDEST DUP4 PUSH2 0x4088 DUP13 DUP6 PUSH32 0x30644E72E131A029B85045B68181585D2833E84879B9709143E1F593F0000001 PUSH2 0x4171 JUMP JUMPDEST MULMOD DUP9 DUP3 PUSH1 0x20 DUP2 LT PUSH2 0x409C JUMPI PUSH2 0x409B PUSH2 0x516C JUMP JUMPDEST JUMPDEST PUSH1 0x20 MUL ADD DUP2 DUP2 MSTORE POP POP PUSH2 0x40C5 DUP9 DUP3 PUSH1 0x20 DUP2 LT PUSH2 0x40BB JUMPI PUSH2 0x40BA PUSH2 0x516C JUMP JUMPDEST JUMPDEST PUSH1 0x20 MUL ADD MLOAD PUSH2 0x43A8 JUMP JUMPDEST DUP9 DUP3 PUSH1 0x20 DUP2 LT PUSH2 0x40D8 JUMPI PUSH2 0x40D7 PUSH2 0x516C JUMP JUMPDEST JUMPDEST PUSH1 0x20 MUL ADD DUP2 DUP2 MSTORE POP POP PUSH32 0x30644E72E131A029B85045B68181585D2833E84879B9709143E1F593F0000001 DUP1 PUSH2 0x4110 JUMPI PUSH2 0x410F PUSH2 0x5846 JUMP JUMPDEST JUMPDEST DUP5 DUP5 MULMOD SWAP3 POP PUSH32 0x30644E72E131A029B85045B68181585D2833E84879B9709143E1F593F0000001 DUP1 PUSH2 0x4144 JUMPI PUSH2 0x4143 PUSH2 0x5846 JUMP JUMPDEST JUMPDEST DUP7 DUP4 MULMOD SWAP2 POP DUP1 DUP1 PUSH1 0x1 ADD SWAP2 POP POP PUSH2 0x4025 JUMP JUMPDEST POP DUP7 SWAP8 POP POP POP POP POP POP POP POP PUSH2 0x416C JUMP JUMPDEST POP POP POP POP POP JUMPDEST SWAP2 SWAP1 POP JUMP JUMPDEST PUSH1 0x0 DUP2 DUP1 PUSH2 0x4182 JUMPI PUSH2 0x4181 PUSH2 0x5846 JUMP JUMPDEST JUMPDEST DUP4 DUP4 PUSH2 0x418E SWAP2 SWAP1 PUSH2 0x58A4 JUMP JUMPDEST DUP6 ADDMOD SWAP1 POP SWAP4 SWAP3 POP POP POP JUMP JUMPDEST PUSH2 0x41A1 PUSH2 0x4AF5 JUMP JUMPDEST PUSH2 0x41A9 PUSH2 0x4B6C JUMP JUMPDEST DUP4 PUSH1 0x0 ADD MLOAD DUP2 PUSH1 0x0 PUSH1 0x3 DUP2 LT PUSH2 0x41C2 JUMPI PUSH2 0x41C1 PUSH2 0x516C JUMP JUMPDEST JUMPDEST PUSH1 0x20 MUL ADD DUP2 DUP2 MSTORE POP POP DUP4 PUSH1 0x20 ADD MLOAD DUP2 PUSH1 0x1 PUSH1 0x3 DUP2 LT PUSH2 0x41E4 JUMPI PUSH2 0x41E3 PUSH2 0x516C JUMP JUMPDEST JUMPDEST PUSH1 0x20 MUL ADD DUP2 DUP2 MSTORE POP POP DUP3 DUP2 PUSH1 0x2 PUSH1 0x3 DUP2 LT PUSH2 0x4202 JUMPI PUSH2 0x4201 PUSH2 0x516C JUMP JUMPDEST JUMPDEST PUSH1 0x20 MUL ADD DUP2 DUP2 MSTORE POP POP PUSH1 0x0 PUSH1 0x60 DUP4 PUSH1 0x80 DUP5 PUSH1 0x7 PUSH2 0x7D0 GAS SUB STATICCALL SWAP1 POP DUP1 PUSH1 0x0 DUP2 SUB PUSH2 0x4228 JUMPI INVALID JUMPDEST POP DUP1 PUSH2 0x4233 JUMPI PUSH1 0x0 DUP1 REVERT JUMPDEST POP POP SWAP3 SWAP2 POP POP JUMP JUMPDEST PUSH2 0x4243 PUSH2 0x4AF5 JUMP JUMPDEST PUSH2 0x424B PUSH2 0x4A83 JUMP JUMPDEST DUP4 PUSH1 0x0 ADD MLOAD DUP2 PUSH1 0x0 PUSH1 0x4 DUP2 LT PUSH2 0x4264 JUMPI PUSH2 0x4263 PUSH2 0x516C JUMP JUMPDEST JUMPDEST PUSH1 0x20 MUL ADD DUP2 DUP2 MSTORE POP POP DUP4 PUSH1 0x20 ADD MLOAD DUP2 PUSH1 0x1 PUSH1 0x4 DUP2 LT PUSH2 0x4286 JUMPI PUSH2 0x4285 PUSH2 0x516C JUMP JUMPDEST JUMPDEST PUSH1 0x20 MUL ADD DUP2 DUP2 MSTORE POP POP DUP3 PUSH1 0x0 ADD MLOAD DUP2 PUSH1 0x2 PUSH1 0x4 DUP2 LT PUSH2 0x42A8 JUMPI PUSH2 0x42A7 PUSH2 0x516C JUMP JUMPDEST JUMPDEST PUSH1 0x20 MUL ADD DUP2 DUP2 MSTORE POP POP DUP3 PUSH1 0x20 ADD MLOAD DUP2 PUSH1 0x3 PUSH1 0x4 DUP2 LT PUSH2 0x42CA JUMPI PUSH2 0x42C9 PUSH2 0x516C JUMP JUMPDEST JUMPDEST PUSH1 0x20 MUL ADD DUP2 DUP2 MSTORE POP POP PUSH1 0x0 PUSH1 0x60 DUP4 PUSH1 0xC0 DUP5 PUSH1 0x6 PUSH2 0x7D0 GAS SUB STATICCALL SWAP1 POP DUP1 PUSH1 0x0 DUP2 SUB PUSH2 0x42F0 JUMPI INVALID JUMPDEST POP DUP1 PUSH2 0x42FB JUMPI PUSH1 0x0 DUP1 REVERT JUMPDEST POP POP SWAP3 SWAP2 POP POP JUMP JUMPDEST PUSH2 0x430B PUSH2 0x4AF5 JUMP JUMPDEST PUSH1 0x0 PUSH32 0x30644E72E131A029B85045B68181585D97816A916871CA8D3C208C16D87CFD47 SWAP1 POP PUSH1 0x0 DUP4 PUSH1 0x0 ADD MLOAD EQ DUP1 ISZERO PUSH2 0x4348 JUMPI POP PUSH1 0x0 DUP4 PUSH1 0x20 ADD MLOAD EQ JUMPDEST ISZERO PUSH2 0x436C JUMPI PUSH1 0x40 MLOAD DUP1 PUSH1 0x40 ADD PUSH1 0x40 MSTORE DUP1 PUSH1 0x0 DUP2 MSTORE PUSH1 0x20 ADD PUSH1 0x0 DUP2 MSTORE POP SWAP2 POP POP PUSH2 0x43A3 JUMP JUMPDEST PUSH1 0x40 MLOAD DUP1 PUSH1 0x40 ADD PUSH1 0x40 MSTORE DUP1 DUP5 PUSH1 0x0 ADD MLOAD DUP2 MSTORE PUSH1 0x20 ADD DUP3 DUP6 PUSH1 0x20 ADD MLOAD PUSH2 0x4391 SWAP2 SWAP1 PUSH2 0x5A57 JUMP JUMPDEST DUP4 PUSH2 0x439C SWAP2 SWAP1 PUSH2 0x58A4 JUMP JUMPDEST DUP2 MSTORE POP SWAP2 POP POP JUMPDEST SWAP2 SWAP1 POP JUMP JUMPDEST PUSH1 0x0 PUSH2 0x43F5 DUP3 PUSH32 0x30644E72E131A029B85045B68181585D2833E84879B9709143E1F593EFFFFFFF PUSH32 0x30644E72E131A029B85045B68181585D2833E84879B9709143E1F593F0000001 PUSH2 0x4545 JUMP JUMPDEST SWAP1 POP SWAP2 SWAP1 POP JUMP JUMPDEST PUSH1 0x0 DUP1 PUSH1 0x2 PUSH8 0xFFFFFFFFFFFFFFFF DUP2 GT ISZERO PUSH2 0x441A JUMPI PUSH2 0x4419 PUSH2 0x4C40 JUMP JUMPDEST JUMPDEST PUSH1 0x40 MLOAD SWAP1 DUP1 DUP3 MSTORE DUP1 PUSH1 0x20 MUL PUSH1 0x20 ADD DUP3 ADD PUSH1 0x40 MSTORE DUP1 ISZERO PUSH2 0x4453 JUMPI DUP2 PUSH1 0x20 ADD JUMPDEST PUSH2 0x4440 PUSH2 0x4AF5 JUMP JUMPDEST DUP2 MSTORE PUSH1 0x20 ADD SWAP1 PUSH1 0x1 SWAP1 SUB SWAP1 DUP2 PUSH2 0x4438 JUMPI SWAP1 POP JUMPDEST POP SWAP1 POP PUSH1 0x0 PUSH1 0x2 PUSH8 0xFFFFFFFFFFFFFFFF DUP2 GT ISZERO PUSH2 0x4473 JUMPI PUSH2 0x4472 PUSH2 0x4C40 JUMP JUMPDEST JUMPDEST PUSH1 0x40 MLOAD SWAP1 DUP1 DUP3 MSTORE DUP1 PUSH1 0x20 MUL PUSH1 0x20 ADD DUP3 ADD PUSH1 0x40 MSTORE DUP1 ISZERO PUSH2 0x44AC JUMPI DUP2 PUSH1 0x20 ADD JUMPDEST PUSH2 0x4499 PUSH2 0x4B8E JUMP JUMPDEST DUP2 MSTORE PUSH1 0x20 ADD SWAP1 PUSH1 0x1 SWAP1 SUB SWAP1 DUP2 PUSH2 0x4491 JUMPI SWAP1 POP JUMPDEST POP SWAP1 POP DUP7 DUP3 PUSH1 0x0 DUP2 MLOAD DUP2 LT PUSH2 0x44C4 JUMPI PUSH2 0x44C3 PUSH2 0x516C JUMP JUMPDEST JUMPDEST PUSH1 0x20 MUL PUSH1 0x20 ADD ADD DUP2 SWAP1 MSTORE POP DUP5 DUP3 PUSH1 0x1 DUP2 MLOAD DUP2 LT PUSH2 0x44E4 JUMPI PUSH2 0x44E3 PUSH2 0x516C JUMP JUMPDEST JUMPDEST PUSH1 0x20 MUL PUSH1 0x20 ADD ADD DUP2 SWAP1 MSTORE POP DUP6 DUP2 PUSH1 0x0 DUP2 MLOAD DUP2 LT PUSH2 0x4504 JUMPI PUSH2 0x4503 PUSH2 0x516C JUMP JUMPDEST JUMPDEST PUSH1 0x20 MUL PUSH1 0x20 ADD ADD DUP2 SWAP1 MSTORE POP DUP4 DUP2 PUSH1 0x1 DUP2 MLOAD DUP2 LT PUSH2 0x4524 JUMPI PUSH2 0x4523 PUSH2 0x516C JUMP JUMPDEST JUMPDEST PUSH1 0x20 MUL PUSH1 0x20 ADD ADD DUP2 SWAP1 MSTORE POP PUSH2 0x4539 DUP3 DUP3 PUSH2 0x465A JUMP JUMPDEST SWAP3 POP POP POP SWAP5 SWAP4 POP POP POP POP JUMP JUMPDEST PUSH1 0x0 DUP1 PUSH2 0x4550 PUSH2 0x4BB4 JUMP JUMPDEST PUSH2 0x4558 PUSH2 0x4A61 JUMP JUMPDEST PUSH1 0x20 DUP2 PUSH1 0x0 PUSH1 0x6 DUP2 LT PUSH2 0x456E JUMPI PUSH2 0x456D PUSH2 0x516C JUMP JUMPDEST JUMPDEST PUSH1 0x20 MUL ADD DUP2 DUP2 MSTORE POP POP PUSH1 0x20 DUP2 PUSH1 0x1 PUSH1 0x6 DUP2 LT PUSH2 0x458D JUMPI PUSH2 0x458C PUSH2 0x516C JUMP JUMPDEST JUMPDEST PUSH1 0x20 MUL ADD DUP2 DUP2 MSTORE POP POP PUSH1 0x20 DUP2 PUSH1 0x2 PUSH1 0x6 DUP2 LT PUSH2 0x45AC JUMPI PUSH2 0x45AB PUSH2 0x516C JUMP JUMPDEST JUMPDEST PUSH1 0x20 MUL ADD DUP2 DUP2 MSTORE POP POP DUP7 DUP2 PUSH1 0x3 PUSH1 0x6 DUP2 LT PUSH2 0x45CA JUMPI PUSH2 0x45C9 PUSH2 0x516C JUMP JUMPDEST JUMPDEST PUSH1 0x20 MUL ADD DUP2 DUP2 MSTORE POP POP DUP6 DUP2 PUSH1 0x4 PUSH1 0x6 DUP2 LT PUSH2 0x45E8 JUMPI PUSH2 0x45E7 PUSH2 0x516C JUMP JUMPDEST JUMPDEST PUSH1 0x20 MUL ADD DUP2 DUP2 MSTORE POP POP DUP5 DUP2 PUSH1 0x5 PUSH1 0x6 DUP2 LT PUSH2 0x4606 JUMPI PUSH2 0x4605 PUSH2 0x516C JUMP JUMPDEST JUMPDEST PUSH1 0x20 MUL ADD DUP2 DUP2 MSTORE POP POP PUSH1 0x20 DUP3 PUSH1 0xC0 DUP4 PUSH1 0x5 PUSH2 0x7D0 GAS SUB STATICCALL SWAP3 POP DUP3 PUSH1 0x0 DUP2 SUB PUSH2 0x462A JUMPI INVALID JUMPDEST POP DUP3 PUSH2 0x4635 JUMPI PUSH1 0x0 DUP1 REVERT JUMPDEST DUP2 PUSH1 0x0 PUSH1 0x1 DUP2 LT PUSH2 0x4649 JUMPI PUSH2 0x4648 PUSH2 0x516C JUMP JUMPDEST JUMPDEST PUSH1 0x20 MUL ADD MLOAD SWAP4 POP POP POP POP SWAP4 SWAP3 POP POP POP JUMP JUMPDEST PUSH1 0x0 DUP2 MLOAD DUP4 MLOAD EQ PUSH2 0x466A JUMPI PUSH1 0x0 DUP1 REVERT JUMPDEST PUSH1 0x0 DUP4 MLOAD SWAP1 POP PUSH1 0x0 PUSH1 0x6 DUP3 PUSH2 0x467F SWAP2 SWAP1 PUSH2 0x5937 JUMP JUMPDEST SWAP1 POP PUSH1 0x0 DUP2 PUSH8 0xFFFFFFFFFFFFFFFF DUP2 GT ISZERO PUSH2 0x469D JUMPI PUSH2 0x469C PUSH2 0x4C40 JUMP JUMPDEST JUMPDEST PUSH1 0x40 MLOAD SWAP1 DUP1 DUP3 MSTORE DUP1 PUSH1 0x20 MUL PUSH1 0x20 ADD DUP3 ADD PUSH1 0x40 MSTORE DUP1 ISZERO PUSH2 0x46CB JUMPI DUP2 PUSH1 0x20 ADD PUSH1 0x20 DUP3 MUL DUP1 CALLDATASIZE DUP4 CALLDATACOPY DUP1 DUP3 ADD SWAP2 POP POP SWAP1 POP JUMPDEST POP SWAP1 POP PUSH1 0x0 JUMPDEST DUP4 DUP2 LT ISZERO PUSH2 0x494A JUMPI DUP7 DUP2 DUP2 MLOAD DUP2 LT PUSH2 0x46EC JUMPI PUSH2 0x46EB PUSH2 0x516C JUMP JUMPDEST JUMPDEST PUSH1 0x20 MUL PUSH1 0x20 ADD ADD MLOAD PUSH1 0x0 ADD MLOAD DUP3 PUSH1 0x0 PUSH1 0x6 DUP5 PUSH2 0x4708 SWAP2 SWAP1 PUSH2 0x5937 JUMP JUMPDEST PUSH2 0x4712 SWAP2 SWAP1 PUSH2 0x5A23 JUMP JUMPDEST DUP2 MLOAD DUP2 LT PUSH2 0x4723 JUMPI PUSH2 0x4722 PUSH2 0x516C JUMP JUMPDEST JUMPDEST PUSH1 0x20 MUL PUSH1 0x20 ADD ADD DUP2 DUP2 MSTORE POP POP DUP7 DUP2 DUP2 MLOAD DUP2 LT PUSH2 0x4742 JUMPI PUSH2 0x4741 PUSH2 0x516C JUMP JUMPDEST JUMPDEST PUSH1 0x20 MUL PUSH1 0x20 ADD ADD MLOAD PUSH1 0x20 ADD MLOAD DUP3 PUSH1 0x1 PUSH1 0x6 DUP5 PUSH2 0x475E SWAP2 SWAP1 PUSH2 0x5937 JUMP JUMPDEST PUSH2 0x4768 SWAP2 SWAP1 PUSH2 0x5A23 JUMP JUMPDEST DUP2 MLOAD DUP2 LT PUSH2 0x4779 JUMPI PUSH2 0x4778 PUSH2 0x516C JUMP JUMPDEST JUMPDEST PUSH1 0x20 MUL PUSH1 0x20 ADD ADD DUP2 DUP2 MSTORE POP POP DUP6 DUP2 DUP2 MLOAD DUP2 LT PUSH2 0x4798 JUMPI PUSH2 0x4797 PUSH2 0x516C JUMP JUMPDEST JUMPDEST PUSH1 0x20 MUL PUSH1 0x20 ADD ADD MLOAD PUSH1 0x0 ADD MLOAD PUSH1 0x1 PUSH1 0x2 DUP2 LT PUSH2 0x47B7 JUMPI PUSH2 0x47B6 PUSH2 0x516C JUMP JUMPDEST JUMPDEST PUSH1 0x20 MUL ADD MLOAD DUP3 PUSH1 0x2 PUSH1 0x6 DUP5 PUSH2 0x47CC SWAP2 SWAP1 PUSH2 0x5937 JUMP JUMPDEST PUSH2 0x47D6 SWAP2 SWAP1 PUSH2 0x5A23 JUMP JUMPDEST DUP2 MLOAD DUP2 LT PUSH2 0x47E7 JUMPI PUSH2 0x47E6 PUSH2 0x516C JUMP JUMPDEST JUMPDEST PUSH1 0x20 MUL PUSH1 0x20 ADD ADD DUP2 DUP2 MSTORE POP POP DUP6 DUP2 DUP2 MLOAD DUP2 LT PUSH2 0x4806 JUMPI PUSH2 0x4805 PUSH2 0x516C JUMP JUMPDEST JUMPDEST PUSH1 0x20 MUL PUSH1 0x20 ADD ADD MLOAD PUSH1 0x0 ADD MLOAD PUSH1 0x0 PUSH1 0x2 DUP2 LT PUSH2 0x4825 JUMPI PUSH2 0x4824 PUSH2 0x516C JUMP JUMPDEST JUMPDEST PUSH1 0x20 MUL ADD MLOAD DUP3 PUSH1 0x3 PUSH1 0x6 DUP5 PUSH2 0x483A SWAP2 SWAP1 PUSH2 0x5937 JUMP JUMPDEST PUSH2 0x4844 SWAP2 SWAP1 PUSH2 0x5A23 JUMP JUMPDEST DUP2 MLOAD DUP2 LT PUSH2 0x4855 JUMPI PUSH2 0x4854 PUSH2 0x516C JUMP JUMPDEST JUMPDEST PUSH1 0x20 MUL PUSH1 0x20 ADD ADD DUP2 DUP2 MSTORE POP POP DUP6 DUP2 DUP2 MLOAD DUP2 LT PUSH2 0x4874 JUMPI PUSH2 0x4873 PUSH2 0x516C JUMP JUMPDEST JUMPDEST PUSH1 0x20 MUL PUSH1 0x20 ADD ADD MLOAD PUSH1 0x20 ADD MLOAD PUSH1 0x1 PUSH1 0x2 DUP2 LT PUSH2 0x4893 JUMPI PUSH2 0x4892 PUSH2 0x516C JUMP JUMPDEST JUMPDEST PUSH1 0x20 MUL ADD MLOAD DUP3 PUSH1 0x4 PUSH1 0x6 DUP5 PUSH2 0x48A8 SWAP2 SWAP1 PUSH2 0x5937 JUMP JUMPDEST PUSH2 0x48B2 SWAP2 SWAP1 PUSH2 0x5A23 JUMP JUMPDEST DUP2 MLOAD DUP2 LT PUSH2 0x48C3 JUMPI PUSH2 0x48C2 PUSH2 0x516C JUMP JUMPDEST JUMPDEST PUSH1 0x20 MUL PUSH1 0x20 ADD ADD DUP2 DUP2 MSTORE POP POP DUP6 DUP2 DUP2 MLOAD DUP2 LT PUSH2 0x48E2 JUMPI PUSH2 0x48E1 PUSH2 0x516C JUMP JUMPDEST JUMPDEST PUSH1 0x20 MUL PUSH1 0x20 ADD ADD MLOAD PUSH1 0x20 ADD MLOAD PUSH1 0x0 PUSH1 0x2 DUP2 LT PUSH2 0x4901 JUMPI PUSH2 0x4900 PUSH2 0x516C JUMP JUMPDEST JUMPDEST PUSH1 0x20 MUL ADD MLOAD DUP3 PUSH1 0x5 PUSH1 0x6 DUP5 PUSH2 0x4916 SWAP2 SWAP1 PUSH2 0x5937 JUMP JUMPDEST PUSH2 0x4920 SWAP2 SWAP1 PUSH2 0x5A23 JUMP JUMPDEST DUP2 MLOAD DUP2 LT PUSH2 0x4931 JUMPI PUSH2 0x4930 PUSH2 0x516C JUMP JUMPDEST JUMPDEST PUSH1 0x20 MUL PUSH1 0x20 ADD ADD DUP2 DUP2 MSTORE POP POP DUP1 DUP1 PUSH1 0x1 ADD SWAP2 POP POP PUSH2 0x46D1 JUMP JUMPDEST POP PUSH2 0x4953 PUSH2 0x4BB4 JUMP JUMPDEST PUSH1 0x0 PUSH1 0x20 DUP3 PUSH1 0x20 DUP7 MUL PUSH1 0x20 DUP7 ADD PUSH1 0x8 PUSH2 0x7D0 GAS SUB STATICCALL SWAP1 POP DUP1 PUSH1 0x0 DUP2 SUB PUSH2 0x4975 JUMPI INVALID JUMPDEST POP DUP1 PUSH2 0x4980 JUMPI PUSH1 0x0 DUP1 REVERT JUMPDEST PUSH1 0x0 DUP3 PUSH1 0x0 PUSH1 0x1 DUP2 LT PUSH2 0x4996 JUMPI PUSH2 0x4995 PUSH2 0x516C JUMP JUMPDEST JUMPDEST PUSH1 0x20 MUL ADD MLOAD EQ ISZERO SWAP6 POP POP POP POP POP POP SWAP3 SWAP2 POP POP JUMP JUMPDEST PUSH1 0x40 MLOAD DUP1 PUSH2 0x3E0 ADD PUSH1 0x40 MSTORE DUP1 PUSH1 0x1F SWAP1 PUSH1 0x20 DUP3 MUL DUP1 CALLDATASIZE DUP4 CALLDATACOPY DUP1 DUP3 ADD SWAP2 POP POP SWAP1 POP POP SWAP1 JUMP JUMPDEST PUSH1 0x40 MLOAD DUP1 PUSH2 0x320 ADD PUSH1 0x40 MSTORE DUP1 PUSH1 0x19 SWAP1 PUSH1 0x20 DUP3 MUL DUP1 CALLDATASIZE DUP4 CALLDATACOPY DUP1 DUP3 ADD SWAP2 POP POP SWAP1 POP POP SWAP1 JUMP JUMPDEST PUSH1 0x40 MLOAD DUP1 PUSH1 0xE0 ADD PUSH1 0x40 MSTORE DUP1 PUSH1 0x7 SWAP1 PUSH1 0x20 DUP3 MUL DUP1 CALLDATASIZE DUP4 CALLDATACOPY DUP1 DUP3 ADD SWAP2 POP POP SWAP1 POP POP SWAP1 JUMP JUMPDEST PUSH1 0x40 MLOAD DUP1 PUSH1 0x40 ADD PUSH1 0x40 MSTORE DUP1 PUSH1 0x2 SWAP1 JUMPDEST PUSH2 0x4A29 PUSH2 0x4AF5 JUMP JUMPDEST DUP2 MSTORE PUSH1 0x20 ADD SWAP1 PUSH1 0x1 SWAP1 SUB SWAP1 DUP2 PUSH2 0x4A21 JUMPI SWAP1 POP POP SWAP1 JUMP JUMPDEST PUSH1 0x40 MLOAD DUP1 PUSH1 0x40 ADD PUSH1 0x40 MSTORE DUP1 PUSH1 0x2 SWAP1 PUSH1 0x20 DUP3 MUL DUP1 CALLDATASIZE DUP4 CALLDATACOPY DUP1 DUP3 ADD SWAP2 POP POP SWAP1 POP POP SWAP1 JUMP JUMPDEST PUSH1 0x40 MLOAD DUP1 PUSH1 0xC0 ADD PUSH1 0x40 MSTORE DUP1 PUSH1 0x6 SWAP1 PUSH1 0x20 DUP3 MUL DUP1 CALLDATASIZE DUP4 CALLDATACOPY DUP1 DUP3 ADD SWAP2 POP POP SWAP1 POP POP SWAP1 JUMP JUMPDEST PUSH1 0x40 MLOAD DUP1 PUSH1 0x80 ADD PUSH1 0x40 MSTORE DUP1 PUSH1 0x4 SWAP1 PUSH1 0x20 DUP3 MUL DUP1 CALLDATASIZE DUP4 CALLDATACOPY DUP1 DUP3 ADD SWAP2 POP POP SWAP1 POP POP SWAP1 JUMP JUMPDEST PUSH1 0x40 MLOAD DUP1 PUSH1 0x80 ADD PUSH1 0x40 MSTORE DUP1 PUSH1 0x4 SWAP1 JUMPDEST PUSH2 0x4ABC PUSH2 0x4AF5 JUMP JUMPDEST DUP2 MSTORE PUSH1 0x20 ADD SWAP1 PUSH1 0x1 SWAP1 SUB SWAP1 DUP2 PUSH2 0x4AB4 JUMPI SWAP1 POP POP SWAP1 JUMP JUMPDEST PUSH1 0x40 MLOAD DUP1 PUSH2 0x100 ADD PUSH1 0x40 MSTORE DUP1 PUSH1 0x8 SWAP1 PUSH1 0x20 DUP3 MUL DUP1 CALLDATASIZE DUP4 CALLDATACOPY DUP1 DUP3 ADD SWAP2 POP POP SWAP1 POP POP SWAP1 JUMP JUMPDEST PUSH1 0x40 MLOAD DUP1 PUSH1 0x40 ADD PUSH1 0x40 MSTORE DUP1 PUSH1 0x0 DUP2 MSTORE PUSH1 0x20 ADD PUSH1 0x0 DUP2 MSTORE POP SWAP1 JUMP JUMPDEST PUSH1 0x40 MLOAD DUP1 PUSH1 0x80 ADD PUSH1 0x40 MSTORE DUP1 PUSH1 0x60 DUP2 MSTORE PUSH1 0x20 ADD PUSH2 0x4B29 PUSH2 0x4BD6 JUMP JUMPDEST DUP2 MSTORE PUSH1 0x20 ADD PUSH2 0x4B36 PUSH2 0x4AF5 JUMP JUMPDEST DUP2 MSTORE PUSH1 0x20 ADD PUSH2 0x4B43 PUSH2 0x4AF5 JUMP JUMPDEST DUP2 MSTORE POP SWAP1 JUMP JUMPDEST PUSH1 0x40 MLOAD DUP1 PUSH2 0x400 ADD PUSH1 0x40 MSTORE DUP1 PUSH1 0x20 SWAP1 PUSH1 0x20 DUP3 MUL DUP1 CALLDATASIZE DUP4 CALLDATACOPY DUP1 DUP3 ADD SWAP2 POP POP SWAP1 POP POP SWAP1 JUMP JUMPDEST PUSH1 0x40 MLOAD DUP1 PUSH1 0x60 ADD PUSH1 0x40 MSTORE DUP1 PUSH1 0x3 SWAP1 PUSH1 0x20 DUP3 MUL DUP1 CALLDATASIZE DUP4 CALLDATACOPY DUP1 DUP3 ADD SWAP2 POP POP SWAP1 POP POP SWAP1 JUMP JUMPDEST PUSH1 0x40 MLOAD DUP1 PUSH1 0x40 ADD PUSH1 0x40 MSTORE DUP1 PUSH2 0x4BA1 PUSH2 0x4A3F JUMP JUMPDEST DUP2 MSTORE PUSH1 0x20 ADD PUSH2 0x4BAE PUSH2 0x4A3F JUMP JUMPDEST DUP2 MSTORE POP SWAP1 JUMP JUMPDEST PUSH1 0x40 MLOAD DUP1 PUSH1 0x20 ADD PUSH1 0x40 MSTORE DUP1 PUSH1 0x1 SWAP1 PUSH1 0x20 DUP3 MUL DUP1 CALLDATASIZE DUP4 CALLDATACOPY DUP1 DUP3 ADD SWAP2 POP POP SWAP1 POP POP SWAP1 JUMP JUMPDEST PUSH1 0x40 MLOAD DUP1 PUSH1 0x80 ADD PUSH1 0x40 MSTORE DUP1 PUSH2 0x4BE9 PUSH2 0x4AF5 JUMP JUMPDEST DUP2 MSTORE PUSH1 0x20 ADD PUSH2 0x4BF6 PUSH2 0x4AF5 JUMP JUMPDEST DUP2 MSTORE PUSH1 0x20 ADD PUSH2 0x4C03 PUSH2 0x4B8E JUMP JUMPDEST DUP2 MSTORE PUSH1 0x20 ADD PUSH2 0x4C10 PUSH2 0x4B8E JUMP JUMPDEST DUP2 MSTORE POP SWAP1 JUMP JUMPDEST PUSH1 0x0 PUSH1 0x40 MLOAD SWAP1 POP SWAP1 JUMP JUMPDEST PUSH1 0x0 DUP1 REVERT JUMPDEST PUSH1 0x0 DUP1 REVERT JUMPDEST PUSH1 0x0 DUP1 REVERT JUMPDEST PUSH1 0x0 PUSH1 0x1F NOT PUSH1 0x1F DUP4 ADD AND SWAP1 POP SWAP2 SWAP1 POP JUMP JUMPDEST PUSH32 0x4E487B7100000000000000000000000000000000000000000000000000000000 PUSH1 0x0 MSTORE PUSH1 0x41 PUSH1 0x4 MSTORE PUSH1 0x24 PUSH1 0x0 REVERT JUMPDEST PUSH2 0x4C78 DUP3 PUSH2 0x4C2F JUMP JUMPDEST DUP2 ADD DUP2 DUP2 LT PUSH8 0xFFFFFFFFFFFFFFFF DUP3 GT OR ISZERO PUSH2 0x4C97 JUMPI PUSH2 0x4C96 PUSH2 0x4C40 JUMP JUMPDEST JUMPDEST DUP1 PUSH1 0x40 MSTORE POP POP POP JUMP JUMPDEST PUSH1 0x0 PUSH2 0x4CAA PUSH2 0x4C16 JUMP JUMPDEST SWAP1 POP PUSH2 0x4CB6 DUP3 DUP3 PUSH2 0x4C6F JUMP JUMPDEST SWAP2 SWAP1 POP JUMP JUMPDEST PUSH1 0x0 DUP1 REVERT JUMPDEST PUSH1 0x0 DUP1 REVERT JUMPDEST PUSH1 0x0 PUSH8 0xFFFFFFFFFFFFFFFF DUP3 GT ISZERO PUSH2 0x4CE0 JUMPI PUSH2 0x4CDF PUSH2 0x4C40 JUMP JUMPDEST JUMPDEST PUSH1 0x20 DUP3 MUL SWAP1 POP PUSH1 0x20 DUP2 ADD SWAP1 POP SWAP2 SWAP1 POP JUMP JUMPDEST PUSH1 0x0 DUP1 REVERT JUMPDEST PUSH1 0x0 DUP2 SWAP1 POP SWAP2 SWAP1 POP JUMP JUMPDEST PUSH2 0x4D09 DUP2 PUSH2 0x4CF6 JUMP JUMPDEST DUP2 EQ PUSH2 0x4D14 JUMPI PUSH1 0x0 DUP1 REVERT JUMPDEST POP JUMP JUMPDEST PUSH1 0x0 DUP2 CALLDATALOAD SWAP1 POP PUSH2 0x4D26 DUP2 PUSH2 0x4D00 JUMP JUMPDEST SWAP3 SWAP2 POP POP JUMP JUMPDEST PUSH1 0x0 PUSH1 0x40 DUP3 DUP5 SUB SLT ISZERO PUSH2 0x4D42 JUMPI PUSH2 0x4D41 PUSH2 0x4C2A JUMP JUMPDEST JUMPDEST PUSH2 0x4D4C PUSH1 0x40 PUSH2 0x4CA0 JUMP JUMPDEST SWAP1 POP PUSH1 0x0 PUSH2 0x4D5C DUP5 DUP3 DUP6 ADD PUSH2 0x4D17 JUMP JUMPDEST PUSH1 0x0 DUP4 ADD MSTORE POP PUSH1 0x20 PUSH2 0x4D70 DUP5 DUP3 DUP6 ADD PUSH2 0x4D17 JUMP JUMPDEST PUSH1 0x20 DUP4 ADD MSTORE POP SWAP3 SWAP2 POP POP JUMP JUMPDEST PUSH1 0x0 PUSH2 0x4D8F PUSH2 0x4D8A DUP5 PUSH2 0x4CC5 JUMP JUMPDEST PUSH2 0x4CA0 JUMP JUMPDEST SWAP1 POP DUP1 DUP4 DUP3 MSTORE PUSH1 0x20 DUP3 ADD SWAP1 POP PUSH1 0x40 DUP5 MUL DUP4 ADD DUP6 DUP2 GT ISZERO PUSH2 0x4DB2 JUMPI PUSH2 0x4DB1 PUSH2 0x4CF1 JUMP JUMPDEST JUMPDEST DUP4 JUMPDEST DUP2 DUP2 LT ISZERO PUSH2 0x4DDB JUMPI DUP1 PUSH2 0x4DC7 DUP9 DUP3 PUSH2 0x4D2C JUMP JUMPDEST DUP5 MSTORE PUSH1 0x20 DUP5 ADD SWAP4 POP POP PUSH1 0x40 DUP2 ADD SWAP1 POP PUSH2 0x4DB4 JUMP JUMPDEST POP POP POP SWAP4 SWAP3 POP POP POP JUMP JUMPDEST PUSH1 0x0 DUP3 PUSH1 0x1F DUP4 ADD SLT PUSH2 0x4DFA JUMPI PUSH2 0x4DF9 PUSH2 0x4CC0 JUMP JUMPDEST JUMPDEST DUP2 CALLDATALOAD PUSH2 0x4E0A DUP5 DUP3 PUSH1 0x20 DUP7 ADD PUSH2 0x4D7C JUMP JUMPDEST SWAP2 POP POP SWAP3 SWAP2 POP POP JUMP JUMPDEST PUSH1 0x0 PUSH8 0xFFFFFFFFFFFFFFFF DUP3 GT ISZERO PUSH2 0x4E2E JUMPI PUSH2 0x4E2D PUSH2 0x4C40 JUMP JUMPDEST JUMPDEST PUSH1 0x20 DUP3 MUL SWAP1 POP PUSH1 0x20 DUP2 ADD SWAP1 POP SWAP2 SWAP1 POP JUMP JUMPDEST PUSH1 0x0 PUSH2 0x4E52 PUSH2 0x4E4D DUP5 PUSH2 0x4E13 JUMP JUMPDEST PUSH2 0x4CA0 JUMP JUMPDEST SWAP1 POP DUP1 DUP4 DUP3 MSTORE PUSH1 0x20 DUP3 ADD SWAP1 POP PUSH1 0x20 DUP5 MUL DUP4 ADD DUP6 DUP2 GT ISZERO PUSH2 0x4E75 JUMPI PUSH2 0x4E74 PUSH2 0x4CF1 JUMP JUMPDEST JUMPDEST DUP4 JUMPDEST DUP2 DUP2 LT ISZERO PUSH2 0x4E9E JUMPI DUP1 PUSH2 0x4E8A DUP9 DUP3 PUSH2 0x4D17 JUMP JUMPDEST DUP5 MSTORE PUSH1 0x20 DUP5 ADD SWAP4 POP POP PUSH1 0x20 DUP2 ADD SWAP1 POP PUSH2 0x4E77 JUMP JUMPDEST POP POP POP SWAP4 SWAP3 POP POP POP JUMP JUMPDEST PUSH1 0x0 DUP3 PUSH1 0x1F DUP4 ADD SLT PUSH2 0x4EBD JUMPI PUSH2 0x4EBC PUSH2 0x4CC0 JUMP JUMPDEST JUMPDEST DUP2 CALLDATALOAD PUSH2 0x4ECD DUP5 DUP3 PUSH1 0x20 DUP7 ADD PUSH2 0x4E3F JUMP JUMPDEST SWAP2 POP POP SWAP3 SWAP2 POP POP JUMP JUMPDEST PUSH1 0x0 PUSH2 0x1A0 DUP3 DUP5 SUB SLT ISZERO PUSH2 0x4EED JUMPI PUSH2 0x4EEC PUSH2 0x4C2A JUMP JUMPDEST JUMPDEST PUSH2 0x4EF8 PUSH2 0x120 PUSH2 0x4CA0 JUMP JUMPDEST SWAP1 POP PUSH1 0x0 DUP3 ADD CALLDATALOAD PUSH8 0xFFFFFFFFFFFFFFFF DUP2 GT ISZERO PUSH2 0x4F18 JUMPI PUSH2 0x4F17 PUSH2 0x4CBB JUMP JUMPDEST JUMPDEST PUSH2 0x4F24 DUP5 DUP3 DUP6 ADD PUSH2 0x4DE5 JUMP JUMPDEST PUSH1 0x0 DUP4 ADD MSTORE POP PUSH1 0x20 DUP3 ADD CALLDATALOAD PUSH8 0xFFFFFFFFFFFFFFFF DUP2 GT ISZERO PUSH2 0x4F48 JUMPI PUSH2 0x4F47 PUSH2 0x4CBB JUMP JUMPDEST JUMPDEST PUSH2 0x4F54 DUP5 DUP3 DUP6 ADD PUSH2 0x4DE5 JUMP JUMPDEST PUSH1 0x20 DUP4 ADD MSTORE POP PUSH1 0x40 PUSH2 0x4F68 DUP5 DUP3 DUP6 ADD PUSH2 0x4D2C JUMP JUMPDEST PUSH1 0x40 DUP4 ADD MSTORE POP PUSH1 0x80 DUP3 ADD CALLDATALOAD PUSH8 0xFFFFFFFFFFFFFFFF DUP2 GT ISZERO PUSH2 0x4F8C JUMPI PUSH2 0x4F8B PUSH2 0x4CBB JUMP JUMPDEST JUMPDEST PUSH2 0x4F98 DUP5 DUP3 DUP6 ADD PUSH2 0x4DE5 JUMP JUMPDEST PUSH1 0x60 DUP4 ADD MSTORE POP PUSH1 0xA0 PUSH2 0x4FAC DUP5 DUP3 DUP6 ADD PUSH2 0x4D2C JUMP JUMPDEST PUSH1 0x80 DUP4 ADD MSTORE POP PUSH1 0xE0 DUP3 ADD CALLDATALOAD PUSH8 0xFFFFFFFFFFFFFFFF DUP2 GT ISZERO PUSH2 0x4FD0 JUMPI PUSH2 0x4FCF PUSH2 0x4CBB JUMP JUMPDEST JUMPDEST PUSH2 0x4FDC DUP5 DUP3 DUP6 ADD PUSH2 0x4EA8 JUMP JUMPDEST PUSH1 0xA0 DUP4 ADD MSTORE POP PUSH2 0x100 PUSH2 0x4FF1 DUP5 DUP3 DUP6 ADD PUSH2 0x4D2C JUMP JUMPDEST PUSH1 0xC0 DUP4 ADD MSTORE POP PUSH2 0x140 PUSH2 0x5006 DUP5 DUP3 DUP6 ADD PUSH2 0x4D17 JUMP JUMPDEST PUSH1 0xE0 DUP4 ADD MSTORE POP PUSH2 0x160 PUSH2 0x501B DUP5 DUP3 DUP6 ADD PUSH2 0x4D2C JUMP JUMPDEST PUSH2 0x100 DUP4 ADD MSTORE POP SWAP3 SWAP2 POP POP JUMP JUMPDEST PUSH1 0x0 PUSH8 0xFFFFFFFFFFFFFFFF DUP3 GT ISZERO PUSH2 0x5043 JUMPI PUSH2 0x5042 PUSH2 0x4C40 JUMP JUMPDEST JUMPDEST PUSH1 0x20 DUP3 MUL SWAP1 POP SWAP2 SWAP1 POP JUMP JUMPDEST PUSH1 0x0 PUSH2 0x5061 PUSH2 0x505C DUP5 PUSH2 0x5028 JUMP JUMPDEST PUSH2 0x4CA0 JUMP JUMPDEST SWAP1 POP DUP1 PUSH1 0x20 DUP5 MUL DUP4 ADD DUP6 DUP2 GT ISZERO PUSH2 0x507B JUMPI PUSH2 0x507A PUSH2 0x4CF1 JUMP JUMPDEST JUMPDEST DUP4 JUMPDEST DUP2 DUP2 LT ISZERO PUSH2 0x50A4 JUMPI DUP1 PUSH2 0x5090 DUP9 DUP3 PUSH2 0x4D17 JUMP JUMPDEST DUP5 MSTORE PUSH1 0x20 DUP5 ADD SWAP4 POP POP PUSH1 0x20 DUP2 ADD SWAP1 POP PUSH2 0x507D JUMP JUMPDEST POP POP POP SWAP4 SWAP3 POP POP POP JUMP JUMPDEST PUSH1 0x0 DUP3 PUSH1 0x1F DUP4 ADD SLT PUSH2 0x50C3 JUMPI PUSH2 0x50C2 PUSH2 0x4CC0 JUMP JUMPDEST JUMPDEST PUSH1 0x18 PUSH2 0x50D0 DUP5 DUP3 DUP6 PUSH2 0x504E JUMP JUMPDEST SWAP2 POP POP SWAP3 SWAP2 POP POP JUMP JUMPDEST PUSH1 0x0 DUP1 PUSH2 0x320 DUP4 DUP6 SUB SLT ISZERO PUSH2 0x50F1 JUMPI PUSH2 0x50F0 PUSH2 0x4C20 JUMP JUMPDEST JUMPDEST PUSH1 0x0 DUP4 ADD CALLDATALOAD PUSH8 0xFFFFFFFFFFFFFFFF DUP2 GT ISZERO PUSH2 0x510F JUMPI PUSH2 0x510E PUSH2 0x4C25 JUMP JUMPDEST JUMPDEST PUSH2 0x511B DUP6 DUP3 DUP7 ADD PUSH2 0x4ED6 JUMP JUMPDEST SWAP3 POP POP PUSH1 0x20 PUSH2 0x512C DUP6 DUP3 DUP7 ADD PUSH2 0x50AE JUMP JUMPDEST SWAP2 POP POP SWAP3 POP SWAP3 SWAP1 POP JUMP JUMPDEST PUSH1 0x0 DUP2 ISZERO ISZERO SWAP1 POP SWAP2 SWAP1 POP JUMP JUMPDEST PUSH2 0x514B DUP2 PUSH2 0x5136 JUMP JUMPDEST DUP3 MSTORE POP POP JUMP JUMPDEST PUSH1 0x0 PUSH1 0x20 DUP3 ADD SWAP1 POP PUSH2 0x5166 PUSH1 0x0 DUP4 ADD DUP5 PUSH2 0x5142 JUMP JUMPDEST SWAP3 SWAP2 POP POP JUMP JUMPDEST PUSH32 0x4E487B7100000000000000000000000000000000000000000000000000000000 PUSH1 0x0 MSTORE PUSH1 0x32 PUSH1 0x4 MSTORE PUSH1 0x24 PUSH1 0x0 REVERT JUMPDEST PUSH1 0x0 PUSH1 0x18 SWAP1 POP SWAP2 SWAP1 POP JUMP JUMPDEST PUSH1 0x0 DUP2 SWAP1 POP SWAP3 SWAP2 POP POP JUMP JUMPDEST PUSH1 0x0 DUP2 SWAP1 POP SWAP2 SWAP1 POP JUMP JUMPDEST PUSH2 0x51C4 DUP2 PUSH2 0x4CF6 JUMP JUMPDEST DUP3 MSTORE POP POP JUMP JUMPDEST PUSH1 0x0 PUSH2 0x51D6 DUP4 DUP4 PUSH2 0x51BB JUMP JUMPDEST PUSH1 0x20 DUP4 ADD SWAP1 POP SWAP3 SWAP2 POP POP JUMP JUMPDEST PUSH1 0x0 PUSH1 0x20 DUP3 ADD SWAP1 POP SWAP2 SWAP1 POP JUMP JUMPDEST PUSH2 0x51F8 DUP2 PUSH2 0x519B JUMP JUMPDEST PUSH2 0x5202 DUP2 DUP5 PUSH2 0x51A6 JUMP JUMPDEST SWAP3 POP PUSH2 0x520D DUP3 PUSH2 0x51B1 JUMP JUMPDEST DUP1 PUSH1 0x0 JUMPDEST DUP4 DUP2 LT ISZERO PUSH2 0x523E JUMPI DUP2 MLOAD PUSH2 0x5225 DUP8 DUP3 PUSH2 0x51CA JUMP JUMPDEST SWAP7 POP PUSH2 0x5230 DUP4 PUSH2 0x51E2 JUMP JUMPDEST SWAP3 POP POP PUSH1 0x1 DUP2 ADD SWAP1 POP PUSH2 0x5211 JUMP JUMPDEST POP POP POP POP POP POP JUMP JUMPDEST PUSH1 0x0 PUSH2 0x320 DUP3 ADD SWAP1 POP PUSH2 0x525C PUSH1 0x0 DUP4 ADD DUP6 PUSH2 0x5142 JUMP JUMPDEST PUSH2 0x5269 PUSH1 0x20 DUP4 ADD DUP5 PUSH2 0x51EF JUMP JUMPDEST SWAP4 SWAP3 POP POP POP JUMP JUMPDEST PUSH1 0x0 PUSH1 0x19 SWAP1 POP SWAP2 SWAP1 POP JUMP JUMPDEST PUSH1 0x0 DUP2 SWAP1 POP SWAP3 SWAP2 POP POP JUMP JUMPDEST PUSH1 0x0 DUP2 SWAP1 POP SWAP2 SWAP1 POP JUMP JUMPDEST PUSH1 0x0 DUP2 SWAP1 POP SWAP2 SWAP1 POP JUMP JUMPDEST PUSH2 0x52A3 DUP2 PUSH2 0x5290 JUMP JUMPDEST DUP3 MSTORE POP POP JUMP JUMPDEST PUSH1 0x0 PUSH2 0x52B5 DUP4 DUP4 PUSH2 0x529A JUMP JUMPDEST PUSH1 0x20 DUP4 ADD SWAP1 POP SWAP3 SWAP2 POP POP JUMP JUMPDEST PUSH1 0x0 PUSH1 0x20 DUP3 ADD SWAP1 POP SWAP2 SWAP1 POP JUMP JUMPDEST PUSH2 0x52D7 DUP2 PUSH2 0x5270 JUMP JUMPDEST PUSH2 0x52E1 DUP2 DUP5 PUSH2 0x527B JUMP JUMPDEST SWAP3 POP PUSH2 0x52EC DUP3 PUSH2 0x5286 JUMP JUMPDEST DUP1 PUSH1 0x0 JUMPDEST DUP4 DUP2 LT ISZERO PUSH2 0x531D JUMPI DUP2 MLOAD PUSH2 0x5304 DUP8 DUP3 PUSH2 0x52A9 JUMP JUMPDEST SWAP7 POP PUSH2 0x530F DUP4 PUSH2 0x52C1 JUMP JUMPDEST SWAP3 POP POP PUSH1 0x1 DUP2 ADD SWAP1 POP PUSH2 0x52F0 JUMP JUMPDEST POP POP POP POP POP POP JUMP JUMPDEST PUSH1 0x0 PUSH32 0xFFFFFFFFFFFFFFFFFFFFFFFFFFFFFFFFFFFFFFFFFF0000000000000000000000 DUP3 AND SWAP1 POP SWAP2 SWAP1 POP JUMP JUMPDEST PUSH1 0x0 DUP2 SWAP1 POP SWAP2 SWAP1 POP JUMP JUMPDEST PUSH2 0x536C PUSH2 0x5367 DUP3 PUSH2 0x5325 JUMP JUMPDEST PUSH2 0x5351 JUMP JUMPDEST DUP3 MSTORE POP POP JUMP JUMPDEST PUSH1 0x0 PUSH1 0x1F SWAP1 POP SWAP2 SWAP1 POP JUMP JUMPDEST PUSH1 0x0 DUP2 SWAP1 POP SWAP3 SWAP2 POP POP JUMP JUMPDEST PUSH1 0x0 DUP2 SWAP1 POP SWAP2 SWAP1 POP JUMP JUMPDEST PUSH2 0x539B DUP2 PUSH2 0x4CF6 JUMP JUMPDEST DUP3 MSTORE POP POP JUMP JUMPDEST PUSH1 0x0 PUSH2 0x53AD DUP4 DUP4 PUSH2 0x5392 JUMP JUMPDEST PUSH1 0x20 DUP4 ADD SWAP1 POP SWAP3 SWAP2 POP POP JUMP JUMPDEST PUSH1 0x0 PUSH1 0x20 DUP3 ADD SWAP1 POP SWAP2 SWAP1 POP JUMP JUMPDEST PUSH2 0x53CF DUP2 PUSH2 0x5372 JUMP JUMPDEST PUSH2 0x53D9 DUP2 DUP5 PUSH2 0x537D JUMP JUMPDEST SWAP3 POP PUSH2 0x53E4 DUP3 PUSH2 0x5388 JUMP JUMPDEST DUP1 PUSH1 0x0 JUMPDEST DUP4 DUP2 LT ISZERO PUSH2 0x5415 JUMPI DUP2 MLOAD PUSH2 0x53FC DUP8 DUP3 PUSH2 0x53A1 JUMP JUMPDEST SWAP7 POP PUSH2 0x5407 DUP4 PUSH2 0x53B9 JUMP JUMPDEST SWAP3 POP POP PUSH1 0x1 DUP2 ADD SWAP1 POP PUSH2 0x53E8 JUMP JUMPDEST POP POP POP POP POP POP JUMP JUMPDEST PUSH1 0x0 PUSH2 0x5429 DUP3 DUP7 PUSH2 0x52CE JUMP JUMPDEST PUSH2 0x320 DUP3 ADD SWAP2 POP PUSH2 0x543A DUP3 DUP6 PUSH2 0x535B JUMP JUMPDEST PUSH1 0x15 DUP3 ADD SWAP2 POP PUSH2 0x544A DUP3 DUP5 PUSH2 0x53C6 JUMP JUMPDEST PUSH2 0x3E0 DUP3 ADD SWAP2 POP DUP2 SWAP1 POP SWAP5 SWAP4 POP POP POP POP JUMP JUMPDEST PUSH1 0x0 DUP2 SWAP1 POP SWAP2 SWAP1 POP JUMP JUMPDEST PUSH2 0x5477 PUSH2 0x5472 DUP3 PUSH2 0x4CF6 JUMP JUMPDEST PUSH2 0x545C JUMP JUMPDEST DUP3 MSTORE POP POP JUMP JUMPDEST PUSH1 0x0 PUSH1 0xFF DUP3 AND SWAP1 POP SWAP2 SWAP1 POP JUMP JUMPDEST PUSH1 0x0 DUP2 PUSH1 0xF8 SHL SWAP1 POP SWAP2 SWAP1 POP JUMP JUMPDEST PUSH1 0x0 PUSH2 0x54A2 DUP3 PUSH2 0x548A JUMP JUMPDEST SWAP1 POP SWAP2 SWAP1 POP JUMP JUMPDEST PUSH2 0x54BA PUSH2 0x54B5 DUP3 PUSH2 0x547D JUMP JUMPDEST PUSH2 0x5497 JUMP JUMPDEST DUP3 MSTORE POP POP JUMP JUMPDEST PUSH1 0x0 PUSH1 0x2 SWAP1 POP SWAP2 SWAP1 POP JUMP JUMPDEST PUSH1 0x0 DUP2 SWAP1 POP SWAP3 SWAP2 POP POP JUMP JUMPDEST PUSH1 0x0 DUP2 SWAP1 POP SWAP2 SWAP1 POP JUMP JUMPDEST PUSH1 0x0 PUSH1 0x20 DUP3 ADD SWAP1 POP SWAP2 SWAP1 POP JUMP JUMPDEST PUSH2 0x54F6 DUP2 PUSH2 0x54C0 JUMP JUMPDEST PUSH2 0x5500 DUP2 DUP5 PUSH2 0x54CB JUMP JUMPDEST SWAP3 POP PUSH2 0x550B DUP3 PUSH2 0x54D6 JUMP JUMPDEST DUP1 PUSH1 0x0 JUMPDEST DUP4 DUP2 LT ISZERO PUSH2 0x553C JUMPI DUP2 MLOAD PUSH2 0x5523 DUP8 DUP3 PUSH2 0x53A1 JUMP JUMPDEST SWAP7 POP PUSH2 0x552E DUP4 PUSH2 0x54E0 JUMP JUMPDEST SWAP3 POP POP PUSH1 0x1 DUP2 ADD SWAP1 POP PUSH2 0x550F JUMP JUMPDEST POP POP POP POP POP POP JUMP JUMPDEST PUSH1 0x0 PUSH2 0x5550 DUP3 DUP10 PUSH2 0x5466 JUMP JUMPDEST PUSH1 0x20 DUP3 ADD SWAP2 POP PUSH2 0x5560 DUP3 DUP9 PUSH2 0x5466 JUMP JUMPDEST PUSH1 0x20 DUP3 ADD SWAP2 POP PUSH2 0x5570 DUP3 DUP8 PUSH2 0x54A9 JUMP JUMPDEST PUSH1 0x1 DUP3 ADD SWAP2 POP PUSH2 0x5580 DUP3 DUP7 PUSH2 0x54A9 JUMP JUMPDEST PUSH1 0x1 DUP3 ADD SWAP2 POP PUSH2 0x5590 DUP3 DUP6 PUSH2 0x54ED JUMP JUMPDEST PUSH1 0x40 DUP3 ADD SWAP2 POP PUSH2 0x55A0 DUP3 DUP5 PUSH2 0x54A9 JUMP JUMPDEST PUSH1 0x1 DUP3 ADD SWAP2 POP DUP2 SWAP1 POP SWAP8 SWAP7 POP POP POP POP POP POP POP JUMP JUMPDEST PUSH1 0x0 DUP2 MLOAD SWAP1 POP SWAP2 SWAP1 POP JUMP JUMPDEST PUSH1 0x0 DUP2 SWAP1 POP SWAP3 SWAP2 POP POP JUMP JUMPDEST PUSH1 0x0 JUMPDEST DUP4 DUP2 LT ISZERO PUSH2 0x55E8 JUMPI DUP1 DUP3 ADD MLOAD DUP2 DUP5 ADD MSTORE PUSH1 0x20 DUP2 ADD SWAP1 POP PUSH2 0x55CD JUMP JUMPDEST PUSH1 0x0 DUP5 DUP5 ADD MSTORE POP POP POP POP JUMP JUMPDEST PUSH1 0x0 PUSH2 0x55FF DUP3 PUSH2 0x55B4 JUMP JUMPDEST PUSH2 0x5609 DUP2 DUP6 PUSH2 0x55BF JUMP JUMPDEST SWAP4 POP PUSH2 0x5619 DUP2 DUP6 PUSH1 0x20 DUP7 ADD PUSH2 0x55CA JUMP JUMPDEST DUP1 DUP5 ADD SWAP2 POP POP SWAP3 SWAP2 POP POP JUMP JUMPDEST PUSH1 0x0 DUP2 SWAP1 POP SWAP2 SWAP1 POP JUMP JUMPDEST PUSH2 0x5640 PUSH2 0x563B DUP3 PUSH2 0x5290 JUMP JUMPDEST PUSH2 0x5625 JUMP JUMPDEST DUP3 MSTORE POP POP JUMP JUMPDEST PUSH1 0x0 PUSH2 0x5652 DUP3 DUP9 PUSH2 0x55F4 JUMP JUMPDEST SWAP2 POP PUSH2 0x565E DUP3 DUP8 PUSH2 0x55F4 JUMP JUMPDEST SWAP2 POP PUSH2 0x566A DUP3 DUP7 PUSH2 0x55F4 JUMP JUMPDEST SWAP2 POP PUSH2 0x5676 DUP3 DUP6 PUSH2 0x55F4 JUMP JUMPDEST SWAP2 POP PUSH2 0x5682 DUP3 DUP5 PUSH2 0x562F JUMP JUMPDEST PUSH1 0x20 DUP3 ADD SWAP2 POP DUP2 SWAP1 POP SWAP7 SWAP6 POP POP POP POP POP POP JUMP JUMPDEST PUSH1 0x0 PUSH2 0x56A1 DUP3 DUP11 PUSH2 0x5466 JUMP JUMPDEST PUSH1 0x20 DUP3 ADD SWAP2 POP PUSH2 0x56B1 DUP3 DUP10 PUSH2 0x5466 JUMP JUMPDEST PUSH1 0x20 DUP3 ADD SWAP2 POP PUSH2 0x56C1 DUP3 DUP9 PUSH2 0x54A9 JUMP JUMPDEST PUSH1 0x1 DUP3 ADD SWAP2 POP PUSH2 0x56D1 DUP3 DUP8 PUSH2 0x54A9 JUMP JUMPDEST PUSH1 0x1 DUP3 ADD SWAP2 POP PUSH2 0x56E1 DUP3 DUP7 PUSH2 0x5466 JUMP JUMPDEST PUSH1 0x20 DUP3 ADD SWAP2 POP PUSH2 0x56F1 DUP3 DUP6 PUSH2 0x5466 JUMP JUMPDEST PUSH1 0x20 DUP3 ADD SWAP2 POP PUSH2 0x5701 DUP3 DUP5 PUSH2 0x54A9 JUMP JUMPDEST PUSH1 0x1 DUP3 ADD SWAP2 POP DUP2 SWAP1 POP SWAP9 SWAP8 POP POP POP POP POP POP POP POP JUMP JUMPDEST PUSH1 0x0 PUSH2 0x5722 DUP3 DUP8 PUSH2 0x55F4 JUMP JUMPDEST SWAP2 POP PUSH2 0x572E DUP3 DUP7 PUSH2 0x55F4 JUMP JUMPDEST SWAP2 POP PUSH2 0x573A DUP3 DUP6 PUSH2 0x55F4 JUMP JUMPDEST SWAP2 POP PUSH2 0x5746 DUP3 DUP5 PUSH2 0x562F JUMP JUMPDEST PUSH1 0x20 DUP3 ADD SWAP2 POP DUP2 SWAP1 POP SWAP6 SWAP5 POP POP POP POP POP JUMP JUMPDEST PUSH1 0x0 PUSH2 0x5764 DUP3 DUP7 PUSH2 0x55F4 JUMP JUMPDEST SWAP2 POP PUSH2 0x5770 DUP3 DUP6 PUSH2 0x55F4 JUMP JUMPDEST SWAP2 POP PUSH2 0x577C DUP3 DUP5 PUSH2 0x562F JUMP JUMPDEST PUSH1 0x20 DUP3 ADD SWAP2 POP DUP2 SWAP1 POP SWAP5 SWAP4 POP POP POP POP JUMP JUMPDEST PUSH1 0x0 DUP2 MLOAD SWAP1 POP SWAP2 SWAP1 POP JUMP JUMPDEST PUSH1 0x0 DUP2 SWAP1 POP SWAP3 SWAP2 POP POP JUMP JUMPDEST PUSH1 0x0 DUP2 SWAP1 POP PUSH1 0x20 DUP3 ADD SWAP1 POP SWAP2 SWAP1 POP JUMP JUMPDEST PUSH1 0x0 PUSH1 0x20 DUP3 ADD SWAP1 POP SWAP2 SWAP1 POP JUMP JUMPDEST PUSH1 0x0 PUSH2 0x57CB DUP3 PUSH2 0x578D JUMP JUMPDEST PUSH2 0x57D5 DUP2 DUP6 PUSH2 0x5798 JUMP JUMPDEST SWAP4 POP PUSH2 0x57E0 DUP4 PUSH2 0x57A3 JUMP JUMPDEST DUP1 PUSH1 0x0 JUMPDEST DUP4 DUP2 LT ISZERO PUSH2 0x5811 JUMPI DUP2 MLOAD PUSH2 0x57F8 DUP9 DUP3 PUSH2 0x53A1 JUMP JUMPDEST SWAP8 POP PUSH2 0x5803 DUP4 PUSH2 0x57B3 JUMP JUMPDEST SWAP3 POP POP PUSH1 0x1 DUP2 ADD SWAP1 POP PUSH2 0x57E4 JUMP JUMPDEST POP DUP6 SWAP4 POP POP POP POP SWAP3 SWAP2 POP POP JUMP JUMPDEST PUSH1 0x0 PUSH2 0x582A DUP3 DUP6 PUSH2 0x57C0 JUMP JUMPDEST SWAP2 POP PUSH2 0x5836 DUP3 DUP5 PUSH2 0x562F JUMP JUMPDEST PUSH1 0x20 DUP3 ADD SWAP2 POP DUP2 SWAP1 POP SWAP4 SWAP3 POP POP POP JUMP JUMPDEST PUSH32 0x4E487B7100000000000000000000000000000000000000000000000000000000 PUSH1 0x0 MSTORE PUSH1 0x12 PUSH1 0x4 MSTORE PUSH1 0x24 PUSH1 0x0 REVERT JUMPDEST PUSH32 0x4E487B7100000000000000000000000000000000000000000000000000000000 PUSH1 0x0 MSTORE PUSH1 0x11 PUSH1 0x4 MSTORE PUSH1 0x24 PUSH1 0x0 REVERT JUMPDEST PUSH1 0x0 PUSH2 0x58AF DUP3 PUSH2 0x4CF6 JUMP JUMPDEST SWAP2 POP PUSH2 0x58BA DUP4 PUSH2 0x4CF6 JUMP JUMPDEST SWAP3 POP DUP3 DUP3 SUB SWAP1 POP DUP2 DUP2 GT ISZERO PUSH2 0x58D2 JUMPI PUSH2 0x58D1 PUSH2 0x5875 JUMP JUMPDEST JUMPDEST SWAP3 SWAP2 POP POP JUMP JUMPDEST PUSH1 0x0 PUSH2 0x58E4 DUP3 DUP9 PUSH2 0x5466 JUMP JUMPDEST PUSH1 0x20 DUP3 ADD SWAP2 POP PUSH2 0x58F4 DUP3 DUP8 PUSH2 0x5466 JUMP JUMPDEST PUSH1 0x20 DUP3 ADD SWAP2 POP PUSH2 0x5904 DUP3 DUP7 PUSH2 0x5466 JUMP JUMPDEST PUSH1 0x20 DUP3 ADD SWAP2 POP PUSH2 0x5914 DUP3 DUP6 PUSH2 0x5466 JUMP JUMPDEST PUSH1 0x20 DUP3 ADD SWAP2 POP PUSH2 0x5924 DUP3 DUP5 PUSH2 0x562F JUMP JUMPDEST PUSH1 0x20 DUP3 ADD SWAP2 POP DUP2 SWAP1 POP SWAP7 SWAP6 POP POP POP POP POP POP JUMP JUMPDEST PUSH1 0x0 PUSH2 0x5942 DUP3 PUSH2 0x4CF6 JUMP JUMPDEST SWAP2 POP PUSH2 0x594D DUP4 PUSH2 0x4CF6 JUMP JUMPDEST SWAP3 POP DUP3 DUP3 MUL PUSH2 0x595B DUP2 PUSH2 0x4CF6 JUMP JUMPDEST SWAP2 POP DUP3 DUP3 DIV DUP5 EQ DUP4 ISZERO OR PUSH2 0x5972 JUMPI PUSH2 0x5971 PUSH2 0x5875 JUMP JUMPDEST JUMPDEST POP SWAP3 SWAP2 POP POP JUMP JUMPDEST PUSH1 0x0 PUSH4 0xFFFFFFFF DUP3 AND SWAP1 POP SWAP2 SWAP1 POP JUMP JUMPDEST PUSH1 0x0 DUP2 PUSH1 0xE0 SHL SWAP1 POP SWAP2 SWAP1 POP JUMP JUMPDEST PUSH1 0x0 PUSH2 0x59A1 DUP3 PUSH2 0x5989 JUMP JUMPDEST SWAP1 POP SWAP2 SWAP1 POP JUMP JUMPDEST PUSH2 0x59B9 PUSH2 0x59B4 DUP3 PUSH2 0x5979 JUMP JUMPDEST PUSH2 0x5996 JUMP JUMPDEST DUP3 MSTORE POP POP JUMP JUMPDEST PUSH1 0x0 PUSH2 0x59CB DUP3 DUP6 PUSH2 0x562F JUMP JUMPDEST PUSH1 0x20 DUP3 ADD SWAP2 POP PUSH2 0x59DB DUP3 DUP5 PUSH2 0x59A8 JUMP JUMPDEST PUSH1 0x4 DUP3 ADD SWAP2 POP DUP2 SWAP1 POP SWAP4 SWAP3 POP POP POP JUMP JUMPDEST PUSH1 0x0 PUSH2 0x59F6 DUP3 PUSH2 0x5979 JUMP JUMPDEST SWAP2 POP PUSH2 0x5A01 DUP4 PUSH2 0x5979 JUMP JUMPDEST SWAP3 POP DUP3 DUP3 ADD SWAP1 POP PUSH4 0xFFFFFFFF DUP2 GT ISZERO PUSH2 0x5A1D JUMPI PUSH2 0x5A1C PUSH2 0x5875 JUMP JUMPDEST JUMPDEST SWAP3 SWAP2 POP POP JUMP JUMPDEST PUSH1 0x0 PUSH2 0x5A2E DUP3 PUSH2 0x4CF6 JUMP JUMPDEST SWAP2 POP PUSH2 0x5A39 DUP4 PUSH2 0x4CF6 JUMP JUMPDEST SWAP3 POP DUP3 DUP3 ADD SWAP1 POP DUP1 DUP3 GT ISZERO PUSH2 0x5A51 JUMPI PUSH2 0x5A50 PUSH2 0x5875 JUMP JUMPDEST JUMPDEST SWAP3 SWAP2 POP POP JUMP JUMPDEST PUSH1 0x0 PUSH2 0x5A62 DUP3 PUSH2 0x4CF6 JUMP JUMPDEST SWAP2 POP PUSH2 0x5A6D DUP4 PUSH2 0x4CF6 JUMP JUMPDEST SWAP3 POP DUP3 PUSH2 0x5A7D JUMPI PUSH2 0x5A7C PUSH2 0x5846 JUMP JUMPDEST JUMPDEST DUP3 DUP3 MOD SWAP1 POP SWAP3 SWAP2 POP POP JUMP INVALID LOG2 PUSH5 0x6970667358 0x22 SLT KECCAK256 0xFB SWAP14 BYTE MUL MSTORE SIGNEXTEND 0xCD LOG0 0xC9 KECCAK256 0xC7 PUSH4 0x126B1740 SELFDESTRUCT 0xC7 SWAP12 GASPRICE 0xCC EXTCODECOPY 0xAE 0xCB STATICCALL 0xE2 SGT CALLVALUE 0xA7 BLOCKHASH PUSH31 0x5A64736F6C6343000818003300000000000000000000000000000000000000 "
        },
        "methodIdentifiers": {
          "verifyTx(((uint256,uint256)[],(uint256,uint256)[],(uint256,uint256),(uint256,uint256)[],(uint256,uint256),uint256[],(uint256,uint256),uint256,(uint256,uint256)),uint256[24])": "dfb2168f"
        }
      }
    }
  }
}