{
  "contracts/Verifier.sol": {
    "Verifier": {
      "abi": [
        {
          "inputs": [
            {
              "components": [
                {
                  "components": [
                    {
                      "internalType": "uint256",
                      "name": "X",
                      "type": "uint256"
                    },
                    {
                      "internalType": "uint256",
                      "name": "Y",
                      "type": "uint256"
                    }
                  ],
                  "internalType": "struct Pairing.G1Point[]",
                  "name": "comms_1",
                  "type": "tuple[]"
                },
                {
                  "components": [
                    {
                      "internalType": "uint256",
                      "name": "X",
                      "type": "uint256"
                    },
                    {
                      "internalType": "uint256",
                      "name": "Y",
                      "type": "uint256"
                    }
                  ],
                  "internalType": "struct Pairing.G1Point[]",
                  "name": "comms_2",
                  "type": "tuple[]"
                },
                {
                  "components": [
                    {
                      "internalType": "uint256",
                      "name": "X",
                      "type": "uint256"
                    },
                    {
                      "internalType": "uint256",
                      "name": "Y",
                      "type": "uint256"
                    }
                  ],
                  "internalType": "struct Pairing.G1Point",
                  "name": "degree_bound_comms_2_g1",
                  "type": "tuple"
                },
                {
                  "components": [
                    {
                      "internalType": "uint256",
                      "name": "X",
                      "type": "uint256"
                    },
                    {
                      "internalType": "uint256",
                      "name": "Y",
                      "type": "uint256"
                    }
                  ],
                  "internalType": "struct Pairing.G1Point[]",
                  "name": "comms_3",
                  "type": "tuple[]"
                },
                {
                  "components": [
                    {
                      "internalType": "uint256",
                      "name": "X",
                      "type": "uint256"
                    },
                    {
                      "internalType": "uint256",
                      "name": "Y",
                      "type": "uint256"
                    }
                  ],
                  "internalType": "struct Pairing.G1Point",
                  "name": "degree_bound_comms_3_g2",
                  "type": "tuple"
                },
                {
                  "internalType": "uint256[]",
                  "name": "evals",
                  "type": "uint256[]"
                },
                {
                  "components": [
                    {
                      "internalType": "uint256",
                      "name": "X",
                      "type": "uint256"
                    },
                    {
                      "internalType": "uint256",
                      "name": "Y",
                      "type": "uint256"
                    }
                  ],
                  "internalType": "struct Pairing.G1Point",
                  "name": "batch_lc_proof_1",
                  "type": "tuple"
                },
                {
                  "internalType": "uint256",
                  "name": "batch_lc_proof_1_r",
                  "type": "uint256"
                },
                {
                  "components": [
                    {
                      "internalType": "uint256",
                      "name": "X",
                      "type": "uint256"
                    },
                    {
                      "internalType": "uint256",
                      "name": "Y",
                      "type": "uint256"
                    }
                  ],
                  "internalType": "struct Pairing.G1Point",
                  "name": "batch_lc_proof_2",
                  "type": "tuple"
                }
              ],
              "internalType": "struct Verifier.Proof",
              "name": "proof",
              "type": "tuple"
            },
            {
              "internalType": "uint256[24]",
              "name": "input",
              "type": "uint256[24]"
            }
          ],
          "name": "verifyTx",
          "outputs": [
            {
              "internalType": "bool",
              "name": "",
              "type": "bool"
            }
          ],
          "stateMutability": "view",
          "type": "function"
        }
      ],
      "evm": {
        "bytecode": {
          "linkReferences": {},
          "object": "608060405234801561001057600080fd5b506159a380620000216000396000f3fe608060405234801561001057600080fd5b506004361061002b5760003560e01c8063dfb2168f14610030575b600080fd5b61004a60048036038101906100459190615093565b610060565b604051610057919061510b565b60405180910390f35b600061006a614964565b60005b60188110156100b75783816018811061008957610088615126565b5b60200201518282601f81106100a1576100a0615126565b5b602002018181525050808060010191505061006d565b506100c281856100cb565b91505092915050565b6000806100d66131ab565b905060005b601f811015610134577f30644e72e131a029b85045b68181585d2833e84879b9709143e1f593f00000018582601f811061011857610117615126565b5b60200201511061012757600080fd5b80806001019150506100db565b50600080610140614987565b7f4d41524c494e2d32303139d570010000000000d570010000000000c1982c000060001b8160006019811061017857610177615126565b5b6020020181815250507c3b347fc0677245f7bbf87fa4ab8110414c017cdd67c384ab003c64807f60001b816001601981106101b6576101b5615126565b5b6020020181815250507fcab709a3bb7becee13357b6366f710991e18df2f6d94675ec66b9a1a75d4157260001b816002601981106101f7576101f6615126565b5b6020020181815250507f4bc015000000000000000000000000000000000000000000000000000000000060001b8160036019811061023857610237615126565b5b6020020181815250507a01000000000000000000000000000000000000000000000000000060001b8160046019811061027457610273615126565b5b6020020181815250507a0193a62a572de733c881b3c32fb998b781b750477744cef4c9822260001b816005601981106102b0576102af615126565b5b6020020181815250507fc330adf02a01a32822a381d3772088c90dca9f45b316f9f808b3f3db5bfb22c060001b816006601981106102f1576102f0615126565b5b6020020181815250507fa813660a6303000000000000000000000000000000000000000000000000000060001b8160076019811061033257610331615126565b5b6020020181815250507701000000000000000000000000000000000000000000000060001b8160086019811061036b5761036a615126565b5b6020020181815250507701e5a3dd8c44ebf0d734f4e11bea3ab44dfde495f484d5b160001b816009601981106103a4576103a3615126565b5b6020020181815250507f6fde9367cc578a491d26039844621b90d51b16b179235bc2c31945e354897e7b60001b81600a601981106103e5576103e4615126565b5b6020020181815250507fbfcd6eb2ef07943328000000000000000000000000000000000000000000000060001b81600b6019811061042657610425615126565b5b6020020181815250507401000000000000000000000000000000000000000060001b81600c6019811061045c5761045b615126565b5b60200201818152505074019d1d5293def9616a6dd1b71baa26d1c3c6d806d160001b81600d6019811061049257610491615126565b5b6020020181815250507fa709dcaf6236edbecd5e8a155945dfa802b94f5043574075017bb35789d4ea3460001b81600e601981106104d3576104d2615126565b5b6020020181815250507fee6cefac4153e5e69532e50e000000000000000000000000000000000000000060001b81600f6019811061051457610513615126565b5b6020020181815250507101000000000000000000000000000000000060001b8160106019811061054757610546615126565b5b6020020181815250507101ceb9732e20b72db8f452e407bd11eb0cca60001b8160116019811061057a57610579615126565b5b6020020181815250507fc16682ae48a7b72f26f1423aea6905d034206021085a674440749352254d8b7e60001b816012601981106105bb576105ba615126565b5b6020020181815250507fc8271012e0ec60ecbbd0adea08e206000000000000000000000000000000000060001b816013601981106105fc576105fb615126565b5b6020020181815250506e01000000000000000000000000000060001b8160146019811061062c5761062b615126565b5b6020020181815250506e0133b93ed4318d7b732acaabb8a40f60001b8160156019811061065c5761065b615126565b5b6020020181815250507f8ef321e1f53ef625d9de2f0e9168e908572ff8f714ca88c3dc6096c65a99b76760001b8160166019811061069d5761069c615126565b5b6020020181815250507f1d825f07f163954bfc3595fb0e2a40c89b0e000000000000000000000000000060001b816017601981106106de576106dd615126565b5b6020020181815250506b01000000000000000000000060001b8160186019811061070b5761070a615126565b5b6020020181815250506000600160581b9050610725614964565b60005b601f81101561077a576107518a82601f811061074757610746615126565b5b60200201516137f0565b8282601f811061076457610763615126565b5b6020020181815250508080600101915050610728565b5082828260405160200161079093929190615302565b604051602081830303815290604052805190602001209450505050600090506000600190506000806040518060400160405280600081526020016107d460016137f0565b815250905061080588600001516000815181106107f4576107f3615126565b5b6020026020010151600001516137f0565b61083189600001516000815181106108205761081f615126565b5b6020026020010151602001516137f0565b8384848760405160200161084a96959493929190615429565b604051602081830303815290604052610885896000015160018151811061087457610873615126565b5b6020026020010151600001516137f0565b6108b18a600001516001815181106108a05761089f615126565b5b6020026020010151602001516137f0565b848585886040516020016108ca96959493929190615429565b6040516020818303038152906040526109058a600001516002815181106108f4576108f3615126565b5b6020026020010151600001516137f0565b6109318b600001516002815181106109205761091f615126565b5b6020026020010151602001516137f0565b8586868960405160200161094a96959493929190615429565b6040516020818303038152906040526109858b6000015160038151811061097457610973615126565b5b6020026020010151600001516137f0565b6109b18c600001516003815181106109a05761099f615126565b5b6020026020010151602001516137f0565b8687878a6040516020016109ca96959493929190615429565b604051602081830303815290604052886040516020016109ee95949392919061552b565b604051602081830303815290604052805190602001209450505050610a116149aa565b6000610a1d848461393c565b80945081925050505b6000610a358262020000613a3c565b03610a5157610a44848461393c565b8094508192505050610a26565b610a5a81613a9c565b82600060078110610a6e57610a6d615126565b5b602002018181525050610a81848461393c565b8094508192505050610a9281613a9c565b82600160078110610aa657610aa5615126565b5b602002018181525050610ab9848461393c565b8094508192505050610aca81613a9c565b82600260078110610ade57610add615126565b5b602002018181525050610af1848461393c565b8094508192505050610b0281613a9c565b82600360078110610b1657610b15615126565b5b6020020181815250505060009150600060019050600080604051806040016040528060008152602001610b4960016137f0565b8152509050610b7a8960200151600081518110610b6957610b68615126565b5b6020026020010151600001516137f0565b610ba68a60200151600081518110610b9557610b94615126565b5b6020026020010151602001516137f0565b83848487604051602001610bbf96959493929190615429565b604051602081830303815290604052610bfa8a60200151600181518110610be957610be8615126565b5b6020026020010151600001516137f0565b610c268b60200151600181518110610c1557610c14615126565b5b6020026020010151602001516137f0565b8486610c398e60400151600001516137f0565b610c4a8f60400151602001516137f0565b88604051602001610c61979695949392919061557a565b604051602081830303815290604052610c9c8b60200151600281518110610c8b57610c8a615126565b5b6020026020010151600001516137f0565b610cc88c60200151600281518110610cb757610cb6615126565b5b6020026020010151602001516137f0565b85868689604051602001610ce196959493929190615429565b60405160208183030381529060405288604051602001610d0494939291906155fb565b6040516020818303038152906040528051906020012095505050506000610d2b848461393c565b80945081925050505b6000610d438262020000613a3c565b03610d5f57610d52848461393c565b8094508192505050610d34565b610d6881613a9c565b82600460078110610d7c57610d7b615126565b5b6020020181815250505060009150600060019050600080604051806040016040528060008152602001610daf60016137f0565b8152509050610de08960600151600081518110610dcf57610dce615126565b5b6020026020010151600001516137f0565b610e0c8a60600151600081518110610dfb57610dfa615126565b5b6020026020010151602001516137f0565b8385610e1f8d60800151600001516137f0565b610e308e60800151602001516137f0565b87604051602001610e47979695949392919061557a565b604051602081830303815290604052610e828a60600151600181518110610e7157610e70615126565b5b6020026020010151600001516137f0565b610eae8b60600151600181518110610e9d57610e9c615126565b5b6020026020010151602001516137f0565b84858588604051602001610ec796959493929190615429565b60405160208183030381529060405287604051602001610ee99392919061563d565b6040516020818303038152906040528051906020012095505050506000610f10848461393c565b8094508192505050610f2181613a9c565b82600560078110610f3557610f34615126565b5b602002018181525050506000915060008660a001515167ffffffffffffffff811115610f6457610f63614bfa565b5b604051908082528060200260200182016040528015610f925781602001602082028036833780820191505090505b50905060005b8760a0015151811015610ff857610fcc8860a001518281518110610fbf57610fbe615126565b5b60200260200101516137f0565b828281518110610fdf57610fde615126565b5b6020026020010181815250508080600101915050610f98565b50808460405160200161100c929190615703565b6040516020818303038152906040528051906020012093505060006110318484613d51565b8094508192505050808260066007811061104e5761104d615126565b5b602002018181525050506110606149cc565b6110686149f9565b611070614a1b565b6110ae8460006007811061108757611086615126565b5b6020020151856004600781106110a05761109f615126565b5b602002015162020000613df0565b816000600681106110c2576110c1615126565b5b6020020181815250506110f0846000600781106110e2576110e1615126565b5b602002015162020000613a3c565b8160016006811061110457611103615126565b5b6020020181815250506111328460046007811061112457611123615126565b5b602002015162020000613a3c565b8160026006811061114657611145615126565b5b6020020181815250506111728460046007811061116657611165615126565b5b60200201516020613a3c565b8160036006811061118657611185615126565b5b60200201818152505060006111b2856004600781106111a8576111a7615126565b5b6020020151613ead565b9050806000602081106111c8576111c7615126565b5b6020020151826004600681106111e1576111e0615126565b5b6020020181815250506000600190505b60208110156112d9577f30644e72e131a029b85045b68181585d2833e84879b9709143e1f593f0000001806112295761122861572b565b5b7f30644e72e131a029b85045b68181585d2833e84879b9709143e1f593f0000001806112585761125761572b565b5b8d6001846112669190615789565b601f811061127757611276615126565b5b602002015184846020811061128f5761128e615126565b5b602002015109846004600681106112a9576112a8615126565b5b602002015108836004600681106112c3576112c2615126565b5b60200201818152505080806001019150506111f1565b5050611300846005600781106112f2576112f1615126565b5b602002015162400000613a3c565b8160056006811061131457611313615126565b5b602002018181525050611325614a3d565b61132d614a5f565b8a60a0015160008151811061134557611344615126565b5b60200260200101518260006004811061136157611360615126565b5b6020020181815250508a60a0015160028151811061138257611381615126565b5b60200260200101518260026004811061139e5761139d615126565b5b6020020181815250508a60a001516003815181106113bf576113be615126565b5b6020026020010151826003600481106113db576113da615126565b5b6020020181815250508a602001516001815181106113fc576113fb615126565b5b60200260200101518160006004811061141857611417615126565b5b60200201819052508a6020015160008151811061143857611437615126565b5b60200260200101518160026004811061145457611453615126565b5b60200201819052508a6000015160028151811061147457611473615126565b5b6020026020010151816003600481106114905761148f615126565b5b60200201819052506114a06149aa565b6001816000600781106114b6576114b5615126565b5b6020020181815250507f30644e72e131a029b85045b68181585d2833e84879b9709143e1f593f0000001806114ee576114ed61572b565b5b7f30644e72e131a029b85045b68181585d2833e84879b9709143e1f593f00000018061151d5761151c61572b565b5b7f30644e72e131a029b85045b68181585d2833e84879b9709143e1f593f00000018061154c5761154b61572b565b5b8e60a0015160038151811061156457611563615126565b5b60200260200101518a6003600781106115805761157f615126565b5b6020020151098960016007811061159a57611599615126565b5b602002015108856000600681106115b4576115b3615126565b5b602002015109816001600781106115ce576115cd615126565b5b6020020181815250507f30644e72e131a029b85045b68181585d2833e84879b9709143e1f593f0000001806116065761160561572b565b5b7f30644e72e131a029b85045b68181585d2833e84879b9709143e1f593f0000001806116355761163461572b565b5b8d60a0015160038151811061164d5761164c615126565b5b60200260200101518960026007811061166957611668615126565b5b6020020151098560006006811061168357611682615126565b5b6020020151098160026007811061169d5761169c615126565b5b6020020181815250507f30644e72e131a029b85045b68181585d2833e84879b9709143e1f593f0000001806116d5576116d461572b565b5b61172060008e60a001516002815181106116f2576116f1615126565b5b60200260200101517f30644e72e131a029b85045b68181585d2833e84879b9709143e1f593f000000161412b565b8560036006811061173457611733615126565b5b6020020151098160036007811061174e5761174d615126565b5b6020020181815250507f30644e72e131a029b85045b68181585d2833e84879b9709143e1f593f0000001806117865761178561572b565b5b6117d160008e60a001516002815181106117a3576117a2615126565b5b60200260200101517f30644e72e131a029b85045b68181585d2833e84879b9709143e1f593f000000161412b565b856004600681106117e5576117e4615126565b5b602002015109816004600781106117ff576117fe615126565b5b60200201818152505061184c60008560026006811061182157611820615126565b5b60200201517f30644e72e131a029b85045b68181585d2833e84879b9709143e1f593f000000161412b565b816005600781106118605761185f615126565b5b6020020181815250507f30644e72e131a029b85045b68181585d2833e84879b9709143e1f593f0000001806118985761189761572b565b5b6118dc6000896004600781106118b1576118b0615126565b5b60200201517f30644e72e131a029b85045b68181585d2833e84879b9709143e1f593f000000161412b565b8d60a001516000815181106118f4576118f3615126565b5b6020026020010151098160066007811061191157611910615126565b5b6020020181815250508b6000015160038151811061193257611931615126565b5b60200260200101518260016004811061194e5761194d615126565b5b60200201819052506119ca6119a3826001600781106119705761196f615126565b5b60200201518e6000015160018151811061198d5761198c615126565b5b602002602001015161415390919063ffffffff16565b836001600481106119b7576119b6615126565b5b60200201516141f590919063ffffffff16565b826001600481106119de576119dd615126565b5b6020020181905250611a5a611a3382600360078110611a00576119ff615126565b5b60200201518e60000151600081518110611a1d57611a1c615126565b5b602002602001015161415390919063ffffffff16565b83600160048110611a4757611a46615126565b5b60200201516141f590919063ffffffff16565b82600160048110611a6e57611a6d615126565b5b6020020181905250611aea611ac382600560078110611a9057611a8f615126565b5b60200201518e60200151600281518110611aad57611aac615126565b5b602002602001015161415390919063ffffffff16565b83600160048110611ad757611ad6615126565b5b60200201516141f590919063ffffffff16565b82600160048110611afe57611afd615126565b5b6020020181905250611b6183600160048110611b1d57611b1c615126565b5b602002015182600260078110611b3657611b35615126565b5b60200201517f30644e72e131a029b85045b68181585d2833e84879b9709143e1f593f000000161412b565b83600160048110611b7557611b74615126565b5b602002018181525050611bd983600160048110611b9557611b94615126565b5b602002015182600460078110611bae57611bad615126565b5b60200201517f30644e72e131a029b85045b68181585d2833e84879b9709143e1f593f000000161412b565b83600160048110611bed57611bec615126565b5b602002018181525050611c5183600160048110611c0d57611c0c615126565b5b602002015182600660078110611c2657611c25615126565b5b60200201517f30644e72e131a029b85045b68181585d2833e84879b9709143e1f593f000000161412b565b83600160048110611c6557611c64615126565b5b6020020181815250505080600060048110611c8357611c82615126565b5b602002015185600060028110611c9c57611c9b615126565b5b602002018190525081600060048110611cb857611cb7615126565b5b602002015184600060028110611cd157611cd0615126565b5b602002018181525050600086600660078110611cf057611cef615126565b5b602002015190506000611d46611d33611d2e86600060048110611d1657611d15615126565b5b60200201518e6040015161415390919063ffffffff16565b6142bd565b8e604001516141f590919063ffffffff16565b9050611d5b828261415390919063ffffffff16565b9050611d888188600060028110611d7557611d74615126565b5b60200201516141f590919063ffffffff16565b87600060028110611d9c57611d9b615126565b5b6020020181905250507f30644e72e131a029b85045b68181585d2833e84879b9709143e1f593f000000180611dd457611dd361572b565b5b87600660078110611de857611de7615126565b5b602002015182099050611e46611e1f8284600160048110611e0c57611e0b615126565b5b602002015161415390919063ffffffff16565b87600060028110611e3357611e32615126565b5b60200201516141f590919063ffffffff16565b86600060028110611e5a57611e59615126565b5b60200201819052507f30644e72e131a029b85045b68181585d2833e84879b9709143e1f593f000000180611e9157611e9061572b565b5b7f30644e72e131a029b85045b68181585d2833e84879b9709143e1f593f000000180611ec057611ebf61572b565b5b8285600160048110611ed557611ed4615126565b5b60200201510986600060028110611eef57611eee615126565b5b60200201510885600060028110611f0957611f08615126565b5b6020020181815250507f30644e72e131a029b85045b68181585d2833e84879b9709143e1f593f000000180611f4157611f4061572b565b5b87600660078110611f5557611f54615126565b5b602002015182099050611fb3611f8c8284600260048110611f7957611f78615126565b5b602002015161415390919063ffffffff16565b87600060028110611fa057611f9f615126565b5b60200201516141f590919063ffffffff16565b86600060028110611fc757611fc6615126565b5b60200201819052507f30644e72e131a029b85045b68181585d2833e84879b9709143e1f593f000000180611ffe57611ffd61572b565b5b7f30644e72e131a029b85045b68181585d2833e84879b9709143e1f593f00000018061202d5761202c61572b565b5b828560026004811061204257612041615126565b5b6020020151098660006002811061205c5761205b615126565b5b6020020151088560006002811061207657612075615126565b5b6020020181815250507f30644e72e131a029b85045b68181585d2833e84879b9709143e1f593f0000001806120ae576120ad61572b565b5b876006600781106120c2576120c1615126565b5b6020020151820990506121206120f982846003600481106120e6576120e5615126565b5b602002015161415390919063ffffffff16565b8760006002811061210d5761210c615126565b5b60200201516141f590919063ffffffff16565b8660006002811061213457612133615126565b5b60200201819052507f30644e72e131a029b85045b68181585d2833e84879b9709143e1f593f00000018061216b5761216a61572b565b5b7f30644e72e131a029b85045b68181585d2833e84879b9709143e1f593f00000018061219a5761219961572b565b5b82856003600481106121af576121ae615126565b5b602002015109866000600281106121c9576121c8615126565b5b602002015108856000600281106121e3576121e2615126565b5b6020020181815250505050506121f76149f9565b6121ff6149cc565b8a60a0015160018151811061221757612216615126565b5b60200260200101518260006002811061223357612232615126565b5b6020020181815250508a6060015160008151811061225457612253615126565b5b6020026020010151816000600281106122705761226f615126565b5b6020020181905250612280614a8c565b60007f30644e72e131a029b85045b68181585d2833e84879b9709143e1f593f0000001806122b1576122b061572b565b5b856002600681106122c5576122c4615126565b5b6020020151866001600681106122de576122dd615126565b5b60200201510990507f30644e72e131a029b85045b68181585d2833e84879b9709143e1f593f0000001806123155761231461572b565b5b818960016007811061232a57612329615126565b5b6020020151098260006008811061234457612343615126565b5b6020020181815250507f30644e72e131a029b85045b68181585d2833e84879b9709143e1f593f00000018061237c5761237b61572b565b5b818960026007811061239157612390615126565b5b602002015109826001600881106123ab576123aa615126565b5b6020020181815250507f30644e72e131a029b85045b68181585d2833e84879b9709143e1f593f0000001806123e3576123e261572b565b5b81896003600781106123f8576123f7615126565b5b6020020151098260026008811061241257612411615126565b5b6020020181815250505060007f30644e72e131a029b85045b68181585d2833e84879b9709143e1f593f00000018061244d5761244c61572b565b5b8d60a0015160018151811061246557612464615126565b5b60200260200101518960056007811061248157612480615126565b5b60200201510990507f30644e72e131a029b85045b68181585d2833e84879b9709143e1f593f0000001806124b8576124b761572b565b5b7f30644e72e131a029b85045b68181585d2833e84879b9709143e1f593f0000001806124e7576124e661572b565b5b6124f362400000614362565b8f60a0015160028151811061250b5761250a615126565b5b602002602001015109820890507f30644e72e131a029b85045b68181585d2833e84879b9709143e1f593f0000001806125475761254661572b565b5b6125d460007f30644e72e131a029b85045b68181585d2833e84879b9709143e1f593f00000018061257b5761257a61572b565b5b8b60006007811061258f5761258e615126565b5b60200201518c6004600781106125a8576125a7615126565b5b6020020151097f30644e72e131a029b85045b68181585d2833e84879b9709143e1f593f000000161412b565b8209826003600881106125ea576125e9615126565b5b6020020181815250507f30644e72e131a029b85045b68181585d2833e84879b9709143e1f593f0000001806126225761262161572b565b5b8860006007811061263657612635615126565b5b602002015182098260046008811061265157612650615126565b5b6020020181815250507f30644e72e131a029b85045b68181585d2833e84879b9709143e1f593f0000001806126895761268861572b565b5b8860046007811061269d5761269c615126565b5b60200201518209826005600881106126b8576126b7615126565b5b6020020181815250506126ed6000827f30644e72e131a029b85045b68181585d2833e84879b9709143e1f593f000000161412b565b8260066008811061270157612700615126565b5b6020020181815250505061274f60008560056006811061272457612723615126565b5b60200201517f30644e72e131a029b85045b68181585d2833e84879b9709143e1f593f000000161412b565b8160076008811061276357612762615126565b5b6020020181815250506127b68160006008811061278357612782615126565b5b60200201518b600001516002815181106127a05761279f615126565b5b602002602001015161415390919063ffffffff16565b826001600281106127ca576127c9615126565b5b602002018190525061284661281f826001600881106127ec576127eb615126565b5b60200201518c6000015160038151811061280957612808615126565b5b602002602001015161415390919063ffffffff16565b8360016002811061283357612832615126565b5b60200201516141f590919063ffffffff16565b8260016002811061285a57612859615126565b5b60200201819052506128d66128af8260026008811061287c5761287b615126565b5b60200201518c6000015160048151811061289957612898615126565b5b602002602001015161415390919063ffffffff16565b836001600281106128c3576128c2615126565b5b60200201516141f590919063ffffffff16565b826001600281106128ea576128e9615126565b5b602002018190525061296661293f8260046008811061290c5761290b615126565b5b60200201518c6000015160008151811061292957612928615126565b5b602002602001015161415390919063ffffffff16565b8360016002811061295357612952615126565b5b60200201516141f590919063ffffffff16565b8260016002811061297a57612979615126565b5b60200201819052506129f66129cf8260056008811061299c5761299b615126565b5b60200201518c600001516001815181106129b9576129b8615126565b5b602002602001015161415390919063ffffffff16565b836001600281106129e3576129e2615126565b5b60200201516141f590919063ffffffff16565b82600160028110612a0a57612a09615126565b5b6020020181905250612a86612a5f82600660088110612a2c57612a2b615126565b5b60200201518c60000151600581518110612a4957612a48615126565b5b602002602001015161415390919063ffffffff16565b83600160028110612a7357612a72615126565b5b60200201516141f590919063ffffffff16565b82600160028110612a9a57612a99615126565b5b6020020181905250612b16612aef82600760088110612abc57612abb615126565b5b60200201518e60600151600181518110612ad957612ad8615126565b5b602002602001015161415390919063ffffffff16565b83600160028110612b0357612b02615126565b5b60200201516141f590919063ffffffff16565b82600160028110612b2a57612b29615126565b5b6020020181905250612b76600082600360088110612b4b57612b4a615126565b5b60200201517f30644e72e131a029b85045b68181585d2833e84879b9709143e1f593f000000161412b565b83600160028110612b8a57612b89615126565b5b6020020181815250505080600060028110612ba857612ba7615126565b5b602002015185600160028110612bc157612bc0615126565b5b602002018190525081600060028110612bdd57612bdc615126565b5b602002015184600160028110612bf657612bf5615126565b5b602002018181525050600086600660078110612c1557612c14615126565b5b602002015190506000612c6b612c58612c5386600060028110612c3b57612c3a615126565b5b60200201518e6060015161415390919063ffffffff16565b6142bd565b8e608001516141f590919063ffffffff16565b9050612c80828261415390919063ffffffff16565b9050612cad8188600160028110612c9a57612c99615126565b5b60200201516141f590919063ffffffff16565b87600160028110612cc157612cc0615126565b5b6020020181905250507f30644e72e131a029b85045b68181585d2833e84879b9709143e1f593f000000180612cf957612cf861572b565b5b87600660078110612d0d57612d0c615126565b5b602002015182099050612d6b612d448284600160028110612d3157612d30615126565b5b602002015161415390919063ffffffff16565b87600160028110612d5857612d57615126565b5b60200201516141f590919063ffffffff16565b86600160028110612d7f57612d7e615126565b5b60200201819052507f30644e72e131a029b85045b68181585d2833e84879b9709143e1f593f000000180612db657612db561572b565b5b7f30644e72e131a029b85045b68181585d2833e84879b9709143e1f593f000000180612de557612de461572b565b5b8285600160028110612dfa57612df9615126565b5b60200201510986600160028110612e1457612e13615126565b5b60200201510885600160028110612e2e57612e2d615126565b5b60200201818152505050505050600082600060028110612e5157612e50615126565b5b60200201516000015183600060028110612e6e57612e6d615126565b5b60200201516020015184600160028110612e8b57612e8a615126565b5b60200201516000015185600160028110612ea857612ea7615126565b5b60200201516020015189604051602001612ec69594939291906157bd565b6040516020818303038152906040528051906020012060001c9050612ee9614aaf565b612ef16149cc565b612f4a612f2387600460078110612f0b57612f0a615126565b5b60200201518d60c0015161415390919063ffffffff16565b86600060028110612f3757612f36615126565b5b60200201516141f590919063ffffffff16565b81600060028110612f5e57612f5d615126565b5b6020020181905250612fc0612f9987600560078110612f8057612f7f615126565b5b60200201518d610100015161415390919063ffffffff16565b86600160028110612fad57612fac615126565b5b60200201516141f590919063ffffffff16565b81600160028110612fd457612fd3615126565b5b602002018190525061303161300a8483600160028110612ff757612ff6615126565b5b602002015161415390919063ffffffff16565b8260006002811061301e5761301d615126565b5b60200201516141f590919063ffffffff16565b9150506000613064613051848d610100015161415390919063ffffffff16565b8c60c001516141f590919063ffffffff16565b905060007f30644e72e131a029b85045b68181585d2833e84879b9709143e1f593f0000001806130975761309661572b565b5b7f30644e72e131a029b85045b68181585d2833e84879b9709143e1f593f0000001806130c6576130c561572b565b5b85876001600281106130db576130da615126565b5b602002015109866000600281106130f5576130f4615126565b5b602002015108905061313261312361311e838d602001516000015161415390919063ffffffff16565b6142bd565b846141f590919063ffffffff16565b925061316d61315e6131598e60e001518d602001516020015161415390919063ffffffff16565b6142bd565b846141f590919063ffffffff16565b9250600061319561317d846142bd565b8c6020015160600151868e60200151604001516143b6565b9050809b50505050505050505050505092915050565b6131b3614ac9565b600667ffffffffffffffff8111156131ce576131cd614bfa565b5b60405190808252806020026020018201604052801561320757816020015b6131f4614aaf565b8152602001906001900390816131ec5790505b50816000018190525060405180604001604052807f09b7ca7f80643c00ab84c367dd7c014c411081aba47ff8bbf7457267c07f343b81526020017f15c04b7215d4751a9a6bc65e67946d2fdf181e9910f766637b3513eeec7bbba3815250816000015160008151811061327d5761327c615126565b5b602002602001018190525060405180604001604052807f012af0ad30c32282c9f4ce44774750b781b798b92fc3b381c833e72d572aa69381526020017f03630a6613a8c022fb5bdbf3b308f8f916b3459fca0dc9882077d381a32228a381525081600001516001815181106132f5576132f4615126565b5b602002602001018190525060405180604001604052807f1d498a57cc6793de6fb1d584f495e4fd4db43aea1be1f434d7f0eb448cdda3e581526020017f28339407efb26ecdbf7b7e8954e34519c3c25b2379b1161bd5901b6244980326815250816000015160028151811061336d5761336c615126565b5b602002602001018190525060405180604001604052807f158a5ecdbeed3662afdc09a7d106d8c6c3d126aa1bb7d16d6a61f9de93521d9d81526020017f0ee53295e6e55341acef6cee34ead48957b37b0175405743504fb902a8df455981525081600001516003815181106133e5576133e4615126565b5b602002602001018190525060405180604001604052807f0569ea3a42f1262fb7a748ae8266c1ca0ceb11bd07e452f4b82db7202e73b9ce81526020017f06e208eaadd0bbec60ece0121027c87e8b4d255293744044675a0821602034d0815250816000015160048151811061345d5761345c615126565b5b602002602001018190525060405180604001604052807f2f5708e968910e2fded925f63ef5e121f38e0fa4b8abca2a737b8d31d43eb93381526020017f0e9bc8402a0efb9535fc4b9563f1075f821d67b7995ac69660dcc388ca14f7f881525081600001516005815181106134d5576134d4615126565b5b602002602001018190525060405180604001604052807f2e26adfe66fe7ba43ad7de86e921214965c935513b6b3e117eed5c49529df43081526020017f01e1ff151bf133b24d3d2c0b48d615d280604465cd74ba599a1866d467390b4381525081602001516000018190525060405180604001604052807e5a7ccbdfe61ffb88f26b9104952ee8397e682695ad98de92e82eebffaebd6b81526020017f0b501f33dfa33901a68be7f69f8b8ef8da80da7e7f798d18f41eae84974ebdb4815250816020015160200181905250604051806040016040528060405180604001604052807f01f0375c0049e79789e570a23999bd4a772c16ba004ed44e2af28e0442b5f64f81526020017f18d327455b14bf79ea81f290fdb214aad9cb99a819bd8530439ac5a5e280b522815250815260200160405180604001604052807f12941b425ad951d75f3f356e0c64c213b05747f94f90deb6485d53cf81581d4f81526020017f09a08d8dcfd5ba5d0c110a08a1dae2e3e5fa0732e9476ec20873916d165cd9db815250815250816020015160400181905250604051806040016040528060405180604001604052807f138372f9b5f3f2a2affbd51379d1c3bc18e68b0c068b5098aed5af5e6ad5db6981526020017f15cf3f836b4ab57f52ddeaea346e16576db3818b91915bb8c958304dc88528f8815250815260200160405180604001604052807f172393eb63b889f28fc573e54fa74d90f326b5bd34650cc8529177028e4e45f581526020017f24a46e6042e02ad7be5fe45478dac5216dea2c02d94788d821401e6b5522e74b81525081525081602001516060018190525060405180604001604052807f1433c34c309bd1482fd0cd815c63fe5882a2b7d18753c5a5941ab119e3bf6eb381526020017f231f0bdbcf41e1bbbfaf7a664904ced941933a2b0686879c13825c315c821d31815250816040018190525060405180604001604052807f0f76dedd75eff6dfc1f283967f6452ed091aed0908fd019d1e6b1b971688f0a181526020017f20d1bc3f70b453cdf04de8900bfa3203a55213441524ad925cc4287d00677f73815250816060018190525090565b600081905060087eff00ff00ff00ff00ff00ff00ff00ff00ff00ff00ff00ff00ff00ff00ff00ff8216901b60087fff00ff00ff00ff00ff00ff00ff00ff00ff00ff00ff00ff00ff00ff00ff00ff008316901c17905060107dffff0000ffff0000ffff0000ffff0000ffff0000ffff0000ffff0000ffff8216901b60107fffff0000ffff0000ffff0000ffff0000ffff0000ffff0000ffff0000ffff00008316901c17905060207bffffffff00000000ffffffff00000000ffffffff00000000ffffffff8216901b60207fffffffff00000000ffffffff00000000ffffffff00000000ffffffff000000008316901c179050604077ffffffffffffffff0000000000000000ffffffffffffffff8216901b60407fffffffffffffffff0000000000000000ffffffffffffffff00000000000000008316901c179050608081901b608082901c179050919050565b6000805b600115613a3457600080600090505b60048110156139c95760408160036139679190615789565b613971919061581c565b67ffffffffffffffff878760405160200161398d9291906158a4565b6040516020818303038152906040528051906020012060001c16901b821791506001856139ba91906158d0565b9450808060010191505061394f565b506139d3816137f0565b90507f3fffffffffffffffffffffffffffffffffffffffffffffffffffffffffffffff811690507f30644e72e131a029b85045b68181585d2833e84879b9709143e1f593f0000001811015613a2e5780849250925050613a35565b50613940565b5b9250929050565b6000613a94613a6c84847f30644e72e131a029b85045b68181585d2833e84879b9709143e1f593f00000016144ff565b60017f30644e72e131a029b85045b68181585d2833e84879b9709143e1f593f000000161412b565b905092915050565b6000613aa6614a3d565b613aae614a3d565b60005b6004811015613b535767ffffffffffffffff604082613ad0919061581c565b86901c16838260048110613ae757613ae6615126565b5b60200201818152505067ffffffffffffffff604082613b06919061581c565b7f30644e72e131a029b85045b68181585d2833e84879b9709143e1f593f0000001901c16828260048110613b3d57613b3c615126565b5b6020020181815250508080600101915050613ab1565b5060005b6004811015613cfa5760006801000000000000000080613b7a57613b7961572b565b5b67c2e1f593efffffff858460048110613b9657613b95615126565b5b6020020151099050600060408185600060048110613bb757613bb6615126565b5b602002015184613bc7919061581c565b878660048110613bda57613bd9615126565b5b6020020151613be99190615908565b613bf39190615908565b901c905060005b6004811015613cc157600082868360048110613c1957613c18615126565b5b602002015185613c29919061581c565b8860048589613c389190615908565b613c42919061593c565b60048110613c5357613c52615126565b5b6020020151613c629190615908565b613c6c9190615908565b905067ffffffffffffffff81168760048488613c889190615908565b613c92919061593c565b60048110613ca357613ca2615126565b5b602002018181525050604081901c9250508080600101915050613bfa565b508085600485613cd1919061593c565b60048110613ce257613ce1615126565b5b60200201818152505050508080600101915050613b57565b5060005b6004811015613d4957604081613d14919061581c565b67ffffffffffffffff848360048110613d3057613d2f615126565b5b602002015116901b841793508080600101915050613cfe565b505050919050565b600080600080600090505b6002811015613dd6576040816003613d749190615789565b613d7e919061581c565b67ffffffffffffffff8787604051602001613d9a9291906158a4565b6040516020818303038152906040528051906020012060001c16901b82179150600185613dc791906158d0565b94508080600101915050613d5c565b50613de0816137f0565b9050808492509250509250929050565b6000828403613dfe57600080fd5b6000613e3d613e0d8685613a3c565b613e178686613a3c565b7f30644e72e131a029b85045b68181585d2833e84879b9709143e1f593f000000161412b565b90507f30644e72e131a029b85045b68181585d2833e84879b9709143e1f593f000000180613e6e57613e6d61572b565b5b613ea1613e9c87877f30644e72e131a029b85045b68181585d2833e84879b9709143e1f593f000000161412b565b614362565b82099150509392505050565b613eb5614b03565b613ebd614b03565b60006020905060007f09c532c6306b93d29678200d47c0b2a99c18d51b838eeb1d3eed4c533bb512d090506000613ef48684613a3c565b90506000613f0183614362565b905060008203613f985760006001905060005b85811015613f9157888203613f50576001878260208110613f3857613f37615126565b5b60200201818152505086975050505050505050614126565b7f30644e72e131a029b85045b68181585d2833e84879b9709143e1f593f000000180613f7f57613f7e61572b565b5b85830991508080600101915050613f14565b5050614120565b60007f30644e72e131a029b85045b68181585d2833e84879b9709143e1f593f000000180613fc957613fc861572b565b5b85613fd385614362565b09905060006001905060005b86811015614110577f30644e72e131a029b85045b68181585d2833e84879b9709143e1f593f0000001806140165761401561572b565b5b836140428c857f30644e72e131a029b85045b68181585d2833e84879b9709143e1f593f000000161412b565b0988826020811061405657614055615126565b5b60200201818152505061407f88826020811061407557614074615126565b5b6020020151614362565b88826020811061409257614091615126565b5b6020020181815250507f30644e72e131a029b85045b68181585d2833e84879b9709143e1f593f0000001806140ca576140c961572b565b5b84840992507f30644e72e131a029b85045b68181585d2833e84879b9709143e1f593f0000001806140fe576140fd61572b565b5b86830991508080600101915050613fdf565b5086975050505050505050614126565b50505050505b919050565b6000818061413c5761413b61572b565b5b83836141489190615789565b850890509392505050565b61415b614aaf565b614163614b26565b83600001518160006003811061417c5761417b615126565b5b60200201818152505083602001518160016003811061419e5761419d615126565b5b60200201818152505082816002600381106141bc576141bb615126565b5b602002018181525050600060608360808460076107d05a03fa905080600081036141e257fe5b50806141ed57600080fd5b505092915050565b6141fd614aaf565b614205614a3d565b83600001518160006004811061421e5761421d615126565b5b6020020181815250508360200151816001600481106142405761423f615126565b5b60200201818152505082600001518160026004811061426257614261615126565b5b60200201818152505082602001518160036004811061428457614283615126565b5b602002018181525050600060608360c08460066107d05a03fa905080600081036142aa57fe5b50806142b557600080fd5b505092915050565b6142c5614aaf565b60007f30644e72e131a029b85045b68181585d97816a916871ca8d3c208c16d87cfd47905060008360000151148015614302575060008360200151145b1561432657604051806040016040528060008152602001600081525091505061435d565b60405180604001604052808460000151815260200182856020015161434b919061593c565b836143569190615789565b8152509150505b919050565b60006143af827f30644e72e131a029b85045b68181585d2833e84879b9709143e1f593efffffff7f30644e72e131a029b85045b68181585d2833e84879b9709143e1f593f00000016144ff565b9050919050565b600080600267ffffffffffffffff8111156143d4576143d3614bfa565b5b60405190808252806020026020018201604052801561440d57816020015b6143fa614aaf565b8152602001906001900390816143f25790505b5090506000600267ffffffffffffffff81111561442d5761442c614bfa565b5b60405190808252806020026020018201604052801561446657816020015b614453614b48565b81526020019060019003908161444b5790505b509050868260008151811061447e5761447d615126565b5b6020026020010181905250848260018151811061449e5761449d615126565b5b602002602001018190525085816000815181106144be576144bd615126565b5b602002602001018190525083816001815181106144de576144dd615126565b5b60200260200101819052506144f38282614614565b92505050949350505050565b60008061450a614b6e565b614512614a1b565b60208160006006811061452857614527615126565b5b60200201818152505060208160016006811061454757614546615126565b5b60200201818152505060208160026006811061456657614565615126565b5b602002018181525050868160036006811061458457614583615126565b5b60200201818152505085816004600681106145a2576145a1615126565b5b60200201818152505084816005600681106145c0576145bf615126565b5b60200201818152505060208260c08360056107d05a03fa925082600081036145e457fe5b50826145ef57600080fd5b8160006001811061460357614602615126565b5b602002015193505050509392505050565b6000815183511461462457600080fd5b6000835190506000600682614639919061581c565b905060008167ffffffffffffffff81111561465757614656614bfa565b5b6040519080825280602002602001820160405280156146855781602001602082028036833780820191505090505b50905060005b83811015614904578681815181106146a6576146a5615126565b5b6020026020010151600001518260006006846146c2919061581c565b6146cc9190615908565b815181106146dd576146dc615126565b5b6020026020010181815250508681815181106146fc576146fb615126565b5b602002602001015160200151826001600684614718919061581c565b6147229190615908565b8151811061473357614732615126565b5b60200260200101818152505085818151811061475257614751615126565b5b60200260200101516000015160016002811061477157614770615126565b5b6020020151826002600684614786919061581c565b6147909190615908565b815181106147a1576147a0615126565b5b6020026020010181815250508581815181106147c0576147bf615126565b5b6020026020010151600001516000600281106147df576147de615126565b5b60200201518260036006846147f4919061581c565b6147fe9190615908565b8151811061480f5761480e615126565b5b60200260200101818152505085818151811061482e5761482d615126565b5b60200260200101516020015160016002811061484d5761484c615126565b5b6020020151826004600684614862919061581c565b61486c9190615908565b8151811061487d5761487c615126565b5b60200260200101818152505085818151811061489c5761489b615126565b5b6020026020010151602001516000600281106148bb576148ba615126565b5b60200201518260056006846148d0919061581c565b6148da9190615908565b815181106148eb576148ea615126565b5b602002602001018181525050808060010191505061468b565b5061490d614b6e565b6000602082602086026020860160086107d05a03fa9050806000810361492f57fe5b508061493a57600080fd5b6000826000600181106149505761494f615126565b5b602002015114159550505050505092915050565b604051806103e00160405280601f90602082028036833780820191505090505090565b604051806103200160405280601990602082028036833780820191505090505090565b6040518060e00160405280600790602082028036833780820191505090505090565b60405180604001604052806002905b6149e3614aaf565b8152602001906001900390816149db5790505090565b6040518060400160405280600290602082028036833780820191505090505090565b6040518060c00160405280600690602082028036833780820191505090505090565b6040518060800160405280600490602082028036833780820191505090505090565b60405180608001604052806004905b614a76614aaf565b815260200190600190039081614a6e5790505090565b604051806101000160405280600890602082028036833780820191505090505090565b604051806040016040528060008152602001600081525090565b604051806080016040528060608152602001614ae3614b90565b8152602001614af0614aaf565b8152602001614afd614aaf565b81525090565b604051806104000160405280602090602082028036833780820191505090505090565b6040518060600160405280600390602082028036833780820191505090505090565b6040518060400160405280614b5b6149f9565b8152602001614b686149f9565b81525090565b6040518060200160405280600190602082028036833780820191505090505090565b6040518060800160405280614ba3614aaf565b8152602001614bb0614aaf565b8152602001614bbd614b48565b8152602001614bca614b48565b81525090565b6000604051905090565b600080fd5b600080fd5b600080fd5b6000601f19601f8301169050919050565b7f4e487b7100000000000000000000000000000000000000000000000000000000600052604160045260246000fd5b614c3282614be9565b810181811067ffffffffffffffff82111715614c5157614c50614bfa565b5b80604052505050565b6000614c64614bd0565b9050614c708282614c29565b919050565b600080fd5b600080fd5b600067ffffffffffffffff821115614c9a57614c99614bfa565b5b602082029050602081019050919050565b600080fd5b6000819050919050565b614cc381614cb0565b8114614cce57600080fd5b50565b600081359050614ce081614cba565b92915050565b600060408284031215614cfc57614cfb614be4565b5b614d066040614c5a565b90506000614d1684828501614cd1565b6000830152506020614d2a84828501614cd1565b60208301525092915050565b6000614d49614d4484614c7f565b614c5a565b90508083825260208201905060408402830185811115614d6c57614d6b614cab565b5b835b81811015614d955780614d818882614ce6565b845260208401935050604081019050614d6e565b5050509392505050565b600082601f830112614db457614db3614c7a565b5b8135614dc4848260208601614d36565b91505092915050565b600067ffffffffffffffff821115614de857614de7614bfa565b5b602082029050602081019050919050565b6000614e0c614e0784614dcd565b614c5a565b90508083825260208201905060208402830185811115614e2f57614e2e614cab565b5b835b81811015614e585780614e448882614cd1565b845260208401935050602081019050614e31565b5050509392505050565b600082601f830112614e7757614e76614c7a565b5b8135614e87848260208601614df9565b91505092915050565b60006101a08284031215614ea757614ea6614be4565b5b614eb2610120614c5a565b9050600082013567ffffffffffffffff811115614ed257614ed1614c75565b5b614ede84828501614d9f565b600083015250602082013567ffffffffffffffff811115614f0257614f01614c75565b5b614f0e84828501614d9f565b6020830152506040614f2284828501614ce6565b604083015250608082013567ffffffffffffffff811115614f4657614f45614c75565b5b614f5284828501614d9f565b60608301525060a0614f6684828501614ce6565b60808301525060e082013567ffffffffffffffff811115614f8a57614f89614c75565b5b614f9684828501614e62565b60a083015250610100614fab84828501614ce6565b60c083015250610140614fc084828501614cd1565b60e083015250610160614fd584828501614ce6565b6101008301525092915050565b600067ffffffffffffffff821115614ffd57614ffc614bfa565b5b602082029050919050565b600061501b61501684614fe2565b614c5a565b9050806020840283018581111561503557615034614cab565b5b835b8181101561505e578061504a8882614cd1565b845260208401935050602081019050615037565b5050509392505050565b600082601f83011261507d5761507c614c7a565b5b601861508a848285615008565b91505092915050565b60008061032083850312156150ab576150aa614bda565b5b600083013567ffffffffffffffff8111156150c9576150c8614bdf565b5b6150d585828601614e90565b92505060206150e685828601615068565b9150509250929050565b60008115159050919050565b615105816150f0565b82525050565b600060208201905061512060008301846150fc565b92915050565b7f4e487b7100000000000000000000000000000000000000000000000000000000600052603260045260246000fd5b600060199050919050565b600081905092915050565b6000819050919050565b6000819050919050565b61518881615175565b82525050565b600061519a838361517f565b60208301905092915050565b6000602082019050919050565b6151bc81615155565b6151c68184615160565b92506151d18261516b565b8060005b838110156152025781516151e9878261518e565b96506151f4836151a6565b9250506001810190506151d5565b505050505050565b60007fffffffffffffffffffffffffffffffffffffffffff000000000000000000000082169050919050565b6000819050919050565b61525161524c8261520a565b615236565b82525050565b6000601f9050919050565b600081905092915050565b6000819050919050565b61528081614cb0565b82525050565b60006152928383615277565b60208301905092915050565b6000602082019050919050565b6152b481615257565b6152be8184615262565b92506152c98261526d565b8060005b838110156152fa5781516152e18782615286565b96506152ec8361529e565b9250506001810190506152cd565b505050505050565b600061530e82866151b3565b6103208201915061531f8285615240565b60158201915061532f82846152ab565b6103e082019150819050949350505050565b6000819050919050565b61535c61535782614cb0565b615341565b82525050565b600060ff82169050919050565b60008160f81b9050919050565b60006153878261536f565b9050919050565b61539f61539a82615362565b61537c565b82525050565b600060029050919050565b600081905092915050565b6000819050919050565b6000602082019050919050565b6153db816153a5565b6153e581846153b0565b92506153f0826153bb565b8060005b838110156154215781516154088782615286565b9650615413836153c5565b9250506001810190506153f4565b505050505050565b6000615435828961534b565b602082019150615445828861534b565b602082019150615455828761538e565b600182019150615465828661538e565b60018201915061547582856153d2565b604082019150615485828461538e565b600182019150819050979650505050505050565b600081519050919050565b600081905092915050565b60005b838110156154cd5780820151818401526020810190506154b2565b60008484015250505050565b60006154e482615499565b6154ee81856154a4565b93506154fe8185602086016154af565b80840191505092915050565b6000819050919050565b61552561552082615175565b61550a565b82525050565b600061553782886154d9565b915061554382876154d9565b915061554f82866154d9565b915061555b82856154d9565b91506155678284615514565b6020820191508190509695505050505050565b6000615586828a61534b565b602082019150615596828961534b565b6020820191506155a6828861538e565b6001820191506155b6828761538e565b6001820191506155c6828661534b565b6020820191506155d6828561534b565b6020820191506155e6828461538e565b60018201915081905098975050505050505050565b600061560782876154d9565b915061561382866154d9565b915061561f82856154d9565b915061562b8284615514565b60208201915081905095945050505050565b600061564982866154d9565b915061565582856154d9565b91506156618284615514565b602082019150819050949350505050565b600081519050919050565b600081905092915050565b6000819050602082019050919050565b6000602082019050919050565b60006156b082615672565b6156ba818561567d565b93506156c583615688565b8060005b838110156156f65781516156dd8882615286565b97506156e883615698565b9250506001810190506156c9565b5085935050505092915050565b600061570f82856156a5565b915061571b8284615514565b6020820191508190509392505050565b7f4e487b7100000000000000000000000000000000000000000000000000000000600052601260045260246000fd5b7f4e487b7100000000000000000000000000000000000000000000000000000000600052601160045260246000fd5b600061579482614cb0565b915061579f83614cb0565b92508282039050818111156157b7576157b661575a565b5b92915050565b60006157c9828861534b565b6020820191506157d9828761534b565b6020820191506157e9828661534b565b6020820191506157f9828561534b565b6020820191506158098284615514565b6020820191508190509695505050505050565b600061582782614cb0565b915061583283614cb0565b925082820261584081614cb0565b915082820484148315176158575761585661575a565b5b5092915050565b600063ffffffff82169050919050565b60008160e01b9050919050565b60006158868261586e565b9050919050565b61589e6158998261585e565b61587b565b82525050565b60006158b08285615514565b6020820191506158c0828461588d565b6004820191508190509392505050565b60006158db8261585e565b91506158e68361585e565b9250828201905063ffffffff8111156159025761590161575a565b5b92915050565b600061591382614cb0565b915061591e83614cb0565b92508282019050808211156159365761593561575a565b5b92915050565b600061594782614cb0565b915061595283614cb0565b9250826159625761596161572b565b5b82820690509291505056fea264697066735822122032041854dcf97b46fde207b352ccbe7152f96dd78984973910c403d1113289e164736f6c63430008180033",
          "opcodes": "PUSH1 0x80 PUSH1 0x40 MSTORE CALLVALUE DUP1 ISZERO PUSH2 0x10 JUMPI PUSH1 0x0 DUP1 REVERT JUMPDEST POP PUSH2 0x59A3 DUP1 PUSH3 0x21 PUSH1 0x0 CODECOPY PUSH1 0x0 RETURN INVALID PUSH1 0x80 PUSH1 0x40 MSTORE CALLVALUE DUP1 ISZERO PUSH2 0x10 JUMPI PUSH1 0x0 DUP1 REVERT JUMPDEST POP PUSH1 0x4 CALLDATASIZE LT PUSH2 0x2B JUMPI PUSH1 0x0 CALLDATALOAD PUSH1 0xE0 SHR DUP1 PUSH4 0xDFB2168F EQ PUSH2 0x30 JUMPI JUMPDEST PUSH1 0x0 DUP1 REVERT JUMPDEST PUSH2 0x4A PUSH1 0x4 DUP1 CALLDATASIZE SUB DUP2 ADD SWAP1 PUSH2 0x45 SWAP2 SWAP1 PUSH2 0x5093 JUMP JUMPDEST PUSH2 0x60 JUMP JUMPDEST PUSH1 0x40 MLOAD PUSH2 0x57 SWAP2 SWAP1 PUSH2 0x510B JUMP JUMPDEST PUSH1 0x40 MLOAD DUP1 SWAP2 SUB SWAP1 RETURN JUMPDEST PUSH1 0x0 PUSH2 0x6A PUSH2 0x4964 JUMP JUMPDEST PUSH1 0x0 JUMPDEST PUSH1 0x18 DUP2 LT ISZERO PUSH2 0xB7 JUMPI DUP4 DUP2 PUSH1 0x18 DUP2 LT PUSH2 0x89 JUMPI PUSH2 0x88 PUSH2 0x5126 JUMP JUMPDEST JUMPDEST PUSH1 0x20 MUL ADD MLOAD DUP3 DUP3 PUSH1 0x1F DUP2 LT PUSH2 0xA1 JUMPI PUSH2 0xA0 PUSH2 0x5126 JUMP JUMPDEST JUMPDEST PUSH1 0x20 MUL ADD DUP2 DUP2 MSTORE POP POP DUP1 DUP1 PUSH1 0x1 ADD SWAP2 POP POP PUSH2 0x6D JUMP JUMPDEST POP PUSH2 0xC2 DUP2 DUP6 PUSH2 0xCB JUMP JUMPDEST SWAP2 POP POP SWAP3 SWAP2 POP POP JUMP JUMPDEST PUSH1 0x0 DUP1 PUSH2 0xD6 PUSH2 0x31AB JUMP JUMPDEST SWAP1 POP PUSH1 0x0 JUMPDEST PUSH1 0x1F DUP2 LT ISZERO PUSH2 0x134 JUMPI PUSH32 0x30644E72E131A029B85045B68181585D2833E84879B9709143E1F593F0000001 DUP6 DUP3 PUSH1 0x1F DUP2 LT PUSH2 0x118 JUMPI PUSH2 0x117 PUSH2 0x5126 JUMP JUMPDEST JUMPDEST PUSH1 0x20 MUL ADD MLOAD LT PUSH2 0x127 JUMPI PUSH1 0x0 DUP1 REVERT JUMPDEST DUP1 DUP1 PUSH1 0x1 ADD SWAP2 POP POP PUSH2 0xDB JUMP JUMPDEST POP PUSH1 0x0 DUP1 PUSH2 0x140 PUSH2 0x4987 JUMP JUMPDEST PUSH32 0x4D41524C494E2D32303139D570010000000000D570010000000000C1982C0000 PUSH1 0x0 SHL DUP2 PUSH1 0x0 PUSH1 0x19 DUP2 LT PUSH2 0x178 JUMPI PUSH2 0x177 PUSH2 0x5126 JUMP JUMPDEST JUMPDEST PUSH1 0x20 MUL ADD DUP2 DUP2 MSTORE POP POP PUSH29 0x3B347FC0677245F7BBF87FA4AB8110414C017CDD67C384AB003C64807F PUSH1 0x0 SHL DUP2 PUSH1 0x1 PUSH1 0x19 DUP2 LT PUSH2 0x1B6 JUMPI PUSH2 0x1B5 PUSH2 0x5126 JUMP JUMPDEST JUMPDEST PUSH1 0x20 MUL ADD DUP2 DUP2 MSTORE POP POP PUSH32 0xCAB709A3BB7BECEE13357B6366F710991E18DF2F6D94675EC66B9A1A75D41572 PUSH1 0x0 SHL DUP2 PUSH1 0x2 PUSH1 0x19 DUP2 LT PUSH2 0x1F7 JUMPI PUSH2 0x1F6 PUSH2 0x5126 JUMP JUMPDEST JUMPDEST PUSH1 0x20 MUL ADD DUP2 DUP2 MSTORE POP POP PUSH32 0x4BC0150000000000000000000000000000000000000000000000000000000000 PUSH1 0x0 SHL DUP2 PUSH1 0x3 PUSH1 0x19 DUP2 LT PUSH2 0x238 JUMPI PUSH2 0x237 PUSH2 0x5126 JUMP JUMPDEST JUMPDEST PUSH1 0x20 MUL ADD DUP2 DUP2 MSTORE POP POP PUSH27 0x10000000000000000000000000000000000000000000000000000 PUSH1 0x0 SHL DUP2 PUSH1 0x4 PUSH1 0x19 DUP2 LT PUSH2 0x274 JUMPI PUSH2 0x273 PUSH2 0x5126 JUMP JUMPDEST JUMPDEST PUSH1 0x20 MUL ADD DUP2 DUP2 MSTORE POP POP PUSH27 0x193A62A572DE733C881B3C32FB998B781B750477744CEF4C98222 PUSH1 0x0 SHL DUP2 PUSH1 0x5 PUSH1 0x19 DUP2 LT PUSH2 0x2B0 JUMPI PUSH2 0x2AF PUSH2 0x5126 JUMP JUMPDEST JUMPDEST PUSH1 0x20 MUL ADD DUP2 DUP2 MSTORE POP POP PUSH32 0xC330ADF02A01A32822A381D3772088C90DCA9F45B316F9F808B3F3DB5BFB22C0 PUSH1 0x0 SHL DUP2 PUSH1 0x6 PUSH1 0x19 DUP2 LT PUSH2 0x2F1 JUMPI PUSH2 0x2F0 PUSH2 0x5126 JUMP JUMPDEST JUMPDEST PUSH1 0x20 MUL ADD DUP2 DUP2 MSTORE POP POP PUSH32 0xA813660A63030000000000000000000000000000000000000000000000000000 PUSH1 0x0 SHL DUP2 PUSH1 0x7 PUSH1 0x19 DUP2 LT PUSH2 0x332 JUMPI PUSH2 0x331 PUSH2 0x5126 JUMP JUMPDEST JUMPDEST PUSH1 0x20 MUL ADD DUP2 DUP2 MSTORE POP POP PUSH24 0x10000000000000000000000000000000000000000000000 PUSH1 0x0 SHL DUP2 PUSH1 0x8 PUSH1 0x19 DUP2 LT PUSH2 0x36B JUMPI PUSH2 0x36A PUSH2 0x5126 JUMP JUMPDEST JUMPDEST PUSH1 0x20 MUL ADD DUP2 DUP2 MSTORE POP POP PUSH24 0x1E5A3DD8C44EBF0D734F4E11BEA3AB44DFDE495F484D5B1 PUSH1 0x0 SHL DUP2 PUSH1 0x9 PUSH1 0x19 DUP2 LT PUSH2 0x3A4 JUMPI PUSH2 0x3A3 PUSH2 0x5126 JUMP JUMPDEST JUMPDEST PUSH1 0x20 MUL ADD DUP2 DUP2 MSTORE POP POP PUSH32 0x6FDE9367CC578A491D26039844621B90D51B16B179235BC2C31945E354897E7B PUSH1 0x0 SHL DUP2 PUSH1 0xA PUSH1 0x19 DUP2 LT PUSH2 0x3E5 JUMPI PUSH2 0x3E4 PUSH2 0x5126 JUMP JUMPDEST JUMPDEST PUSH1 0x20 MUL ADD DUP2 DUP2 MSTORE POP POP PUSH32 0xBFCD6EB2EF079433280000000000000000000000000000000000000000000000 PUSH1 0x0 SHL DUP2 PUSH1 0xB PUSH1 0x19 DUP2 LT PUSH2 0x426 JUMPI PUSH2 0x425 PUSH2 0x5126 JUMP JUMPDEST JUMPDEST PUSH1 0x20 MUL ADD DUP2 DUP2 MSTORE POP POP PUSH21 0x10000000000000000000000000000000000000000 PUSH1 0x0 SHL DUP2 PUSH1 0xC PUSH1 0x19 DUP2 LT PUSH2 0x45C JUMPI PUSH2 0x45B PUSH2 0x5126 JUMP JUMPDEST JUMPDEST PUSH1 0x20 MUL ADD DUP2 DUP2 MSTORE POP POP PUSH21 0x19D1D5293DEF9616A6DD1B71BAA26D1C3C6D806D1 PUSH1 0x0 SHL DUP2 PUSH1 0xD PUSH1 0x19 DUP2 LT PUSH2 0x492 JUMPI PUSH2 0x491 PUSH2 0x5126 JUMP JUMPDEST JUMPDEST PUSH1 0x20 MUL ADD DUP2 DUP2 MSTORE POP POP PUSH32 0xA709DCAF6236EDBECD5E8A155945DFA802B94F5043574075017BB35789D4EA34 PUSH1 0x0 SHL DUP2 PUSH1 0xE PUSH1 0x19 DUP2 LT PUSH2 0x4D3 JUMPI PUSH2 0x4D2 PUSH2 0x5126 JUMP JUMPDEST JUMPDEST PUSH1 0x20 MUL ADD DUP2 DUP2 MSTORE POP POP PUSH32 0xEE6CEFAC4153E5E69532E50E0000000000000000000000000000000000000000 PUSH1 0x0 SHL DUP2 PUSH1 0xF PUSH1 0x19 DUP2 LT PUSH2 0x514 JUMPI PUSH2 0x513 PUSH2 0x5126 JUMP JUMPDEST JUMPDEST PUSH1 0x20 MUL ADD DUP2 DUP2 MSTORE POP POP PUSH18 0x10000000000000000000000000000000000 PUSH1 0x0 SHL DUP2 PUSH1 0x10 PUSH1 0x19 DUP2 LT PUSH2 0x547 JUMPI PUSH2 0x546 PUSH2 0x5126 JUMP JUMPDEST JUMPDEST PUSH1 0x20 MUL ADD DUP2 DUP2 MSTORE POP POP PUSH18 0x1CEB9732E20B72DB8F452E407BD11EB0CCA PUSH1 0x0 SHL DUP2 PUSH1 0x11 PUSH1 0x19 DUP2 LT PUSH2 0x57A JUMPI PUSH2 0x579 PUSH2 0x5126 JUMP JUMPDEST JUMPDEST PUSH1 0x20 MUL ADD DUP2 DUP2 MSTORE POP POP PUSH32 0xC16682AE48A7B72F26F1423AEA6905D034206021085A674440749352254D8B7E PUSH1 0x0 SHL DUP2 PUSH1 0x12 PUSH1 0x19 DUP2 LT PUSH2 0x5BB JUMPI PUSH2 0x5BA PUSH2 0x5126 JUMP JUMPDEST JUMPDEST PUSH1 0x20 MUL ADD DUP2 DUP2 MSTORE POP POP PUSH32 0xC8271012E0EC60ECBBD0ADEA08E2060000000000000000000000000000000000 PUSH1 0x0 SHL DUP2 PUSH1 0x13 PUSH1 0x19 DUP2 LT PUSH2 0x5FC JUMPI PUSH2 0x5FB PUSH2 0x5126 JUMP JUMPDEST JUMPDEST PUSH1 0x20 MUL ADD DUP2 DUP2 MSTORE POP POP PUSH15 0x10000000000000000000000000000 PUSH1 0x0 SHL DUP2 PUSH1 0x14 PUSH1 0x19 DUP2 LT PUSH2 0x62C JUMPI PUSH2 0x62B PUSH2 0x5126 JUMP JUMPDEST JUMPDEST PUSH1 0x20 MUL ADD DUP2 DUP2 MSTORE POP POP PUSH15 0x133B93ED4318D7B732ACAABB8A40F PUSH1 0x0 SHL DUP2 PUSH1 0x15 PUSH1 0x19 DUP2 LT PUSH2 0x65C JUMPI PUSH2 0x65B PUSH2 0x5126 JUMP JUMPDEST JUMPDEST PUSH1 0x20 MUL ADD DUP2 DUP2 MSTORE POP POP PUSH32 0x8EF321E1F53EF625D9DE2F0E9168E908572FF8F714CA88C3DC6096C65A99B767 PUSH1 0x0 SHL DUP2 PUSH1 0x16 PUSH1 0x19 DUP2 LT PUSH2 0x69D JUMPI PUSH2 0x69C PUSH2 0x5126 JUMP JUMPDEST JUMPDEST PUSH1 0x20 MUL ADD DUP2 DUP2 MSTORE POP POP PUSH32 0x1D825F07F163954BFC3595FB0E2A40C89B0E0000000000000000000000000000 PUSH1 0x0 SHL DUP2 PUSH1 0x17 PUSH1 0x19 DUP2 LT PUSH2 0x6DE JUMPI PUSH2 0x6DD PUSH2 0x5126 JUMP JUMPDEST JUMPDEST PUSH1 0x20 MUL ADD DUP2 DUP2 MSTORE POP POP PUSH12 0x10000000000000000000000 PUSH1 0x0 SHL DUP2 PUSH1 0x18 PUSH1 0x19 DUP2 LT PUSH2 0x70B JUMPI PUSH2 0x70A PUSH2 0x5126 JUMP JUMPDEST JUMPDEST PUSH1 0x20 MUL ADD DUP2 DUP2 MSTORE POP POP PUSH1 0x0 PUSH1 0x1 PUSH1 0x58 SHL SWAP1 POP PUSH2 0x725 PUSH2 0x4964 JUMP JUMPDEST PUSH1 0x0 JUMPDEST PUSH1 0x1F DUP2 LT ISZERO PUSH2 0x77A JUMPI PUSH2 0x751 DUP11 DUP3 PUSH1 0x1F DUP2 LT PUSH2 0x747 JUMPI PUSH2 0x746 PUSH2 0x5126 JUMP JUMPDEST JUMPDEST PUSH1 0x20 MUL ADD MLOAD PUSH2 0x37F0 JUMP JUMPDEST DUP3 DUP3 PUSH1 0x1F DUP2 LT PUSH2 0x764 JUMPI PUSH2 0x763 PUSH2 0x5126 JUMP JUMPDEST JUMPDEST PUSH1 0x20 MUL ADD DUP2 DUP2 MSTORE POP POP DUP1 DUP1 PUSH1 0x1 ADD SWAP2 POP POP PUSH2 0x728 JUMP JUMPDEST POP DUP3 DUP3 DUP3 PUSH1 0x40 MLOAD PUSH1 0x20 ADD PUSH2 0x790 SWAP4 SWAP3 SWAP2 SWAP1 PUSH2 0x5302 JUMP JUMPDEST PUSH1 0x40 MLOAD PUSH1 0x20 DUP2 DUP4 SUB SUB DUP2 MSTORE SWAP1 PUSH1 0x40 MSTORE DUP1 MLOAD SWAP1 PUSH1 0x20 ADD KECCAK256 SWAP5 POP POP POP POP PUSH1 0x0 SWAP1 POP PUSH1 0x0 PUSH1 0x1 SWAP1 POP PUSH1 0x0 DUP1 PUSH1 0x40 MLOAD DUP1 PUSH1 0x40 ADD PUSH1 0x40 MSTORE DUP1 PUSH1 0x0 DUP2 MSTORE PUSH1 0x20 ADD PUSH2 0x7D4 PUSH1 0x1 PUSH2 0x37F0 JUMP JUMPDEST DUP2 MSTORE POP SWAP1 POP PUSH2 0x805 DUP9 PUSH1 0x0 ADD MLOAD PUSH1 0x0 DUP2 MLOAD DUP2 LT PUSH2 0x7F4 JUMPI PUSH2 0x7F3 PUSH2 0x5126 JUMP JUMPDEST JUMPDEST PUSH1 0x20 MUL PUSH1 0x20 ADD ADD MLOAD PUSH1 0x0 ADD MLOAD PUSH2 0x37F0 JUMP JUMPDEST PUSH2 0x831 DUP10 PUSH1 0x0 ADD MLOAD PUSH1 0x0 DUP2 MLOAD DUP2 LT PUSH2 0x820 JUMPI PUSH2 0x81F PUSH2 0x5126 JUMP JUMPDEST JUMPDEST PUSH1 0x20 MUL PUSH1 0x20 ADD ADD MLOAD PUSH1 0x20 ADD MLOAD PUSH2 0x37F0 JUMP JUMPDEST DUP4 DUP5 DUP5 DUP8 PUSH1 0x40 MLOAD PUSH1 0x20 ADD PUSH2 0x84A SWAP7 SWAP6 SWAP5 SWAP4 SWAP3 SWAP2 SWAP1 PUSH2 0x5429 JUMP JUMPDEST PUSH1 0x40 MLOAD PUSH1 0x20 DUP2 DUP4 SUB SUB DUP2 MSTORE SWAP1 PUSH1 0x40 MSTORE PUSH2 0x885 DUP10 PUSH1 0x0 ADD MLOAD PUSH1 0x1 DUP2 MLOAD DUP2 LT PUSH2 0x874 JUMPI PUSH2 0x873 PUSH2 0x5126 JUMP JUMPDEST JUMPDEST PUSH1 0x20 MUL PUSH1 0x20 ADD ADD MLOAD PUSH1 0x0 ADD MLOAD PUSH2 0x37F0 JUMP JUMPDEST PUSH2 0x8B1 DUP11 PUSH1 0x0 ADD MLOAD PUSH1 0x1 DUP2 MLOAD DUP2 LT PUSH2 0x8A0 JUMPI PUSH2 0x89F PUSH2 0x5126 JUMP JUMPDEST JUMPDEST PUSH1 0x20 MUL PUSH1 0x20 ADD ADD MLOAD PUSH1 0x20 ADD MLOAD PUSH2 0x37F0 JUMP JUMPDEST DUP5 DUP6 DUP6 DUP9 PUSH1 0x40 MLOAD PUSH1 0x20 ADD PUSH2 0x8CA SWAP7 SWAP6 SWAP5 SWAP4 SWAP3 SWAP2 SWAP1 PUSH2 0x5429 JUMP JUMPDEST PUSH1 0x40 MLOAD PUSH1 0x20 DUP2 DUP4 SUB SUB DUP2 MSTORE SWAP1 PUSH1 0x40 MSTORE PUSH2 0x905 DUP11 PUSH1 0x0 ADD MLOAD PUSH1 0x2 DUP2 MLOAD DUP2 LT PUSH2 0x8F4 JUMPI PUSH2 0x8F3 PUSH2 0x5126 JUMP JUMPDEST JUMPDEST PUSH1 0x20 MUL PUSH1 0x20 ADD ADD MLOAD PUSH1 0x0 ADD MLOAD PUSH2 0x37F0 JUMP JUMPDEST PUSH2 0x931 DUP12 PUSH1 0x0 ADD MLOAD PUSH1 0x2 DUP2 MLOAD DUP2 LT PUSH2 0x920 JUMPI PUSH2 0x91F PUSH2 0x5126 JUMP JUMPDEST JUMPDEST PUSH1 0x20 MUL PUSH1 0x20 ADD ADD MLOAD PUSH1 0x20 ADD MLOAD PUSH2 0x37F0 JUMP JUMPDEST DUP6 DUP7 DUP7 DUP10 PUSH1 0x40 MLOAD PUSH1 0x20 ADD PUSH2 0x94A SWAP7 SWAP6 SWAP5 SWAP4 SWAP3 SWAP2 SWAP1 PUSH2 0x5429 JUMP JUMPDEST PUSH1 0x40 MLOAD PUSH1 0x20 DUP2 DUP4 SUB SUB DUP2 MSTORE SWAP1 PUSH1 0x40 MSTORE PUSH2 0x985 DUP12 PUSH1 0x0 ADD MLOAD PUSH1 0x3 DUP2 MLOAD DUP2 LT PUSH2 0x974 JUMPI PUSH2 0x973 PUSH2 0x5126 JUMP JUMPDEST JUMPDEST PUSH1 0x20 MUL PUSH1 0x20 ADD ADD MLOAD PUSH1 0x0 ADD MLOAD PUSH2 0x37F0 JUMP JUMPDEST PUSH2 0x9B1 DUP13 PUSH1 0x0 ADD MLOAD PUSH1 0x3 DUP2 MLOAD DUP2 LT PUSH2 0x9A0 JUMPI PUSH2 0x99F PUSH2 0x5126 JUMP JUMPDEST JUMPDEST PUSH1 0x20 MUL PUSH1 0x20 ADD ADD MLOAD PUSH1 0x20 ADD MLOAD PUSH2 0x37F0 JUMP JUMPDEST DUP7 DUP8 DUP8 DUP11 PUSH1 0x40 MLOAD PUSH1 0x20 ADD PUSH2 0x9CA SWAP7 SWAP6 SWAP5 SWAP4 SWAP3 SWAP2 SWAP1 PUSH2 0x5429 JUMP JUMPDEST PUSH1 0x40 MLOAD PUSH1 0x20 DUP2 DUP4 SUB SUB DUP2 MSTORE SWAP1 PUSH1 0x40 MSTORE DUP9 PUSH1 0x40 MLOAD PUSH1 0x20 ADD PUSH2 0x9EE SWAP6 SWAP5 SWAP4 SWAP3 SWAP2 SWAP1 PUSH2 0x552B JUMP JUMPDEST PUSH1 0x40 MLOAD PUSH1 0x20 DUP2 DUP4 SUB SUB DUP2 MSTORE SWAP1 PUSH1 0x40 MSTORE DUP1 MLOAD SWAP1 PUSH1 0x20 ADD KECCAK256 SWAP5 POP POP POP POP PUSH2 0xA11 PUSH2 0x49AA JUMP JUMPDEST PUSH1 0x0 PUSH2 0xA1D DUP5 DUP5 PUSH2 0x393C JUMP JUMPDEST DUP1 SWAP5 POP DUP2 SWAP3 POP POP POP JUMPDEST PUSH1 0x0 PUSH2 0xA35 DUP3 PUSH3 0x20000 PUSH2 0x3A3C JUMP JUMPDEST SUB PUSH2 0xA51 JUMPI PUSH2 0xA44 DUP5 DUP5 PUSH2 0x393C JUMP JUMPDEST DUP1 SWAP5 POP DUP2 SWAP3 POP POP POP PUSH2 0xA26 JUMP JUMPDEST PUSH2 0xA5A DUP2 PUSH2 0x3A9C JUMP JUMPDEST DUP3 PUSH1 0x0 PUSH1 0x7 DUP2 LT PUSH2 0xA6E JUMPI PUSH2 0xA6D PUSH2 0x5126 JUMP JUMPDEST JUMPDEST PUSH1 0x20 MUL ADD DUP2 DUP2 MSTORE POP POP PUSH2 0xA81 DUP5 DUP5 PUSH2 0x393C JUMP JUMPDEST DUP1 SWAP5 POP DUP2 SWAP3 POP POP POP PUSH2 0xA92 DUP2 PUSH2 0x3A9C JUMP JUMPDEST DUP3 PUSH1 0x1 PUSH1 0x7 DUP2 LT PUSH2 0xAA6 JUMPI PUSH2 0xAA5 PUSH2 0x5126 JUMP JUMPDEST JUMPDEST PUSH1 0x20 MUL ADD DUP2 DUP2 MSTORE POP POP PUSH2 0xAB9 DUP5 DUP5 PUSH2 0x393C JUMP JUMPDEST DUP1 SWAP5 POP DUP2 SWAP3 POP POP POP PUSH2 0xACA DUP2 PUSH2 0x3A9C JUMP JUMPDEST DUP3 PUSH1 0x2 PUSH1 0x7 DUP2 LT PUSH2 0xADE JUMPI PUSH2 0xADD PUSH2 0x5126 JUMP JUMPDEST JUMPDEST PUSH1 0x20 MUL ADD DUP2 DUP2 MSTORE POP POP PUSH2 0xAF1 DUP5 DUP5 PUSH2 0x393C JUMP JUMPDEST DUP1 SWAP5 POP DUP2 SWAP3 POP POP POP PUSH2 0xB02 DUP2 PUSH2 0x3A9C JUMP JUMPDEST DUP3 PUSH1 0x3 PUSH1 0x7 DUP2 LT PUSH2 0xB16 JUMPI PUSH2 0xB15 PUSH2 0x5126 JUMP JUMPDEST JUMPDEST PUSH1 0x20 MUL ADD DUP2 DUP2 MSTORE POP POP POP PUSH1 0x0 SWAP2 POP PUSH1 0x0 PUSH1 0x1 SWAP1 POP PUSH1 0x0 DUP1 PUSH1 0x40 MLOAD DUP1 PUSH1 0x40 ADD PUSH1 0x40 MSTORE DUP1 PUSH1 0x0 DUP2 MSTORE PUSH1 0x20 ADD PUSH2 0xB49 PUSH1 0x1 PUSH2 0x37F0 JUMP JUMPDEST DUP2 MSTORE POP SWAP1 POP PUSH2 0xB7A DUP10 PUSH1 0x20 ADD MLOAD PUSH1 0x0 DUP2 MLOAD DUP2 LT PUSH2 0xB69 JUMPI PUSH2 0xB68 PUSH2 0x5126 JUMP JUMPDEST JUMPDEST PUSH1 0x20 MUL PUSH1 0x20 ADD ADD MLOAD PUSH1 0x0 ADD MLOAD PUSH2 0x37F0 JUMP JUMPDEST PUSH2 0xBA6 DUP11 PUSH1 0x20 ADD MLOAD PUSH1 0x0 DUP2 MLOAD DUP2 LT PUSH2 0xB95 JUMPI PUSH2 0xB94 PUSH2 0x5126 JUMP JUMPDEST JUMPDEST PUSH1 0x20 MUL PUSH1 0x20 ADD ADD MLOAD PUSH1 0x20 ADD MLOAD PUSH2 0x37F0 JUMP JUMPDEST DUP4 DUP5 DUP5 DUP8 PUSH1 0x40 MLOAD PUSH1 0x20 ADD PUSH2 0xBBF SWAP7 SWAP6 SWAP5 SWAP4 SWAP3 SWAP2 SWAP1 PUSH2 0x5429 JUMP JUMPDEST PUSH1 0x40 MLOAD PUSH1 0x20 DUP2 DUP4 SUB SUB DUP2 MSTORE SWAP1 PUSH1 0x40 MSTORE PUSH2 0xBFA DUP11 PUSH1 0x20 ADD MLOAD PUSH1 0x1 DUP2 MLOAD DUP2 LT PUSH2 0xBE9 JUMPI PUSH2 0xBE8 PUSH2 0x5126 JUMP JUMPDEST JUMPDEST PUSH1 0x20 MUL PUSH1 0x20 ADD ADD MLOAD PUSH1 0x0 ADD MLOAD PUSH2 0x37F0 JUMP JUMPDEST PUSH2 0xC26 DUP12 PUSH1 0x20 ADD MLOAD PUSH1 0x1 DUP2 MLOAD DUP2 LT PUSH2 0xC15 JUMPI PUSH2 0xC14 PUSH2 0x5126 JUMP JUMPDEST JUMPDEST PUSH1 0x20 MUL PUSH1 0x20 ADD ADD MLOAD PUSH1 0x20 ADD MLOAD PUSH2 0x37F0 JUMP JUMPDEST DUP5 DUP7 PUSH2 0xC39 DUP15 PUSH1 0x40 ADD MLOAD PUSH1 0x0 ADD MLOAD PUSH2 0x37F0 JUMP JUMPDEST PUSH2 0xC4A DUP16 PUSH1 0x40 ADD MLOAD PUSH1 0x20 ADD MLOAD PUSH2 0x37F0 JUMP JUMPDEST DUP9 PUSH1 0x40 MLOAD PUSH1 0x20 ADD PUSH2 0xC61 SWAP8 SWAP7 SWAP6 SWAP5 SWAP4 SWAP3 SWAP2 SWAP1 PUSH2 0x557A JUMP JUMPDEST PUSH1 0x40 MLOAD PUSH1 0x20 DUP2 DUP4 SUB SUB DUP2 MSTORE SWAP1 PUSH1 0x40 MSTORE PUSH2 0xC9C DUP12 PUSH1 0x20 ADD MLOAD PUSH1 0x2 DUP2 MLOAD DUP2 LT PUSH2 0xC8B JUMPI PUSH2 0xC8A PUSH2 0x5126 JUMP JUMPDEST JUMPDEST PUSH1 0x20 MUL PUSH1 0x20 ADD ADD MLOAD PUSH1 0x0 ADD MLOAD PUSH2 0x37F0 JUMP JUMPDEST PUSH2 0xCC8 DUP13 PUSH1 0x20 ADD MLOAD PUSH1 0x2 DUP2 MLOAD DUP2 LT PUSH2 0xCB7 JUMPI PUSH2 0xCB6 PUSH2 0x5126 JUMP JUMPDEST JUMPDEST PUSH1 0x20 MUL PUSH1 0x20 ADD ADD MLOAD PUSH1 0x20 ADD MLOAD PUSH2 0x37F0 JUMP JUMPDEST DUP6 DUP7 DUP7 DUP10 PUSH1 0x40 MLOAD PUSH1 0x20 ADD PUSH2 0xCE1 SWAP7 SWAP6 SWAP5 SWAP4 SWAP3 SWAP2 SWAP1 PUSH2 0x5429 JUMP JUMPDEST PUSH1 0x40 MLOAD PUSH1 0x20 DUP2 DUP4 SUB SUB DUP2 MSTORE SWAP1 PUSH1 0x40 MSTORE DUP9 PUSH1 0x40 MLOAD PUSH1 0x20 ADD PUSH2 0xD04 SWAP5 SWAP4 SWAP3 SWAP2 SWAP1 PUSH2 0x55FB JUMP JUMPDEST PUSH1 0x40 MLOAD PUSH1 0x20 DUP2 DUP4 SUB SUB DUP2 MSTORE SWAP1 PUSH1 0x40 MSTORE DUP1 MLOAD SWAP1 PUSH1 0x20 ADD KECCAK256 SWAP6 POP POP POP POP PUSH1 0x0 PUSH2 0xD2B DUP5 DUP5 PUSH2 0x393C JUMP JUMPDEST DUP1 SWAP5 POP DUP2 SWAP3 POP POP POP JUMPDEST PUSH1 0x0 PUSH2 0xD43 DUP3 PUSH3 0x20000 PUSH2 0x3A3C JUMP JUMPDEST SUB PUSH2 0xD5F JUMPI PUSH2 0xD52 DUP5 DUP5 PUSH2 0x393C JUMP JUMPDEST DUP1 SWAP5 POP DUP2 SWAP3 POP POP POP PUSH2 0xD34 JUMP JUMPDEST PUSH2 0xD68 DUP2 PUSH2 0x3A9C JUMP JUMPDEST DUP3 PUSH1 0x4 PUSH1 0x7 DUP2 LT PUSH2 0xD7C JUMPI PUSH2 0xD7B PUSH2 0x5126 JUMP JUMPDEST JUMPDEST PUSH1 0x20 MUL ADD DUP2 DUP2 MSTORE POP POP POP PUSH1 0x0 SWAP2 POP PUSH1 0x0 PUSH1 0x1 SWAP1 POP PUSH1 0x0 DUP1 PUSH1 0x40 MLOAD DUP1 PUSH1 0x40 ADD PUSH1 0x40 MSTORE DUP1 PUSH1 0x0 DUP2 MSTORE PUSH1 0x20 ADD PUSH2 0xDAF PUSH1 0x1 PUSH2 0x37F0 JUMP JUMPDEST DUP2 MSTORE POP SWAP1 POP PUSH2 0xDE0 DUP10 PUSH1 0x60 ADD MLOAD PUSH1 0x0 DUP2 MLOAD DUP2 LT PUSH2 0xDCF JUMPI PUSH2 0xDCE PUSH2 0x5126 JUMP JUMPDEST JUMPDEST PUSH1 0x20 MUL PUSH1 0x20 ADD ADD MLOAD PUSH1 0x0 ADD MLOAD PUSH2 0x37F0 JUMP JUMPDEST PUSH2 0xE0C DUP11 PUSH1 0x60 ADD MLOAD PUSH1 0x0 DUP2 MLOAD DUP2 LT PUSH2 0xDFB JUMPI PUSH2 0xDFA PUSH2 0x5126 JUMP JUMPDEST JUMPDEST PUSH1 0x20 MUL PUSH1 0x20 ADD ADD MLOAD PUSH1 0x20 ADD MLOAD PUSH2 0x37F0 JUMP JUMPDEST DUP4 DUP6 PUSH2 0xE1F DUP14 PUSH1 0x80 ADD MLOAD PUSH1 0x0 ADD MLOAD PUSH2 0x37F0 JUMP JUMPDEST PUSH2 0xE30 DUP15 PUSH1 0x80 ADD MLOAD PUSH1 0x20 ADD MLOAD PUSH2 0x37F0 JUMP JUMPDEST DUP8 PUSH1 0x40 MLOAD PUSH1 0x20 ADD PUSH2 0xE47 SWAP8 SWAP7 SWAP6 SWAP5 SWAP4 SWAP3 SWAP2 SWAP1 PUSH2 0x557A JUMP JUMPDEST PUSH1 0x40 MLOAD PUSH1 0x20 DUP2 DUP4 SUB SUB DUP2 MSTORE SWAP1 PUSH1 0x40 MSTORE PUSH2 0xE82 DUP11 PUSH1 0x60 ADD MLOAD PUSH1 0x1 DUP2 MLOAD DUP2 LT PUSH2 0xE71 JUMPI PUSH2 0xE70 PUSH2 0x5126 JUMP JUMPDEST JUMPDEST PUSH1 0x20 MUL PUSH1 0x20 ADD ADD MLOAD PUSH1 0x0 ADD MLOAD PUSH2 0x37F0 JUMP JUMPDEST PUSH2 0xEAE DUP12 PUSH1 0x60 ADD MLOAD PUSH1 0x1 DUP2 MLOAD DUP2 LT PUSH2 0xE9D JUMPI PUSH2 0xE9C PUSH2 0x5126 JUMP JUMPDEST JUMPDEST PUSH1 0x20 MUL PUSH1 0x20 ADD ADD MLOAD PUSH1 0x20 ADD MLOAD PUSH2 0x37F0 JUMP JUMPDEST DUP5 DUP6 DUP6 DUP9 PUSH1 0x40 MLOAD PUSH1 0x20 ADD PUSH2 0xEC7 SWAP7 SWAP6 SWAP5 SWAP4 SWAP3 SWAP2 SWAP1 PUSH2 0x5429 JUMP JUMPDEST PUSH1 0x40 MLOAD PUSH1 0x20 DUP2 DUP4 SUB SUB DUP2 MSTORE SWAP1 PUSH1 0x40 MSTORE DUP8 PUSH1 0x40 MLOAD PUSH1 0x20 ADD PUSH2 0xEE9 SWAP4 SWAP3 SWAP2 SWAP1 PUSH2 0x563D JUMP JUMPDEST PUSH1 0x40 MLOAD PUSH1 0x20 DUP2 DUP4 SUB SUB DUP2 MSTORE SWAP1 PUSH1 0x40 MSTORE DUP1 MLOAD SWAP1 PUSH1 0x20 ADD KECCAK256 SWAP6 POP POP POP POP PUSH1 0x0 PUSH2 0xF10 DUP5 DUP5 PUSH2 0x393C JUMP JUMPDEST DUP1 SWAP5 POP DUP2 SWAP3 POP POP POP PUSH2 0xF21 DUP2 PUSH2 0x3A9C JUMP JUMPDEST DUP3 PUSH1 0x5 PUSH1 0x7 DUP2 LT PUSH2 0xF35 JUMPI PUSH2 0xF34 PUSH2 0x5126 JUMP JUMPDEST JUMPDEST PUSH1 0x20 MUL ADD DUP2 DUP2 MSTORE POP POP POP PUSH1 0x0 SWAP2 POP PUSH1 0x0 DUP7 PUSH1 0xA0 ADD MLOAD MLOAD PUSH8 0xFFFFFFFFFFFFFFFF DUP2 GT ISZERO PUSH2 0xF64 JUMPI PUSH2 0xF63 PUSH2 0x4BFA JUMP JUMPDEST JUMPDEST PUSH1 0x40 MLOAD SWAP1 DUP1 DUP3 MSTORE DUP1 PUSH1 0x20 MUL PUSH1 0x20 ADD DUP3 ADD PUSH1 0x40 MSTORE DUP1 ISZERO PUSH2 0xF92 JUMPI DUP2 PUSH1 0x20 ADD PUSH1 0x20 DUP3 MUL DUP1 CALLDATASIZE DUP4 CALLDATACOPY DUP1 DUP3 ADD SWAP2 POP POP SWAP1 POP JUMPDEST POP SWAP1 POP PUSH1 0x0 JUMPDEST DUP8 PUSH1 0xA0 ADD MLOAD MLOAD DUP2 LT ISZERO PUSH2 0xFF8 JUMPI PUSH2 0xFCC DUP9 PUSH1 0xA0 ADD MLOAD DUP3 DUP2 MLOAD DUP2 LT PUSH2 0xFBF JUMPI PUSH2 0xFBE PUSH2 0x5126 JUMP JUMPDEST JUMPDEST PUSH1 0x20 MUL PUSH1 0x20 ADD ADD MLOAD PUSH2 0x37F0 JUMP JUMPDEST DUP3 DUP3 DUP2 MLOAD DUP2 LT PUSH2 0xFDF JUMPI PUSH2 0xFDE PUSH2 0x5126 JUMP JUMPDEST JUMPDEST PUSH1 0x20 MUL PUSH1 0x20 ADD ADD DUP2 DUP2 MSTORE POP POP DUP1 DUP1 PUSH1 0x1 ADD SWAP2 POP POP PUSH2 0xF98 JUMP JUMPDEST POP DUP1 DUP5 PUSH1 0x40 MLOAD PUSH1 0x20 ADD PUSH2 0x100C SWAP3 SWAP2 SWAP1 PUSH2 0x5703 JUMP JUMPDEST PUSH1 0x40 MLOAD PUSH1 0x20 DUP2 DUP4 SUB SUB DUP2 MSTORE SWAP1 PUSH1 0x40 MSTORE DUP1 MLOAD SWAP1 PUSH1 0x20 ADD KECCAK256 SWAP4 POP POP PUSH1 0x0 PUSH2 0x1031 DUP5 DUP5 PUSH2 0x3D51 JUMP JUMPDEST DUP1 SWAP5 POP DUP2 SWAP3 POP POP POP DUP1 DUP3 PUSH1 0x6 PUSH1 0x7 DUP2 LT PUSH2 0x104E JUMPI PUSH2 0x104D PUSH2 0x5126 JUMP JUMPDEST JUMPDEST PUSH1 0x20 MUL ADD DUP2 DUP2 MSTORE POP POP POP PUSH2 0x1060 PUSH2 0x49CC JUMP JUMPDEST PUSH2 0x1068 PUSH2 0x49F9 JUMP JUMPDEST PUSH2 0x1070 PUSH2 0x4A1B JUMP JUMPDEST PUSH2 0x10AE DUP5 PUSH1 0x0 PUSH1 0x7 DUP2 LT PUSH2 0x1087 JUMPI PUSH2 0x1086 PUSH2 0x5126 JUMP JUMPDEST JUMPDEST PUSH1 0x20 MUL ADD MLOAD DUP6 PUSH1 0x4 PUSH1 0x7 DUP2 LT PUSH2 0x10A0 JUMPI PUSH2 0x109F PUSH2 0x5126 JUMP JUMPDEST JUMPDEST PUSH1 0x20 MUL ADD MLOAD PUSH3 0x20000 PUSH2 0x3DF0 JUMP JUMPDEST DUP2 PUSH1 0x0 PUSH1 0x6 DUP2 LT PUSH2 0x10C2 JUMPI PUSH2 0x10C1 PUSH2 0x5126 JUMP JUMPDEST JUMPDEST PUSH1 0x20 MUL ADD DUP2 DUP2 MSTORE POP POP PUSH2 0x10F0 DUP5 PUSH1 0x0 PUSH1 0x7 DUP2 LT PUSH2 0x10E2 JUMPI PUSH2 0x10E1 PUSH2 0x5126 JUMP JUMPDEST JUMPDEST PUSH1 0x20 MUL ADD MLOAD PUSH3 0x20000 PUSH2 0x3A3C JUMP JUMPDEST DUP2 PUSH1 0x1 PUSH1 0x6 DUP2 LT PUSH2 0x1104 JUMPI PUSH2 0x1103 PUSH2 0x5126 JUMP JUMPDEST JUMPDEST PUSH1 0x20 MUL ADD DUP2 DUP2 MSTORE POP POP PUSH2 0x1132 DUP5 PUSH1 0x4 PUSH1 0x7 DUP2 LT PUSH2 0x1124 JUMPI PUSH2 0x1123 PUSH2 0x5126 JUMP JUMPDEST JUMPDEST PUSH1 0x20 MUL ADD MLOAD PUSH3 0x20000 PUSH2 0x3A3C JUMP JUMPDEST DUP2 PUSH1 0x2 PUSH1 0x6 DUP2 LT PUSH2 0x1146 JUMPI PUSH2 0x1145 PUSH2 0x5126 JUMP JUMPDEST JUMPDEST PUSH1 0x20 MUL ADD DUP2 DUP2 MSTORE POP POP PUSH2 0x1172 DUP5 PUSH1 0x4 PUSH1 0x7 DUP2 LT PUSH2 0x1166 JUMPI PUSH2 0x1165 PUSH2 0x5126 JUMP JUMPDEST JUMPDEST PUSH1 0x20 MUL ADD MLOAD PUSH1 0x20 PUSH2 0x3A3C JUMP JUMPDEST DUP2 PUSH1 0x3 PUSH1 0x6 DUP2 LT PUSH2 0x1186 JUMPI PUSH2 0x1185 PUSH2 0x5126 JUMP JUMPDEST JUMPDEST PUSH1 0x20 MUL ADD DUP2 DUP2 MSTORE POP POP PUSH1 0x0 PUSH2 0x11B2 DUP6 PUSH1 0x4 PUSH1 0x7 DUP2 LT PUSH2 0x11A8 JUMPI PUSH2 0x11A7 PUSH2 0x5126 JUMP JUMPDEST JUMPDEST PUSH1 0x20 MUL ADD MLOAD PUSH2 0x3EAD JUMP JUMPDEST SWAP1 POP DUP1 PUSH1 0x0 PUSH1 0x20 DUP2 LT PUSH2 0x11C8 JUMPI PUSH2 0x11C7 PUSH2 0x5126 JUMP JUMPDEST JUMPDEST PUSH1 0x20 MUL ADD MLOAD DUP3 PUSH1 0x4 PUSH1 0x6 DUP2 LT PUSH2 0x11E1 JUMPI PUSH2 0x11E0 PUSH2 0x5126 JUMP JUMPDEST JUMPDEST PUSH1 0x20 MUL ADD DUP2 DUP2 MSTORE POP POP PUSH1 0x0 PUSH1 0x1 SWAP1 POP JUMPDEST PUSH1 0x20 DUP2 LT ISZERO PUSH2 0x12D9 JUMPI PUSH32 0x30644E72E131A029B85045B68181585D2833E84879B9709143E1F593F0000001 DUP1 PUSH2 0x1229 JUMPI PUSH2 0x1228 PUSH2 0x572B JUMP JUMPDEST JUMPDEST PUSH32 0x30644E72E131A029B85045B68181585D2833E84879B9709143E1F593F0000001 DUP1 PUSH2 0x1258 JUMPI PUSH2 0x1257 PUSH2 0x572B JUMP JUMPDEST JUMPDEST DUP14 PUSH1 0x1 DUP5 PUSH2 0x1266 SWAP2 SWAP1 PUSH2 0x5789 JUMP JUMPDEST PUSH1 0x1F DUP2 LT PUSH2 0x1277 JUMPI PUSH2 0x1276 PUSH2 0x5126 JUMP JUMPDEST JUMPDEST PUSH1 0x20 MUL ADD MLOAD DUP5 DUP5 PUSH1 0x20 DUP2 LT PUSH2 0x128F JUMPI PUSH2 0x128E PUSH2 0x5126 JUMP JUMPDEST JUMPDEST PUSH1 0x20 MUL ADD MLOAD MULMOD DUP5 PUSH1 0x4 PUSH1 0x6 DUP2 LT PUSH2 0x12A9 JUMPI PUSH2 0x12A8 PUSH2 0x5126 JUMP JUMPDEST JUMPDEST PUSH1 0x20 MUL ADD MLOAD ADDMOD DUP4 PUSH1 0x4 PUSH1 0x6 DUP2 LT PUSH2 0x12C3 JUMPI PUSH2 0x12C2 PUSH2 0x5126 JUMP JUMPDEST JUMPDEST PUSH1 0x20 MUL ADD DUP2 DUP2 MSTORE POP POP DUP1 DUP1 PUSH1 0x1 ADD SWAP2 POP POP PUSH2 0x11F1 JUMP JUMPDEST POP POP PUSH2 0x1300 DUP5 PUSH1 0x5 PUSH1 0x7 DUP2 LT PUSH2 0x12F2 JUMPI PUSH2 0x12F1 PUSH2 0x5126 JUMP JUMPDEST JUMPDEST PUSH1 0x20 MUL ADD MLOAD PUSH3 0x400000 PUSH2 0x3A3C JUMP JUMPDEST DUP2 PUSH1 0x5 PUSH1 0x6 DUP2 LT PUSH2 0x1314 JUMPI PUSH2 0x1313 PUSH2 0x5126 JUMP JUMPDEST JUMPDEST PUSH1 0x20 MUL ADD DUP2 DUP2 MSTORE POP POP PUSH2 0x1325 PUSH2 0x4A3D JUMP JUMPDEST PUSH2 0x132D PUSH2 0x4A5F JUMP JUMPDEST DUP11 PUSH1 0xA0 ADD MLOAD PUSH1 0x0 DUP2 MLOAD DUP2 LT PUSH2 0x1345 JUMPI PUSH2 0x1344 PUSH2 0x5126 JUMP JUMPDEST JUMPDEST PUSH1 0x20 MUL PUSH1 0x20 ADD ADD MLOAD DUP3 PUSH1 0x0 PUSH1 0x4 DUP2 LT PUSH2 0x1361 JUMPI PUSH2 0x1360 PUSH2 0x5126 JUMP JUMPDEST JUMPDEST PUSH1 0x20 MUL ADD DUP2 DUP2 MSTORE POP POP DUP11 PUSH1 0xA0 ADD MLOAD PUSH1 0x2 DUP2 MLOAD DUP2 LT PUSH2 0x1382 JUMPI PUSH2 0x1381 PUSH2 0x5126 JUMP JUMPDEST JUMPDEST PUSH1 0x20 MUL PUSH1 0x20 ADD ADD MLOAD DUP3 PUSH1 0x2 PUSH1 0x4 DUP2 LT PUSH2 0x139E JUMPI PUSH2 0x139D PUSH2 0x5126 JUMP JUMPDEST JUMPDEST PUSH1 0x20 MUL ADD DUP2 DUP2 MSTORE POP POP DUP11 PUSH1 0xA0 ADD MLOAD PUSH1 0x3 DUP2 MLOAD DUP2 LT PUSH2 0x13BF JUMPI PUSH2 0x13BE PUSH2 0x5126 JUMP JUMPDEST JUMPDEST PUSH1 0x20 MUL PUSH1 0x20 ADD ADD MLOAD DUP3 PUSH1 0x3 PUSH1 0x4 DUP2 LT PUSH2 0x13DB JUMPI PUSH2 0x13DA PUSH2 0x5126 JUMP JUMPDEST JUMPDEST PUSH1 0x20 MUL ADD DUP2 DUP2 MSTORE POP POP DUP11 PUSH1 0x20 ADD MLOAD PUSH1 0x1 DUP2 MLOAD DUP2 LT PUSH2 0x13FC JUMPI PUSH2 0x13FB PUSH2 0x5126 JUMP JUMPDEST JUMPDEST PUSH1 0x20 MUL PUSH1 0x20 ADD ADD MLOAD DUP2 PUSH1 0x0 PUSH1 0x4 DUP2 LT PUSH2 0x1418 JUMPI PUSH2 0x1417 PUSH2 0x5126 JUMP JUMPDEST JUMPDEST PUSH1 0x20 MUL ADD DUP2 SWAP1 MSTORE POP DUP11 PUSH1 0x20 ADD MLOAD PUSH1 0x0 DUP2 MLOAD DUP2 LT PUSH2 0x1438 JUMPI PUSH2 0x1437 PUSH2 0x5126 JUMP JUMPDEST JUMPDEST PUSH1 0x20 MUL PUSH1 0x20 ADD ADD MLOAD DUP2 PUSH1 0x2 PUSH1 0x4 DUP2 LT PUSH2 0x1454 JUMPI PUSH2 0x1453 PUSH2 0x5126 JUMP JUMPDEST JUMPDEST PUSH1 0x20 MUL ADD DUP2 SWAP1 MSTORE POP DUP11 PUSH1 0x0 ADD MLOAD PUSH1 0x2 DUP2 MLOAD DUP2 LT PUSH2 0x1474 JUMPI PUSH2 0x1473 PUSH2 0x5126 JUMP JUMPDEST JUMPDEST PUSH1 0x20 MUL PUSH1 0x20 ADD ADD MLOAD DUP2 PUSH1 0x3 PUSH1 0x4 DUP2 LT PUSH2 0x1490 JUMPI PUSH2 0x148F PUSH2 0x5126 JUMP JUMPDEST JUMPDEST PUSH1 0x20 MUL ADD DUP2 SWAP1 MSTORE POP PUSH2 0x14A0 PUSH2 0x49AA JUMP JUMPDEST PUSH1 0x1 DUP2 PUSH1 0x0 PUSH1 0x7 DUP2 LT PUSH2 0x14B6 JUMPI PUSH2 0x14B5 PUSH2 0x5126 JUMP JUMPDEST JUMPDEST PUSH1 0x20 MUL ADD DUP2 DUP2 MSTORE POP POP PUSH32 0x30644E72E131A029B85045B68181585D2833E84879B9709143E1F593F0000001 DUP1 PUSH2 0x14EE JUMPI PUSH2 0x14ED PUSH2 0x572B JUMP JUMPDEST JUMPDEST PUSH32 0x30644E72E131A029B85045B68181585D2833E84879B9709143E1F593F0000001 DUP1 PUSH2 0x151D JUMPI PUSH2 0x151C PUSH2 0x572B JUMP JUMPDEST JUMPDEST PUSH32 0x30644E72E131A029B85045B68181585D2833E84879B9709143E1F593F0000001 DUP1 PUSH2 0x154C JUMPI PUSH2 0x154B PUSH2 0x572B JUMP JUMPDEST JUMPDEST DUP15 PUSH1 0xA0 ADD MLOAD PUSH1 0x3 DUP2 MLOAD DUP2 LT PUSH2 0x1564 JUMPI PUSH2 0x1563 PUSH2 0x5126 JUMP JUMPDEST JUMPDEST PUSH1 0x20 MUL PUSH1 0x20 ADD ADD MLOAD DUP11 PUSH1 0x3 PUSH1 0x7 DUP2 LT PUSH2 0x1580 JUMPI PUSH2 0x157F PUSH2 0x5126 JUMP JUMPDEST JUMPDEST PUSH1 0x20 MUL ADD MLOAD MULMOD DUP10 PUSH1 0x1 PUSH1 0x7 DUP2 LT PUSH2 0x159A JUMPI PUSH2 0x1599 PUSH2 0x5126 JUMP JUMPDEST JUMPDEST PUSH1 0x20 MUL ADD MLOAD ADDMOD DUP6 PUSH1 0x0 PUSH1 0x6 DUP2 LT PUSH2 0x15B4 JUMPI PUSH2 0x15B3 PUSH2 0x5126 JUMP JUMPDEST JUMPDEST PUSH1 0x20 MUL ADD MLOAD MULMOD DUP2 PUSH1 0x1 PUSH1 0x7 DUP2 LT PUSH2 0x15CE JUMPI PUSH2 0x15CD PUSH2 0x5126 JUMP JUMPDEST JUMPDEST PUSH1 0x20 MUL ADD DUP2 DUP2 MSTORE POP POP PUSH32 0x30644E72E131A029B85045B68181585D2833E84879B9709143E1F593F0000001 DUP1 PUSH2 0x1606 JUMPI PUSH2 0x1605 PUSH2 0x572B JUMP JUMPDEST JUMPDEST PUSH32 0x30644E72E131A029B85045B68181585D2833E84879B9709143E1F593F0000001 DUP1 PUSH2 0x1635 JUMPI PUSH2 0x1634 PUSH2 0x572B JUMP JUMPDEST JUMPDEST DUP14 PUSH1 0xA0 ADD MLOAD PUSH1 0x3 DUP2 MLOAD DUP2 LT PUSH2 0x164D JUMPI PUSH2 0x164C PUSH2 0x5126 JUMP JUMPDEST JUMPDEST PUSH1 0x20 MUL PUSH1 0x20 ADD ADD MLOAD DUP10 PUSH1 0x2 PUSH1 0x7 DUP2 LT PUSH2 0x1669 JUMPI PUSH2 0x1668 PUSH2 0x5126 JUMP JUMPDEST JUMPDEST PUSH1 0x20 MUL ADD MLOAD MULMOD DUP6 PUSH1 0x0 PUSH1 0x6 DUP2 LT PUSH2 0x1683 JUMPI PUSH2 0x1682 PUSH2 0x5126 JUMP JUMPDEST JUMPDEST PUSH1 0x20 MUL ADD MLOAD MULMOD DUP2 PUSH1 0x2 PUSH1 0x7 DUP2 LT PUSH2 0x169D JUMPI PUSH2 0x169C PUSH2 0x5126 JUMP JUMPDEST JUMPDEST PUSH1 0x20 MUL ADD DUP2 DUP2 MSTORE POP POP PUSH32 0x30644E72E131A029B85045B68181585D2833E84879B9709143E1F593F0000001 DUP1 PUSH2 0x16D5 JUMPI PUSH2 0x16D4 PUSH2 0x572B JUMP JUMPDEST JUMPDEST PUSH2 0x1720 PUSH1 0x0 DUP15 PUSH1 0xA0 ADD MLOAD PUSH1 0x2 DUP2 MLOAD DUP2 LT PUSH2 0x16F2 JUMPI PUSH2 0x16F1 PUSH2 0x5126 JUMP JUMPDEST JUMPDEST PUSH1 0x20 MUL PUSH1 0x20 ADD ADD MLOAD PUSH32 0x30644E72E131A029B85045B68181585D2833E84879B9709143E1F593F0000001 PUSH2 0x412B JUMP JUMPDEST DUP6 PUSH1 0x3 PUSH1 0x6 DUP2 LT PUSH2 0x1734 JUMPI PUSH2 0x1733 PUSH2 0x5126 JUMP JUMPDEST JUMPDEST PUSH1 0x20 MUL ADD MLOAD MULMOD DUP2 PUSH1 0x3 PUSH1 0x7 DUP2 LT PUSH2 0x174E JUMPI PUSH2 0x174D PUSH2 0x5126 JUMP JUMPDEST JUMPDEST PUSH1 0x20 MUL ADD DUP2 DUP2 MSTORE POP POP PUSH32 0x30644E72E131A029B85045B68181585D2833E84879B9709143E1F593F0000001 DUP1 PUSH2 0x1786 JUMPI PUSH2 0x1785 PUSH2 0x572B JUMP JUMPDEST JUMPDEST PUSH2 0x17D1 PUSH1 0x0 DUP15 PUSH1 0xA0 ADD MLOAD PUSH1 0x2 DUP2 MLOAD DUP2 LT PUSH2 0x17A3 JUMPI PUSH2 0x17A2 PUSH2 0x5126 JUMP JUMPDEST JUMPDEST PUSH1 0x20 MUL PUSH1 0x20 ADD ADD MLOAD PUSH32 0x30644E72E131A029B85045B68181585D2833E84879B9709143E1F593F0000001 PUSH2 0x412B JUMP JUMPDEST DUP6 PUSH1 0x4 PUSH1 0x6 DUP2 LT PUSH2 0x17E5 JUMPI PUSH2 0x17E4 PUSH2 0x5126 JUMP JUMPDEST JUMPDEST PUSH1 0x20 MUL ADD MLOAD MULMOD DUP2 PUSH1 0x4 PUSH1 0x7 DUP2 LT PUSH2 0x17FF JUMPI PUSH2 0x17FE PUSH2 0x5126 JUMP JUMPDEST JUMPDEST PUSH1 0x20 MUL ADD DUP2 DUP2 MSTORE POP POP PUSH2 0x184C PUSH1 0x0 DUP6 PUSH1 0x2 PUSH1 0x6 DUP2 LT PUSH2 0x1821 JUMPI PUSH2 0x1820 PUSH2 0x5126 JUMP JUMPDEST JUMPDEST PUSH1 0x20 MUL ADD MLOAD PUSH32 0x30644E72E131A029B85045B68181585D2833E84879B9709143E1F593F0000001 PUSH2 0x412B JUMP JUMPDEST DUP2 PUSH1 0x5 PUSH1 0x7 DUP2 LT PUSH2 0x1860 JUMPI PUSH2 0x185F PUSH2 0x5126 JUMP JUMPDEST JUMPDEST PUSH1 0x20 MUL ADD DUP2 DUP2 MSTORE POP POP PUSH32 0x30644E72E131A029B85045B68181585D2833E84879B9709143E1F593F0000001 DUP1 PUSH2 0x1898 JUMPI PUSH2 0x1897 PUSH2 0x572B JUMP JUMPDEST JUMPDEST PUSH2 0x18DC PUSH1 0x0 DUP10 PUSH1 0x4 PUSH1 0x7 DUP2 LT PUSH2 0x18B1 JUMPI PUSH2 0x18B0 PUSH2 0x5126 JUMP JUMPDEST JUMPDEST PUSH1 0x20 MUL ADD MLOAD PUSH32 0x30644E72E131A029B85045B68181585D2833E84879B9709143E1F593F0000001 PUSH2 0x412B JUMP JUMPDEST DUP14 PUSH1 0xA0 ADD MLOAD PUSH1 0x0 DUP2 MLOAD DUP2 LT PUSH2 0x18F4 JUMPI PUSH2 0x18F3 PUSH2 0x5126 JUMP JUMPDEST JUMPDEST PUSH1 0x20 MUL PUSH1 0x20 ADD ADD MLOAD MULMOD DUP2 PUSH1 0x6 PUSH1 0x7 DUP2 LT PUSH2 0x1911 JUMPI PUSH2 0x1910 PUSH2 0x5126 JUMP JUMPDEST JUMPDEST PUSH1 0x20 MUL ADD DUP2 DUP2 MSTORE POP POP DUP12 PUSH1 0x0 ADD MLOAD PUSH1 0x3 DUP2 MLOAD DUP2 LT PUSH2 0x1932 JUMPI PUSH2 0x1931 PUSH2 0x5126 JUMP JUMPDEST JUMPDEST PUSH1 0x20 MUL PUSH1 0x20 ADD ADD MLOAD DUP3 PUSH1 0x1 PUSH1 0x4 DUP2 LT PUSH2 0x194E JUMPI PUSH2 0x194D PUSH2 0x5126 JUMP JUMPDEST JUMPDEST PUSH1 0x20 MUL ADD DUP2 SWAP1 MSTORE POP PUSH2 0x19CA PUSH2 0x19A3 DUP3 PUSH1 0x1 PUSH1 0x7 DUP2 LT PUSH2 0x1970 JUMPI PUSH2 0x196F PUSH2 0x5126 JUMP JUMPDEST JUMPDEST PUSH1 0x20 MUL ADD MLOAD DUP15 PUSH1 0x0 ADD MLOAD PUSH1 0x1 DUP2 MLOAD DUP2 LT PUSH2 0x198D JUMPI PUSH2 0x198C PUSH2 0x5126 JUMP JUMPDEST JUMPDEST PUSH1 0x20 MUL PUSH1 0x20 ADD ADD MLOAD PUSH2 0x4153 SWAP1 SWAP2 SWAP1 PUSH4 0xFFFFFFFF AND JUMP JUMPDEST DUP4 PUSH1 0x1 PUSH1 0x4 DUP2 LT PUSH2 0x19B7 JUMPI PUSH2 0x19B6 PUSH2 0x5126 JUMP JUMPDEST JUMPDEST PUSH1 0x20 MUL ADD MLOAD PUSH2 0x41F5 SWAP1 SWAP2 SWAP1 PUSH4 0xFFFFFFFF AND JUMP JUMPDEST DUP3 PUSH1 0x1 PUSH1 0x4 DUP2 LT PUSH2 0x19DE JUMPI PUSH2 0x19DD PUSH2 0x5126 JUMP JUMPDEST JUMPDEST PUSH1 0x20 MUL ADD DUP2 SWAP1 MSTORE POP PUSH2 0x1A5A PUSH2 0x1A33 DUP3 PUSH1 0x3 PUSH1 0x7 DUP2 LT PUSH2 0x1A00 JUMPI PUSH2 0x19FF PUSH2 0x5126 JUMP JUMPDEST JUMPDEST PUSH1 0x20 MUL ADD MLOAD DUP15 PUSH1 0x0 ADD MLOAD PUSH1 0x0 DUP2 MLOAD DUP2 LT PUSH2 0x1A1D JUMPI PUSH2 0x1A1C PUSH2 0x5126 JUMP JUMPDEST JUMPDEST PUSH1 0x20 MUL PUSH1 0x20 ADD ADD MLOAD PUSH2 0x4153 SWAP1 SWAP2 SWAP1 PUSH4 0xFFFFFFFF AND JUMP JUMPDEST DUP4 PUSH1 0x1 PUSH1 0x4 DUP2 LT PUSH2 0x1A47 JUMPI PUSH2 0x1A46 PUSH2 0x5126 JUMP JUMPDEST JUMPDEST PUSH1 0x20 MUL ADD MLOAD PUSH2 0x41F5 SWAP1 SWAP2 SWAP1 PUSH4 0xFFFFFFFF AND JUMP JUMPDEST DUP3 PUSH1 0x1 PUSH1 0x4 DUP2 LT PUSH2 0x1A6E JUMPI PUSH2 0x1A6D PUSH2 0x5126 JUMP JUMPDEST JUMPDEST PUSH1 0x20 MUL ADD DUP2 SWAP1 MSTORE POP PUSH2 0x1AEA PUSH2 0x1AC3 DUP3 PUSH1 0x5 PUSH1 0x7 DUP2 LT PUSH2 0x1A90 JUMPI PUSH2 0x1A8F PUSH2 0x5126 JUMP JUMPDEST JUMPDEST PUSH1 0x20 MUL ADD MLOAD DUP15 PUSH1 0x20 ADD MLOAD PUSH1 0x2 DUP2 MLOAD DUP2 LT PUSH2 0x1AAD JUMPI PUSH2 0x1AAC PUSH2 0x5126 JUMP JUMPDEST JUMPDEST PUSH1 0x20 MUL PUSH1 0x20 ADD ADD MLOAD PUSH2 0x4153 SWAP1 SWAP2 SWAP1 PUSH4 0xFFFFFFFF AND JUMP JUMPDEST DUP4 PUSH1 0x1 PUSH1 0x4 DUP2 LT PUSH2 0x1AD7 JUMPI PUSH2 0x1AD6 PUSH2 0x5126 JUMP JUMPDEST JUMPDEST PUSH1 0x20 MUL ADD MLOAD PUSH2 0x41F5 SWAP1 SWAP2 SWAP1 PUSH4 0xFFFFFFFF AND JUMP JUMPDEST DUP3 PUSH1 0x1 PUSH1 0x4 DUP2 LT PUSH2 0x1AFE JUMPI PUSH2 0x1AFD PUSH2 0x5126 JUMP JUMPDEST JUMPDEST PUSH1 0x20 MUL ADD DUP2 SWAP1 MSTORE POP PUSH2 0x1B61 DUP4 PUSH1 0x1 PUSH1 0x4 DUP2 LT PUSH2 0x1B1D JUMPI PUSH2 0x1B1C PUSH2 0x5126 JUMP JUMPDEST JUMPDEST PUSH1 0x20 MUL ADD MLOAD DUP3 PUSH1 0x2 PUSH1 0x7 DUP2 LT PUSH2 0x1B36 JUMPI PUSH2 0x1B35 PUSH2 0x5126 JUMP JUMPDEST JUMPDEST PUSH1 0x20 MUL ADD MLOAD PUSH32 0x30644E72E131A029B85045B68181585D2833E84879B9709143E1F593F0000001 PUSH2 0x412B JUMP JUMPDEST DUP4 PUSH1 0x1 PUSH1 0x4 DUP2 LT PUSH2 0x1B75 JUMPI PUSH2 0x1B74 PUSH2 0x5126 JUMP JUMPDEST JUMPDEST PUSH1 0x20 MUL ADD DUP2 DUP2 MSTORE POP POP PUSH2 0x1BD9 DUP4 PUSH1 0x1 PUSH1 0x4 DUP2 LT PUSH2 0x1B95 JUMPI PUSH2 0x1B94 PUSH2 0x5126 JUMP JUMPDEST JUMPDEST PUSH1 0x20 MUL ADD MLOAD DUP3 PUSH1 0x4 PUSH1 0x7 DUP2 LT PUSH2 0x1BAE JUMPI PUSH2 0x1BAD PUSH2 0x5126 JUMP JUMPDEST JUMPDEST PUSH1 0x20 MUL ADD MLOAD PUSH32 0x30644E72E131A029B85045B68181585D2833E84879B9709143E1F593F0000001 PUSH2 0x412B JUMP JUMPDEST DUP4 PUSH1 0x1 PUSH1 0x4 DUP2 LT PUSH2 0x1BED JUMPI PUSH2 0x1BEC PUSH2 0x5126 JUMP JUMPDEST JUMPDEST PUSH1 0x20 MUL ADD DUP2 DUP2 MSTORE POP POP PUSH2 0x1C51 DUP4 PUSH1 0x1 PUSH1 0x4 DUP2 LT PUSH2 0x1C0D JUMPI PUSH2 0x1C0C PUSH2 0x5126 JUMP JUMPDEST JUMPDEST PUSH1 0x20 MUL ADD MLOAD DUP3 PUSH1 0x6 PUSH1 0x7 DUP2 LT PUSH2 0x1C26 JUMPI PUSH2 0x1C25 PUSH2 0x5126 JUMP JUMPDEST JUMPDEST PUSH1 0x20 MUL ADD MLOAD PUSH32 0x30644E72E131A029B85045B68181585D2833E84879B9709143E1F593F0000001 PUSH2 0x412B JUMP JUMPDEST DUP4 PUSH1 0x1 PUSH1 0x4 DUP2 LT PUSH2 0x1C65 JUMPI PUSH2 0x1C64 PUSH2 0x5126 JUMP JUMPDEST JUMPDEST PUSH1 0x20 MUL ADD DUP2 DUP2 MSTORE POP POP POP DUP1 PUSH1 0x0 PUSH1 0x4 DUP2 LT PUSH2 0x1C83 JUMPI PUSH2 0x1C82 PUSH2 0x5126 JUMP JUMPDEST JUMPDEST PUSH1 0x20 MUL ADD MLOAD DUP6 PUSH1 0x0 PUSH1 0x2 DUP2 LT PUSH2 0x1C9C JUMPI PUSH2 0x1C9B PUSH2 0x5126 JUMP JUMPDEST JUMPDEST PUSH1 0x20 MUL ADD DUP2 SWAP1 MSTORE POP DUP2 PUSH1 0x0 PUSH1 0x4 DUP2 LT PUSH2 0x1CB8 JUMPI PUSH2 0x1CB7 PUSH2 0x5126 JUMP JUMPDEST JUMPDEST PUSH1 0x20 MUL ADD MLOAD DUP5 PUSH1 0x0 PUSH1 0x2 DUP2 LT PUSH2 0x1CD1 JUMPI PUSH2 0x1CD0 PUSH2 0x5126 JUMP JUMPDEST JUMPDEST PUSH1 0x20 MUL ADD DUP2 DUP2 MSTORE POP POP PUSH1 0x0 DUP7 PUSH1 0x6 PUSH1 0x7 DUP2 LT PUSH2 0x1CF0 JUMPI PUSH2 0x1CEF PUSH2 0x5126 JUMP JUMPDEST JUMPDEST PUSH1 0x20 MUL ADD MLOAD SWAP1 POP PUSH1 0x0 PUSH2 0x1D46 PUSH2 0x1D33 PUSH2 0x1D2E DUP7 PUSH1 0x0 PUSH1 0x4 DUP2 LT PUSH2 0x1D16 JUMPI PUSH2 0x1D15 PUSH2 0x5126 JUMP JUMPDEST JUMPDEST PUSH1 0x20 MUL ADD MLOAD DUP15 PUSH1 0x40 ADD MLOAD PUSH2 0x4153 SWAP1 SWAP2 SWAP1 PUSH4 0xFFFFFFFF AND JUMP JUMPDEST PUSH2 0x42BD JUMP JUMPDEST DUP15 PUSH1 0x40 ADD MLOAD PUSH2 0x41F5 SWAP1 SWAP2 SWAP1 PUSH4 0xFFFFFFFF AND JUMP JUMPDEST SWAP1 POP PUSH2 0x1D5B DUP3 DUP3 PUSH2 0x4153 SWAP1 SWAP2 SWAP1 PUSH4 0xFFFFFFFF AND JUMP JUMPDEST SWAP1 POP PUSH2 0x1D88 DUP2 DUP9 PUSH1 0x0 PUSH1 0x2 DUP2 LT PUSH2 0x1D75 JUMPI PUSH2 0x1D74 PUSH2 0x5126 JUMP JUMPDEST JUMPDEST PUSH1 0x20 MUL ADD MLOAD PUSH2 0x41F5 SWAP1 SWAP2 SWAP1 PUSH4 0xFFFFFFFF AND JUMP JUMPDEST DUP8 PUSH1 0x0 PUSH1 0x2 DUP2 LT PUSH2 0x1D9C JUMPI PUSH2 0x1D9B PUSH2 0x5126 JUMP JUMPDEST JUMPDEST PUSH1 0x20 MUL ADD DUP2 SWAP1 MSTORE POP POP PUSH32 0x30644E72E131A029B85045B68181585D2833E84879B9709143E1F593F0000001 DUP1 PUSH2 0x1DD4 JUMPI PUSH2 0x1DD3 PUSH2 0x572B JUMP JUMPDEST JUMPDEST DUP8 PUSH1 0x6 PUSH1 0x7 DUP2 LT PUSH2 0x1DE8 JUMPI PUSH2 0x1DE7 PUSH2 0x5126 JUMP JUMPDEST JUMPDEST PUSH1 0x20 MUL ADD MLOAD DUP3 MULMOD SWAP1 POP PUSH2 0x1E46 PUSH2 0x1E1F DUP3 DUP5 PUSH1 0x1 PUSH1 0x4 DUP2 LT PUSH2 0x1E0C JUMPI PUSH2 0x1E0B PUSH2 0x5126 JUMP JUMPDEST JUMPDEST PUSH1 0x20 MUL ADD MLOAD PUSH2 0x4153 SWAP1 SWAP2 SWAP1 PUSH4 0xFFFFFFFF AND JUMP JUMPDEST DUP8 PUSH1 0x0 PUSH1 0x2 DUP2 LT PUSH2 0x1E33 JUMPI PUSH2 0x1E32 PUSH2 0x5126 JUMP JUMPDEST JUMPDEST PUSH1 0x20 MUL ADD MLOAD PUSH2 0x41F5 SWAP1 SWAP2 SWAP1 PUSH4 0xFFFFFFFF AND JUMP JUMPDEST DUP7 PUSH1 0x0 PUSH1 0x2 DUP2 LT PUSH2 0x1E5A JUMPI PUSH2 0x1E59 PUSH2 0x5126 JUMP JUMPDEST JUMPDEST PUSH1 0x20 MUL ADD DUP2 SWAP1 MSTORE POP PUSH32 0x30644E72E131A029B85045B68181585D2833E84879B9709143E1F593F0000001 DUP1 PUSH2 0x1E91 JUMPI PUSH2 0x1E90 PUSH2 0x572B JUMP JUMPDEST JUMPDEST PUSH32 0x30644E72E131A029B85045B68181585D2833E84879B9709143E1F593F0000001 DUP1 PUSH2 0x1EC0 JUMPI PUSH2 0x1EBF PUSH2 0x572B JUMP JUMPDEST JUMPDEST DUP3 DUP6 PUSH1 0x1 PUSH1 0x4 DUP2 LT PUSH2 0x1ED5 JUMPI PUSH2 0x1ED4 PUSH2 0x5126 JUMP JUMPDEST JUMPDEST PUSH1 0x20 MUL ADD MLOAD MULMOD DUP7 PUSH1 0x0 PUSH1 0x2 DUP2 LT PUSH2 0x1EEF JUMPI PUSH2 0x1EEE PUSH2 0x5126 JUMP JUMPDEST JUMPDEST PUSH1 0x20 MUL ADD MLOAD ADDMOD DUP6 PUSH1 0x0 PUSH1 0x2 DUP2 LT PUSH2 0x1F09 JUMPI PUSH2 0x1F08 PUSH2 0x5126 JUMP JUMPDEST JUMPDEST PUSH1 0x20 MUL ADD DUP2 DUP2 MSTORE POP POP PUSH32 0x30644E72E131A029B85045B68181585D2833E84879B9709143E1F593F0000001 DUP1 PUSH2 0x1F41 JUMPI PUSH2 0x1F40 PUSH2 0x572B JUMP JUMPDEST JUMPDEST DUP8 PUSH1 0x6 PUSH1 0x7 DUP2 LT PUSH2 0x1F55 JUMPI PUSH2 0x1F54 PUSH2 0x5126 JUMP JUMPDEST JUMPDEST PUSH1 0x20 MUL ADD MLOAD DUP3 MULMOD SWAP1 POP PUSH2 0x1FB3 PUSH2 0x1F8C DUP3 DUP5 PUSH1 0x2 PUSH1 0x4 DUP2 LT PUSH2 0x1F79 JUMPI PUSH2 0x1F78 PUSH2 0x5126 JUMP JUMPDEST JUMPDEST PUSH1 0x20 MUL ADD MLOAD PUSH2 0x4153 SWAP1 SWAP2 SWAP1 PUSH4 0xFFFFFFFF AND JUMP JUMPDEST DUP8 PUSH1 0x0 PUSH1 0x2 DUP2 LT PUSH2 0x1FA0 JUMPI PUSH2 0x1F9F PUSH2 0x5126 JUMP JUMPDEST JUMPDEST PUSH1 0x20 MUL ADD MLOAD PUSH2 0x41F5 SWAP1 SWAP2 SWAP1 PUSH4 0xFFFFFFFF AND JUMP JUMPDEST DUP7 PUSH1 0x0 PUSH1 0x2 DUP2 LT PUSH2 0x1FC7 JUMPI PUSH2 0x1FC6 PUSH2 0x5126 JUMP JUMPDEST JUMPDEST PUSH1 0x20 MUL ADD DUP2 SWAP1 MSTORE POP PUSH32 0x30644E72E131A029B85045B68181585D2833E84879B9709143E1F593F0000001 DUP1 PUSH2 0x1FFE JUMPI PUSH2 0x1FFD PUSH2 0x572B JUMP JUMPDEST JUMPDEST PUSH32 0x30644E72E131A029B85045B68181585D2833E84879B9709143E1F593F0000001 DUP1 PUSH2 0x202D JUMPI PUSH2 0x202C PUSH2 0x572B JUMP JUMPDEST JUMPDEST DUP3 DUP6 PUSH1 0x2 PUSH1 0x4 DUP2 LT PUSH2 0x2042 JUMPI PUSH2 0x2041 PUSH2 0x5126 JUMP JUMPDEST JUMPDEST PUSH1 0x20 MUL ADD MLOAD MULMOD DUP7 PUSH1 0x0 PUSH1 0x2 DUP2 LT PUSH2 0x205C JUMPI PUSH2 0x205B PUSH2 0x5126 JUMP JUMPDEST JUMPDEST PUSH1 0x20 MUL ADD MLOAD ADDMOD DUP6 PUSH1 0x0 PUSH1 0x2 DUP2 LT PUSH2 0x2076 JUMPI PUSH2 0x2075 PUSH2 0x5126 JUMP JUMPDEST JUMPDEST PUSH1 0x20 MUL ADD DUP2 DUP2 MSTORE POP POP PUSH32 0x30644E72E131A029B85045B68181585D2833E84879B9709143E1F593F0000001 DUP1 PUSH2 0x20AE JUMPI PUSH2 0x20AD PUSH2 0x572B JUMP JUMPDEST JUMPDEST DUP8 PUSH1 0x6 PUSH1 0x7 DUP2 LT PUSH2 0x20C2 JUMPI PUSH2 0x20C1 PUSH2 0x5126 JUMP JUMPDEST JUMPDEST PUSH1 0x20 MUL ADD MLOAD DUP3 MULMOD SWAP1 POP PUSH2 0x2120 PUSH2 0x20F9 DUP3 DUP5 PUSH1 0x3 PUSH1 0x4 DUP2 LT PUSH2 0x20E6 JUMPI PUSH2 0x20E5 PUSH2 0x5126 JUMP JUMPDEST JUMPDEST PUSH1 0x20 MUL ADD MLOAD PUSH2 0x4153 SWAP1 SWAP2 SWAP1 PUSH4 0xFFFFFFFF AND JUMP JUMPDEST DUP8 PUSH1 0x0 PUSH1 0x2 DUP2 LT PUSH2 0x210D JUMPI PUSH2 0x210C PUSH2 0x5126 JUMP JUMPDEST JUMPDEST PUSH1 0x20 MUL ADD MLOAD PUSH2 0x41F5 SWAP1 SWAP2 SWAP1 PUSH4 0xFFFFFFFF AND JUMP JUMPDEST DUP7 PUSH1 0x0 PUSH1 0x2 DUP2 LT PUSH2 0x2134 JUMPI PUSH2 0x2133 PUSH2 0x5126 JUMP JUMPDEST JUMPDEST PUSH1 0x20 MUL ADD DUP2 SWAP1 MSTORE POP PUSH32 0x30644E72E131A029B85045B68181585D2833E84879B9709143E1F593F0000001 DUP1 PUSH2 0x216B JUMPI PUSH2 0x216A PUSH2 0x572B JUMP JUMPDEST JUMPDEST PUSH32 0x30644E72E131A029B85045B68181585D2833E84879B9709143E1F593F0000001 DUP1 PUSH2 0x219A JUMPI PUSH2 0x2199 PUSH2 0x572B JUMP JUMPDEST JUMPDEST DUP3 DUP6 PUSH1 0x3 PUSH1 0x4 DUP2 LT PUSH2 0x21AF JUMPI PUSH2 0x21AE PUSH2 0x5126 JUMP JUMPDEST JUMPDEST PUSH1 0x20 MUL ADD MLOAD MULMOD DUP7 PUSH1 0x0 PUSH1 0x2 DUP2 LT PUSH2 0x21C9 JUMPI PUSH2 0x21C8 PUSH2 0x5126 JUMP JUMPDEST JUMPDEST PUSH1 0x20 MUL ADD MLOAD ADDMOD DUP6 PUSH1 0x0 PUSH1 0x2 DUP2 LT PUSH2 0x21E3 JUMPI PUSH2 0x21E2 PUSH2 0x5126 JUMP JUMPDEST JUMPDEST PUSH1 0x20 MUL ADD DUP2 DUP2 MSTORE POP POP POP POP POP PUSH2 0x21F7 PUSH2 0x49F9 JUMP JUMPDEST PUSH2 0x21FF PUSH2 0x49CC JUMP JUMPDEST DUP11 PUSH1 0xA0 ADD MLOAD PUSH1 0x1 DUP2 MLOAD DUP2 LT PUSH2 0x2217 JUMPI PUSH2 0x2216 PUSH2 0x5126 JUMP JUMPDEST JUMPDEST PUSH1 0x20 MUL PUSH1 0x20 ADD ADD MLOAD DUP3 PUSH1 0x0 PUSH1 0x2 DUP2 LT PUSH2 0x2233 JUMPI PUSH2 0x2232 PUSH2 0x5126 JUMP JUMPDEST JUMPDEST PUSH1 0x20 MUL ADD DUP2 DUP2 MSTORE POP POP DUP11 PUSH1 0x60 ADD MLOAD PUSH1 0x0 DUP2 MLOAD DUP2 LT PUSH2 0x2254 JUMPI PUSH2 0x2253 PUSH2 0x5126 JUMP JUMPDEST JUMPDEST PUSH1 0x20 MUL PUSH1 0x20 ADD ADD MLOAD DUP2 PUSH1 0x0 PUSH1 0x2 DUP2 LT PUSH2 0x2270 JUMPI PUSH2 0x226F PUSH2 0x5126 JUMP JUMPDEST JUMPDEST PUSH1 0x20 MUL ADD DUP2 SWAP1 MSTORE POP PUSH2 0x2280 PUSH2 0x4A8C JUMP JUMPDEST PUSH1 0x0 PUSH32 0x30644E72E131A029B85045B68181585D2833E84879B9709143E1F593F0000001 DUP1 PUSH2 0x22B1 JUMPI PUSH2 0x22B0 PUSH2 0x572B JUMP JUMPDEST JUMPDEST DUP6 PUSH1 0x2 PUSH1 0x6 DUP2 LT PUSH2 0x22C5 JUMPI PUSH2 0x22C4 PUSH2 0x5126 JUMP JUMPDEST JUMPDEST PUSH1 0x20 MUL ADD MLOAD DUP7 PUSH1 0x1 PUSH1 0x6 DUP2 LT PUSH2 0x22DE JUMPI PUSH2 0x22DD PUSH2 0x5126 JUMP JUMPDEST JUMPDEST PUSH1 0x20 MUL ADD MLOAD MULMOD SWAP1 POP PUSH32 0x30644E72E131A029B85045B68181585D2833E84879B9709143E1F593F0000001 DUP1 PUSH2 0x2315 JUMPI PUSH2 0x2314 PUSH2 0x572B JUMP JUMPDEST JUMPDEST DUP2 DUP10 PUSH1 0x1 PUSH1 0x7 DUP2 LT PUSH2 0x232A JUMPI PUSH2 0x2329 PUSH2 0x5126 JUMP JUMPDEST JUMPDEST PUSH1 0x20 MUL ADD MLOAD MULMOD DUP3 PUSH1 0x0 PUSH1 0x8 DUP2 LT PUSH2 0x2344 JUMPI PUSH2 0x2343 PUSH2 0x5126 JUMP JUMPDEST JUMPDEST PUSH1 0x20 MUL ADD DUP2 DUP2 MSTORE POP POP PUSH32 0x30644E72E131A029B85045B68181585D2833E84879B9709143E1F593F0000001 DUP1 PUSH2 0x237C JUMPI PUSH2 0x237B PUSH2 0x572B JUMP JUMPDEST JUMPDEST DUP2 DUP10 PUSH1 0x2 PUSH1 0x7 DUP2 LT PUSH2 0x2391 JUMPI PUSH2 0x2390 PUSH2 0x5126 JUMP JUMPDEST JUMPDEST PUSH1 0x20 MUL ADD MLOAD MULMOD DUP3 PUSH1 0x1 PUSH1 0x8 DUP2 LT PUSH2 0x23AB JUMPI PUSH2 0x23AA PUSH2 0x5126 JUMP JUMPDEST JUMPDEST PUSH1 0x20 MUL ADD DUP2 DUP2 MSTORE POP POP PUSH32 0x30644E72E131A029B85045B68181585D2833E84879B9709143E1F593F0000001 DUP1 PUSH2 0x23E3 JUMPI PUSH2 0x23E2 PUSH2 0x572B JUMP JUMPDEST JUMPDEST DUP2 DUP10 PUSH1 0x3 PUSH1 0x7 DUP2 LT PUSH2 0x23F8 JUMPI PUSH2 0x23F7 PUSH2 0x5126 JUMP JUMPDEST JUMPDEST PUSH1 0x20 MUL ADD MLOAD MULMOD DUP3 PUSH1 0x2 PUSH1 0x8 DUP2 LT PUSH2 0x2412 JUMPI PUSH2 0x2411 PUSH2 0x5126 JUMP JUMPDEST JUMPDEST PUSH1 0x20 MUL ADD DUP2 DUP2 MSTORE POP POP POP PUSH1 0x0 PUSH32 0x30644E72E131A029B85045B68181585D2833E84879B9709143E1F593F0000001 DUP1 PUSH2 0x244D JUMPI PUSH2 0x244C PUSH2 0x572B JUMP JUMPDEST JUMPDEST DUP14 PUSH1 0xA0 ADD MLOAD PUSH1 0x1 DUP2 MLOAD DUP2 LT PUSH2 0x2465 JUMPI PUSH2 0x2464 PUSH2 0x5126 JUMP JUMPDEST JUMPDEST PUSH1 0x20 MUL PUSH1 0x20 ADD ADD MLOAD DUP10 PUSH1 0x5 PUSH1 0x7 DUP2 LT PUSH2 0x2481 JUMPI PUSH2 0x2480 PUSH2 0x5126 JUMP JUMPDEST JUMPDEST PUSH1 0x20 MUL ADD MLOAD MULMOD SWAP1 POP PUSH32 0x30644E72E131A029B85045B68181585D2833E84879B9709143E1F593F0000001 DUP1 PUSH2 0x24B8 JUMPI PUSH2 0x24B7 PUSH2 0x572B JUMP JUMPDEST JUMPDEST PUSH32 0x30644E72E131A029B85045B68181585D2833E84879B9709143E1F593F0000001 DUP1 PUSH2 0x24E7 JUMPI PUSH2 0x24E6 PUSH2 0x572B JUMP JUMPDEST JUMPDEST PUSH2 0x24F3 PUSH3 0x400000 PUSH2 0x4362 JUMP JUMPDEST DUP16 PUSH1 0xA0 ADD MLOAD PUSH1 0x2 DUP2 MLOAD DUP2 LT PUSH2 0x250B JUMPI PUSH2 0x250A PUSH2 0x5126 JUMP JUMPDEST JUMPDEST PUSH1 0x20 MUL PUSH1 0x20 ADD ADD MLOAD MULMOD DUP3 ADDMOD SWAP1 POP PUSH32 0x30644E72E131A029B85045B68181585D2833E84879B9709143E1F593F0000001 DUP1 PUSH2 0x2547 JUMPI PUSH2 0x2546 PUSH2 0x572B JUMP JUMPDEST JUMPDEST PUSH2 0x25D4 PUSH1 0x0 PUSH32 0x30644E72E131A029B85045B68181585D2833E84879B9709143E1F593F0000001 DUP1 PUSH2 0x257B JUMPI PUSH2 0x257A PUSH2 0x572B JUMP JUMPDEST JUMPDEST DUP12 PUSH1 0x0 PUSH1 0x7 DUP2 LT PUSH2 0x258F JUMPI PUSH2 0x258E PUSH2 0x5126 JUMP JUMPDEST JUMPDEST PUSH1 0x20 MUL ADD MLOAD DUP13 PUSH1 0x4 PUSH1 0x7 DUP2 LT PUSH2 0x25A8 JUMPI PUSH2 0x25A7 PUSH2 0x5126 JUMP JUMPDEST JUMPDEST PUSH1 0x20 MUL ADD MLOAD MULMOD PUSH32 0x30644E72E131A029B85045B68181585D2833E84879B9709143E1F593F0000001 PUSH2 0x412B JUMP JUMPDEST DUP3 MULMOD DUP3 PUSH1 0x3 PUSH1 0x8 DUP2 LT PUSH2 0x25EA JUMPI PUSH2 0x25E9 PUSH2 0x5126 JUMP JUMPDEST JUMPDEST PUSH1 0x20 MUL ADD DUP2 DUP2 MSTORE POP POP PUSH32 0x30644E72E131A029B85045B68181585D2833E84879B9709143E1F593F0000001 DUP1 PUSH2 0x2622 JUMPI PUSH2 0x2621 PUSH2 0x572B JUMP JUMPDEST JUMPDEST DUP9 PUSH1 0x0 PUSH1 0x7 DUP2 LT PUSH2 0x2636 JUMPI PUSH2 0x2635 PUSH2 0x5126 JUMP JUMPDEST JUMPDEST PUSH1 0x20 MUL ADD MLOAD DUP3 MULMOD DUP3 PUSH1 0x4 PUSH1 0x8 DUP2 LT PUSH2 0x2651 JUMPI PUSH2 0x2650 PUSH2 0x5126 JUMP JUMPDEST JUMPDEST PUSH1 0x20 MUL ADD DUP2 DUP2 MSTORE POP POP PUSH32 0x30644E72E131A029B85045B68181585D2833E84879B9709143E1F593F0000001 DUP1 PUSH2 0x2689 JUMPI PUSH2 0x2688 PUSH2 0x572B JUMP JUMPDEST JUMPDEST DUP9 PUSH1 0x4 PUSH1 0x7 DUP2 LT PUSH2 0x269D JUMPI PUSH2 0x269C PUSH2 0x5126 JUMP JUMPDEST JUMPDEST PUSH1 0x20 MUL ADD MLOAD DUP3 MULMOD DUP3 PUSH1 0x5 PUSH1 0x8 DUP2 LT PUSH2 0x26B8 JUMPI PUSH2 0x26B7 PUSH2 0x5126 JUMP JUMPDEST JUMPDEST PUSH1 0x20 MUL ADD DUP2 DUP2 MSTORE POP POP PUSH2 0x26ED PUSH1 0x0 DUP3 PUSH32 0x30644E72E131A029B85045B68181585D2833E84879B9709143E1F593F0000001 PUSH2 0x412B JUMP JUMPDEST DUP3 PUSH1 0x6 PUSH1 0x8 DUP2 LT PUSH2 0x2701 JUMPI PUSH2 0x2700 PUSH2 0x5126 JUMP JUMPDEST JUMPDEST PUSH1 0x20 MUL ADD DUP2 DUP2 MSTORE POP POP POP PUSH2 0x274F PUSH1 0x0 DUP6 PUSH1 0x5 PUSH1 0x6 DUP2 LT PUSH2 0x2724 JUMPI PUSH2 0x2723 PUSH2 0x5126 JUMP JUMPDEST JUMPDEST PUSH1 0x20 MUL ADD MLOAD PUSH32 0x30644E72E131A029B85045B68181585D2833E84879B9709143E1F593F0000001 PUSH2 0x412B JUMP JUMPDEST DUP2 PUSH1 0x7 PUSH1 0x8 DUP2 LT PUSH2 0x2763 JUMPI PUSH2 0x2762 PUSH2 0x5126 JUMP JUMPDEST JUMPDEST PUSH1 0x20 MUL ADD DUP2 DUP2 MSTORE POP POP PUSH2 0x27B6 DUP2 PUSH1 0x0 PUSH1 0x8 DUP2 LT PUSH2 0x2783 JUMPI PUSH2 0x2782 PUSH2 0x5126 JUMP JUMPDEST JUMPDEST PUSH1 0x20 MUL ADD MLOAD DUP12 PUSH1 0x0 ADD MLOAD PUSH1 0x2 DUP2 MLOAD DUP2 LT PUSH2 0x27A0 JUMPI PUSH2 0x279F PUSH2 0x5126 JUMP JUMPDEST JUMPDEST PUSH1 0x20 MUL PUSH1 0x20 ADD ADD MLOAD PUSH2 0x4153 SWAP1 SWAP2 SWAP1 PUSH4 0xFFFFFFFF AND JUMP JUMPDEST DUP3 PUSH1 0x1 PUSH1 0x2 DUP2 LT PUSH2 0x27CA JUMPI PUSH2 0x27C9 PUSH2 0x5126 JUMP JUMPDEST JUMPDEST PUSH1 0x20 MUL ADD DUP2 SWAP1 MSTORE POP PUSH2 0x2846 PUSH2 0x281F DUP3 PUSH1 0x1 PUSH1 0x8 DUP2 LT PUSH2 0x27EC JUMPI PUSH2 0x27EB PUSH2 0x5126 JUMP JUMPDEST JUMPDEST PUSH1 0x20 MUL ADD MLOAD DUP13 PUSH1 0x0 ADD MLOAD PUSH1 0x3 DUP2 MLOAD DUP2 LT PUSH2 0x2809 JUMPI PUSH2 0x2808 PUSH2 0x5126 JUMP JUMPDEST JUMPDEST PUSH1 0x20 MUL PUSH1 0x20 ADD ADD MLOAD PUSH2 0x4153 SWAP1 SWAP2 SWAP1 PUSH4 0xFFFFFFFF AND JUMP JUMPDEST DUP4 PUSH1 0x1 PUSH1 0x2 DUP2 LT PUSH2 0x2833 JUMPI PUSH2 0x2832 PUSH2 0x5126 JUMP JUMPDEST JUMPDEST PUSH1 0x20 MUL ADD MLOAD PUSH2 0x41F5 SWAP1 SWAP2 SWAP1 PUSH4 0xFFFFFFFF AND JUMP JUMPDEST DUP3 PUSH1 0x1 PUSH1 0x2 DUP2 LT PUSH2 0x285A JUMPI PUSH2 0x2859 PUSH2 0x5126 JUMP JUMPDEST JUMPDEST PUSH1 0x20 MUL ADD DUP2 SWAP1 MSTORE POP PUSH2 0x28D6 PUSH2 0x28AF DUP3 PUSH1 0x2 PUSH1 0x8 DUP2 LT PUSH2 0x287C JUMPI PUSH2 0x287B PUSH2 0x5126 JUMP JUMPDEST JUMPDEST PUSH1 0x20 MUL ADD MLOAD DUP13 PUSH1 0x0 ADD MLOAD PUSH1 0x4 DUP2 MLOAD DUP2 LT PUSH2 0x2899 JUMPI PUSH2 0x2898 PUSH2 0x5126 JUMP JUMPDEST JUMPDEST PUSH1 0x20 MUL PUSH1 0x20 ADD ADD MLOAD PUSH2 0x4153 SWAP1 SWAP2 SWAP1 PUSH4 0xFFFFFFFF AND JUMP JUMPDEST DUP4 PUSH1 0x1 PUSH1 0x2 DUP2 LT PUSH2 0x28C3 JUMPI PUSH2 0x28C2 PUSH2 0x5126 JUMP JUMPDEST JUMPDEST PUSH1 0x20 MUL ADD MLOAD PUSH2 0x41F5 SWAP1 SWAP2 SWAP1 PUSH4 0xFFFFFFFF AND JUMP JUMPDEST DUP3 PUSH1 0x1 PUSH1 0x2 DUP2 LT PUSH2 0x28EA JUMPI PUSH2 0x28E9 PUSH2 0x5126 JUMP JUMPDEST JUMPDEST PUSH1 0x20 MUL ADD DUP2 SWAP1 MSTORE POP PUSH2 0x2966 PUSH2 0x293F DUP3 PUSH1 0x4 PUSH1 0x8 DUP2 LT PUSH2 0x290C JUMPI PUSH2 0x290B PUSH2 0x5126 JUMP JUMPDEST JUMPDEST PUSH1 0x20 MUL ADD MLOAD DUP13 PUSH1 0x0 ADD MLOAD PUSH1 0x0 DUP2 MLOAD DUP2 LT PUSH2 0x2929 JUMPI PUSH2 0x2928 PUSH2 0x5126 JUMP JUMPDEST JUMPDEST PUSH1 0x20 MUL PUSH1 0x20 ADD ADD MLOAD PUSH2 0x4153 SWAP1 SWAP2 SWAP1 PUSH4 0xFFFFFFFF AND JUMP JUMPDEST DUP4 PUSH1 0x1 PUSH1 0x2 DUP2 LT PUSH2 0x2953 JUMPI PUSH2 0x2952 PUSH2 0x5126 JUMP JUMPDEST JUMPDEST PUSH1 0x20 MUL ADD MLOAD PUSH2 0x41F5 SWAP1 SWAP2 SWAP1 PUSH4 0xFFFFFFFF AND JUMP JUMPDEST DUP3 PUSH1 0x1 PUSH1 0x2 DUP2 LT PUSH2 0x297A JUMPI PUSH2 0x2979 PUSH2 0x5126 JUMP JUMPDEST JUMPDEST PUSH1 0x20 MUL ADD DUP2 SWAP1 MSTORE POP PUSH2 0x29F6 PUSH2 0x29CF DUP3 PUSH1 0x5 PUSH1 0x8 DUP2 LT PUSH2 0x299C JUMPI PUSH2 0x299B PUSH2 0x5126 JUMP JUMPDEST JUMPDEST PUSH1 0x20 MUL ADD MLOAD DUP13 PUSH1 0x0 ADD MLOAD PUSH1 0x1 DUP2 MLOAD DUP2 LT PUSH2 0x29B9 JUMPI PUSH2 0x29B8 PUSH2 0x5126 JUMP JUMPDEST JUMPDEST PUSH1 0x20 MUL PUSH1 0x20 ADD ADD MLOAD PUSH2 0x4153 SWAP1 SWAP2 SWAP1 PUSH4 0xFFFFFFFF AND JUMP JUMPDEST DUP4 PUSH1 0x1 PUSH1 0x2 DUP2 LT PUSH2 0x29E3 JUMPI PUSH2 0x29E2 PUSH2 0x5126 JUMP JUMPDEST JUMPDEST PUSH1 0x20 MUL ADD MLOAD PUSH2 0x41F5 SWAP1 SWAP2 SWAP1 PUSH4 0xFFFFFFFF AND JUMP JUMPDEST DUP3 PUSH1 0x1 PUSH1 0x2 DUP2 LT PUSH2 0x2A0A JUMPI PUSH2 0x2A09 PUSH2 0x5126 JUMP JUMPDEST JUMPDEST PUSH1 0x20 MUL ADD DUP2 SWAP1 MSTORE POP PUSH2 0x2A86 PUSH2 0x2A5F DUP3 PUSH1 0x6 PUSH1 0x8 DUP2 LT PUSH2 0x2A2C JUMPI PUSH2 0x2A2B PUSH2 0x5126 JUMP JUMPDEST JUMPDEST PUSH1 0x20 MUL ADD MLOAD DUP13 PUSH1 0x0 ADD MLOAD PUSH1 0x5 DUP2 MLOAD DUP2 LT PUSH2 0x2A49 JUMPI PUSH2 0x2A48 PUSH2 0x5126 JUMP JUMPDEST JUMPDEST PUSH1 0x20 MUL PUSH1 0x20 ADD ADD MLOAD PUSH2 0x4153 SWAP1 SWAP2 SWAP1 PUSH4 0xFFFFFFFF AND JUMP JUMPDEST DUP4 PUSH1 0x1 PUSH1 0x2 DUP2 LT PUSH2 0x2A73 JUMPI PUSH2 0x2A72 PUSH2 0x5126 JUMP JUMPDEST JUMPDEST PUSH1 0x20 MUL ADD MLOAD PUSH2 0x41F5 SWAP1 SWAP2 SWAP1 PUSH4 0xFFFFFFFF AND JUMP JUMPDEST DUP3 PUSH1 0x1 PUSH1 0x2 DUP2 LT PUSH2 0x2A9A JUMPI PUSH2 0x2A99 PUSH2 0x5126 JUMP JUMPDEST JUMPDEST PUSH1 0x20 MUL ADD DUP2 SWAP1 MSTORE POP PUSH2 0x2B16 PUSH2 0x2AEF DUP3 PUSH1 0x7 PUSH1 0x8 DUP2 LT PUSH2 0x2ABC JUMPI PUSH2 0x2ABB PUSH2 0x5126 JUMP JUMPDEST JUMPDEST PUSH1 0x20 MUL ADD MLOAD DUP15 PUSH1 0x60 ADD MLOAD PUSH1 0x1 DUP2 MLOAD DUP2 LT PUSH2 0x2AD9 JUMPI PUSH2 0x2AD8 PUSH2 0x5126 JUMP JUMPDEST JUMPDEST PUSH1 0x20 MUL PUSH1 0x20 ADD ADD MLOAD PUSH2 0x4153 SWAP1 SWAP2 SWAP1 PUSH4 0xFFFFFFFF AND JUMP JUMPDEST DUP4 PUSH1 0x1 PUSH1 0x2 DUP2 LT PUSH2 0x2B03 JUMPI PUSH2 0x2B02 PUSH2 0x5126 JUMP JUMPDEST JUMPDEST PUSH1 0x20 MUL ADD MLOAD PUSH2 0x41F5 SWAP1 SWAP2 SWAP1 PUSH4 0xFFFFFFFF AND JUMP JUMPDEST DUP3 PUSH1 0x1 PUSH1 0x2 DUP2 LT PUSH2 0x2B2A JUMPI PUSH2 0x2B29 PUSH2 0x5126 JUMP JUMPDEST JUMPDEST PUSH1 0x20 MUL ADD DUP2 SWAP1 MSTORE POP PUSH2 0x2B76 PUSH1 0x0 DUP3 PUSH1 0x3 PUSH1 0x8 DUP2 LT PUSH2 0x2B4B JUMPI PUSH2 0x2B4A PUSH2 0x5126 JUMP JUMPDEST JUMPDEST PUSH1 0x20 MUL ADD MLOAD PUSH32 0x30644E72E131A029B85045B68181585D2833E84879B9709143E1F593F0000001 PUSH2 0x412B JUMP JUMPDEST DUP4 PUSH1 0x1 PUSH1 0x2 DUP2 LT PUSH2 0x2B8A JUMPI PUSH2 0x2B89 PUSH2 0x5126 JUMP JUMPDEST JUMPDEST PUSH1 0x20 MUL ADD DUP2 DUP2 MSTORE POP POP POP DUP1 PUSH1 0x0 PUSH1 0x2 DUP2 LT PUSH2 0x2BA8 JUMPI PUSH2 0x2BA7 PUSH2 0x5126 JUMP JUMPDEST JUMPDEST PUSH1 0x20 MUL ADD MLOAD DUP6 PUSH1 0x1 PUSH1 0x2 DUP2 LT PUSH2 0x2BC1 JUMPI PUSH2 0x2BC0 PUSH2 0x5126 JUMP JUMPDEST JUMPDEST PUSH1 0x20 MUL ADD DUP2 SWAP1 MSTORE POP DUP2 PUSH1 0x0 PUSH1 0x2 DUP2 LT PUSH2 0x2BDD JUMPI PUSH2 0x2BDC PUSH2 0x5126 JUMP JUMPDEST JUMPDEST PUSH1 0x20 MUL ADD MLOAD DUP5 PUSH1 0x1 PUSH1 0x2 DUP2 LT PUSH2 0x2BF6 JUMPI PUSH2 0x2BF5 PUSH2 0x5126 JUMP JUMPDEST JUMPDEST PUSH1 0x20 MUL ADD DUP2 DUP2 MSTORE POP POP PUSH1 0x0 DUP7 PUSH1 0x6 PUSH1 0x7 DUP2 LT PUSH2 0x2C15 JUMPI PUSH2 0x2C14 PUSH2 0x5126 JUMP JUMPDEST JUMPDEST PUSH1 0x20 MUL ADD MLOAD SWAP1 POP PUSH1 0x0 PUSH2 0x2C6B PUSH2 0x2C58 PUSH2 0x2C53 DUP7 PUSH1 0x0 PUSH1 0x2 DUP2 LT PUSH2 0x2C3B JUMPI PUSH2 0x2C3A PUSH2 0x5126 JUMP JUMPDEST JUMPDEST PUSH1 0x20 MUL ADD MLOAD DUP15 PUSH1 0x60 ADD MLOAD PUSH2 0x4153 SWAP1 SWAP2 SWAP1 PUSH4 0xFFFFFFFF AND JUMP JUMPDEST PUSH2 0x42BD JUMP JUMPDEST DUP15 PUSH1 0x80 ADD MLOAD PUSH2 0x41F5 SWAP1 SWAP2 SWAP1 PUSH4 0xFFFFFFFF AND JUMP JUMPDEST SWAP1 POP PUSH2 0x2C80 DUP3 DUP3 PUSH2 0x4153 SWAP1 SWAP2 SWAP1 PUSH4 0xFFFFFFFF AND JUMP JUMPDEST SWAP1 POP PUSH2 0x2CAD DUP2 DUP9 PUSH1 0x1 PUSH1 0x2 DUP2 LT PUSH2 0x2C9A JUMPI PUSH2 0x2C99 PUSH2 0x5126 JUMP JUMPDEST JUMPDEST PUSH1 0x20 MUL ADD MLOAD PUSH2 0x41F5 SWAP1 SWAP2 SWAP1 PUSH4 0xFFFFFFFF AND JUMP JUMPDEST DUP8 PUSH1 0x1 PUSH1 0x2 DUP2 LT PUSH2 0x2CC1 JUMPI PUSH2 0x2CC0 PUSH2 0x5126 JUMP JUMPDEST JUMPDEST PUSH1 0x20 MUL ADD DUP2 SWAP1 MSTORE POP POP PUSH32 0x30644E72E131A029B85045B68181585D2833E84879B9709143E1F593F0000001 DUP1 PUSH2 0x2CF9 JUMPI PUSH2 0x2CF8 PUSH2 0x572B JUMP JUMPDEST JUMPDEST DUP8 PUSH1 0x6 PUSH1 0x7 DUP2 LT PUSH2 0x2D0D JUMPI PUSH2 0x2D0C PUSH2 0x5126 JUMP JUMPDEST JUMPDEST PUSH1 0x20 MUL ADD MLOAD DUP3 MULMOD SWAP1 POP PUSH2 0x2D6B PUSH2 0x2D44 DUP3 DUP5 PUSH1 0x1 PUSH1 0x2 DUP2 LT PUSH2 0x2D31 JUMPI PUSH2 0x2D30 PUSH2 0x5126 JUMP JUMPDEST JUMPDEST PUSH1 0x20 MUL ADD MLOAD PUSH2 0x4153 SWAP1 SWAP2 SWAP1 PUSH4 0xFFFFFFFF AND JUMP JUMPDEST DUP8 PUSH1 0x1 PUSH1 0x2 DUP2 LT PUSH2 0x2D58 JUMPI PUSH2 0x2D57 PUSH2 0x5126 JUMP JUMPDEST JUMPDEST PUSH1 0x20 MUL ADD MLOAD PUSH2 0x41F5 SWAP1 SWAP2 SWAP1 PUSH4 0xFFFFFFFF AND JUMP JUMPDEST DUP7 PUSH1 0x1 PUSH1 0x2 DUP2 LT PUSH2 0x2D7F JUMPI PUSH2 0x2D7E PUSH2 0x5126 JUMP JUMPDEST JUMPDEST PUSH1 0x20 MUL ADD DUP2 SWAP1 MSTORE POP PUSH32 0x30644E72E131A029B85045B68181585D2833E84879B9709143E1F593F0000001 DUP1 PUSH2 0x2DB6 JUMPI PUSH2 0x2DB5 PUSH2 0x572B JUMP JUMPDEST JUMPDEST PUSH32 0x30644E72E131A029B85045B68181585D2833E84879B9709143E1F593F0000001 DUP1 PUSH2 0x2DE5 JUMPI PUSH2 0x2DE4 PUSH2 0x572B JUMP JUMPDEST JUMPDEST DUP3 DUP6 PUSH1 0x1 PUSH1 0x2 DUP2 LT PUSH2 0x2DFA JUMPI PUSH2 0x2DF9 PUSH2 0x5126 JUMP JUMPDEST JUMPDEST PUSH1 0x20 MUL ADD MLOAD MULMOD DUP7 PUSH1 0x1 PUSH1 0x2 DUP2 LT PUSH2 0x2E14 JUMPI PUSH2 0x2E13 PUSH2 0x5126 JUMP JUMPDEST JUMPDEST PUSH1 0x20 MUL ADD MLOAD ADDMOD DUP6 PUSH1 0x1 PUSH1 0x2 DUP2 LT PUSH2 0x2E2E JUMPI PUSH2 0x2E2D PUSH2 0x5126 JUMP JUMPDEST JUMPDEST PUSH1 0x20 MUL ADD DUP2 DUP2 MSTORE POP POP POP POP POP POP PUSH1 0x0 DUP3 PUSH1 0x0 PUSH1 0x2 DUP2 LT PUSH2 0x2E51 JUMPI PUSH2 0x2E50 PUSH2 0x5126 JUMP JUMPDEST JUMPDEST PUSH1 0x20 MUL ADD MLOAD PUSH1 0x0 ADD MLOAD DUP4 PUSH1 0x0 PUSH1 0x2 DUP2 LT PUSH2 0x2E6E JUMPI PUSH2 0x2E6D PUSH2 0x5126 JUMP JUMPDEST JUMPDEST PUSH1 0x20 MUL ADD MLOAD PUSH1 0x20 ADD MLOAD DUP5 PUSH1 0x1 PUSH1 0x2 DUP2 LT PUSH2 0x2E8B JUMPI PUSH2 0x2E8A PUSH2 0x5126 JUMP JUMPDEST JUMPDEST PUSH1 0x20 MUL ADD MLOAD PUSH1 0x0 ADD MLOAD DUP6 PUSH1 0x1 PUSH1 0x2 DUP2 LT PUSH2 0x2EA8 JUMPI PUSH2 0x2EA7 PUSH2 0x5126 JUMP JUMPDEST JUMPDEST PUSH1 0x20 MUL ADD MLOAD PUSH1 0x20 ADD MLOAD DUP10 PUSH1 0x40 MLOAD PUSH1 0x20 ADD PUSH2 0x2EC6 SWAP6 SWAP5 SWAP4 SWAP3 SWAP2 SWAP1 PUSH2 0x57BD JUMP JUMPDEST PUSH1 0x40 MLOAD PUSH1 0x20 DUP2 DUP4 SUB SUB DUP2 MSTORE SWAP1 PUSH1 0x40 MSTORE DUP1 MLOAD SWAP1 PUSH1 0x20 ADD KECCAK256 PUSH1 0x0 SHR SWAP1 POP PUSH2 0x2EE9 PUSH2 0x4AAF JUMP JUMPDEST PUSH2 0x2EF1 PUSH2 0x49CC JUMP JUMPDEST PUSH2 0x2F4A PUSH2 0x2F23 DUP8 PUSH1 0x4 PUSH1 0x7 DUP2 LT PUSH2 0x2F0B JUMPI PUSH2 0x2F0A PUSH2 0x5126 JUMP JUMPDEST JUMPDEST PUSH1 0x20 MUL ADD MLOAD DUP14 PUSH1 0xC0 ADD MLOAD PUSH2 0x4153 SWAP1 SWAP2 SWAP1 PUSH4 0xFFFFFFFF AND JUMP JUMPDEST DUP7 PUSH1 0x0 PUSH1 0x2 DUP2 LT PUSH2 0x2F37 JUMPI PUSH2 0x2F36 PUSH2 0x5126 JUMP JUMPDEST JUMPDEST PUSH1 0x20 MUL ADD MLOAD PUSH2 0x41F5 SWAP1 SWAP2 SWAP1 PUSH4 0xFFFFFFFF AND JUMP JUMPDEST DUP2 PUSH1 0x0 PUSH1 0x2 DUP2 LT PUSH2 0x2F5E JUMPI PUSH2 0x2F5D PUSH2 0x5126 JUMP JUMPDEST JUMPDEST PUSH1 0x20 MUL ADD DUP2 SWAP1 MSTORE POP PUSH2 0x2FC0 PUSH2 0x2F99 DUP8 PUSH1 0x5 PUSH1 0x7 DUP2 LT PUSH2 0x2F80 JUMPI PUSH2 0x2F7F PUSH2 0x5126 JUMP JUMPDEST JUMPDEST PUSH1 0x20 MUL ADD MLOAD DUP14 PUSH2 0x100 ADD MLOAD PUSH2 0x4153 SWAP1 SWAP2 SWAP1 PUSH4 0xFFFFFFFF AND JUMP JUMPDEST DUP7 PUSH1 0x1 PUSH1 0x2 DUP2 LT PUSH2 0x2FAD JUMPI PUSH2 0x2FAC PUSH2 0x5126 JUMP JUMPDEST JUMPDEST PUSH1 0x20 MUL ADD MLOAD PUSH2 0x41F5 SWAP1 SWAP2 SWAP1 PUSH4 0xFFFFFFFF AND JUMP JUMPDEST DUP2 PUSH1 0x1 PUSH1 0x2 DUP2 LT PUSH2 0x2FD4 JUMPI PUSH2 0x2FD3 PUSH2 0x5126 JUMP JUMPDEST JUMPDEST PUSH1 0x20 MUL ADD DUP2 SWAP1 MSTORE POP PUSH2 0x3031 PUSH2 0x300A DUP5 DUP4 PUSH1 0x1 PUSH1 0x2 DUP2 LT PUSH2 0x2FF7 JUMPI PUSH2 0x2FF6 PUSH2 0x5126 JUMP JUMPDEST JUMPDEST PUSH1 0x20 MUL ADD MLOAD PUSH2 0x4153 SWAP1 SWAP2 SWAP1 PUSH4 0xFFFFFFFF AND JUMP JUMPDEST DUP3 PUSH1 0x0 PUSH1 0x2 DUP2 LT PUSH2 0x301E JUMPI PUSH2 0x301D PUSH2 0x5126 JUMP JUMPDEST JUMPDEST PUSH1 0x20 MUL ADD MLOAD PUSH2 0x41F5 SWAP1 SWAP2 SWAP1 PUSH4 0xFFFFFFFF AND JUMP JUMPDEST SWAP2 POP POP PUSH1 0x0 PUSH2 0x3064 PUSH2 0x3051 DUP5 DUP14 PUSH2 0x100 ADD MLOAD PUSH2 0x4153 SWAP1 SWAP2 SWAP1 PUSH4 0xFFFFFFFF AND JUMP JUMPDEST DUP13 PUSH1 0xC0 ADD MLOAD PUSH2 0x41F5 SWAP1 SWAP2 SWAP1 PUSH4 0xFFFFFFFF AND JUMP JUMPDEST SWAP1 POP PUSH1 0x0 PUSH32 0x30644E72E131A029B85045B68181585D2833E84879B9709143E1F593F0000001 DUP1 PUSH2 0x3097 JUMPI PUSH2 0x3096 PUSH2 0x572B JUMP JUMPDEST JUMPDEST PUSH32 0x30644E72E131A029B85045B68181585D2833E84879B9709143E1F593F0000001 DUP1 PUSH2 0x30C6 JUMPI PUSH2 0x30C5 PUSH2 0x572B JUMP JUMPDEST JUMPDEST DUP6 DUP8 PUSH1 0x1 PUSH1 0x2 DUP2 LT PUSH2 0x30DB JUMPI PUSH2 0x30DA PUSH2 0x5126 JUMP JUMPDEST JUMPDEST PUSH1 0x20 MUL ADD MLOAD MULMOD DUP7 PUSH1 0x0 PUSH1 0x2 DUP2 LT PUSH2 0x30F5 JUMPI PUSH2 0x30F4 PUSH2 0x5126 JUMP JUMPDEST JUMPDEST PUSH1 0x20 MUL ADD MLOAD ADDMOD SWAP1 POP PUSH2 0x3132 PUSH2 0x3123 PUSH2 0x311E DUP4 DUP14 PUSH1 0x20 ADD MLOAD PUSH1 0x0 ADD MLOAD PUSH2 0x4153 SWAP1 SWAP2 SWAP1 PUSH4 0xFFFFFFFF AND JUMP JUMPDEST PUSH2 0x42BD JUMP JUMPDEST DUP5 PUSH2 0x41F5 SWAP1 SWAP2 SWAP1 PUSH4 0xFFFFFFFF AND JUMP JUMPDEST SWAP3 POP PUSH2 0x316D PUSH2 0x315E PUSH2 0x3159 DUP15 PUSH1 0xE0 ADD MLOAD DUP14 PUSH1 0x20 ADD MLOAD PUSH1 0x20 ADD MLOAD PUSH2 0x4153 SWAP1 SWAP2 SWAP1 PUSH4 0xFFFFFFFF AND JUMP JUMPDEST PUSH2 0x42BD JUMP JUMPDEST DUP5 PUSH2 0x41F5 SWAP1 SWAP2 SWAP1 PUSH4 0xFFFFFFFF AND JUMP JUMPDEST SWAP3 POP PUSH1 0x0 PUSH2 0x3195 PUSH2 0x317D DUP5 PUSH2 0x42BD JUMP JUMPDEST DUP13 PUSH1 0x20 ADD MLOAD PUSH1 0x60 ADD MLOAD DUP7 DUP15 PUSH1 0x20 ADD MLOAD PUSH1 0x40 ADD MLOAD PUSH2 0x43B6 JUMP JUMPDEST SWAP1 POP DUP1 SWAP12 POP POP POP POP POP POP POP POP POP POP POP POP SWAP3 SWAP2 POP POP JUMP JUMPDEST PUSH2 0x31B3 PUSH2 0x4AC9 JUMP JUMPDEST PUSH1 0x6 PUSH8 0xFFFFFFFFFFFFFFFF DUP2 GT ISZERO PUSH2 0x31CE JUMPI PUSH2 0x31CD PUSH2 0x4BFA JUMP JUMPDEST JUMPDEST PUSH1 0x40 MLOAD SWAP1 DUP1 DUP3 MSTORE DUP1 PUSH1 0x20 MUL PUSH1 0x20 ADD DUP3 ADD PUSH1 0x40 MSTORE DUP1 ISZERO PUSH2 0x3207 JUMPI DUP2 PUSH1 0x20 ADD JUMPDEST PUSH2 0x31F4 PUSH2 0x4AAF JUMP JUMPDEST DUP2 MSTORE PUSH1 0x20 ADD SWAP1 PUSH1 0x1 SWAP1 SUB SWAP1 DUP2 PUSH2 0x31EC JUMPI SWAP1 POP JUMPDEST POP DUP2 PUSH1 0x0 ADD DUP2 SWAP1 MSTORE POP PUSH1 0x40 MLOAD DUP1 PUSH1 0x40 ADD PUSH1 0x40 MSTORE DUP1 PUSH32 0x9B7CA7F80643C00AB84C367DD7C014C411081ABA47FF8BBF7457267C07F343B DUP2 MSTORE PUSH1 0x20 ADD PUSH32 0x15C04B7215D4751A9A6BC65E67946D2FDF181E9910F766637B3513EEEC7BBBA3 DUP2 MSTORE POP DUP2 PUSH1 0x0 ADD MLOAD PUSH1 0x0 DUP2 MLOAD DUP2 LT PUSH2 0x327D JUMPI PUSH2 0x327C PUSH2 0x5126 JUMP JUMPDEST JUMPDEST PUSH1 0x20 MUL PUSH1 0x20 ADD ADD DUP2 SWAP1 MSTORE POP PUSH1 0x40 MLOAD DUP1 PUSH1 0x40 ADD PUSH1 0x40 MSTORE DUP1 PUSH32 0x12AF0AD30C32282C9F4CE44774750B781B798B92FC3B381C833E72D572AA693 DUP2 MSTORE PUSH1 0x20 ADD PUSH32 0x3630A6613A8C022FB5BDBF3B308F8F916B3459FCA0DC9882077D381A32228A3 DUP2 MSTORE POP DUP2 PUSH1 0x0 ADD MLOAD PUSH1 0x1 DUP2 MLOAD DUP2 LT PUSH2 0x32F5 JUMPI PUSH2 0x32F4 PUSH2 0x5126 JUMP JUMPDEST JUMPDEST PUSH1 0x20 MUL PUSH1 0x20 ADD ADD DUP2 SWAP1 MSTORE POP PUSH1 0x40 MLOAD DUP1 PUSH1 0x40 ADD PUSH1 0x40 MSTORE DUP1 PUSH32 0x1D498A57CC6793DE6FB1D584F495E4FD4DB43AEA1BE1F434D7F0EB448CDDA3E5 DUP2 MSTORE PUSH1 0x20 ADD PUSH32 0x28339407EFB26ECDBF7B7E8954E34519C3C25B2379B1161BD5901B6244980326 DUP2 MSTORE POP DUP2 PUSH1 0x0 ADD MLOAD PUSH1 0x2 DUP2 MLOAD DUP2 LT PUSH2 0x336D JUMPI PUSH2 0x336C PUSH2 0x5126 JUMP JUMPDEST JUMPDEST PUSH1 0x20 MUL PUSH1 0x20 ADD ADD DUP2 SWAP1 MSTORE POP PUSH1 0x40 MLOAD DUP1 PUSH1 0x40 ADD PUSH1 0x40 MSTORE DUP1 PUSH32 0x158A5ECDBEED3662AFDC09A7D106D8C6C3D126AA1BB7D16D6A61F9DE93521D9D DUP2 MSTORE PUSH1 0x20 ADD PUSH32 0xEE53295E6E55341ACEF6CEE34EAD48957B37B0175405743504FB902A8DF4559 DUP2 MSTORE POP DUP2 PUSH1 0x0 ADD MLOAD PUSH1 0x3 DUP2 MLOAD DUP2 LT PUSH2 0x33E5 JUMPI PUSH2 0x33E4 PUSH2 0x5126 JUMP JUMPDEST JUMPDEST PUSH1 0x20 MUL PUSH1 0x20 ADD ADD DUP2 SWAP1 MSTORE POP PUSH1 0x40 MLOAD DUP1 PUSH1 0x40 ADD PUSH1 0x40 MSTORE DUP1 PUSH32 0x569EA3A42F1262FB7A748AE8266C1CA0CEB11BD07E452F4B82DB7202E73B9CE DUP2 MSTORE PUSH1 0x20 ADD PUSH32 0x6E208EAADD0BBEC60ECE0121027C87E8B4D255293744044675A0821602034D0 DUP2 MSTORE POP DUP2 PUSH1 0x0 ADD MLOAD PUSH1 0x4 DUP2 MLOAD DUP2 LT PUSH2 0x345D JUMPI PUSH2 0x345C PUSH2 0x5126 JUMP JUMPDEST JUMPDEST PUSH1 0x20 MUL PUSH1 0x20 ADD ADD DUP2 SWAP1 MSTORE POP PUSH1 0x40 MLOAD DUP1 PUSH1 0x40 ADD PUSH1 0x40 MSTORE DUP1 PUSH32 0x2F5708E968910E2FDED925F63EF5E121F38E0FA4B8ABCA2A737B8D31D43EB933 DUP2 MSTORE PUSH1 0x20 ADD PUSH32 0xE9BC8402A0EFB9535FC4B9563F1075F821D67B7995AC69660DCC388CA14F7F8 DUP2 MSTORE POP DUP2 PUSH1 0x0 ADD MLOAD PUSH1 0x5 DUP2 MLOAD DUP2 LT PUSH2 0x34D5 JUMPI PUSH2 0x34D4 PUSH2 0x5126 JUMP JUMPDEST JUMPDEST PUSH1 0x20 MUL PUSH1 0x20 ADD ADD DUP2 SWAP1 MSTORE POP PUSH1 0x40 MLOAD DUP1 PUSH1 0x40 ADD PUSH1 0x40 MSTORE DUP1 PUSH32 0x2E26ADFE66FE7BA43AD7DE86E921214965C935513B6B3E117EED5C49529DF430 DUP2 MSTORE PUSH1 0x20 ADD PUSH32 0x1E1FF151BF133B24D3D2C0B48D615D280604465CD74BA599A1866D467390B43 DUP2 MSTORE POP DUP2 PUSH1 0x20 ADD MLOAD PUSH1 0x0 ADD DUP2 SWAP1 MSTORE POP PUSH1 0x40 MLOAD DUP1 PUSH1 0x40 ADD PUSH1 0x40 MSTORE DUP1 PUSH31 0x5A7CCBDFE61FFB88F26B9104952EE8397E682695AD98DE92E82EEBFFAEBD6B DUP2 MSTORE PUSH1 0x20 ADD PUSH32 0xB501F33DFA33901A68BE7F69F8B8EF8DA80DA7E7F798D18F41EAE84974EBDB4 DUP2 MSTORE POP DUP2 PUSH1 0x20 ADD MLOAD PUSH1 0x20 ADD DUP2 SWAP1 MSTORE POP PUSH1 0x40 MLOAD DUP1 PUSH1 0x40 ADD PUSH1 0x40 MSTORE DUP1 PUSH1 0x40 MLOAD DUP1 PUSH1 0x40 ADD PUSH1 0x40 MSTORE DUP1 PUSH32 0x1F0375C0049E79789E570A23999BD4A772C16BA004ED44E2AF28E0442B5F64F DUP2 MSTORE PUSH1 0x20 ADD PUSH32 0x18D327455B14BF79EA81F290FDB214AAD9CB99A819BD8530439AC5A5E280B522 DUP2 MSTORE POP DUP2 MSTORE PUSH1 0x20 ADD PUSH1 0x40 MLOAD DUP1 PUSH1 0x40 ADD PUSH1 0x40 MSTORE DUP1 PUSH32 0x12941B425AD951D75F3F356E0C64C213B05747F94F90DEB6485D53CF81581D4F DUP2 MSTORE PUSH1 0x20 ADD PUSH32 0x9A08D8DCFD5BA5D0C110A08A1DAE2E3E5FA0732E9476EC20873916D165CD9DB DUP2 MSTORE POP DUP2 MSTORE POP DUP2 PUSH1 0x20 ADD MLOAD PUSH1 0x40 ADD DUP2 SWAP1 MSTORE POP PUSH1 0x40 MLOAD DUP1 PUSH1 0x40 ADD PUSH1 0x40 MSTORE DUP1 PUSH1 0x40 MLOAD DUP1 PUSH1 0x40 ADD PUSH1 0x40 MSTORE DUP1 PUSH32 0x138372F9B5F3F2A2AFFBD51379D1C3BC18E68B0C068B5098AED5AF5E6AD5DB69 DUP2 MSTORE PUSH1 0x20 ADD PUSH32 0x15CF3F836B4AB57F52DDEAEA346E16576DB3818B91915BB8C958304DC88528F8 DUP2 MSTORE POP DUP2 MSTORE PUSH1 0x20 ADD PUSH1 0x40 MLOAD DUP1 PUSH1 0x40 ADD PUSH1 0x40 MSTORE DUP1 PUSH32 0x172393EB63B889F28FC573E54FA74D90F326B5BD34650CC8529177028E4E45F5 DUP2 MSTORE PUSH1 0x20 ADD PUSH32 0x24A46E6042E02AD7BE5FE45478DAC5216DEA2C02D94788D821401E6B5522E74B DUP2 MSTORE POP DUP2 MSTORE POP DUP2 PUSH1 0x20 ADD MLOAD PUSH1 0x60 ADD DUP2 SWAP1 MSTORE POP PUSH1 0x40 MLOAD DUP1 PUSH1 0x40 ADD PUSH1 0x40 MSTORE DUP1 PUSH32 0x1433C34C309BD1482FD0CD815C63FE5882A2B7D18753C5A5941AB119E3BF6EB3 DUP2 MSTORE PUSH1 0x20 ADD PUSH32 0x231F0BDBCF41E1BBBFAF7A664904CED941933A2B0686879C13825C315C821D31 DUP2 MSTORE POP DUP2 PUSH1 0x40 ADD DUP2 SWAP1 MSTORE POP PUSH1 0x40 MLOAD DUP1 PUSH1 0x40 ADD PUSH1 0x40 MSTORE DUP1 PUSH32 0xF76DEDD75EFF6DFC1F283967F6452ED091AED0908FD019D1E6B1B971688F0A1 DUP2 MSTORE PUSH1 0x20 ADD PUSH32 0x20D1BC3F70B453CDF04DE8900BFA3203A55213441524AD925CC4287D00677F73 DUP2 MSTORE POP DUP2 PUSH1 0x60 ADD DUP2 SWAP1 MSTORE POP SWAP1 JUMP JUMPDEST PUSH1 0x0 DUP2 SWAP1 POP PUSH1 0x8 PUSH31 0xFF00FF00FF00FF00FF00FF00FF00FF00FF00FF00FF00FF00FF00FF00FF00FF DUP3 AND SWAP1 SHL PUSH1 0x8 PUSH32 0xFF00FF00FF00FF00FF00FF00FF00FF00FF00FF00FF00FF00FF00FF00FF00FF00 DUP4 AND SWAP1 SHR OR SWAP1 POP PUSH1 0x10 PUSH30 0xFFFF0000FFFF0000FFFF0000FFFF0000FFFF0000FFFF0000FFFF0000FFFF DUP3 AND SWAP1 SHL PUSH1 0x10 PUSH32 0xFFFF0000FFFF0000FFFF0000FFFF0000FFFF0000FFFF0000FFFF0000FFFF0000 DUP4 AND SWAP1 SHR OR SWAP1 POP PUSH1 0x20 PUSH28 0xFFFFFFFF00000000FFFFFFFF00000000FFFFFFFF00000000FFFFFFFF DUP3 AND SWAP1 SHL PUSH1 0x20 PUSH32 0xFFFFFFFF00000000FFFFFFFF00000000FFFFFFFF00000000FFFFFFFF00000000 DUP4 AND SWAP1 SHR OR SWAP1 POP PUSH1 0x40 PUSH24 0xFFFFFFFFFFFFFFFF0000000000000000FFFFFFFFFFFFFFFF DUP3 AND SWAP1 SHL PUSH1 0x40 PUSH32 0xFFFFFFFFFFFFFFFF0000000000000000FFFFFFFFFFFFFFFF0000000000000000 DUP4 AND SWAP1 SHR OR SWAP1 POP PUSH1 0x80 DUP2 SWAP1 SHL PUSH1 0x80 DUP3 SWAP1 SHR OR SWAP1 POP SWAP2 SWAP1 POP JUMP JUMPDEST PUSH1 0x0 DUP1 JUMPDEST PUSH1 0x1 ISZERO PUSH2 0x3A34 JUMPI PUSH1 0x0 DUP1 PUSH1 0x0 SWAP1 POP JUMPDEST PUSH1 0x4 DUP2 LT ISZERO PUSH2 0x39C9 JUMPI PUSH1 0x40 DUP2 PUSH1 0x3 PUSH2 0x3967 SWAP2 SWAP1 PUSH2 0x5789 JUMP JUMPDEST PUSH2 0x3971 SWAP2 SWAP1 PUSH2 0x581C JUMP JUMPDEST PUSH8 0xFFFFFFFFFFFFFFFF DUP8 DUP8 PUSH1 0x40 MLOAD PUSH1 0x20 ADD PUSH2 0x398D SWAP3 SWAP2 SWAP1 PUSH2 0x58A4 JUMP JUMPDEST PUSH1 0x40 MLOAD PUSH1 0x20 DUP2 DUP4 SUB SUB DUP2 MSTORE SWAP1 PUSH1 0x40 MSTORE DUP1 MLOAD SWAP1 PUSH1 0x20 ADD KECCAK256 PUSH1 0x0 SHR AND SWAP1 SHL DUP3 OR SWAP2 POP PUSH1 0x1 DUP6 PUSH2 0x39BA SWAP2 SWAP1 PUSH2 0x58D0 JUMP JUMPDEST SWAP5 POP DUP1 DUP1 PUSH1 0x1 ADD SWAP2 POP POP PUSH2 0x394F JUMP JUMPDEST POP PUSH2 0x39D3 DUP2 PUSH2 0x37F0 JUMP JUMPDEST SWAP1 POP PUSH32 0x3FFFFFFFFFFFFFFFFFFFFFFFFFFFFFFFFFFFFFFFFFFFFFFFFFFFFFFFFFFFFFFF DUP2 AND SWAP1 POP PUSH32 0x30644E72E131A029B85045B68181585D2833E84879B9709143E1F593F0000001 DUP2 LT ISZERO PUSH2 0x3A2E JUMPI DUP1 DUP5 SWAP3 POP SWAP3 POP POP PUSH2 0x3A35 JUMP JUMPDEST POP PUSH2 0x3940 JUMP JUMPDEST JUMPDEST SWAP3 POP SWAP3 SWAP1 POP JUMP JUMPDEST PUSH1 0x0 PUSH2 0x3A94 PUSH2 0x3A6C DUP5 DUP5 PUSH32 0x30644E72E131A029B85045B68181585D2833E84879B9709143E1F593F0000001 PUSH2 0x44FF JUMP JUMPDEST PUSH1 0x1 PUSH32 0x30644E72E131A029B85045B68181585D2833E84879B9709143E1F593F0000001 PUSH2 0x412B JUMP JUMPDEST SWAP1 POP SWAP3 SWAP2 POP POP JUMP JUMPDEST PUSH1 0x0 PUSH2 0x3AA6 PUSH2 0x4A3D JUMP JUMPDEST PUSH2 0x3AAE PUSH2 0x4A3D JUMP JUMPDEST PUSH1 0x0 JUMPDEST PUSH1 0x4 DUP2 LT ISZERO PUSH2 0x3B53 JUMPI PUSH8 0xFFFFFFFFFFFFFFFF PUSH1 0x40 DUP3 PUSH2 0x3AD0 SWAP2 SWAP1 PUSH2 0x581C JUMP JUMPDEST DUP7 SWAP1 SHR AND DUP4 DUP3 PUSH1 0x4 DUP2 LT PUSH2 0x3AE7 JUMPI PUSH2 0x3AE6 PUSH2 0x5126 JUMP JUMPDEST JUMPDEST PUSH1 0x20 MUL ADD DUP2 DUP2 MSTORE POP POP PUSH8 0xFFFFFFFFFFFFFFFF PUSH1 0x40 DUP3 PUSH2 0x3B06 SWAP2 SWAP1 PUSH2 0x581C JUMP JUMPDEST PUSH32 0x30644E72E131A029B85045B68181585D2833E84879B9709143E1F593F0000001 SWAP1 SHR AND DUP3 DUP3 PUSH1 0x4 DUP2 LT PUSH2 0x3B3D JUMPI PUSH2 0x3B3C PUSH2 0x5126 JUMP JUMPDEST JUMPDEST PUSH1 0x20 MUL ADD DUP2 DUP2 MSTORE POP POP DUP1 DUP1 PUSH1 0x1 ADD SWAP2 POP POP PUSH2 0x3AB1 JUMP JUMPDEST POP PUSH1 0x0 JUMPDEST PUSH1 0x4 DUP2 LT ISZERO PUSH2 0x3CFA JUMPI PUSH1 0x0 PUSH9 0x10000000000000000 DUP1 PUSH2 0x3B7A JUMPI PUSH2 0x3B79 PUSH2 0x572B JUMP JUMPDEST JUMPDEST PUSH8 0xC2E1F593EFFFFFFF DUP6 DUP5 PUSH1 0x4 DUP2 LT PUSH2 0x3B96 JUMPI PUSH2 0x3B95 PUSH2 0x5126 JUMP JUMPDEST JUMPDEST PUSH1 0x20 MUL ADD MLOAD MULMOD SWAP1 POP PUSH1 0x0 PUSH1 0x40 DUP2 DUP6 PUSH1 0x0 PUSH1 0x4 DUP2 LT PUSH2 0x3BB7 JUMPI PUSH2 0x3BB6 PUSH2 0x5126 JUMP JUMPDEST JUMPDEST PUSH1 0x20 MUL ADD MLOAD DUP5 PUSH2 0x3BC7 SWAP2 SWAP1 PUSH2 0x581C JUMP JUMPDEST DUP8 DUP7 PUSH1 0x4 DUP2 LT PUSH2 0x3BDA JUMPI PUSH2 0x3BD9 PUSH2 0x5126 JUMP JUMPDEST JUMPDEST PUSH1 0x20 MUL ADD MLOAD PUSH2 0x3BE9 SWAP2 SWAP1 PUSH2 0x5908 JUMP JUMPDEST PUSH2 0x3BF3 SWAP2 SWAP1 PUSH2 0x5908 JUMP JUMPDEST SWAP1 SHR SWAP1 POP PUSH1 0x0 JUMPDEST PUSH1 0x4 DUP2 LT ISZERO PUSH2 0x3CC1 JUMPI PUSH1 0x0 DUP3 DUP7 DUP4 PUSH1 0x4 DUP2 LT PUSH2 0x3C19 JUMPI PUSH2 0x3C18 PUSH2 0x5126 JUMP JUMPDEST JUMPDEST PUSH1 0x20 MUL ADD MLOAD DUP6 PUSH2 0x3C29 SWAP2 SWAP1 PUSH2 0x581C JUMP JUMPDEST DUP9 PUSH1 0x4 DUP6 DUP10 PUSH2 0x3C38 SWAP2 SWAP1 PUSH2 0x5908 JUMP JUMPDEST PUSH2 0x3C42 SWAP2 SWAP1 PUSH2 0x593C JUMP JUMPDEST PUSH1 0x4 DUP2 LT PUSH2 0x3C53 JUMPI PUSH2 0x3C52 PUSH2 0x5126 JUMP JUMPDEST JUMPDEST PUSH1 0x20 MUL ADD MLOAD PUSH2 0x3C62 SWAP2 SWAP1 PUSH2 0x5908 JUMP JUMPDEST PUSH2 0x3C6C SWAP2 SWAP1 PUSH2 0x5908 JUMP JUMPDEST SWAP1 POP PUSH8 0xFFFFFFFFFFFFFFFF DUP2 AND DUP8 PUSH1 0x4 DUP5 DUP9 PUSH2 0x3C88 SWAP2 SWAP1 PUSH2 0x5908 JUMP JUMPDEST PUSH2 0x3C92 SWAP2 SWAP1 PUSH2 0x593C JUMP JUMPDEST PUSH1 0x4 DUP2 LT PUSH2 0x3CA3 JUMPI PUSH2 0x3CA2 PUSH2 0x5126 JUMP JUMPDEST JUMPDEST PUSH1 0x20 MUL ADD DUP2 DUP2 MSTORE POP POP PUSH1 0x40 DUP2 SWAP1 SHR SWAP3 POP POP DUP1 DUP1 PUSH1 0x1 ADD SWAP2 POP POP PUSH2 0x3BFA JUMP JUMPDEST POP DUP1 DUP6 PUSH1 0x4 DUP6 PUSH2 0x3CD1 SWAP2 SWAP1 PUSH2 0x593C JUMP JUMPDEST PUSH1 0x4 DUP2 LT PUSH2 0x3CE2 JUMPI PUSH2 0x3CE1 PUSH2 0x5126 JUMP JUMPDEST JUMPDEST PUSH1 0x20 MUL ADD DUP2 DUP2 MSTORE POP POP POP POP DUP1 DUP1 PUSH1 0x1 ADD SWAP2 POP POP PUSH2 0x3B57 JUMP JUMPDEST POP PUSH1 0x0 JUMPDEST PUSH1 0x4 DUP2 LT ISZERO PUSH2 0x3D49 JUMPI PUSH1 0x40 DUP2 PUSH2 0x3D14 SWAP2 SWAP1 PUSH2 0x581C JUMP JUMPDEST PUSH8 0xFFFFFFFFFFFFFFFF DUP5 DUP4 PUSH1 0x4 DUP2 LT PUSH2 0x3D30 JUMPI PUSH2 0x3D2F PUSH2 0x5126 JUMP JUMPDEST JUMPDEST PUSH1 0x20 MUL ADD MLOAD AND SWAP1 SHL DUP5 OR SWAP4 POP DUP1 DUP1 PUSH1 0x1 ADD SWAP2 POP POP PUSH2 0x3CFE JUMP JUMPDEST POP POP POP SWAP2 SWAP1 POP JUMP JUMPDEST PUSH1 0x0 DUP1 PUSH1 0x0 DUP1 PUSH1 0x0 SWAP1 POP JUMPDEST PUSH1 0x2 DUP2 LT ISZERO PUSH2 0x3DD6 JUMPI PUSH1 0x40 DUP2 PUSH1 0x3 PUSH2 0x3D74 SWAP2 SWAP1 PUSH2 0x5789 JUMP JUMPDEST PUSH2 0x3D7E SWAP2 SWAP1 PUSH2 0x581C JUMP JUMPDEST PUSH8 0xFFFFFFFFFFFFFFFF DUP8 DUP8 PUSH1 0x40 MLOAD PUSH1 0x20 ADD PUSH2 0x3D9A SWAP3 SWAP2 SWAP1 PUSH2 0x58A4 JUMP JUMPDEST PUSH1 0x40 MLOAD PUSH1 0x20 DUP2 DUP4 SUB SUB DUP2 MSTORE SWAP1 PUSH1 0x40 MSTORE DUP1 MLOAD SWAP1 PUSH1 0x20 ADD KECCAK256 PUSH1 0x0 SHR AND SWAP1 SHL DUP3 OR SWAP2 POP PUSH1 0x1 DUP6 PUSH2 0x3DC7 SWAP2 SWAP1 PUSH2 0x58D0 JUMP JUMPDEST SWAP5 POP DUP1 DUP1 PUSH1 0x1 ADD SWAP2 POP POP PUSH2 0x3D5C JUMP JUMPDEST POP PUSH2 0x3DE0 DUP2 PUSH2 0x37F0 JUMP JUMPDEST SWAP1 POP DUP1 DUP5 SWAP3 POP SWAP3 POP POP SWAP3 POP SWAP3 SWAP1 POP JUMP JUMPDEST PUSH1 0x0 DUP3 DUP5 SUB PUSH2 0x3DFE JUMPI PUSH1 0x0 DUP1 REVERT JUMPDEST PUSH1 0x0 PUSH2 0x3E3D PUSH2 0x3E0D DUP7 DUP6 PUSH2 0x3A3C JUMP JUMPDEST PUSH2 0x3E17 DUP7 DUP7 PUSH2 0x3A3C JUMP JUMPDEST PUSH32 0x30644E72E131A029B85045B68181585D2833E84879B9709143E1F593F0000001 PUSH2 0x412B JUMP JUMPDEST SWAP1 POP PUSH32 0x30644E72E131A029B85045B68181585D2833E84879B9709143E1F593F0000001 DUP1 PUSH2 0x3E6E JUMPI PUSH2 0x3E6D PUSH2 0x572B JUMP JUMPDEST JUMPDEST PUSH2 0x3EA1 PUSH2 0x3E9C DUP8 DUP8 PUSH32 0x30644E72E131A029B85045B68181585D2833E84879B9709143E1F593F0000001 PUSH2 0x412B JUMP JUMPDEST PUSH2 0x4362 JUMP JUMPDEST DUP3 MULMOD SWAP2 POP POP SWAP4 SWAP3 POP POP POP JUMP JUMPDEST PUSH2 0x3EB5 PUSH2 0x4B03 JUMP JUMPDEST PUSH2 0x3EBD PUSH2 0x4B03 JUMP JUMPDEST PUSH1 0x0 PUSH1 0x20 SWAP1 POP PUSH1 0x0 PUSH32 0x9C532C6306B93D29678200D47C0B2A99C18D51B838EEB1D3EED4C533BB512D0 SWAP1 POP PUSH1 0x0 PUSH2 0x3EF4 DUP7 DUP5 PUSH2 0x3A3C JUMP JUMPDEST SWAP1 POP PUSH1 0x0 PUSH2 0x3F01 DUP4 PUSH2 0x4362 JUMP JUMPDEST SWAP1 POP PUSH1 0x0 DUP3 SUB PUSH2 0x3F98 JUMPI PUSH1 0x0 PUSH1 0x1 SWAP1 POP PUSH1 0x0 JUMPDEST DUP6 DUP2 LT ISZERO PUSH2 0x3F91 JUMPI DUP9 DUP3 SUB PUSH2 0x3F50 JUMPI PUSH1 0x1 DUP8 DUP3 PUSH1 0x20 DUP2 LT PUSH2 0x3F38 JUMPI PUSH2 0x3F37 PUSH2 0x5126 JUMP JUMPDEST JUMPDEST PUSH1 0x20 MUL ADD DUP2 DUP2 MSTORE POP POP DUP7 SWAP8 POP POP POP POP POP POP POP POP PUSH2 0x4126 JUMP JUMPDEST PUSH32 0x30644E72E131A029B85045B68181585D2833E84879B9709143E1F593F0000001 DUP1 PUSH2 0x3F7F JUMPI PUSH2 0x3F7E PUSH2 0x572B JUMP JUMPDEST JUMPDEST DUP6 DUP4 MULMOD SWAP2 POP DUP1 DUP1 PUSH1 0x1 ADD SWAP2 POP POP PUSH2 0x3F14 JUMP JUMPDEST POP POP PUSH2 0x4120 JUMP JUMPDEST PUSH1 0x0 PUSH32 0x30644E72E131A029B85045B68181585D2833E84879B9709143E1F593F0000001 DUP1 PUSH2 0x3FC9 JUMPI PUSH2 0x3FC8 PUSH2 0x572B JUMP JUMPDEST JUMPDEST DUP6 PUSH2 0x3FD3 DUP6 PUSH2 0x4362 JUMP JUMPDEST MULMOD SWAP1 POP PUSH1 0x0 PUSH1 0x1 SWAP1 POP PUSH1 0x0 JUMPDEST DUP7 DUP2 LT ISZERO PUSH2 0x4110 JUMPI PUSH32 0x30644E72E131A029B85045B68181585D2833E84879B9709143E1F593F0000001 DUP1 PUSH2 0x4016 JUMPI PUSH2 0x4015 PUSH2 0x572B JUMP JUMPDEST JUMPDEST DUP4 PUSH2 0x4042 DUP13 DUP6 PUSH32 0x30644E72E131A029B85045B68181585D2833E84879B9709143E1F593F0000001 PUSH2 0x412B JUMP JUMPDEST MULMOD DUP9 DUP3 PUSH1 0x20 DUP2 LT PUSH2 0x4056 JUMPI PUSH2 0x4055 PUSH2 0x5126 JUMP JUMPDEST JUMPDEST PUSH1 0x20 MUL ADD DUP2 DUP2 MSTORE POP POP PUSH2 0x407F DUP9 DUP3 PUSH1 0x20 DUP2 LT PUSH2 0x4075 JUMPI PUSH2 0x4074 PUSH2 0x5126 JUMP JUMPDEST JUMPDEST PUSH1 0x20 MUL ADD MLOAD PUSH2 0x4362 JUMP JUMPDEST DUP9 DUP3 PUSH1 0x20 DUP2 LT PUSH2 0x4092 JUMPI PUSH2 0x4091 PUSH2 0x5126 JUMP JUMPDEST JUMPDEST PUSH1 0x20 MUL ADD DUP2 DUP2 MSTORE POP POP PUSH32 0x30644E72E131A029B85045B68181585D2833E84879B9709143E1F593F0000001 DUP1 PUSH2 0x40CA JUMPI PUSH2 0x40C9 PUSH2 0x572B JUMP JUMPDEST JUMPDEST DUP5 DUP5 MULMOD SWAP3 POP PUSH32 0x30644E72E131A029B85045B68181585D2833E84879B9709143E1F593F0000001 DUP1 PUSH2 0x40FE JUMPI PUSH2 0x40FD PUSH2 0x572B JUMP JUMPDEST JUMPDEST DUP7 DUP4 MULMOD SWAP2 POP DUP1 DUP1 PUSH1 0x1 ADD SWAP2 POP POP PUSH2 0x3FDF JUMP JUMPDEST POP DUP7 SWAP8 POP POP POP POP POP POP POP POP PUSH2 0x4126 JUMP JUMPDEST POP POP POP POP POP JUMPDEST SWAP2 SWAP1 POP JUMP JUMPDEST PUSH1 0x0 DUP2 DUP1 PUSH2 0x413C JUMPI PUSH2 0x413B PUSH2 0x572B JUMP JUMPDEST JUMPDEST DUP4 DUP4 PUSH2 0x4148 SWAP2 SWAP1 PUSH2 0x5789 JUMP JUMPDEST DUP6 ADDMOD SWAP1 POP SWAP4 SWAP3 POP POP POP JUMP JUMPDEST PUSH2 0x415B PUSH2 0x4AAF JUMP JUMPDEST PUSH2 0x4163 PUSH2 0x4B26 JUMP JUMPDEST DUP4 PUSH1 0x0 ADD MLOAD DUP2 PUSH1 0x0 PUSH1 0x3 DUP2 LT PUSH2 0x417C JUMPI PUSH2 0x417B PUSH2 0x5126 JUMP JUMPDEST JUMPDEST PUSH1 0x20 MUL ADD DUP2 DUP2 MSTORE POP POP DUP4 PUSH1 0x20 ADD MLOAD DUP2 PUSH1 0x1 PUSH1 0x3 DUP2 LT PUSH2 0x419E JUMPI PUSH2 0x419D PUSH2 0x5126 JUMP JUMPDEST JUMPDEST PUSH1 0x20 MUL ADD DUP2 DUP2 MSTORE POP POP DUP3 DUP2 PUSH1 0x2 PUSH1 0x3 DUP2 LT PUSH2 0x41BC JUMPI PUSH2 0x41BB PUSH2 0x5126 JUMP JUMPDEST JUMPDEST PUSH1 0x20 MUL ADD DUP2 DUP2 MSTORE POP POP PUSH1 0x0 PUSH1 0x60 DUP4 PUSH1 0x80 DUP5 PUSH1 0x7 PUSH2 0x7D0 GAS SUB STATICCALL SWAP1 POP DUP1 PUSH1 0x0 DUP2 SUB PUSH2 0x41E2 JUMPI INVALID JUMPDEST POP DUP1 PUSH2 0x41ED JUMPI PUSH1 0x0 DUP1 REVERT JUMPDEST POP POP SWAP3 SWAP2 POP POP JUMP JUMPDEST PUSH2 0x41FD PUSH2 0x4AAF JUMP JUMPDEST PUSH2 0x4205 PUSH2 0x4A3D JUMP JUMPDEST DUP4 PUSH1 0x0 ADD MLOAD DUP2 PUSH1 0x0 PUSH1 0x4 DUP2 LT PUSH2 0x421E JUMPI PUSH2 0x421D PUSH2 0x5126 JUMP JUMPDEST JUMPDEST PUSH1 0x20 MUL ADD DUP2 DUP2 MSTORE POP POP DUP4 PUSH1 0x20 ADD MLOAD DUP2 PUSH1 0x1 PUSH1 0x4 DUP2 LT PUSH2 0x4240 JUMPI PUSH2 0x423F PUSH2 0x5126 JUMP JUMPDEST JUMPDEST PUSH1 0x20 MUL ADD DUP2 DUP2 MSTORE POP POP DUP3 PUSH1 0x0 ADD MLOAD DUP2 PUSH1 0x2 PUSH1 0x4 DUP2 LT PUSH2 0x4262 JUMPI PUSH2 0x4261 PUSH2 0x5126 JUMP JUMPDEST JUMPDEST PUSH1 0x20 MUL ADD DUP2 DUP2 MSTORE POP POP DUP3 PUSH1 0x20 ADD MLOAD DUP2 PUSH1 0x3 PUSH1 0x4 DUP2 LT PUSH2 0x4284 JUMPI PUSH2 0x4283 PUSH2 0x5126 JUMP JUMPDEST JUMPDEST PUSH1 0x20 MUL ADD DUP2 DUP2 MSTORE POP POP PUSH1 0x0 PUSH1 0x60 DUP4 PUSH1 0xC0 DUP5 PUSH1 0x6 PUSH2 0x7D0 GAS SUB STATICCALL SWAP1 POP DUP1 PUSH1 0x0 DUP2 SUB PUSH2 0x42AA JUMPI INVALID JUMPDEST POP DUP1 PUSH2 0x42B5 JUMPI PUSH1 0x0 DUP1 REVERT JUMPDEST POP POP SWAP3 SWAP2 POP POP JUMP JUMPDEST PUSH2 0x42C5 PUSH2 0x4AAF JUMP JUMPDEST PUSH1 0x0 PUSH32 0x30644E72E131A029B85045B68181585D97816A916871CA8D3C208C16D87CFD47 SWAP1 POP PUSH1 0x0 DUP4 PUSH1 0x0 ADD MLOAD EQ DUP1 ISZERO PUSH2 0x4302 JUMPI POP PUSH1 0x0 DUP4 PUSH1 0x20 ADD MLOAD EQ JUMPDEST ISZERO PUSH2 0x4326 JUMPI PUSH1 0x40 MLOAD DUP1 PUSH1 0x40 ADD PUSH1 0x40 MSTORE DUP1 PUSH1 0x0 DUP2 MSTORE PUSH1 0x20 ADD PUSH1 0x0 DUP2 MSTORE POP SWAP2 POP POP PUSH2 0x435D JUMP JUMPDEST PUSH1 0x40 MLOAD DUP1 PUSH1 0x40 ADD PUSH1 0x40 MSTORE DUP1 DUP5 PUSH1 0x0 ADD MLOAD DUP2 MSTORE PUSH1 0x20 ADD DUP3 DUP6 PUSH1 0x20 ADD MLOAD PUSH2 0x434B SWAP2 SWAP1 PUSH2 0x593C JUMP JUMPDEST DUP4 PUSH2 0x4356 SWAP2 SWAP1 PUSH2 0x5789 JUMP JUMPDEST DUP2 MSTORE POP SWAP2 POP POP JUMPDEST SWAP2 SWAP1 POP JUMP JUMPDEST PUSH1 0x0 PUSH2 0x43AF DUP3 PUSH32 0x30644E72E131A029B85045B68181585D2833E84879B9709143E1F593EFFFFFFF PUSH32 0x30644E72E131A029B85045B68181585D2833E84879B9709143E1F593F0000001 PUSH2 0x44FF JUMP JUMPDEST SWAP1 POP SWAP2 SWAP1 POP JUMP JUMPDEST PUSH1 0x0 DUP1 PUSH1 0x2 PUSH8 0xFFFFFFFFFFFFFFFF DUP2 GT ISZERO PUSH2 0x43D4 JUMPI PUSH2 0x43D3 PUSH2 0x4BFA JUMP JUMPDEST JUMPDEST PUSH1 0x40 MLOAD SWAP1 DUP1 DUP3 MSTORE DUP1 PUSH1 0x20 MUL PUSH1 0x20 ADD DUP3 ADD PUSH1 0x40 MSTORE DUP1 ISZERO PUSH2 0x440D JUMPI DUP2 PUSH1 0x20 ADD JUMPDEST PUSH2 0x43FA PUSH2 0x4AAF JUMP JUMPDEST DUP2 MSTORE PUSH1 0x20 ADD SWAP1 PUSH1 0x1 SWAP1 SUB SWAP1 DUP2 PUSH2 0x43F2 JUMPI SWAP1 POP JUMPDEST POP SWAP1 POP PUSH1 0x0 PUSH1 0x2 PUSH8 0xFFFFFFFFFFFFFFFF DUP2 GT ISZERO PUSH2 0x442D JUMPI PUSH2 0x442C PUSH2 0x4BFA JUMP JUMPDEST JUMPDEST PUSH1 0x40 MLOAD SWAP1 DUP1 DUP3 MSTORE DUP1 PUSH1 0x20 MUL PUSH1 0x20 ADD DUP3 ADD PUSH1 0x40 MSTORE DUP1 ISZERO PUSH2 0x4466 JUMPI DUP2 PUSH1 0x20 ADD JUMPDEST PUSH2 0x4453 PUSH2 0x4B48 JUMP JUMPDEST DUP2 MSTORE PUSH1 0x20 ADD SWAP1 PUSH1 0x1 SWAP1 SUB SWAP1 DUP2 PUSH2 0x444B JUMPI SWAP1 POP JUMPDEST POP SWAP1 POP DUP7 DUP3 PUSH1 0x0 DUP2 MLOAD DUP2 LT PUSH2 0x447E JUMPI PUSH2 0x447D PUSH2 0x5126 JUMP JUMPDEST JUMPDEST PUSH1 0x20 MUL PUSH1 0x20 ADD ADD DUP2 SWAP1 MSTORE POP DUP5 DUP3 PUSH1 0x1 DUP2 MLOAD DUP2 LT PUSH2 0x449E JUMPI PUSH2 0x449D PUSH2 0x5126 JUMP JUMPDEST JUMPDEST PUSH1 0x20 MUL PUSH1 0x20 ADD ADD DUP2 SWAP1 MSTORE POP DUP6 DUP2 PUSH1 0x0 DUP2 MLOAD DUP2 LT PUSH2 0x44BE JUMPI PUSH2 0x44BD PUSH2 0x5126 JUMP JUMPDEST JUMPDEST PUSH1 0x20 MUL PUSH1 0x20 ADD ADD DUP2 SWAP1 MSTORE POP DUP4 DUP2 PUSH1 0x1 DUP2 MLOAD DUP2 LT PUSH2 0x44DE JUMPI PUSH2 0x44DD PUSH2 0x5126 JUMP JUMPDEST JUMPDEST PUSH1 0x20 MUL PUSH1 0x20 ADD ADD DUP2 SWAP1 MSTORE POP PUSH2 0x44F3 DUP3 DUP3 PUSH2 0x4614 JUMP JUMPDEST SWAP3 POP POP POP SWAP5 SWAP4 POP POP POP POP JUMP JUMPDEST PUSH1 0x0 DUP1 PUSH2 0x450A PUSH2 0x4B6E JUMP JUMPDEST PUSH2 0x4512 PUSH2 0x4A1B JUMP JUMPDEST PUSH1 0x20 DUP2 PUSH1 0x0 PUSH1 0x6 DUP2 LT PUSH2 0x4528 JUMPI PUSH2 0x4527 PUSH2 0x5126 JUMP JUMPDEST JUMPDEST PUSH1 0x20 MUL ADD DUP2 DUP2 MSTORE POP POP PUSH1 0x20 DUP2 PUSH1 0x1 PUSH1 0x6 DUP2 LT PUSH2 0x4547 JUMPI PUSH2 0x4546 PUSH2 0x5126 JUMP JUMPDEST JUMPDEST PUSH1 0x20 MUL ADD DUP2 DUP2 MSTORE POP POP PUSH1 0x20 DUP2 PUSH1 0x2 PUSH1 0x6 DUP2 LT PUSH2 0x4566 JUMPI PUSH2 0x4565 PUSH2 0x5126 JUMP JUMPDEST JUMPDEST PUSH1 0x20 MUL ADD DUP2 DUP2 MSTORE POP POP DUP7 DUP2 PUSH1 0x3 PUSH1 0x6 DUP2 LT PUSH2 0x4584 JUMPI PUSH2 0x4583 PUSH2 0x5126 JUMP JUMPDEST JUMPDEST PUSH1 0x20 MUL ADD DUP2 DUP2 MSTORE POP POP DUP6 DUP2 PUSH1 0x4 PUSH1 0x6 DUP2 LT PUSH2 0x45A2 JUMPI PUSH2 0x45A1 PUSH2 0x5126 JUMP JUMPDEST JUMPDEST PUSH1 0x20 MUL ADD DUP2 DUP2 MSTORE POP POP DUP5 DUP2 PUSH1 0x5 PUSH1 0x6 DUP2 LT PUSH2 0x45C0 JUMPI PUSH2 0x45BF PUSH2 0x5126 JUMP JUMPDEST JUMPDEST PUSH1 0x20 MUL ADD DUP2 DUP2 MSTORE POP POP PUSH1 0x20 DUP3 PUSH1 0xC0 DUP4 PUSH1 0x5 PUSH2 0x7D0 GAS SUB STATICCALL SWAP3 POP DUP3 PUSH1 0x0 DUP2 SUB PUSH2 0x45E4 JUMPI INVALID JUMPDEST POP DUP3 PUSH2 0x45EF JUMPI PUSH1 0x0 DUP1 REVERT JUMPDEST DUP2 PUSH1 0x0 PUSH1 0x1 DUP2 LT PUSH2 0x4603 JUMPI PUSH2 0x4602 PUSH2 0x5126 JUMP JUMPDEST JUMPDEST PUSH1 0x20 MUL ADD MLOAD SWAP4 POP POP POP POP SWAP4 SWAP3 POP POP POP JUMP JUMPDEST PUSH1 0x0 DUP2 MLOAD DUP4 MLOAD EQ PUSH2 0x4624 JUMPI PUSH1 0x0 DUP1 REVERT JUMPDEST PUSH1 0x0 DUP4 MLOAD SWAP1 POP PUSH1 0x0 PUSH1 0x6 DUP3 PUSH2 0x4639 SWAP2 SWAP1 PUSH2 0x581C JUMP JUMPDEST SWAP1 POP PUSH1 0x0 DUP2 PUSH8 0xFFFFFFFFFFFFFFFF DUP2 GT ISZERO PUSH2 0x4657 JUMPI PUSH2 0x4656 PUSH2 0x4BFA JUMP JUMPDEST JUMPDEST PUSH1 0x40 MLOAD SWAP1 DUP1 DUP3 MSTORE DUP1 PUSH1 0x20 MUL PUSH1 0x20 ADD DUP3 ADD PUSH1 0x40 MSTORE DUP1 ISZERO PUSH2 0x4685 JUMPI DUP2 PUSH1 0x20 ADD PUSH1 0x20 DUP3 MUL DUP1 CALLDATASIZE DUP4 CALLDATACOPY DUP1 DUP3 ADD SWAP2 POP POP SWAP1 POP JUMPDEST POP SWAP1 POP PUSH1 0x0 JUMPDEST DUP4 DUP2 LT ISZERO PUSH2 0x4904 JUMPI DUP7 DUP2 DUP2 MLOAD DUP2 LT PUSH2 0x46A6 JUMPI PUSH2 0x46A5 PUSH2 0x5126 JUMP JUMPDEST JUMPDEST PUSH1 0x20 MUL PUSH1 0x20 ADD ADD MLOAD PUSH1 0x0 ADD MLOAD DUP3 PUSH1 0x0 PUSH1 0x6 DUP5 PUSH2 0x46C2 SWAP2 SWAP1 PUSH2 0x581C JUMP JUMPDEST PUSH2 0x46CC SWAP2 SWAP1 PUSH2 0x5908 JUMP JUMPDEST DUP2 MLOAD DUP2 LT PUSH2 0x46DD JUMPI PUSH2 0x46DC PUSH2 0x5126 JUMP JUMPDEST JUMPDEST PUSH1 0x20 MUL PUSH1 0x20 ADD ADD DUP2 DUP2 MSTORE POP POP DUP7 DUP2 DUP2 MLOAD DUP2 LT PUSH2 0x46FC JUMPI PUSH2 0x46FB PUSH2 0x5126 JUMP JUMPDEST JUMPDEST PUSH1 0x20 MUL PUSH1 0x20 ADD ADD MLOAD PUSH1 0x20 ADD MLOAD DUP3 PUSH1 0x1 PUSH1 0x6 DUP5 PUSH2 0x4718 SWAP2 SWAP1 PUSH2 0x581C JUMP JUMPDEST PUSH2 0x4722 SWAP2 SWAP1 PUSH2 0x5908 JUMP JUMPDEST DUP2 MLOAD DUP2 LT PUSH2 0x4733 JUMPI PUSH2 0x4732 PUSH2 0x5126 JUMP JUMPDEST JUMPDEST PUSH1 0x20 MUL PUSH1 0x20 ADD ADD DUP2 DUP2 MSTORE POP POP DUP6 DUP2 DUP2 MLOAD DUP2 LT PUSH2 0x4752 JUMPI PUSH2 0x4751 PUSH2 0x5126 JUMP JUMPDEST JUMPDEST PUSH1 0x20 MUL PUSH1 0x20 ADD ADD MLOAD PUSH1 0x0 ADD MLOAD PUSH1 0x1 PUSH1 0x2 DUP2 LT PUSH2 0x4771 JUMPI PUSH2 0x4770 PUSH2 0x5126 JUMP JUMPDEST JUMPDEST PUSH1 0x20 MUL ADD MLOAD DUP3 PUSH1 0x2 PUSH1 0x6 DUP5 PUSH2 0x4786 SWAP2 SWAP1 PUSH2 0x581C JUMP JUMPDEST PUSH2 0x4790 SWAP2 SWAP1 PUSH2 0x5908 JUMP JUMPDEST DUP2 MLOAD DUP2 LT PUSH2 0x47A1 JUMPI PUSH2 0x47A0 PUSH2 0x5126 JUMP JUMPDEST JUMPDEST PUSH1 0x20 MUL PUSH1 0x20 ADD ADD DUP2 DUP2 MSTORE POP POP DUP6 DUP2 DUP2 MLOAD DUP2 LT PUSH2 0x47C0 JUMPI PUSH2 0x47BF PUSH2 0x5126 JUMP JUMPDEST JUMPDEST PUSH1 0x20 MUL PUSH1 0x20 ADD ADD MLOAD PUSH1 0x0 ADD MLOAD PUSH1 0x0 PUSH1 0x2 DUP2 LT PUSH2 0x47DF JUMPI PUSH2 0x47DE PUSH2 0x5126 JUMP JUMPDEST JUMPDEST PUSH1 0x20 MUL ADD MLOAD DUP3 PUSH1 0x3 PUSH1 0x6 DUP5 PUSH2 0x47F4 SWAP2 SWAP1 PUSH2 0x581C JUMP JUMPDEST PUSH2 0x47FE SWAP2 SWAP1 PUSH2 0x5908 JUMP JUMPDEST DUP2 MLOAD DUP2 LT PUSH2 0x480F JUMPI PUSH2 0x480E PUSH2 0x5126 JUMP JUMPDEST JUMPDEST PUSH1 0x20 MUL PUSH1 0x20 ADD ADD DUP2 DUP2 MSTORE POP POP DUP6 DUP2 DUP2 MLOAD DUP2 LT PUSH2 0x482E JUMPI PUSH2 0x482D PUSH2 0x5126 JUMP JUMPDEST JUMPDEST PUSH1 0x20 MUL PUSH1 0x20 ADD ADD MLOAD PUSH1 0x20 ADD MLOAD PUSH1 0x1 PUSH1 0x2 DUP2 LT PUSH2 0x484D JUMPI PUSH2 0x484C PUSH2 0x5126 JUMP JUMPDEST JUMPDEST PUSH1 0x20 MUL ADD MLOAD DUP3 PUSH1 0x4 PUSH1 0x6 DUP5 PUSH2 0x4862 SWAP2 SWAP1 PUSH2 0x581C JUMP JUMPDEST PUSH2 0x486C SWAP2 SWAP1 PUSH2 0x5908 JUMP JUMPDEST DUP2 MLOAD DUP2 LT PUSH2 0x487D JUMPI PUSH2 0x487C PUSH2 0x5126 JUMP JUMPDEST JUMPDEST PUSH1 0x20 MUL PUSH1 0x20 ADD ADD DUP2 DUP2 MSTORE POP POP DUP6 DUP2 DUP2 MLOAD DUP2 LT PUSH2 0x489C JUMPI PUSH2 0x489B PUSH2 0x5126 JUMP JUMPDEST JUMPDEST PUSH1 0x20 MUL PUSH1 0x20 ADD ADD MLOAD PUSH1 0x20 ADD MLOAD PUSH1 0x0 PUSH1 0x2 DUP2 LT PUSH2 0x48BB JUMPI PUSH2 0x48BA PUSH2 0x5126 JUMP JUMPDEST JUMPDEST PUSH1 0x20 MUL ADD MLOAD DUP3 PUSH1 0x5 PUSH1 0x6 DUP5 PUSH2 0x48D0 SWAP2 SWAP1 PUSH2 0x581C JUMP JUMPDEST PUSH2 0x48DA SWAP2 SWAP1 PUSH2 0x5908 JUMP JUMPDEST DUP2 MLOAD DUP2 LT PUSH2 0x48EB JUMPI PUSH2 0x48EA PUSH2 0x5126 JUMP JUMPDEST JUMPDEST PUSH1 0x20 MUL PUSH1 0x20 ADD ADD DUP2 DUP2 MSTORE POP POP DUP1 DUP1 PUSH1 0x1 ADD SWAP2 POP POP PUSH2 0x468B JUMP JUMPDEST POP PUSH2 0x490D PUSH2 0x4B6E JUMP JUMPDEST PUSH1 0x0 PUSH1 0x20 DUP3 PUSH1 0x20 DUP7 MUL PUSH1 0x20 DUP7 ADD PUSH1 0x8 PUSH2 0x7D0 GAS SUB STATICCALL SWAP1 POP DUP1 PUSH1 0x0 DUP2 SUB PUSH2 0x492F JUMPI INVALID JUMPDEST POP DUP1 PUSH2 0x493A JUMPI PUSH1 0x0 DUP1 REVERT JUMPDEST PUSH1 0x0 DUP3 PUSH1 0x0 PUSH1 0x1 DUP2 LT PUSH2 0x4950 JUMPI PUSH2 0x494F PUSH2 0x5126 JUMP JUMPDEST JUMPDEST PUSH1 0x20 MUL ADD MLOAD EQ ISZERO SWAP6 POP POP POP POP POP POP SWAP3 SWAP2 POP POP JUMP JUMPDEST PUSH1 0x40 MLOAD DUP1 PUSH2 0x3E0 ADD PUSH1 0x40 MSTORE DUP1 PUSH1 0x1F SWAP1 PUSH1 0x20 DUP3 MUL DUP1 CALLDATASIZE DUP4 CALLDATACOPY DUP1 DUP3 ADD SWAP2 POP POP SWAP1 POP POP SWAP1 JUMP JUMPDEST PUSH1 0x40 MLOAD DUP1 PUSH2 0x320 ADD PUSH1 0x40 MSTORE DUP1 PUSH1 0x19 SWAP1 PUSH1 0x20 DUP3 MUL DUP1 CALLDATASIZE DUP4 CALLDATACOPY DUP1 DUP3 ADD SWAP2 POP POP SWAP1 POP POP SWAP1 JUMP JUMPDEST PUSH1 0x40 MLOAD DUP1 PUSH1 0xE0 ADD PUSH1 0x40 MSTORE DUP1 PUSH1 0x7 SWAP1 PUSH1 0x20 DUP3 MUL DUP1 CALLDATASIZE DUP4 CALLDATACOPY DUP1 DUP3 ADD SWAP2 POP POP SWAP1 POP POP SWAP1 JUMP JUMPDEST PUSH1 0x40 MLOAD DUP1 PUSH1 0x40 ADD PUSH1 0x40 MSTORE DUP1 PUSH1 0x2 SWAP1 JUMPDEST PUSH2 0x49E3 PUSH2 0x4AAF JUMP JUMPDEST DUP2 MSTORE PUSH1 0x20 ADD SWAP1 PUSH1 0x1 SWAP1 SUB SWAP1 DUP2 PUSH2 0x49DB JUMPI SWAP1 POP POP SWAP1 JUMP JUMPDEST PUSH1 0x40 MLOAD DUP1 PUSH1 0x40 ADD PUSH1 0x40 MSTORE DUP1 PUSH1 0x2 SWAP1 PUSH1 0x20 DUP3 MUL DUP1 CALLDATASIZE DUP4 CALLDATACOPY DUP1 DUP3 ADD SWAP2 POP POP SWAP1 POP POP SWAP1 JUMP JUMPDEST PUSH1 0x40 MLOAD DUP1 PUSH1 0xC0 ADD PUSH1 0x40 MSTORE DUP1 PUSH1 0x6 SWAP1 PUSH1 0x20 DUP3 MUL DUP1 CALLDATASIZE DUP4 CALLDATACOPY DUP1 DUP3 ADD SWAP2 POP POP SWAP1 POP POP SWAP1 JUMP JUMPDEST PUSH1 0x40 MLOAD DUP1 PUSH1 0x80 ADD PUSH1 0x40 MSTORE DUP1 PUSH1 0x4 SWAP1 PUSH1 0x20 DUP3 MUL DUP1 CALLDATASIZE DUP4 CALLDATACOPY DUP1 DUP3 ADD SWAP2 POP POP SWAP1 POP POP SWAP1 JUMP JUMPDEST PUSH1 0x40 MLOAD DUP1 PUSH1 0x80 ADD PUSH1 0x40 MSTORE DUP1 PUSH1 0x4 SWAP1 JUMPDEST PUSH2 0x4A76 PUSH2 0x4AAF JUMP JUMPDEST DUP2 MSTORE PUSH1 0x20 ADD SWAP1 PUSH1 0x1 SWAP1 SUB SWAP1 DUP2 PUSH2 0x4A6E JUMPI SWAP1 POP POP SWAP1 JUMP JUMPDEST PUSH1 0x40 MLOAD DUP1 PUSH2 0x100 ADD PUSH1 0x40 MSTORE DUP1 PUSH1 0x8 SWAP1 PUSH1 0x20 DUP3 MUL DUP1 CALLDATASIZE DUP4 CALLDATACOPY DUP1 DUP3 ADD SWAP2 POP POP SWAP1 POP POP SWAP1 JUMP JUMPDEST PUSH1 0x40 MLOAD DUP1 PUSH1 0x40 ADD PUSH1 0x40 MSTORE DUP1 PUSH1 0x0 DUP2 MSTORE PUSH1 0x20 ADD PUSH1 0x0 DUP2 MSTORE POP SWAP1 JUMP JUMPDEST PUSH1 0x40 MLOAD DUP1 PUSH1 0x80 ADD PUSH1 0x40 MSTORE DUP1 PUSH1 0x60 DUP2 MSTORE PUSH1 0x20 ADD PUSH2 0x4AE3 PUSH2 0x4B90 JUMP JUMPDEST DUP2 MSTORE PUSH1 0x20 ADD PUSH2 0x4AF0 PUSH2 0x4AAF JUMP JUMPDEST DUP2 MSTORE PUSH1 0x20 ADD PUSH2 0x4AFD PUSH2 0x4AAF JUMP JUMPDEST DUP2 MSTORE POP SWAP1 JUMP JUMPDEST PUSH1 0x40 MLOAD DUP1 PUSH2 0x400 ADD PUSH1 0x40 MSTORE DUP1 PUSH1 0x20 SWAP1 PUSH1 0x20 DUP3 MUL DUP1 CALLDATASIZE DUP4 CALLDATACOPY DUP1 DUP3 ADD SWAP2 POP POP SWAP1 POP POP SWAP1 JUMP JUMPDEST PUSH1 0x40 MLOAD DUP1 PUSH1 0x60 ADD PUSH1 0x40 MSTORE DUP1 PUSH1 0x3 SWAP1 PUSH1 0x20 DUP3 MUL DUP1 CALLDATASIZE DUP4 CALLDATACOPY DUP1 DUP3 ADD SWAP2 POP POP SWAP1 POP POP SWAP1 JUMP JUMPDEST PUSH1 0x40 MLOAD DUP1 PUSH1 0x40 ADD PUSH1 0x40 MSTORE DUP1 PUSH2 0x4B5B PUSH2 0x49F9 JUMP JUMPDEST DUP2 MSTORE PUSH1 0x20 ADD PUSH2 0x4B68 PUSH2 0x49F9 JUMP JUMPDEST DUP2 MSTORE POP SWAP1 JUMP JUMPDEST PUSH1 0x40 MLOAD DUP1 PUSH1 0x20 ADD PUSH1 0x40 MSTORE DUP1 PUSH1 0x1 SWAP1 PUSH1 0x20 DUP3 MUL DUP1 CALLDATASIZE DUP4 CALLDATACOPY DUP1 DUP3 ADD SWAP2 POP POP SWAP1 POP POP SWAP1 JUMP JUMPDEST PUSH1 0x40 MLOAD DUP1 PUSH1 0x80 ADD PUSH1 0x40 MSTORE DUP1 PUSH2 0x4BA3 PUSH2 0x4AAF JUMP JUMPDEST DUP2 MSTORE PUSH1 0x20 ADD PUSH2 0x4BB0 PUSH2 0x4AAF JUMP JUMPDEST DUP2 MSTORE PUSH1 0x20 ADD PUSH2 0x4BBD PUSH2 0x4B48 JUMP JUMPDEST DUP2 MSTORE PUSH1 0x20 ADD PUSH2 0x4BCA PUSH2 0x4B48 JUMP JUMPDEST DUP2 MSTORE POP SWAP1 JUMP JUMPDEST PUSH1 0x0 PUSH1 0x40 MLOAD SWAP1 POP SWAP1 JUMP JUMPDEST PUSH1 0x0 DUP1 REVERT JUMPDEST PUSH1 0x0 DUP1 REVERT JUMPDEST PUSH1 0x0 DUP1 REVERT JUMPDEST PUSH1 0x0 PUSH1 0x1F NOT PUSH1 0x1F DUP4 ADD AND SWAP1 POP SWAP2 SWAP1 POP JUMP JUMPDEST PUSH32 0x4E487B7100000000000000000000000000000000000000000000000000000000 PUSH1 0x0 MSTORE PUSH1 0x41 PUSH1 0x4 MSTORE PUSH1 0x24 PUSH1 0x0 REVERT JUMPDEST PUSH2 0x4C32 DUP3 PUSH2 0x4BE9 JUMP JUMPDEST DUP2 ADD DUP2 DUP2 LT PUSH8 0xFFFFFFFFFFFFFFFF DUP3 GT OR ISZERO PUSH2 0x4C51 JUMPI PUSH2 0x4C50 PUSH2 0x4BFA JUMP JUMPDEST JUMPDEST DUP1 PUSH1 0x40 MSTORE POP POP POP JUMP JUMPDEST PUSH1 0x0 PUSH2 0x4C64 PUSH2 0x4BD0 JUMP JUMPDEST SWAP1 POP PUSH2 0x4C70 DUP3 DUP3 PUSH2 0x4C29 JUMP JUMPDEST SWAP2 SWAP1 POP JUMP JUMPDEST PUSH1 0x0 DUP1 REVERT JUMPDEST PUSH1 0x0 DUP1 REVERT JUMPDEST PUSH1 0x0 PUSH8 0xFFFFFFFFFFFFFFFF DUP3 GT ISZERO PUSH2 0x4C9A JUMPI PUSH2 0x4C99 PUSH2 0x4BFA JUMP JUMPDEST JUMPDEST PUSH1 0x20 DUP3 MUL SWAP1 POP PUSH1 0x20 DUP2 ADD SWAP1 POP SWAP2 SWAP1 POP JUMP JUMPDEST PUSH1 0x0 DUP1 REVERT JUMPDEST PUSH1 0x0 DUP2 SWAP1 POP SWAP2 SWAP1 POP JUMP JUMPDEST PUSH2 0x4CC3 DUP2 PUSH2 0x4CB0 JUMP JUMPDEST DUP2 EQ PUSH2 0x4CCE JUMPI PUSH1 0x0 DUP1 REVERT JUMPDEST POP JUMP JUMPDEST PUSH1 0x0 DUP2 CALLDATALOAD SWAP1 POP PUSH2 0x4CE0 DUP2 PUSH2 0x4CBA JUMP JUMPDEST SWAP3 SWAP2 POP POP JUMP JUMPDEST PUSH1 0x0 PUSH1 0x40 DUP3 DUP5 SUB SLT ISZERO PUSH2 0x4CFC JUMPI PUSH2 0x4CFB PUSH2 0x4BE4 JUMP JUMPDEST JUMPDEST PUSH2 0x4D06 PUSH1 0x40 PUSH2 0x4C5A JUMP JUMPDEST SWAP1 POP PUSH1 0x0 PUSH2 0x4D16 DUP5 DUP3 DUP6 ADD PUSH2 0x4CD1 JUMP JUMPDEST PUSH1 0x0 DUP4 ADD MSTORE POP PUSH1 0x20 PUSH2 0x4D2A DUP5 DUP3 DUP6 ADD PUSH2 0x4CD1 JUMP JUMPDEST PUSH1 0x20 DUP4 ADD MSTORE POP SWAP3 SWAP2 POP POP JUMP JUMPDEST PUSH1 0x0 PUSH2 0x4D49 PUSH2 0x4D44 DUP5 PUSH2 0x4C7F JUMP JUMPDEST PUSH2 0x4C5A JUMP JUMPDEST SWAP1 POP DUP1 DUP4 DUP3 MSTORE PUSH1 0x20 DUP3 ADD SWAP1 POP PUSH1 0x40 DUP5 MUL DUP4 ADD DUP6 DUP2 GT ISZERO PUSH2 0x4D6C JUMPI PUSH2 0x4D6B PUSH2 0x4CAB JUMP JUMPDEST JUMPDEST DUP4 JUMPDEST DUP2 DUP2 LT ISZERO PUSH2 0x4D95 JUMPI DUP1 PUSH2 0x4D81 DUP9 DUP3 PUSH2 0x4CE6 JUMP JUMPDEST DUP5 MSTORE PUSH1 0x20 DUP5 ADD SWAP4 POP POP PUSH1 0x40 DUP2 ADD SWAP1 POP PUSH2 0x4D6E JUMP JUMPDEST POP POP POP SWAP4 SWAP3 POP POP POP JUMP JUMPDEST PUSH1 0x0 DUP3 PUSH1 0x1F DUP4 ADD SLT PUSH2 0x4DB4 JUMPI PUSH2 0x4DB3 PUSH2 0x4C7A JUMP JUMPDEST JUMPDEST DUP2 CALLDATALOAD PUSH2 0x4DC4 DUP5 DUP3 PUSH1 0x20 DUP7 ADD PUSH2 0x4D36 JUMP JUMPDEST SWAP2 POP POP SWAP3 SWAP2 POP POP JUMP JUMPDEST PUSH1 0x0 PUSH8 0xFFFFFFFFFFFFFFFF DUP3 GT ISZERO PUSH2 0x4DE8 JUMPI PUSH2 0x4DE7 PUSH2 0x4BFA JUMP JUMPDEST JUMPDEST PUSH1 0x20 DUP3 MUL SWAP1 POP PUSH1 0x20 DUP2 ADD SWAP1 POP SWAP2 SWAP1 POP JUMP JUMPDEST PUSH1 0x0 PUSH2 0x4E0C PUSH2 0x4E07 DUP5 PUSH2 0x4DCD JUMP JUMPDEST PUSH2 0x4C5A JUMP JUMPDEST SWAP1 POP DUP1 DUP4 DUP3 MSTORE PUSH1 0x20 DUP3 ADD SWAP1 POP PUSH1 0x20 DUP5 MUL DUP4 ADD DUP6 DUP2 GT ISZERO PUSH2 0x4E2F JUMPI PUSH2 0x4E2E PUSH2 0x4CAB JUMP JUMPDEST JUMPDEST DUP4 JUMPDEST DUP2 DUP2 LT ISZERO PUSH2 0x4E58 JUMPI DUP1 PUSH2 0x4E44 DUP9 DUP3 PUSH2 0x4CD1 JUMP JUMPDEST DUP5 MSTORE PUSH1 0x20 DUP5 ADD SWAP4 POP POP PUSH1 0x20 DUP2 ADD SWAP1 POP PUSH2 0x4E31 JUMP JUMPDEST POP POP POP SWAP4 SWAP3 POP POP POP JUMP JUMPDEST PUSH1 0x0 DUP3 PUSH1 0x1F DUP4 ADD SLT PUSH2 0x4E77 JUMPI PUSH2 0x4E76 PUSH2 0x4C7A JUMP JUMPDEST JUMPDEST DUP2 CALLDATALOAD PUSH2 0x4E87 DUP5 DUP3 PUSH1 0x20 DUP7 ADD PUSH2 0x4DF9 JUMP JUMPDEST SWAP2 POP POP SWAP3 SWAP2 POP POP JUMP JUMPDEST PUSH1 0x0 PUSH2 0x1A0 DUP3 DUP5 SUB SLT ISZERO PUSH2 0x4EA7 JUMPI PUSH2 0x4EA6 PUSH2 0x4BE4 JUMP JUMPDEST JUMPDEST PUSH2 0x4EB2 PUSH2 0x120 PUSH2 0x4C5A JUMP JUMPDEST SWAP1 POP PUSH1 0x0 DUP3 ADD CALLDATALOAD PUSH8 0xFFFFFFFFFFFFFFFF DUP2 GT ISZERO PUSH2 0x4ED2 JUMPI PUSH2 0x4ED1 PUSH2 0x4C75 JUMP JUMPDEST JUMPDEST PUSH2 0x4EDE DUP5 DUP3 DUP6 ADD PUSH2 0x4D9F JUMP JUMPDEST PUSH1 0x0 DUP4 ADD MSTORE POP PUSH1 0x20 DUP3 ADD CALLDATALOAD PUSH8 0xFFFFFFFFFFFFFFFF DUP2 GT ISZERO PUSH2 0x4F02 JUMPI PUSH2 0x4F01 PUSH2 0x4C75 JUMP JUMPDEST JUMPDEST PUSH2 0x4F0E DUP5 DUP3 DUP6 ADD PUSH2 0x4D9F JUMP JUMPDEST PUSH1 0x20 DUP4 ADD MSTORE POP PUSH1 0x40 PUSH2 0x4F22 DUP5 DUP3 DUP6 ADD PUSH2 0x4CE6 JUMP JUMPDEST PUSH1 0x40 DUP4 ADD MSTORE POP PUSH1 0x80 DUP3 ADD CALLDATALOAD PUSH8 0xFFFFFFFFFFFFFFFF DUP2 GT ISZERO PUSH2 0x4F46 JUMPI PUSH2 0x4F45 PUSH2 0x4C75 JUMP JUMPDEST JUMPDEST PUSH2 0x4F52 DUP5 DUP3 DUP6 ADD PUSH2 0x4D9F JUMP JUMPDEST PUSH1 0x60 DUP4 ADD MSTORE POP PUSH1 0xA0 PUSH2 0x4F66 DUP5 DUP3 DUP6 ADD PUSH2 0x4CE6 JUMP JUMPDEST PUSH1 0x80 DUP4 ADD MSTORE POP PUSH1 0xE0 DUP3 ADD CALLDATALOAD PUSH8 0xFFFFFFFFFFFFFFFF DUP2 GT ISZERO PUSH2 0x4F8A JUMPI PUSH2 0x4F89 PUSH2 0x4C75 JUMP JUMPDEST JUMPDEST PUSH2 0x4F96 DUP5 DUP3 DUP6 ADD PUSH2 0x4E62 JUMP JUMPDEST PUSH1 0xA0 DUP4 ADD MSTORE POP PUSH2 0x100 PUSH2 0x4FAB DUP5 DUP3 DUP6 ADD PUSH2 0x4CE6 JUMP JUMPDEST PUSH1 0xC0 DUP4 ADD MSTORE POP PUSH2 0x140 PUSH2 0x4FC0 DUP5 DUP3 DUP6 ADD PUSH2 0x4CD1 JUMP JUMPDEST PUSH1 0xE0 DUP4 ADD MSTORE POP PUSH2 0x160 PUSH2 0x4FD5 DUP5 DUP3 DUP6 ADD PUSH2 0x4CE6 JUMP JUMPDEST PUSH2 0x100 DUP4 ADD MSTORE POP SWAP3 SWAP2 POP POP JUMP JUMPDEST PUSH1 0x0 PUSH8 0xFFFFFFFFFFFFFFFF DUP3 GT ISZERO PUSH2 0x4FFD JUMPI PUSH2 0x4FFC PUSH2 0x4BFA JUMP JUMPDEST JUMPDEST PUSH1 0x20 DUP3 MUL SWAP1 POP SWAP2 SWAP1 POP JUMP JUMPDEST PUSH1 0x0 PUSH2 0x501B PUSH2 0x5016 DUP5 PUSH2 0x4FE2 JUMP JUMPDEST PUSH2 0x4C5A JUMP JUMPDEST SWAP1 POP DUP1 PUSH1 0x20 DUP5 MUL DUP4 ADD DUP6 DUP2 GT ISZERO PUSH2 0x5035 JUMPI PUSH2 0x5034 PUSH2 0x4CAB JUMP JUMPDEST JUMPDEST DUP4 JUMPDEST DUP2 DUP2 LT ISZERO PUSH2 0x505E JUMPI DUP1 PUSH2 0x504A DUP9 DUP3 PUSH2 0x4CD1 JUMP JUMPDEST DUP5 MSTORE PUSH1 0x20 DUP5 ADD SWAP4 POP POP PUSH1 0x20 DUP2 ADD SWAP1 POP PUSH2 0x5037 JUMP JUMPDEST POP POP POP SWAP4 SWAP3 POP POP POP JUMP JUMPDEST PUSH1 0x0 DUP3 PUSH1 0x1F DUP4 ADD SLT PUSH2 0x507D JUMPI PUSH2 0x507C PUSH2 0x4C7A JUMP JUMPDEST JUMPDEST PUSH1 0x18 PUSH2 0x508A DUP5 DUP3 DUP6 PUSH2 0x5008 JUMP JUMPDEST SWAP2 POP POP SWAP3 SWAP2 POP POP JUMP JUMPDEST PUSH1 0x0 DUP1 PUSH2 0x320 DUP4 DUP6 SUB SLT ISZERO PUSH2 0x50AB JUMPI PUSH2 0x50AA PUSH2 0x4BDA JUMP JUMPDEST JUMPDEST PUSH1 0x0 DUP4 ADD CALLDATALOAD PUSH8 0xFFFFFFFFFFFFFFFF DUP2 GT ISZERO PUSH2 0x50C9 JUMPI PUSH2 0x50C8 PUSH2 0x4BDF JUMP JUMPDEST JUMPDEST PUSH2 0x50D5 DUP6 DUP3 DUP7 ADD PUSH2 0x4E90 JUMP JUMPDEST SWAP3 POP POP PUSH1 0x20 PUSH2 0x50E6 DUP6 DUP3 DUP7 ADD PUSH2 0x5068 JUMP JUMPDEST SWAP2 POP POP SWAP3 POP SWAP3 SWAP1 POP JUMP JUMPDEST PUSH1 0x0 DUP2 ISZERO ISZERO SWAP1 POP SWAP2 SWAP1 POP JUMP JUMPDEST PUSH2 0x5105 DUP2 PUSH2 0x50F0 JUMP JUMPDEST DUP3 MSTORE POP POP JUMP JUMPDEST PUSH1 0x0 PUSH1 0x20 DUP3 ADD SWAP1 POP PUSH2 0x5120 PUSH1 0x0 DUP4 ADD DUP5 PUSH2 0x50FC JUMP JUMPDEST SWAP3 SWAP2 POP POP JUMP JUMPDEST PUSH32 0x4E487B7100000000000000000000000000000000000000000000000000000000 PUSH1 0x0 MSTORE PUSH1 0x32 PUSH1 0x4 MSTORE PUSH1 0x24 PUSH1 0x0 REVERT JUMPDEST PUSH1 0x0 PUSH1 0x19 SWAP1 POP SWAP2 SWAP1 POP JUMP JUMPDEST PUSH1 0x0 DUP2 SWAP1 POP SWAP3 SWAP2 POP POP JUMP JUMPDEST PUSH1 0x0 DUP2 SWAP1 POP SWAP2 SWAP1 POP JUMP JUMPDEST PUSH1 0x0 DUP2 SWAP1 POP SWAP2 SWAP1 POP JUMP JUMPDEST PUSH2 0x5188 DUP2 PUSH2 0x5175 JUMP JUMPDEST DUP3 MSTORE POP POP JUMP JUMPDEST PUSH1 0x0 PUSH2 0x519A DUP4 DUP4 PUSH2 0x517F JUMP JUMPDEST PUSH1 0x20 DUP4 ADD SWAP1 POP SWAP3 SWAP2 POP POP JUMP JUMPDEST PUSH1 0x0 PUSH1 0x20 DUP3 ADD SWAP1 POP SWAP2 SWAP1 POP JUMP JUMPDEST PUSH2 0x51BC DUP2 PUSH2 0x5155 JUMP JUMPDEST PUSH2 0x51C6 DUP2 DUP5 PUSH2 0x5160 JUMP JUMPDEST SWAP3 POP PUSH2 0x51D1 DUP3 PUSH2 0x516B JUMP JUMPDEST DUP1 PUSH1 0x0 JUMPDEST DUP4 DUP2 LT ISZERO PUSH2 0x5202 JUMPI DUP2 MLOAD PUSH2 0x51E9 DUP8 DUP3 PUSH2 0x518E JUMP JUMPDEST SWAP7 POP PUSH2 0x51F4 DUP4 PUSH2 0x51A6 JUMP JUMPDEST SWAP3 POP POP PUSH1 0x1 DUP2 ADD SWAP1 POP PUSH2 0x51D5 JUMP JUMPDEST POP POP POP POP POP POP JUMP JUMPDEST PUSH1 0x0 PUSH32 0xFFFFFFFFFFFFFFFFFFFFFFFFFFFFFFFFFFFFFFFFFF0000000000000000000000 DUP3 AND SWAP1 POP SWAP2 SWAP1 POP JUMP JUMPDEST PUSH1 0x0 DUP2 SWAP1 POP SWAP2 SWAP1 POP JUMP JUMPDEST PUSH2 0x5251 PUSH2 0x524C DUP3 PUSH2 0x520A JUMP JUMPDEST PUSH2 0x5236 JUMP JUMPDEST DUP3 MSTORE POP POP JUMP JUMPDEST PUSH1 0x0 PUSH1 0x1F SWAP1 POP SWAP2 SWAP1 POP JUMP JUMPDEST PUSH1 0x0 DUP2 SWAP1 POP SWAP3 SWAP2 POP POP JUMP JUMPDEST PUSH1 0x0 DUP2 SWAP1 POP SWAP2 SWAP1 POP JUMP JUMPDEST PUSH2 0x5280 DUP2 PUSH2 0x4CB0 JUMP JUMPDEST DUP3 MSTORE POP POP JUMP JUMPDEST PUSH1 0x0 PUSH2 0x5292 DUP4 DUP4 PUSH2 0x5277 JUMP JUMPDEST PUSH1 0x20 DUP4 ADD SWAP1 POP SWAP3 SWAP2 POP POP JUMP JUMPDEST PUSH1 0x0 PUSH1 0x20 DUP3 ADD SWAP1 POP SWAP2 SWAP1 POP JUMP JUMPDEST PUSH2 0x52B4 DUP2 PUSH2 0x5257 JUMP JUMPDEST PUSH2 0x52BE DUP2 DUP5 PUSH2 0x5262 JUMP JUMPDEST SWAP3 POP PUSH2 0x52C9 DUP3 PUSH2 0x526D JUMP JUMPDEST DUP1 PUSH1 0x0 JUMPDEST DUP4 DUP2 LT ISZERO PUSH2 0x52FA JUMPI DUP2 MLOAD PUSH2 0x52E1 DUP8 DUP3 PUSH2 0x5286 JUMP JUMPDEST SWAP7 POP PUSH2 0x52EC DUP4 PUSH2 0x529E JUMP JUMPDEST SWAP3 POP POP PUSH1 0x1 DUP2 ADD SWAP1 POP PUSH2 0x52CD JUMP JUMPDEST POP POP POP POP POP POP JUMP JUMPDEST PUSH1 0x0 PUSH2 0x530E DUP3 DUP7 PUSH2 0x51B3 JUMP JUMPDEST PUSH2 0x320 DUP3 ADD SWAP2 POP PUSH2 0x531F DUP3 DUP6 PUSH2 0x5240 JUMP JUMPDEST PUSH1 0x15 DUP3 ADD SWAP2 POP PUSH2 0x532F DUP3 DUP5 PUSH2 0x52AB JUMP JUMPDEST PUSH2 0x3E0 DUP3 ADD SWAP2 POP DUP2 SWAP1 POP SWAP5 SWAP4 POP POP POP POP JUMP JUMPDEST PUSH1 0x0 DUP2 SWAP1 POP SWAP2 SWAP1 POP JUMP JUMPDEST PUSH2 0x535C PUSH2 0x5357 DUP3 PUSH2 0x4CB0 JUMP JUMPDEST PUSH2 0x5341 JUMP JUMPDEST DUP3 MSTORE POP POP JUMP JUMPDEST PUSH1 0x0 PUSH1 0xFF DUP3 AND SWAP1 POP SWAP2 SWAP1 POP JUMP JUMPDEST PUSH1 0x0 DUP2 PUSH1 0xF8 SHL SWAP1 POP SWAP2 SWAP1 POP JUMP JUMPDEST PUSH1 0x0 PUSH2 0x5387 DUP3 PUSH2 0x536F JUMP JUMPDEST SWAP1 POP SWAP2 SWAP1 POP JUMP JUMPDEST PUSH2 0x539F PUSH2 0x539A DUP3 PUSH2 0x5362 JUMP JUMPDEST PUSH2 0x537C JUMP JUMPDEST DUP3 MSTORE POP POP JUMP JUMPDEST PUSH1 0x0 PUSH1 0x2 SWAP1 POP SWAP2 SWAP1 POP JUMP JUMPDEST PUSH1 0x0 DUP2 SWAP1 POP SWAP3 SWAP2 POP POP JUMP JUMPDEST PUSH1 0x0 DUP2 SWAP1 POP SWAP2 SWAP1 POP JUMP JUMPDEST PUSH1 0x0 PUSH1 0x20 DUP3 ADD SWAP1 POP SWAP2 SWAP1 POP JUMP JUMPDEST PUSH2 0x53DB DUP2 PUSH2 0x53A5 JUMP JUMPDEST PUSH2 0x53E5 DUP2 DUP5 PUSH2 0x53B0 JUMP JUMPDEST SWAP3 POP PUSH2 0x53F0 DUP3 PUSH2 0x53BB JUMP JUMPDEST DUP1 PUSH1 0x0 JUMPDEST DUP4 DUP2 LT ISZERO PUSH2 0x5421 JUMPI DUP2 MLOAD PUSH2 0x5408 DUP8 DUP3 PUSH2 0x5286 JUMP JUMPDEST SWAP7 POP PUSH2 0x5413 DUP4 PUSH2 0x53C5 JUMP JUMPDEST SWAP3 POP POP PUSH1 0x1 DUP2 ADD SWAP1 POP PUSH2 0x53F4 JUMP JUMPDEST POP POP POP POP POP POP JUMP JUMPDEST PUSH1 0x0 PUSH2 0x5435 DUP3 DUP10 PUSH2 0x534B JUMP JUMPDEST PUSH1 0x20 DUP3 ADD SWAP2 POP PUSH2 0x5445 DUP3 DUP9 PUSH2 0x534B JUMP JUMPDEST PUSH1 0x20 DUP3 ADD SWAP2 POP PUSH2 0x5455 DUP3 DUP8 PUSH2 0x538E JUMP JUMPDEST PUSH1 0x1 DUP3 ADD SWAP2 POP PUSH2 0x5465 DUP3 DUP7 PUSH2 0x538E JUMP JUMPDEST PUSH1 0x1 DUP3 ADD SWAP2 POP PUSH2 0x5475 DUP3 DUP6 PUSH2 0x53D2 JUMP JUMPDEST PUSH1 0x40 DUP3 ADD SWAP2 POP PUSH2 0x5485 DUP3 DUP5 PUSH2 0x538E JUMP JUMPDEST PUSH1 0x1 DUP3 ADD SWAP2 POP DUP2 SWAP1 POP SWAP8 SWAP7 POP POP POP POP POP POP POP JUMP JUMPDEST PUSH1 0x0 DUP2 MLOAD SWAP1 POP SWAP2 SWAP1 POP JUMP JUMPDEST PUSH1 0x0 DUP2 SWAP1 POP SWAP3 SWAP2 POP POP JUMP JUMPDEST PUSH1 0x0 JUMPDEST DUP4 DUP2 LT ISZERO PUSH2 0x54CD JUMPI DUP1 DUP3 ADD MLOAD DUP2 DUP5 ADD MSTORE PUSH1 0x20 DUP2 ADD SWAP1 POP PUSH2 0x54B2 JUMP JUMPDEST PUSH1 0x0 DUP5 DUP5 ADD MSTORE POP POP POP POP JUMP JUMPDEST PUSH1 0x0 PUSH2 0x54E4 DUP3 PUSH2 0x5499 JUMP JUMPDEST PUSH2 0x54EE DUP2 DUP6 PUSH2 0x54A4 JUMP JUMPDEST SWAP4 POP PUSH2 0x54FE DUP2 DUP6 PUSH1 0x20 DUP7 ADD PUSH2 0x54AF JUMP JUMPDEST DUP1 DUP5 ADD SWAP2 POP POP SWAP3 SWAP2 POP POP JUMP JUMPDEST PUSH1 0x0 DUP2 SWAP1 POP SWAP2 SWAP1 POP JUMP JUMPDEST PUSH2 0x5525 PUSH2 0x5520 DUP3 PUSH2 0x5175 JUMP JUMPDEST PUSH2 0x550A JUMP JUMPDEST DUP3 MSTORE POP POP JUMP JUMPDEST PUSH1 0x0 PUSH2 0x5537 DUP3 DUP9 PUSH2 0x54D9 JUMP JUMPDEST SWAP2 POP PUSH2 0x5543 DUP3 DUP8 PUSH2 0x54D9 JUMP JUMPDEST SWAP2 POP PUSH2 0x554F DUP3 DUP7 PUSH2 0x54D9 JUMP JUMPDEST SWAP2 POP PUSH2 0x555B DUP3 DUP6 PUSH2 0x54D9 JUMP JUMPDEST SWAP2 POP PUSH2 0x5567 DUP3 DUP5 PUSH2 0x5514 JUMP JUMPDEST PUSH1 0x20 DUP3 ADD SWAP2 POP DUP2 SWAP1 POP SWAP7 SWAP6 POP POP POP POP POP POP JUMP JUMPDEST PUSH1 0x0 PUSH2 0x5586 DUP3 DUP11 PUSH2 0x534B JUMP JUMPDEST PUSH1 0x20 DUP3 ADD SWAP2 POP PUSH2 0x5596 DUP3 DUP10 PUSH2 0x534B JUMP JUMPDEST PUSH1 0x20 DUP3 ADD SWAP2 POP PUSH2 0x55A6 DUP3 DUP9 PUSH2 0x538E JUMP JUMPDEST PUSH1 0x1 DUP3 ADD SWAP2 POP PUSH2 0x55B6 DUP3 DUP8 PUSH2 0x538E JUMP JUMPDEST PUSH1 0x1 DUP3 ADD SWAP2 POP PUSH2 0x55C6 DUP3 DUP7 PUSH2 0x534B JUMP JUMPDEST PUSH1 0x20 DUP3 ADD SWAP2 POP PUSH2 0x55D6 DUP3 DUP6 PUSH2 0x534B JUMP JUMPDEST PUSH1 0x20 DUP3 ADD SWAP2 POP PUSH2 0x55E6 DUP3 DUP5 PUSH2 0x538E JUMP JUMPDEST PUSH1 0x1 DUP3 ADD SWAP2 POP DUP2 SWAP1 POP SWAP9 SWAP8 POP POP POP POP POP POP POP POP JUMP JUMPDEST PUSH1 0x0 PUSH2 0x5607 DUP3 DUP8 PUSH2 0x54D9 JUMP JUMPDEST SWAP2 POP PUSH2 0x5613 DUP3 DUP7 PUSH2 0x54D9 JUMP JUMPDEST SWAP2 POP PUSH2 0x561F DUP3 DUP6 PUSH2 0x54D9 JUMP JUMPDEST SWAP2 POP PUSH2 0x562B DUP3 DUP5 PUSH2 0x5514 JUMP JUMPDEST PUSH1 0x20 DUP3 ADD SWAP2 POP DUP2 SWAP1 POP SWAP6 SWAP5 POP POP POP POP POP JUMP JUMPDEST PUSH1 0x0 PUSH2 0x5649 DUP3 DUP7 PUSH2 0x54D9 JUMP JUMPDEST SWAP2 POP PUSH2 0x5655 DUP3 DUP6 PUSH2 0x54D9 JUMP JUMPDEST SWAP2 POP PUSH2 0x5661 DUP3 DUP5 PUSH2 0x5514 JUMP JUMPDEST PUSH1 0x20 DUP3 ADD SWAP2 POP DUP2 SWAP1 POP SWAP5 SWAP4 POP POP POP POP JUMP JUMPDEST PUSH1 0x0 DUP2 MLOAD SWAP1 POP SWAP2 SWAP1 POP JUMP JUMPDEST PUSH1 0x0 DUP2 SWAP1 POP SWAP3 SWAP2 POP POP JUMP JUMPDEST PUSH1 0x0 DUP2 SWAP1 POP PUSH1 0x20 DUP3 ADD SWAP1 POP SWAP2 SWAP1 POP JUMP JUMPDEST PUSH1 0x0 PUSH1 0x20 DUP3 ADD SWAP1 POP SWAP2 SWAP1 POP JUMP JUMPDEST PUSH1 0x0 PUSH2 0x56B0 DUP3 PUSH2 0x5672 JUMP JUMPDEST PUSH2 0x56BA DUP2 DUP6 PUSH2 0x567D JUMP JUMPDEST SWAP4 POP PUSH2 0x56C5 DUP4 PUSH2 0x5688 JUMP JUMPDEST DUP1 PUSH1 0x0 JUMPDEST DUP4 DUP2 LT ISZERO PUSH2 0x56F6 JUMPI DUP2 MLOAD PUSH2 0x56DD DUP9 DUP3 PUSH2 0x5286 JUMP JUMPDEST SWAP8 POP PUSH2 0x56E8 DUP4 PUSH2 0x5698 JUMP JUMPDEST SWAP3 POP POP PUSH1 0x1 DUP2 ADD SWAP1 POP PUSH2 0x56C9 JUMP JUMPDEST POP DUP6 SWAP4 POP POP POP POP SWAP3 SWAP2 POP POP JUMP JUMPDEST PUSH1 0x0 PUSH2 0x570F DUP3 DUP6 PUSH2 0x56A5 JUMP JUMPDEST SWAP2 POP PUSH2 0x571B DUP3 DUP5 PUSH2 0x5514 JUMP JUMPDEST PUSH1 0x20 DUP3 ADD SWAP2 POP DUP2 SWAP1 POP SWAP4 SWAP3 POP POP POP JUMP JUMPDEST PUSH32 0x4E487B7100000000000000000000000000000000000000000000000000000000 PUSH1 0x0 MSTORE PUSH1 0x12 PUSH1 0x4 MSTORE PUSH1 0x24 PUSH1 0x0 REVERT JUMPDEST PUSH32 0x4E487B7100000000000000000000000000000000000000000000000000000000 PUSH1 0x0 MSTORE PUSH1 0x11 PUSH1 0x4 MSTORE PUSH1 0x24 PUSH1 0x0 REVERT JUMPDEST PUSH1 0x0 PUSH2 0x5794 DUP3 PUSH2 0x4CB0 JUMP JUMPDEST SWAP2 POP PUSH2 0x579F DUP4 PUSH2 0x4CB0 JUMP JUMPDEST SWAP3 POP DUP3 DUP3 SUB SWAP1 POP DUP2 DUP2 GT ISZERO PUSH2 0x57B7 JUMPI PUSH2 0x57B6 PUSH2 0x575A JUMP JUMPDEST JUMPDEST SWAP3 SWAP2 POP POP JUMP JUMPDEST PUSH1 0x0 PUSH2 0x57C9 DUP3 DUP9 PUSH2 0x534B JUMP JUMPDEST PUSH1 0x20 DUP3 ADD SWAP2 POP PUSH2 0x57D9 DUP3 DUP8 PUSH2 0x534B JUMP JUMPDEST PUSH1 0x20 DUP3 ADD SWAP2 POP PUSH2 0x57E9 DUP3 DUP7 PUSH2 0x534B JUMP JUMPDEST PUSH1 0x20 DUP3 ADD SWAP2 POP PUSH2 0x57F9 DUP3 DUP6 PUSH2 0x534B JUMP JUMPDEST PUSH1 0x20 DUP3 ADD SWAP2 POP PUSH2 0x5809 DUP3 DUP5 PUSH2 0x5514 JUMP JUMPDEST PUSH1 0x20 DUP3 ADD SWAP2 POP DUP2 SWAP1 POP SWAP7 SWAP6 POP POP POP POP POP POP JUMP JUMPDEST PUSH1 0x0 PUSH2 0x5827 DUP3 PUSH2 0x4CB0 JUMP JUMPDEST SWAP2 POP PUSH2 0x5832 DUP4 PUSH2 0x4CB0 JUMP JUMPDEST SWAP3 POP DUP3 DUP3 MUL PUSH2 0x5840 DUP2 PUSH2 0x4CB0 JUMP JUMPDEST SWAP2 POP DUP3 DUP3 DIV DUP5 EQ DUP4 ISZERO OR PUSH2 0x5857 JUMPI PUSH2 0x5856 PUSH2 0x575A JUMP JUMPDEST JUMPDEST POP SWAP3 SWAP2 POP POP JUMP JUMPDEST PUSH1 0x0 PUSH4 0xFFFFFFFF DUP3 AND SWAP1 POP SWAP2 SWAP1 POP JUMP JUMPDEST PUSH1 0x0 DUP2 PUSH1 0xE0 SHL SWAP1 POP SWAP2 SWAP1 POP JUMP JUMPDEST PUSH1 0x0 PUSH2 0x5886 DUP3 PUSH2 0x586E JUMP JUMPDEST SWAP1 POP SWAP2 SWAP1 POP JUMP JUMPDEST PUSH2 0x589E PUSH2 0x5899 DUP3 PUSH2 0x585E JUMP JUMPDEST PUSH2 0x587B JUMP JUMPDEST DUP3 MSTORE POP POP JUMP JUMPDEST PUSH1 0x0 PUSH2 0x58B0 DUP3 DUP6 PUSH2 0x5514 JUMP JUMPDEST PUSH1 0x20 DUP3 ADD SWAP2 POP PUSH2 0x58C0 DUP3 DUP5 PUSH2 0x588D JUMP JUMPDEST PUSH1 0x4 DUP3 ADD SWAP2 POP DUP2 SWAP1 POP SWAP4 SWAP3 POP POP POP JUMP JUMPDEST PUSH1 0x0 PUSH2 0x58DB DUP3 PUSH2 0x585E JUMP JUMPDEST SWAP2 POP PUSH2 0x58E6 DUP4 PUSH2 0x585E JUMP JUMPDEST SWAP3 POP DUP3 DUP3 ADD SWAP1 POP PUSH4 0xFFFFFFFF DUP2 GT ISZERO PUSH2 0x5902 JUMPI PUSH2 0x5901 PUSH2 0x575A JUMP JUMPDEST JUMPDEST SWAP3 SWAP2 POP POP JUMP JUMPDEST PUSH1 0x0 PUSH2 0x5913 DUP3 PUSH2 0x4CB0 JUMP JUMPDEST SWAP2 POP PUSH2 0x591E DUP4 PUSH2 0x4CB0 JUMP JUMPDEST SWAP3 POP DUP3 DUP3 ADD SWAP1 POP DUP1 DUP3 GT ISZERO PUSH2 0x5936 JUMPI PUSH2 0x5935 PUSH2 0x575A JUMP JUMPDEST JUMPDEST SWAP3 SWAP2 POP POP JUMP JUMPDEST PUSH1 0x0 PUSH2 0x5947 DUP3 PUSH2 0x4CB0 JUMP JUMPDEST SWAP2 POP PUSH2 0x5952 DUP4 PUSH2 0x4CB0 JUMP JUMPDEST SWAP3 POP DUP3 PUSH2 0x5962 JUMPI PUSH2 0x5961 PUSH2 0x572B JUMP JUMPDEST JUMPDEST DUP3 DUP3 MOD SWAP1 POP SWAP3 SWAP2 POP POP JUMP INVALID LOG2 PUSH5 0x6970667358 0x22 SLT KECCAK256 ORIGIN DIV XOR SLOAD 0xDC 0xF9 PUSH28 0x46FDE207B352CCBE7152F96DD78984973910C403D1113289E164736F PUSH13 0x63430008180033000000000000 "
        },
        "methodIdentifiers": {
          "verifyTx(((uint256,uint256)[],(uint256,uint256)[],(uint256,uint256),(uint256,uint256)[],(uint256,uint256),uint256[],(uint256,uint256),uint256,(uint256,uint256)),uint256[24])": "dfb2168f"
        }
      }
    }
  }
}