{
  "_format": "hh-sol-artifact-1",
  "contractName": "AllowanceContract",
  "sourceName": "contracts/AllowanceContract.sol",
  "abi": [
    {
      "inputs": [],
      "stateMutability": "nonpayable",
      "type": "constructor"
    },
    {
      "inputs": [],
      "name": "AccessControlBadConfirmation",
      "type": "error"
    },
    {
      "inputs": [
        {
          "internalType": "address",
          "name": "account",
          "type": "address"
        },
        {
          "internalType": "bytes32",
          "name": "neededRole",
          "type": "bytes32"
        }
      ],
      "name": "AccessControlUnauthorizedAccount",
      "type": "error"
    },
    {
      "anonymous": false,
      "inputs": [
        {
          "indexed": true,
          "internalType": "bytes32",
          "name": "role",
          "type": "bytes32"
        },
        {
          "indexed": true,
          "internalType": "bytes32",
          "name": "previousAdminRole",
          "type": "bytes32"
        },
        {
          "indexed": true,
          "internalType": "bytes32",
          "name": "newAdminRole",
          "type": "bytes32"
        }
      ],
      "name": "RoleAdminChanged",
      "type": "event"
    },
    {
      "anonymous": false,
      "inputs": [
        {
          "indexed": true,
          "internalType": "bytes32",
          "name": "role",
          "type": "bytes32"
        },
        {
          "indexed": true,
          "internalType": "address",
          "name": "account",
          "type": "address"
        },
        {
          "indexed": true,
          "internalType": "address",
          "name": "sender",
          "type": "address"
        }
      ],
      "name": "RoleGranted",
      "type": "event"
    },
    {
      "anonymous": false,
      "inputs": [
        {
          "indexed": true,
          "internalType": "bytes32",
          "name": "role",
          "type": "bytes32"
        },
        {
          "indexed": true,
          "internalType": "address",
          "name": "account",
          "type": "address"
        },
        {
          "indexed": true,
          "internalType": "address",
          "name": "sender",
          "type": "address"
        }
      ],
      "name": "RoleRevoked",
      "type": "event"
    },
    {
      "anonymous": false,
      "inputs": [
        {
          "indexed": false,
          "internalType": "address",
          "name": "certContract",
          "type": "address"
        }
      ],
      "name": "certContractSet",
      "type": "event"
    },
    {
      "anonymous": false,
      "inputs": [
        {
          "indexed": false,
          "internalType": "address",
          "name": "company",
          "type": "address"
        },
        {
          "indexed": false,
          "internalType": "uint256",
          "name": "excess",
          "type": "uint256"
        }
      ],
      "name": "failedEmissionReport",
      "type": "event"
    },
    {
      "anonymous": false,
      "inputs": [
        {
          "indexed": false,
          "internalType": "address",
          "name": "operator",
          "type": "address"
        }
      ],
      "name": "operatorRoleSet",
      "type": "event"
    },
    {
      "anonymous": false,
      "inputs": [
        {
          "indexed": false,
          "internalType": "address",
          "name": "company",
          "type": "address"
        },
        {
          "indexed": false,
          "internalType": "uint256",
          "name": "savings",
          "type": "uint256"
        }
      ],
      "name": "successfullEmissionReport",
      "type": "event"
    },
    {
      "anonymous": false,
      "inputs": [
        {
          "indexed": false,
          "internalType": "address",
          "name": "tokenContract",
          "type": "address"
        }
      ],
      "name": "tokenContractSet",
      "type": "event"
    },
    {
      "anonymous": false,
      "inputs": [
        {
          "indexed": false,
          "internalType": "address",
          "name": "verifier",
          "type": "address"
        }
      ],
      "name": "verifierRoleSet",
      "type": "event"
    },
    {
      "inputs": [],
      "name": "ADMIN_ROLE",
      "outputs": [
        {
          "internalType": "bytes32",
          "name": "",
          "type": "bytes32"
        }
      ],
      "stateMutability": "view",
      "type": "function"
    },
    {
      "inputs": [],
      "name": "DEFAULT_ADMIN_ROLE",
      "outputs": [
        {
          "internalType": "bytes32",
          "name": "",
          "type": "bytes32"
        }
      ],
      "stateMutability": "view",
      "type": "function"
    },
    {
      "inputs": [],
      "name": "OPERATOR_ROLE",
      "outputs": [
        {
          "internalType": "bytes32",
          "name": "",
          "type": "bytes32"
        }
      ],
      "stateMutability": "view",
      "type": "function"
    },
    {
      "inputs": [],
      "name": "VERIFIER_ROLE",
      "outputs": [
        {
          "internalType": "bytes32",
          "name": "",
          "type": "bytes32"
        }
      ],
      "stateMutability": "view",
      "type": "function"
    },
    {
      "inputs": [
        {
          "internalType": "address",
          "name": "_company",
          "type": "address"
        },
        {
          "internalType": "uint256",
          "name": "_allowance",
          "type": "uint256"
        }
      ],
      "name": "addCompany",
      "outputs": [],
      "stateMutability": "nonpayable",
      "type": "function"
    },
    {
      "inputs": [
        {
          "internalType": "address",
          "name": "_company",
          "type": "address"
        },
        {
          "internalType": "uint256",
          "name": "_newAllowance",
          "type": "uint256"
        }
      ],
      "name": "adjustAllowance",
      "outputs": [],
      "stateMutability": "nonpayable",
      "type": "function"
    },
    {
      "inputs": [
        {
          "internalType": "uint256",
          "name": "_amount",
          "type": "uint256"
        }
      ],
      "name": "burnTokens",
      "outputs": [],
      "stateMutability": "nonpayable",
      "type": "function"
    },
    {
      "inputs": [
        {
          "internalType": "address",
          "name": "",
          "type": "address"
        }
      ],
      "name": "companies",
      "outputs": [
        {
          "internalType": "uint256",
          "name": "allowance",
          "type": "uint256"
        },
        {
          "internalType": "uint256",
          "name": "trackedCO2",
          "type": "uint256"
        },
        {
          "internalType": "uint32",
          "name": "num_vehicles",
          "type": "uint32"
        },
        {
          "internalType": "uint32",
          "name": "vehicles_tracked",
          "type": "uint32"
        }
      ],
      "stateMutability": "view",
      "type": "function"
    },
    {
      "inputs": [
        {
          "internalType": "uint256",
          "name": "",
          "type": "uint256"
        }
      ],
      "name": "companyAddresses",
      "outputs": [
        {
          "internalType": "address",
          "name": "",
          "type": "address"
        }
      ],
      "stateMutability": "view",
      "type": "function"
    },
    {
      "inputs": [
        {
          "internalType": "address",
          "name": "_company",
          "type": "address"
        }
      ],
      "name": "decreaseVehicleCount",
      "outputs": [],
      "stateMutability": "nonpayable",
      "type": "function"
    },
    {
      "inputs": [
        {
          "internalType": "string",
          "name": "_vehicleID",
          "type": "string"
        },
        {
          "internalType": "address",
          "name": "_company",
          "type": "address"
        },
        {
          "internalType": "uint256",
          "name": "_trackedCO2",
          "type": "uint256"
        }
      ],
      "name": "emissionReport",
      "outputs": [],
      "stateMutability": "nonpayable",
      "type": "function"
    },
    {
      "inputs": [
        {
          "internalType": "bytes32",
          "name": "role",
          "type": "bytes32"
        }
      ],
      "name": "getRoleAdmin",
      "outputs": [
        {
          "internalType": "bytes32",
          "name": "",
          "type": "bytes32"
        }
      ],
      "stateMutability": "view",
      "type": "function"
    },
    {
      "inputs": [
        {
          "internalType": "bytes32",
          "name": "role",
          "type": "bytes32"
        },
        {
          "internalType": "address",
          "name": "account",
          "type": "address"
        }
      ],
      "name": "grantRole",
      "outputs": [],
      "stateMutability": "nonpayable",
      "type": "function"
    },
    {
      "inputs": [
        {
          "internalType": "bytes32",
          "name": "role",
          "type": "bytes32"
        },
        {
          "internalType": "address",
          "name": "account",
          "type": "address"
        }
      ],
      "name": "hasRole",
      "outputs": [
        {
          "internalType": "bool",
          "name": "",
          "type": "bool"
        }
      ],
      "stateMutability": "view",
      "type": "function"
    },
    {
      "inputs": [
        {
          "internalType": "address",
          "name": "_company",
          "type": "address"
        }
      ],
      "name": "increaseVehicleCount",
      "outputs": [],
      "stateMutability": "nonpayable",
      "type": "function"
    },
    {
      "inputs": [],
      "name": "offsetExcess",
      "outputs": [],
      "stateMutability": "nonpayable",
      "type": "function"
    },
    {
      "inputs": [
        {
          "internalType": "bytes32",
          "name": "role",
          "type": "bytes32"
        },
        {
          "internalType": "address",
          "name": "callerConfirmation",
          "type": "address"
        }
      ],
      "name": "renounceRole",
      "outputs": [],
      "stateMutability": "nonpayable",
      "type": "function"
    },
    {
      "inputs": [
        {
          "internalType": "bytes32",
          "name": "role",
          "type": "bytes32"
        },
        {
          "internalType": "address",
          "name": "account",
          "type": "address"
        }
      ],
      "name": "revokeRole",
      "outputs": [],
      "stateMutability": "nonpayable",
      "type": "function"
    },
    {
      "inputs": [
        {
          "internalType": "address",
          "name": "_certContract",
          "type": "address"
        }
      ],
      "name": "setCertContract",
      "outputs": [],
      "stateMutability": "nonpayable",
      "type": "function"
    },
    {
      "inputs": [
        {
          "internalType": "address",
          "name": "_mintingContract",
          "type": "address"
        }
      ],
      "name": "setMintingContract",
      "outputs": [],
      "stateMutability": "nonpayable",
      "type": "function"
    },
    {
      "inputs": [
        {
          "internalType": "address",
          "name": "_operator",
          "type": "address"
        }
      ],
      "name": "setOperatorRole",
      "outputs": [],
      "stateMutability": "nonpayable",
      "type": "function"
    },
    {
      "inputs": [
        {
          "internalType": "address",
          "name": "_verifier",
          "type": "address"
        }
      ],
      "name": "setVerifierRole",
      "outputs": [],
      "stateMutability": "nonpayable",
      "type": "function"
    },
    {
      "inputs": [
        {
          "internalType": "bytes4",
          "name": "interfaceId",
          "type": "bytes4"
        }
      ],
      "name": "supportsInterface",
      "outputs": [
        {
          "internalType": "bool",
          "name": "",
          "type": "bool"
        }
      ],
      "stateMutability": "view",
      "type": "function"
    }
  ],
  "bytecode": "0x60806040523480156200001157600080fd5b50620000447fa49807205ce4d355092ef5a8a18f56e8913cf4a201fbe287825b095693c21775336200007e60201b60201c565b50620000777f97667070c54ef182b0f5858b034beac1b6f3089aa2d3188bb1e8929f4fa9b929336200007e60201b60201c565b50620001f3565b60006200009283836200018160201b60201c565b6200017657600160008085815260200190815260200160002060000160008473ffffffffffffffffffffffffffffffffffffffff1673ffffffffffffffffffffffffffffffffffffffff16815260200190815260200160002060006101000a81548160ff02191690831515021790555062000112620001eb60201b60201c565b73ffffffffffffffffffffffffffffffffffffffff168273ffffffffffffffffffffffffffffffffffffffff16847f2f8788117e7eff1d82e926ec794901d17c78024a50270940304540a733656f0d60405160405180910390a4600190506200017b565b600090505b92915050565b600080600084815260200190815260200160002060000160008373ffffffffffffffffffffffffffffffffffffffff1673ffffffffffffffffffffffffffffffffffffffff16815260200190815260200160002060009054906101000a900460ff16905092915050565b600033905090565b6125d080620002036000396000f3fe608060405234801561001057600080fd5b506004361061014d5760003560e01c806391d14854116100c3578063c56e13751161007c578063c56e137514610387578063d547741f146103a3578063d627452b146103bf578063e7705db6146103db578063e8fbc0ad146103f9578063f5b541a6146104155761014d565b806391d14854146102b557806399687845146102e5578063a1eb6f3c14610315578063a217fddf14610331578063acc692611461034f578063aedf65c51461036b5761014d565b80634cf8a130116101155780634cf8a1301461021d5780635deed13a146102395780636d1b229d1461025557806375b238fc146102715780637fd1d9801461028f57806386c462a7146102995761014d565b806301ffc9a714610152578063248a9ca3146101825780632f2ff15d146101b2578063355e6ce8146101ce57806336568abe14610201575b600080fd5b61016c60048036038101906101679190611bdc565b610433565b6040516101799190611c24565b60405180910390f35b61019c60048036038101906101979190611c75565b6104ad565b6040516101a99190611cb1565b60405180910390f35b6101cc60048036038101906101c79190611d2a565b6104cc565b005b6101e860048036038101906101e39190611d6a565b6104ee565b6040516101f89493929190611dcf565b60405180910390f35b61021b60048036038101906102169190611d2a565b61053e565b005b61023760048036038101906102329190611d6a565b6105b9565b005b610253600480360381019061024e9190611d6a565b610649565b005b61026f600480360381019061026a9190611e40565b6106d9565b005b6102796108f2565b6040516102869190611cb1565b60405180910390f35b610297610916565b005b6102b360048036038101906102ae9190611fb3565b610c32565b005b6102cf60048036038101906102ca9190611d2a565b610f06565b6040516102dc9190611c24565b60405180910390f35b6102ff60048036038101906102fa9190611e40565b610f70565b60405161030c9190612031565b60405180910390f35b61032f600480360381019061032a919061204c565b610faf565b005b610339611025565b6040516103469190611cb1565b60405180910390f35b6103696004803603810190610364919061204c565b61102c565b005b61038560048036038101906103809190611d6a565b611192565b005b6103a1600480360381019061039c9190611d6a565b611238565b005b6103bd60048036038101906103b89190611d2a565b6112de565b005b6103d960048036038101906103d49190611d6a565b611300565b005b6103e36113ad565b6040516103f09190611cb1565b60405180910390f35b610413600480360381019061040e9190611d6a565b6113d1565b005b61041d61147e565b60405161042a9190611cb1565b60405180910390f35b60007f7965db0b000000000000000000000000000000000000000000000000000000007bffffffffffffffffffffffffffffffffffffffffffffffffffffffff1916827bffffffffffffffffffffffffffffffffffffffffffffffffffffffff191614806104a657506104a5826114a2565b5b9050919050565b6000806000838152602001908152602001600020600101549050919050565b6104d5826104ad565b6104de8161150c565b6104e88383611520565b50505050565b60016020528060005260406000206000915090508060000154908060010154908060020160009054906101000a900463ffffffff16908060020160049054906101000a900463ffffffff16905084565b610546611611565b73ffffffffffffffffffffffffffffffffffffffff168173ffffffffffffffffffffffffffffffffffffffff16146105aa576040517f6697b23200000000000000000000000000000000000000000000000000000000815260040160405180910390fd5b6105b48282611619565b505050565b7fa49807205ce4d355092ef5a8a18f56e8913cf4a201fbe287825b095693c217756105e38161150c565b61060d7f97667070c54ef182b0f5858b034beac1b6f3089aa2d3188bb1e8929f4fa9b92983611520565b507f693663dca4b53ef71deb189fd198973d5b279f1fb4b8eafb86e2261fb9c869498260405161063d9190612031565b60405180910390a15050565b7fa49807205ce4d355092ef5a8a18f56e8913cf4a201fbe287825b095693c217756106738161150c565b61069d7f0ce23c3e399818cfee81a7ab0880f714e53d7672b08df0fa62f2843416e1ea0983611520565b507f704ea5d92f6606a9566da5dcdee5a4fcac4d1ba84763e573e81acf43a902fce2826040516106cd9190612031565b60405180910390a15050565b60003390506000820361078757600360009054906101000a900473ffffffffffffffffffffffffffffffffffffffff1673ffffffffffffffffffffffffffffffffffffffff1663450efe21826040518263ffffffff1660e01b81526004016107419190612031565b6020604051808303816000875af1158015610760573d6000803e3d6000fd5b505050506040513d601f19601f8201168201806040525081019061078491906120a1565b91505b60008211801561081a5750600160008273ffffffffffffffffffffffffffffffffffffffff1673ffffffffffffffffffffffffffffffffffffffff16815260200190815260200160002060000154600160008373ffffffffffffffffffffffffffffffffffffffff1673ffffffffffffffffffffffffffffffffffffffff16815260200190815260200160002060010154145b156108b357600360009054906101000a900473ffffffffffffffffffffffffffffffffffffffff1673ffffffffffffffffffffffffffffffffffffffff16639dc29fac82846040518363ffffffff1660e01b815260040161087c9291906120ce565b600060405180830381600087803b15801561089657600080fd5b505af11580156108aa573d6000803e3d6000fd5b505050506108ee565b6040517f08c379a00000000000000000000000000000000000000000000000000000000081526004016108e59061217a565b60405180910390fd5b5050565b7fa49807205ce4d355092ef5a8a18f56e8913cf4a201fbe287825b095693c2177581565b60003390506000600160008373ffffffffffffffffffffffffffffffffffffffff1673ffffffffffffffffffffffffffffffffffffffff16815260200190815260200160002060000154600160008473ffffffffffffffffffffffffffffffffffffffff1673ffffffffffffffffffffffffffffffffffffffff168152602001908152602001600020600101546109ad91906121c9565b9050600081036109f2576040517f08c379a00000000000000000000000000000000000000000000000000000000081526004016109e990612249565b60405180910390fd5b6000600360009054906101000a900473ffffffffffffffffffffffffffffffffffffffff1673ffffffffffffffffffffffffffffffffffffffff1663450efe21846040518263ffffffff1660e01b8152600401610a4f9190612031565b6020604051808303816000875af1158015610a6e573d6000803e3d6000fd5b505050506040513d601f19601f82011682018060405250810190610a9291906120a1565b9050818110610bf257600360009054906101000a900473ffffffffffffffffffffffffffffffffffffffff1673ffffffffffffffffffffffffffffffffffffffff16639dc29fac84846040518363ffffffff1660e01b8152600401610af89291906120ce565b600060405180830381600087803b158015610b1257600080fd5b505af1158015610b26573d6000803e3d6000fd5b50505050600160008473ffffffffffffffffffffffffffffffffffffffff1673ffffffffffffffffffffffffffffffffffffffff16815260200190815260200160002060000154600160008573ffffffffffffffffffffffffffffffffffffffff1673ffffffffffffffffffffffffffffffffffffffff168152602001908152602001600020600101819055507f692cd5ac678fbee8d9b83cd5d7a41201c14c5f69e1641f2ca98eb0f982c9f75e836000604051610be59291906122ae565b60405180910390a1610c2d565b6040517f08c379a0000000000000000000000000000000000000000000000000000000008152600401610c2490612349565b60405180910390fd5b505050565b7f0ce23c3e399818cfee81a7ab0880f714e53d7672b08df0fa62f2843416e1ea09610c5c8161150c565b8273ffffffffffffffffffffffffffffffffffffffff16600560009054906101000a900473ffffffffffffffffffffffffffffffffffffffff1673ffffffffffffffffffffffffffffffffffffffff1663cbed9d1e866040518263ffffffff1660e01b8152600401610cce91906123d7565b6020604051808303816000875af1158015610ced573d6000803e3d6000fd5b505050506040513d601f19601f82011682018060405250810190610d11919061240e565b73ffffffffffffffffffffffffffffffffffffffff1614610d67576040517f08c379a0000000000000000000000000000000000000000000000000000000008152600401610d5e906124ad565b60405180910390fd5b81600160008573ffffffffffffffffffffffffffffffffffffffff1673ffffffffffffffffffffffffffffffffffffffff1681526020019081526020016000206001016000828254610db991906124cd565b9250508190555060018060008573ffffffffffffffffffffffffffffffffffffffff1673ffffffffffffffffffffffffffffffffffffffff16815260200190815260200160002060020160048282829054906101000a900463ffffffff16610e219190612501565b92506101000a81548163ffffffff021916908363ffffffff160217905550600160008473ffffffffffffffffffffffffffffffffffffffff1673ffffffffffffffffffffffffffffffffffffffff16815260200190815260200160002060020160009054906101000a900463ffffffff1663ffffffff16600160008573ffffffffffffffffffffffffffffffffffffffff1673ffffffffffffffffffffffffffffffffffffffff16815260200190815260200160002060020160049054906101000a900463ffffffff1663ffffffff1603610f0057610eff8361170b565b5b50505050565b600080600084815260200190815260200160002060000160008373ffffffffffffffffffffffffffffffffffffffff1673ffffffffffffffffffffffffffffffffffffffff16815260200190815260200160002060009054906101000a900460ff16905092915050565b60028181548110610f8057600080fd5b906000526020600020016000915054906101000a900473ffffffffffffffffffffffffffffffffffffffff1681565b7f97667070c54ef182b0f5858b034beac1b6f3089aa2d3188bb1e8929f4fa9b929610fd98161150c565b81600160008573ffffffffffffffffffffffffffffffffffffffff1673ffffffffffffffffffffffffffffffffffffffff16815260200190815260200160002060000181905550505050565b6000801b81565b7f97667070c54ef182b0f5858b034beac1b6f3089aa2d3188bb1e8929f4fa9b9296110568161150c565b604051806080016040528083815260200160008152602001600063ffffffff168152602001600063ffffffff16815250600160008573ffffffffffffffffffffffffffffffffffffffff1673ffffffffffffffffffffffffffffffffffffffff168152602001908152602001600020600082015181600001556020820151816001015560408201518160020160006101000a81548163ffffffff021916908363ffffffff16021790555060608201518160020160046101000a81548163ffffffff021916908363ffffffff1602179055509050506002839080600181540180825580915050600190039060005260206000200160009091909190916101000a81548173ffffffffffffffffffffffffffffffffffffffff021916908373ffffffffffffffffffffffffffffffffffffffff160217905550505050565b7fa49807205ce4d355092ef5a8a18f56e8913cf4a201fbe287825b095693c217756111bc8161150c565b81600460006101000a81548173ffffffffffffffffffffffffffffffffffffffff021916908373ffffffffffffffffffffffffffffffffffffffff1602179055507fe0fe7079f3e1809e47f9258cb71768986e8c13cb9eaf8dd5cb803cf766d7a0fa8260405161122c9190612031565b60405180910390a15050565b7fa49807205ce4d355092ef5a8a18f56e8913cf4a201fbe287825b095693c217756112628161150c565b81600360006101000a81548173ffffffffffffffffffffffffffffffffffffffff021916908373ffffffffffffffffffffffffffffffffffffffff1602179055507f96bd71a123598a1873f3691f46f557092eda081a94f6e6d8e370b4e8c7cbd41f826040516112d29190612031565b60405180910390a15050565b6112e7826104ad565b6112f08161150c565b6112fa8383611619565b50505050565b7f97667070c54ef182b0f5858b034beac1b6f3089aa2d3188bb1e8929f4fa9b92961132a8161150c565b60018060008473ffffffffffffffffffffffffffffffffffffffff1673ffffffffffffffffffffffffffffffffffffffff16815260200190815260200160002060020160008282829054906101000a900463ffffffff1661138b9190612539565b92506101000a81548163ffffffff021916908363ffffffff1602179055505050565b7f0ce23c3e399818cfee81a7ab0880f714e53d7672b08df0fa62f2843416e1ea0981565b7f97667070c54ef182b0f5858b034beac1b6f3089aa2d3188bb1e8929f4fa9b9296113fb8161150c565b60018060008473ffffffffffffffffffffffffffffffffffffffff1673ffffffffffffffffffffffffffffffffffffffff16815260200190815260200160002060020160008282829054906101000a900463ffffffff1661145c9190612501565b92506101000a81548163ffffffff021916908363ffffffff1602179055505050565b7f97667070c54ef182b0f5858b034beac1b6f3089aa2d3188bb1e8929f4fa9b92981565b60007f01ffc9a7000000000000000000000000000000000000000000000000000000007bffffffffffffffffffffffffffffffffffffffffffffffffffffffff1916827bffffffffffffffffffffffffffffffffffffffffffffffffffffffff1916149050919050565b61151d81611518611611565b611b1f565b50565b600061152c8383610f06565b61160657600160008085815260200190815260200160002060000160008473ffffffffffffffffffffffffffffffffffffffff1673ffffffffffffffffffffffffffffffffffffffff16815260200190815260200160002060006101000a81548160ff0219169083151502179055506115a3611611565b73ffffffffffffffffffffffffffffffffffffffff168273ffffffffffffffffffffffffffffffffffffffff16847f2f8788117e7eff1d82e926ec794901d17c78024a50270940304540a733656f0d60405160405180910390a46001905061160b565b600090505b92915050565b600033905090565b60006116258383610f06565b1561170057600080600085815260200190815260200160002060000160008473ffffffffffffffffffffffffffffffffffffffff1673ffffffffffffffffffffffffffffffffffffffff16815260200190815260200160002060006101000a81548160ff02191690831515021790555061169d611611565b73ffffffffffffffffffffffffffffffffffffffff168273ffffffffffffffffffffffffffffffffffffffff16847ff6391f5c32d9c69d2a47ea670b442974b53935d1edc7fd64eb21e047a839171b60405160405180910390a460019050611705565b600090505b92915050565b600160008273ffffffffffffffffffffffffffffffffffffffff1673ffffffffffffffffffffffffffffffffffffffff16815260200190815260200160002060000154600160008373ffffffffffffffffffffffffffffffffffffffff1673ffffffffffffffffffffffffffffffffffffffff16815260200190815260200160002060010154036117d5577f692cd5ac678fbee8d9b83cd5d7a41201c14c5f69e1641f2ca98eb0f982c9f75e8160006040516117c89291906122ae565b60405180910390a1611b1c565b600160008273ffffffffffffffffffffffffffffffffffffffff1673ffffffffffffffffffffffffffffffffffffffff16815260200190815260200160002060000154600160008373ffffffffffffffffffffffffffffffffffffffff1673ffffffffffffffffffffffffffffffffffffffff168152602001908152602001600020600101541015611a4c576000600160008373ffffffffffffffffffffffffffffffffffffffff1673ffffffffffffffffffffffffffffffffffffffff16815260200190815260200160002060010154600160008473ffffffffffffffffffffffffffffffffffffffff1673ffffffffffffffffffffffffffffffffffffffff168152602001908152602001600020600001546118f391906121c9565b9050600360009054906101000a900473ffffffffffffffffffffffffffffffffffffffff1673ffffffffffffffffffffffffffffffffffffffff166340c10f1983836040518363ffffffff1660e01b81526004016119529291906120ce565b600060405180830381600087803b15801561196c57600080fd5b505af1158015611980573d6000803e3d6000fd5b50505050600160008373ffffffffffffffffffffffffffffffffffffffff1673ffffffffffffffffffffffffffffffffffffffff16815260200190815260200160002060000154600160008473ffffffffffffffffffffffffffffffffffffffff1673ffffffffffffffffffffffffffffffffffffffff168152602001908152602001600020600101819055507f692cd5ac678fbee8d9b83cd5d7a41201c14c5f69e1641f2ca98eb0f982c9f75e8282604051611a3e9291906120ce565b60405180910390a150611b1b565b6000600160008373ffffffffffffffffffffffffffffffffffffffff1673ffffffffffffffffffffffffffffffffffffffff16815260200190815260200160002060000154600160008473ffffffffffffffffffffffffffffffffffffffff1673ffffffffffffffffffffffffffffffffffffffff16815260200190815260200160002060010154611ade91906121c9565b90507f4b55e2d31ecad51cf2ecc31243dfa09709eca76d2d0971fcdc975d08e6c0ef288282604051611b119291906120ce565b60405180910390a1505b5b50565b611b298282610f06565b611b6c5780826040517fe2517d3f000000000000000000000000000000000000000000000000000000008152600401611b63929190612571565b60405180910390fd5b5050565b6000604051905090565b600080fd5b600080fd5b60007fffffffff0000000000000000000000000000000000000000000000000000000082169050919050565b611bb981611b84565b8114611bc457600080fd5b50565b600081359050611bd681611bb0565b92915050565b600060208284031215611bf257611bf1611b7a565b5b6000611c0084828501611bc7565b91505092915050565b60008115159050919050565b611c1e81611c09565b82525050565b6000602082019050611c396000830184611c15565b92915050565b6000819050919050565b611c5281611c3f565b8114611c5d57600080fd5b50565b600081359050611c6f81611c49565b92915050565b600060208284031215611c8b57611c8a611b7a565b5b6000611c9984828501611c60565b91505092915050565b611cab81611c3f565b82525050565b6000602082019050611cc66000830184611ca2565b92915050565b600073ffffffffffffffffffffffffffffffffffffffff82169050919050565b6000611cf782611ccc565b9050919050565b611d0781611cec565b8114611d1257600080fd5b50565b600081359050611d2481611cfe565b92915050565b60008060408385031215611d4157611d40611b7a565b5b6000611d4f85828601611c60565b9250506020611d6085828601611d15565b9150509250929050565b600060208284031215611d8057611d7f611b7a565b5b6000611d8e84828501611d15565b91505092915050565b6000819050919050565b611daa81611d97565b82525050565b600063ffffffff82169050919050565b611dc981611db0565b82525050565b6000608082019050611de46000830187611da1565b611df16020830186611da1565b611dfe6040830185611dc0565b611e0b6060830184611dc0565b95945050505050565b611e1d81611d97565b8114611e2857600080fd5b50565b600081359050611e3a81611e14565b92915050565b600060208284031215611e5657611e55611b7a565b5b6000611e6484828501611e2b565b91505092915050565b600080fd5b600080fd5b6000601f19601f8301169050919050565b7f4e487b7100000000000000000000000000000000000000000000000000000000600052604160045260246000fd5b611ec082611e77565b810181811067ffffffffffffffff82111715611edf57611ede611e88565b5b80604052505050565b6000611ef2611b70565b9050611efe8282611eb7565b919050565b600067ffffffffffffffff821115611f1e57611f1d611e88565b5b611f2782611e77565b9050602081019050919050565b82818337600083830152505050565b6000611f56611f5184611f03565b611ee8565b905082815260208101848484011115611f7257611f71611e72565b5b611f7d848285611f34565b509392505050565b600082601f830112611f9a57611f99611e6d565b5b8135611faa848260208601611f43565b91505092915050565b600080600060608486031215611fcc57611fcb611b7a565b5b600084013567ffffffffffffffff811115611fea57611fe9611b7f565b5b611ff686828701611f85565b935050602061200786828701611d15565b925050604061201886828701611e2b565b9150509250925092565b61202b81611cec565b82525050565b60006020820190506120466000830184612022565b92915050565b6000806040838503121561206357612062611b7a565b5b600061207185828601611d15565b925050602061208285828601611e2b565b9150509250929050565b60008151905061209b81611e14565b92915050565b6000602082840312156120b7576120b6611b7a565b5b60006120c58482850161208c565b91505092915050565b60006040820190506120e36000830185612022565b6120f06020830184611da1565b9392505050565b600082825260208201905092915050565b7f4e6f20746f6b656e7320746f206275726e206f72207374696c6c20657863657360008201527f7320434f3220656d697373696f6e7320746f206f666673657400000000000000602082015250565b60006121646039836120f7565b915061216f82612108565b604082019050919050565b6000602082019050818103600083015261219381612157565b9050919050565b7f4e487b7100000000000000000000000000000000000000000000000000000000600052601160045260246000fd5b60006121d482611d97565b91506121df83611d97565b92508282039050818111156121f7576121f661219a565b5b92915050565b7f4e6f2065786365737320746f206f666673657400000000000000000000000000600082015250565b60006122336013836120f7565b915061223e826121fd565b602082019050919050565b6000602082019050818103600083015261226281612226565b9050919050565b6000819050919050565b6000819050919050565b600061229861229361228e84612269565b612273565b611d97565b9050919050565b6122a88161227d565b82525050565b60006040820190506122c36000830185612022565b6122d0602083018461229f565b9392505050565b7f496e73756666696369656e7420746f6b656e7320746f206f666673657420657860008201527f6365737300000000000000000000000000000000000000000000000000000000602082015250565b60006123336024836120f7565b915061233e826122d7565b604082019050919050565b6000602082019050818103600083015261236281612326565b9050919050565b600081519050919050565b60005b83811015612392578082015181840152602081019050612377565b60008484015250505050565b60006123a982612369565b6123b381856120f7565b93506123c3818560208601612374565b6123cc81611e77565b840191505092915050565b600060208201905081810360008301526123f1818461239e565b905092915050565b60008151905061240881611cfe565b92915050565b60006020828403121561242457612423611b7a565b5b6000612432848285016123f9565b91505092915050565b7f56656869636c65206e6f74207265676973746572656420746f20636f6d70616e60008201527f7900000000000000000000000000000000000000000000000000000000000000602082015250565b60006124976021836120f7565b91506124a28261243b565b604082019050919050565b600060208201905081810360008301526124c68161248a565b9050919050565b60006124d882611d97565b91506124e383611d97565b92508282019050808211156124fb576124fa61219a565b5b92915050565b600061250c82611db0565b915061251783611db0565b9250828201905063ffffffff8111156125335761253261219a565b5b92915050565b600061254482611db0565b915061254f83611db0565b9250828203905063ffffffff81111561256b5761256a61219a565b5b92915050565b60006040820190506125866000830185612022565b6125936020830184611ca2565b939250505056fea2646970667358221220ee3f89b7a8e7b6bedeea5332caf18f8e70dc893bdda0d7a8f3627e63a2097ac164736f6c63430008180033",
  "linkReferences": {},
  "deployedLinkReferences": {}
}