{
  "_format": "hh-sol-artifact-1",
  "contractName": "AllowanceContract",
  "sourceName": "contracts/AllowanceContract.sol",
  "abi": [
    {
      "inputs": [],
      "stateMutability": "nonpayable",
      "type": "constructor"
    },
    {
      "inputs": [],
      "name": "AccessControlBadConfirmation",
      "type": "error"
    },
    {
      "inputs": [
        {
          "internalType": "address",
          "name": "account",
          "type": "address"
        },
        {
          "internalType": "bytes32",
          "name": "neededRole",
          "type": "bytes32"
        }
      ],
      "name": "AccessControlUnauthorizedAccount",
      "type": "error"
    },
    {
      "anonymous": false,
      "inputs": [
        {
          "indexed": false,
          "internalType": "address",
          "name": "company",
          "type": "address"
        },
        {
          "indexed": false,
          "internalType": "uint256",
          "name": "allowance",
          "type": "uint256"
        }
      ],
      "name": "CompanyAdded",
      "type": "event"
    },
    {
      "anonymous": false,
      "inputs": [
        {
          "indexed": false,
          "internalType": "uint256",
          "name": "_vehicleID",
          "type": "uint256"
        },
        {
          "indexed": false,
          "internalType": "address",
          "name": "_company",
          "type": "address"
        },
        {
          "indexed": false,
          "internalType": "uint256",
          "name": "_trackedCO2",
          "type": "uint256"
        },
        {
          "indexed": false,
          "internalType": "bool",
          "name": "r",
          "type": "bool"
        }
      ],
      "name": "CompanyDataReady",
      "type": "event"
    },
    {
      "anonymous": false,
      "inputs": [
        {
          "indexed": false,
          "internalType": "uint256",
          "name": "_deviceID",
          "type": "uint256"
        },
        {
          "indexed": false,
          "internalType": "address",
          "name": "_company",
          "type": "address"
        },
        {
          "indexed": false,
          "internalType": "uint256",
          "name": "_trackedCO2",
          "type": "uint256"
        },
        {
          "indexed": false,
          "internalType": "address",
          "name": "tmp",
          "type": "address"
        }
      ],
      "name": "Custom",
      "type": "event"
    },
    {
      "anonymous": false,
      "inputs": [
        {
          "indexed": false,
          "internalType": "address",
          "name": "company",
          "type": "address"
        },
        {
          "indexed": false,
          "internalType": "uint256",
          "name": "excess",
          "type": "uint256"
        },
        {
          "indexed": false,
          "internalType": "bool",
          "name": "achieved",
          "type": "bool"
        }
      ],
      "name": "EmissionReportReceived",
      "type": "event"
    },
    {
      "anonymous": false,
      "inputs": [
        {
          "indexed": true,
          "internalType": "bytes32",
          "name": "role",
          "type": "bytes32"
        },
        {
          "indexed": true,
          "internalType": "bytes32",
          "name": "previousAdminRole",
          "type": "bytes32"
        },
        {
          "indexed": true,
          "internalType": "bytes32",
          "name": "newAdminRole",
          "type": "bytes32"
        }
      ],
      "name": "RoleAdminChanged",
      "type": "event"
    },
    {
      "anonymous": false,
      "inputs": [
        {
          "indexed": true,
          "internalType": "bytes32",
          "name": "role",
          "type": "bytes32"
        },
        {
          "indexed": true,
          "internalType": "address",
          "name": "account",
          "type": "address"
        },
        {
          "indexed": true,
          "internalType": "address",
          "name": "sender",
          "type": "address"
        }
      ],
      "name": "RoleGranted",
      "type": "event"
    },
    {
      "anonymous": false,
      "inputs": [
        {
          "indexed": true,
          "internalType": "bytes32",
          "name": "role",
          "type": "bytes32"
        },
        {
          "indexed": true,
          "internalType": "address",
          "name": "account",
          "type": "address"
        },
        {
          "indexed": true,
          "internalType": "address",
          "name": "sender",
          "type": "address"
        }
      ],
      "name": "RoleRevoked",
      "type": "event"
    },
    {
      "anonymous": false,
      "inputs": [
        {
          "indexed": false,
          "internalType": "address",
          "name": "certContract",
          "type": "address"
        }
      ],
      "name": "certContractSet",
      "type": "event"
    },
    {
      "anonymous": false,
      "inputs": [
        {
          "indexed": false,
          "internalType": "address",
          "name": "deviceRegistry",
          "type": "address"
        }
      ],
      "name": "deviceRegistrySet",
      "type": "event"
    },
    {
      "anonymous": false,
      "inputs": [
        {
          "indexed": false,
          "internalType": "address",
          "name": "operator",
          "type": "address"
        }
      ],
      "name": "operatorRoleSet",
      "type": "event"
    },
    {
      "anonymous": false,
      "inputs": [
        {
          "indexed": false,
          "internalType": "address",
          "name": "tokenContract",
          "type": "address"
        }
      ],
      "name": "tokenContractSet",
      "type": "event"
    },
    {
      "anonymous": false,
      "inputs": [
        {
          "indexed": false,
          "internalType": "address",
          "name": "verifier",
          "type": "address"
        }
      ],
      "name": "verifierRoleSet",
      "type": "event"
    },
    {
      "inputs": [],
      "name": "ADMIN_ROLE",
      "outputs": [
        {
          "internalType": "bytes32",
          "name": "",
          "type": "bytes32"
        }
      ],
      "stateMutability": "view",
      "type": "function"
    },
    {
      "inputs": [],
      "name": "DEFAULT_ADMIN_ROLE",
      "outputs": [
        {
          "internalType": "bytes32",
          "name": "",
          "type": "bytes32"
        }
      ],
      "stateMutability": "view",
      "type": "function"
    },
    {
      "inputs": [],
      "name": "OPERATOR_ROLE",
      "outputs": [
        {
          "internalType": "bytes32",
          "name": "",
          "type": "bytes32"
        }
      ],
      "stateMutability": "view",
      "type": "function"
    },
    {
      "inputs": [],
      "name": "VERIFIER_ROLE",
      "outputs": [
        {
          "internalType": "bytes32",
          "name": "",
          "type": "bytes32"
        }
      ],
      "stateMutability": "view",
      "type": "function"
    },
    {
      "inputs": [
        {
          "internalType": "address",
          "name": "_company",
          "type": "address"
        },
        {
          "internalType": "uint256",
          "name": "_allowance",
          "type": "uint256"
        }
      ],
      "name": "addCompany",
      "outputs": [],
      "stateMutability": "nonpayable",
      "type": "function"
    },
    {
      "inputs": [
        {
          "internalType": "address",
          "name": "_company",
          "type": "address"
        },
        {
          "internalType": "uint256",
          "name": "_newAllowance",
          "type": "uint256"
        }
      ],
      "name": "adjustAllowance",
      "outputs": [],
      "stateMutability": "nonpayable",
      "type": "function"
    },
    {
      "inputs": [
        {
          "internalType": "address",
          "name": "",
          "type": "address"
        }
      ],
      "name": "companies",
      "outputs": [
        {
          "internalType": "uint256",
          "name": "allowance",
          "type": "uint256"
        },
        {
          "internalType": "uint256",
          "name": "trackedCO2",
          "type": "uint256"
        },
        {
          "internalType": "uint32",
          "name": "num_vehicles",
          "type": "uint32"
        },
        {
          "internalType": "uint32",
          "name": "vehicles_tracked",
          "type": "uint32"
        }
      ],
      "stateMutability": "view",
      "type": "function"
    },
    {
      "inputs": [
        {
          "internalType": "uint256",
          "name": "",
          "type": "uint256"
        }
      ],
      "name": "companyAddresses",
      "outputs": [
        {
          "internalType": "address",
          "name": "",
          "type": "address"
        }
      ],
      "stateMutability": "view",
      "type": "function"
    },
    {
      "inputs": [
        {
          "internalType": "address",
          "name": "_company",
          "type": "address"
        }
      ],
      "name": "decreaseVehicleCount",
      "outputs": [],
      "stateMutability": "nonpayable",
      "type": "function"
    },
    {
      "inputs": [
        {
          "internalType": "uint256",
          "name": "_deviceID",
          "type": "uint256"
        },
        {
          "internalType": "address",
          "name": "_company",
          "type": "address"
        },
        {
          "internalType": "uint256",
          "name": "_trackedCO2",
          "type": "uint256"
        }
      ],
      "name": "emissionReport",
      "outputs": [],
      "stateMutability": "nonpayable",
      "type": "function"
    },
    {
      "inputs": [
        {
          "internalType": "address",
          "name": "_company",
          "type": "address"
        }
      ],
      "name": "getCompanyStats",
      "outputs": [
        {
          "internalType": "uint256",
          "name": "",
          "type": "uint256"
        },
        {
          "internalType": "uint256",
          "name": "",
          "type": "uint256"
        },
        {
          "internalType": "uint32",
          "name": "",
          "type": "uint32"
        },
        {
          "internalType": "uint32",
          "name": "",
          "type": "uint32"
        }
      ],
      "stateMutability": "view",
      "type": "function"
    },
    {
      "inputs": [
        {
          "internalType": "bytes32",
          "name": "role",
          "type": "bytes32"
        }
      ],
      "name": "getRoleAdmin",
      "outputs": [
        {
          "internalType": "bytes32",
          "name": "",
          "type": "bytes32"
        }
      ],
      "stateMutability": "view",
      "type": "function"
    },
    {
      "inputs": [
        {
          "internalType": "bytes32",
          "name": "role",
          "type": "bytes32"
        },
        {
          "internalType": "address",
          "name": "account",
          "type": "address"
        }
      ],
      "name": "grantRole",
      "outputs": [],
      "stateMutability": "nonpayable",
      "type": "function"
    },
    {
      "inputs": [
        {
          "internalType": "bytes32",
          "name": "role",
          "type": "bytes32"
        },
        {
          "internalType": "address",
          "name": "account",
          "type": "address"
        }
      ],
      "name": "hasRole",
      "outputs": [
        {
          "internalType": "bool",
          "name": "",
          "type": "bool"
        }
      ],
      "stateMutability": "view",
      "type": "function"
    },
    {
      "inputs": [
        {
          "internalType": "address",
          "name": "_company",
          "type": "address"
        }
      ],
      "name": "increaseVehicleCount",
      "outputs": [],
      "stateMutability": "nonpayable",
      "type": "function"
    },
    {
      "inputs": [],
      "name": "offsetExcess",
      "outputs": [],
      "stateMutability": "nonpayable",
      "type": "function"
    },
    {
      "inputs": [
        {
          "internalType": "bytes32",
          "name": "role",
          "type": "bytes32"
        },
        {
          "internalType": "address",
          "name": "callerConfirmation",
          "type": "address"
        }
      ],
      "name": "renounceRole",
      "outputs": [],
      "stateMutability": "nonpayable",
      "type": "function"
    },
    {
      "inputs": [
        {
          "internalType": "address",
          "name": "_company",
          "type": "address"
        }
      ],
      "name": "resetCompanyData",
      "outputs": [],
      "stateMutability": "nonpayable",
      "type": "function"
    },
    {
      "inputs": [
        {
          "internalType": "bytes32",
          "name": "role",
          "type": "bytes32"
        },
        {
          "internalType": "address",
          "name": "account",
          "type": "address"
        }
      ],
      "name": "revokeRole",
      "outputs": [],
      "stateMutability": "nonpayable",
      "type": "function"
    },
    {
      "inputs": [
        {
          "internalType": "address",
          "name": "_certContract",
          "type": "address"
        }
      ],
      "name": "setCertContract",
      "outputs": [],
      "stateMutability": "nonpayable",
      "type": "function"
    },
    {
      "inputs": [
        {
          "internalType": "address",
          "name": "_deviceRegistry",
          "type": "address"
        }
      ],
      "name": "setDeviceRegistry",
      "outputs": [],
      "stateMutability": "nonpayable",
      "type": "function"
    },
    {
      "inputs": [
        {
          "internalType": "address",
          "name": "_mintingContract",
          "type": "address"
        }
      ],
      "name": "setMintingContract",
      "outputs": [],
      "stateMutability": "nonpayable",
      "type": "function"
    },
    {
      "inputs": [
        {
          "internalType": "address",
          "name": "_operator",
          "type": "address"
        }
      ],
      "name": "setOperatorRole",
      "outputs": [],
      "stateMutability": "nonpayable",
      "type": "function"
    },
    {
      "inputs": [
        {
          "internalType": "address",
          "name": "_verifier",
          "type": "address"
        }
      ],
      "name": "setVerifierRole",
      "outputs": [],
      "stateMutability": "nonpayable",
      "type": "function"
    },
    {
      "inputs": [
        {
          "internalType": "bytes4",
          "name": "interfaceId",
          "type": "bytes4"
        }
      ],
      "name": "supportsInterface",
      "outputs": [
        {
          "internalType": "bool",
          "name": "",
          "type": "bool"
        }
      ],
      "stateMutability": "view",
      "type": "function"
    }
  ],
  "bytecode": "0x60806040523480156200001157600080fd5b50620000447fa49807205ce4d355092ef5a8a18f56e8913cf4a201fbe287825b095693c2177533620000b160201b60201c565b50620000777f97667070c54ef182b0f5858b034beac1b6f3089aa2d3188bb1e8929f4fa9b92933620000b160201b60201c565b50620000aa7f0ce23c3e399818cfee81a7ab0880f714e53d7672b08df0fa62f2843416e1ea0933620000b160201b60201c565b5062000226565b6000620000c58383620001b460201b60201c565b620001a957600160008085815260200190815260200160002060000160008473ffffffffffffffffffffffffffffffffffffffff1673ffffffffffffffffffffffffffffffffffffffff16815260200190815260200160002060006101000a81548160ff021916908315150217905550620001456200021e60201b60201c565b73ffffffffffffffffffffffffffffffffffffffff168273ffffffffffffffffffffffffffffffffffffffff16847f2f8788117e7eff1d82e926ec794901d17c78024a50270940304540a733656f0d60405160405180910390a460019050620001ae565b600090505b92915050565b600080600084815260200190815260200160002060000160008373ffffffffffffffffffffffffffffffffffffffff1673ffffffffffffffffffffffffffffffffffffffff16815260200190815260200160002060009054906101000a900460ff16905092915050565b600033905090565b61265280620002366000396000f3fe608060405234801561001057600080fd5b50600436106101735760003560e01c80637fd1d980116100de578063aedf65c511610097578063d627452b11610071578063d627452b14610434578063e7705db614610450578063e8fbc0ad1461046e578063f5b541a61461048a57610173565b8063aedf65c5146103e0578063c56e1375146103fc578063d547741f1461041857610173565b80637fd1d9801461032057806391d148541461032a578063996878451461035a578063a1eb6f3c1461038a578063a217fddf146103a6578063acc69261146103c457610173565b806349ea55461161013057806349ea5546146102765780634cf8a130146102925780634e84951c146102ae5780635deed13a146102ca5780637137a23e146102e657806375b238fc1461030257610173565b806301ffc9a714610178578063248a9ca3146101a85780632f2ff15d146101d8578063355e6ce8146101f457806336568abe14610227578063462721e414610243575b600080fd5b610192600480360381019061018d9190611df8565b6104a8565b60405161019f9190611e40565b60405180910390f35b6101c260048036038101906101bd9190611e91565b610522565b6040516101cf9190611ecd565b60405180910390f35b6101f260048036038101906101ed9190611f46565b610541565b005b61020e60048036038101906102099190611f86565b610563565b60405161021e9493929190611feb565b60405180910390f35b610241600480360381019061023c9190611f46565b6105b3565b005b61025d60048036038101906102589190611f86565b61062e565b60405161026d9493929190611feb565b60405180910390f35b610290600480360381019061028b9190611f86565b61076f565b005b6102ac60048036038101906102a79190611f86565b610847565b005b6102c860048036038101906102c3919061205c565b6108d7565b005b6102e460048036038101906102df9190611f86565b610c6f565b005b61030060048036038101906102fb9190611f86565b610cff565b005b61030a610da5565b6040516103179190611ecd565b60405180910390f35b610328610dc9565b005b610344600480360381019061033f9190611f46565b6110e8565b6040516103519190611e40565b60405180910390f35b610374600480360381019061036f91906120af565b611152565b60405161038191906120eb565b60405180910390f35b6103a4600480360381019061039f9190612106565b611191565b005b6103ae611207565b6040516103bb9190611ecd565b60405180910390f35b6103de60048036038101906103d99190612106565b61120e565b005b6103fa60048036038101906103f59190611f86565b6113ad565b005b61041660048036038101906104119190611f86565b611453565b005b610432600480360381019061042d9190611f46565b6114f9565b005b61044e60048036038101906104499190611f86565b61151b565b005b6104586115c8565b6040516104659190611ecd565b60405180910390f35b61048860048036038101906104839190611f86565b6115ec565b005b610492611699565b60405161049f9190611ecd565b60405180910390f35b60007f7965db0b000000000000000000000000000000000000000000000000000000007bffffffffffffffffffffffffffffffffffffffffffffffffffffffff1916827bffffffffffffffffffffffffffffffffffffffffffffffffffffffff1916148061051b575061051a826116bd565b5b9050919050565b6000806000838152602001908152602001600020600101549050919050565b61054a82610522565b61055381611727565b61055d838361173b565b50505050565b60016020528060005260406000206000915090508060000154908060010154908060020160009054906101000a900463ffffffff16908060020160049054906101000a900463ffffffff16905084565b6105bb61182c565b73ffffffffffffffffffffffffffffffffffffffff168173ffffffffffffffffffffffffffffffffffffffff161461061f576040517f6697b23200000000000000000000000000000000000000000000000000000000815260040160405180910390fd5b6106298282611834565b505050565b600080600080600160008673ffffffffffffffffffffffffffffffffffffffff1673ffffffffffffffffffffffffffffffffffffffff16815260200190815260200160002060000154600160008773ffffffffffffffffffffffffffffffffffffffff1673ffffffffffffffffffffffffffffffffffffffff16815260200190815260200160002060010154600160008873ffffffffffffffffffffffffffffffffffffffff1673ffffffffffffffffffffffffffffffffffffffff16815260200190815260200160002060020160009054906101000a900463ffffffff16600160008973ffffffffffffffffffffffffffffffffffffffff1673ffffffffffffffffffffffffffffffffffffffff16815260200190815260200160002060020160049054906101000a900463ffffffff1693509350935093509193509193565b7f97667070c54ef182b0f5858b034beac1b6f3089aa2d3188bb1e8929f4fa9b92961079981611727565b6000600160008473ffffffffffffffffffffffffffffffffffffffff1673ffffffffffffffffffffffffffffffffffffffff168152602001908152602001600020600101819055506000600160008473ffffffffffffffffffffffffffffffffffffffff1673ffffffffffffffffffffffffffffffffffffffff16815260200190815260200160002060020160046101000a81548163ffffffff021916908363ffffffff1602179055505050565b7fa49807205ce4d355092ef5a8a18f56e8913cf4a201fbe287825b095693c2177561087181611727565b61089b7f97667070c54ef182b0f5858b034beac1b6f3089aa2d3188bb1e8929f4fa9b9298361173b565b507f693663dca4b53ef71deb189fd198973d5b279f1fb4b8eafb86e2261fb9c86949826040516108cb91906120eb565b60405180910390a15050565b7f0ce23c3e399818cfee81a7ab0880f714e53d7672b08df0fa62f2843416e1ea0961090181611727565b6000600560009054906101000a900473ffffffffffffffffffffffffffffffffffffffff1673ffffffffffffffffffffffffffffffffffffffff16630adfe0a0866040518263ffffffff1660e01b815260040161095e9190612146565b6020604051808303816000875af115801561097d573d6000803e3d6000fd5b505050506040513d601f19601f820116820180604052508101906109a19190612176565b90508373ffffffffffffffffffffffffffffffffffffffff168173ffffffffffffffffffffffffffffffffffffffff1614610a11576040517f08c379a0000000000000000000000000000000000000000000000000000000008152600401610a0890612226565b60405180910390fd5b82600160008673ffffffffffffffffffffffffffffffffffffffff1673ffffffffffffffffffffffffffffffffffffffff1681526020019081526020016000206001016000828254610a639190612275565b9250508190555060018060008673ffffffffffffffffffffffffffffffffffffffff1673ffffffffffffffffffffffffffffffffffffffff16815260200190815260200160002060020160048282829054906101000a900463ffffffff16610acb91906122a9565b92506101000a81548163ffffffff021916908363ffffffff1602179055507faf607489bb11828370979dff21650cae7b7a5abfe25f85f2c16ca9646f2578c185858584604051610b1e94939291906122e1565b60405180910390a1600160008573ffffffffffffffffffffffffffffffffffffffff1673ffffffffffffffffffffffffffffffffffffffff16815260200190815260200160002060020160009054906101000a900463ffffffff1663ffffffff16600160008673ffffffffffffffffffffffffffffffffffffffff1673ffffffffffffffffffffffffffffffffffffffff16815260200190815260200160002060020160049054906101000a900463ffffffff1663ffffffff1603610c29577f5e0fd333e7e30834af48b08aada743ba7867586084525bf6ff9e0528475bd3608582856001604051610c139493929190612326565b60405180910390a1610c2484611926565b610c68565b7f5e0fd333e7e30834af48b08aada743ba7867586084525bf6ff9e0528475bd3608582856000604051610c5f9493929190612326565b60405180910390a15b5050505050565b7fa49807205ce4d355092ef5a8a18f56e8913cf4a201fbe287825b095693c21775610c9981611727565b610cc37f0ce23c3e399818cfee81a7ab0880f714e53d7672b08df0fa62f2843416e1ea098361173b565b507f704ea5d92f6606a9566da5dcdee5a4fcac4d1ba84763e573e81acf43a902fce282604051610cf391906120eb565b60405180910390a15050565b7fa49807205ce4d355092ef5a8a18f56e8913cf4a201fbe287825b095693c21775610d2981611727565b81600560006101000a81548173ffffffffffffffffffffffffffffffffffffffff021916908373ffffffffffffffffffffffffffffffffffffffff1602179055507f82811345e2ada6493499e58f8aae89e17fa54b10ee17c0df1e87e92b76bb807582604051610d9991906120eb565b60405180910390a15050565b7fa49807205ce4d355092ef5a8a18f56e8913cf4a201fbe287825b095693c2177581565b60003390506000600160008373ffffffffffffffffffffffffffffffffffffffff1673ffffffffffffffffffffffffffffffffffffffff16815260200190815260200160002060000154600160008473ffffffffffffffffffffffffffffffffffffffff1673ffffffffffffffffffffffffffffffffffffffff16815260200190815260200160002060010154610e60919061236b565b905060008103610ea5576040517f08c379a0000000000000000000000000000000000000000000000000000000008152600401610e9c906123eb565b60405180910390fd5b6000600360009054906101000a900473ffffffffffffffffffffffffffffffffffffffff1673ffffffffffffffffffffffffffffffffffffffff166370a08231846040518263ffffffff1660e01b8152600401610f0291906120eb565b6020604051808303816000875af1158015610f21573d6000803e3d6000fd5b505050506040513d601f19601f82011682018060405250810190610f459190612420565b90508181106110a857600360009054906101000a900473ffffffffffffffffffffffffffffffffffffffff1673ffffffffffffffffffffffffffffffffffffffff16639dc29fac84846040518363ffffffff1660e01b8152600401610fab92919061244d565b600060405180830381600087803b158015610fc557600080fd5b505af1158015610fd9573d6000803e3d6000fd5b50505050600160008473ffffffffffffffffffffffffffffffffffffffff1673ffffffffffffffffffffffffffffffffffffffff16815260200190815260200160002060000154600160008573ffffffffffffffffffffffffffffffffffffffff1673ffffffffffffffffffffffffffffffffffffffff168152602001908152602001600020600101819055507fc3a557ee4569dbf1b0e6eb12ed4b6f06e305d5dd0dff22d87277251de09607fc836000600160405161109b939291906124bb565b60405180910390a16110e3565b6040517f08c379a00000000000000000000000000000000000000000000000000000000081526004016110da90612564565b60405180910390fd5b505050565b600080600084815260200190815260200160002060000160008373ffffffffffffffffffffffffffffffffffffffff1673ffffffffffffffffffffffffffffffffffffffff16815260200190815260200160002060009054906101000a900460ff16905092915050565b6002818154811061116257600080fd5b906000526020600020016000915054906101000a900473ffffffffffffffffffffffffffffffffffffffff1681565b7f97667070c54ef182b0f5858b034beac1b6f3089aa2d3188bb1e8929f4fa9b9296111bb81611727565b81600160008573ffffffffffffffffffffffffffffffffffffffff1673ffffffffffffffffffffffffffffffffffffffff16815260200190815260200160002060000181905550505050565b6000801b81565b7f97667070c54ef182b0f5858b034beac1b6f3089aa2d3188bb1e8929f4fa9b92961123881611727565b604051806080016040528083815260200160008152602001600063ffffffff168152602001600063ffffffff16815250600160008573ffffffffffffffffffffffffffffffffffffffff1673ffffffffffffffffffffffffffffffffffffffff168152602001908152602001600020600082015181600001556020820151816001015560408201518160020160006101000a81548163ffffffff021916908363ffffffff16021790555060608201518160020160046101000a81548163ffffffff021916908363ffffffff1602179055509050506002839080600181540180825580915050600190039060005260206000200160009091909190916101000a81548173ffffffffffffffffffffffffffffffffffffffff021916908373ffffffffffffffffffffffffffffffffffffffff1602179055507f691cdb19bc623305219a269af7817a9193c5be73b0cb419d1b6f6c080306893a83836040516113a092919061244d565b60405180910390a1505050565b7fa49807205ce4d355092ef5a8a18f56e8913cf4a201fbe287825b095693c217756113d781611727565b81600460006101000a81548173ffffffffffffffffffffffffffffffffffffffff021916908373ffffffffffffffffffffffffffffffffffffffff1602179055507fe0fe7079f3e1809e47f9258cb71768986e8c13cb9eaf8dd5cb803cf766d7a0fa8260405161144791906120eb565b60405180910390a15050565b7fa49807205ce4d355092ef5a8a18f56e8913cf4a201fbe287825b095693c2177561147d81611727565b81600360006101000a81548173ffffffffffffffffffffffffffffffffffffffff021916908373ffffffffffffffffffffffffffffffffffffffff1602179055507f96bd71a123598a1873f3691f46f557092eda081a94f6e6d8e370b4e8c7cbd41f826040516114ed91906120eb565b60405180910390a15050565b61150282610522565b61150b81611727565b6115158383611834565b50505050565b7f97667070c54ef182b0f5858b034beac1b6f3089aa2d3188bb1e8929f4fa9b92961154581611727565b60018060008473ffffffffffffffffffffffffffffffffffffffff1673ffffffffffffffffffffffffffffffffffffffff16815260200190815260200160002060020160008282829054906101000a900463ffffffff166115a69190612584565b92506101000a81548163ffffffff021916908363ffffffff1602179055505050565b7f0ce23c3e399818cfee81a7ab0880f714e53d7672b08df0fa62f2843416e1ea0981565b7f97667070c54ef182b0f5858b034beac1b6f3089aa2d3188bb1e8929f4fa9b92961161681611727565b60018060008473ffffffffffffffffffffffffffffffffffffffff1673ffffffffffffffffffffffffffffffffffffffff16815260200190815260200160002060020160008282829054906101000a900463ffffffff1661167791906122a9565b92506101000a81548163ffffffff021916908363ffffffff1602179055505050565b7f97667070c54ef182b0f5858b034beac1b6f3089aa2d3188bb1e8929f4fa9b92981565b60007f01ffc9a7000000000000000000000000000000000000000000000000000000007bffffffffffffffffffffffffffffffffffffffffffffffffffffffff1916827bffffffffffffffffffffffffffffffffffffffffffffffffffffffff1916149050919050565b6117388161173361182c565b611d4a565b50565b600061174783836110e8565b61182157600160008085815260200190815260200160002060000160008473ffffffffffffffffffffffffffffffffffffffff1673ffffffffffffffffffffffffffffffffffffffff16815260200190815260200160002060006101000a81548160ff0219169083151502179055506117be61182c565b73ffffffffffffffffffffffffffffffffffffffff168273ffffffffffffffffffffffffffffffffffffffff16847f2f8788117e7eff1d82e926ec794901d17c78024a50270940304540a733656f0d60405160405180910390a460019050611826565b600090505b92915050565b600033905090565b600061184083836110e8565b1561191b57600080600085815260200190815260200160002060000160008473ffffffffffffffffffffffffffffffffffffffff1673ffffffffffffffffffffffffffffffffffffffff16815260200190815260200160002060006101000a81548160ff0219169083151502179055506118b861182c565b73ffffffffffffffffffffffffffffffffffffffff168273ffffffffffffffffffffffffffffffffffffffff16847ff6391f5c32d9c69d2a47ea670b442974b53935d1edc7fd64eb21e047a839171b60405160405180910390a460019050611920565b600090505b92915050565b600160008273ffffffffffffffffffffffffffffffffffffffff1673ffffffffffffffffffffffffffffffffffffffff16815260200190815260200160002060000154600160008373ffffffffffffffffffffffffffffffffffffffff1673ffffffffffffffffffffffffffffffffffffffff1681526020019081526020016000206001015403611a3b576000600160008373ffffffffffffffffffffffffffffffffffffffff1673ffffffffffffffffffffffffffffffffffffffff168152602001908152602001600020600101819055507fc3a557ee4569dbf1b0e6eb12ed4b6f06e305d5dd0dff22d87277251de09607fc8160006001604051611a2e939291906124bb565b60405180910390a1611d47565b600160008273ffffffffffffffffffffffffffffffffffffffff1673ffffffffffffffffffffffffffffffffffffffff16815260200190815260200160002060000154600160008373ffffffffffffffffffffffffffffffffffffffff1673ffffffffffffffffffffffffffffffffffffffff168152602001908152602001600020600101541015611c74576000600160008373ffffffffffffffffffffffffffffffffffffffff1673ffffffffffffffffffffffffffffffffffffffff16815260200190815260200160002060010154600160008473ffffffffffffffffffffffffffffffffffffffff1673ffffffffffffffffffffffffffffffffffffffff16815260200190815260200160002060000154611b59919061236b565b9050600360009054906101000a900473ffffffffffffffffffffffffffffffffffffffff1673ffffffffffffffffffffffffffffffffffffffff166340c10f1983836040518363ffffffff1660e01b8152600401611bb892919061244d565b600060405180830381600087803b158015611bd257600080fd5b505af1158015611be6573d6000803e3d6000fd5b505050506000600160008473ffffffffffffffffffffffffffffffffffffffff1673ffffffffffffffffffffffffffffffffffffffff168152602001908152602001600020600101819055507fc3a557ee4569dbf1b0e6eb12ed4b6f06e305d5dd0dff22d87277251de09607fc82826001604051611c66939291906125bc565b60405180910390a150611d46565b6000600160008373ffffffffffffffffffffffffffffffffffffffff1673ffffffffffffffffffffffffffffffffffffffff16815260200190815260200160002060000154600160008473ffffffffffffffffffffffffffffffffffffffff1673ffffffffffffffffffffffffffffffffffffffff16815260200190815260200160002060010154611d06919061236b565b90507fc3a557ee4569dbf1b0e6eb12ed4b6f06e305d5dd0dff22d87277251de09607fc82826000604051611d3c939291906125bc565b60405180910390a1505b5b50565b611d5482826110e8565b611d975780826040517fe2517d3f000000000000000000000000000000000000000000000000000000008152600401611d8e9291906125f3565b60405180910390fd5b5050565b600080fd5b60007fffffffff0000000000000000000000000000000000000000000000000000000082169050919050565b611dd581611da0565b8114611de057600080fd5b50565b600081359050611df281611dcc565b92915050565b600060208284031215611e0e57611e0d611d9b565b5b6000611e1c84828501611de3565b91505092915050565b60008115159050919050565b611e3a81611e25565b82525050565b6000602082019050611e556000830184611e31565b92915050565b6000819050919050565b611e6e81611e5b565b8114611e7957600080fd5b50565b600081359050611e8b81611e65565b92915050565b600060208284031215611ea757611ea6611d9b565b5b6000611eb584828501611e7c565b91505092915050565b611ec781611e5b565b82525050565b6000602082019050611ee26000830184611ebe565b92915050565b600073ffffffffffffffffffffffffffffffffffffffff82169050919050565b6000611f1382611ee8565b9050919050565b611f2381611f08565b8114611f2e57600080fd5b50565b600081359050611f4081611f1a565b92915050565b60008060408385031215611f5d57611f5c611d9b565b5b6000611f6b85828601611e7c565b9250506020611f7c85828601611f31565b9150509250929050565b600060208284031215611f9c57611f9b611d9b565b5b6000611faa84828501611f31565b91505092915050565b6000819050919050565b611fc681611fb3565b82525050565b600063ffffffff82169050919050565b611fe581611fcc565b82525050565b60006080820190506120006000830187611fbd565b61200d6020830186611fbd565b61201a6040830185611fdc565b6120276060830184611fdc565b95945050505050565b61203981611fb3565b811461204457600080fd5b50565b60008135905061205681612030565b92915050565b60008060006060848603121561207557612074611d9b565b5b600061208386828701612047565b935050602061209486828701611f31565b92505060406120a586828701612047565b9150509250925092565b6000602082840312156120c5576120c4611d9b565b5b60006120d384828501612047565b91505092915050565b6120e581611f08565b82525050565b600060208201905061210060008301846120dc565b92915050565b6000806040838503121561211d5761211c611d9b565b5b600061212b85828601611f31565b925050602061213c85828601612047565b9150509250929050565b600060208201905061215b6000830184611fbd565b92915050565b60008151905061217081611f1a565b92915050565b60006020828403121561218c5761218b611d9b565b5b600061219a84828501612161565b91505092915050565b600082825260208201905092915050565b7f56656869636c65206e6f74207265676973746572656420746f20636f6d70616e60008201527f7900000000000000000000000000000000000000000000000000000000000000602082015250565b60006122106021836121a3565b915061221b826121b4565b604082019050919050565b6000602082019050818103600083015261223f81612203565b9050919050565b7f4e487b7100000000000000000000000000000000000000000000000000000000600052601160045260246000fd5b600061228082611fb3565b915061228b83611fb3565b92508282019050808211156122a3576122a2612246565b5b92915050565b60006122b482611fcc565b91506122bf83611fcc565b9250828201905063ffffffff8111156122db576122da612246565b5b92915050565b60006080820190506122f66000830187611fbd565b61230360208301866120dc565b6123106040830185611fbd565b61231d60608301846120dc565b95945050505050565b600060808201905061233b6000830187611fbd565b61234860208301866120dc565b6123556040830185611fbd565b6123626060830184611e31565b95945050505050565b600061237682611fb3565b915061238183611fb3565b925082820390508181111561239957612398612246565b5b92915050565b7f4e6f2065786365737320746f206f666673657400000000000000000000000000600082015250565b60006123d56013836121a3565b91506123e08261239f565b602082019050919050565b60006020820190508181036000830152612404816123c8565b9050919050565b60008151905061241a81612030565b92915050565b60006020828403121561243657612435611d9b565b5b60006124448482850161240b565b91505092915050565b600060408201905061246260008301856120dc565b61246f6020830184611fbd565b9392505050565b6000819050919050565b6000819050919050565b60006124a56124a061249b84612476565b612480565b611fb3565b9050919050565b6124b58161248a565b82525050565b60006060820190506124d060008301866120dc565b6124dd60208301856124ac565b6124ea6040830184611e31565b949350505050565b7f496e73756666696369656e7420746f6b656e7320746f206f666673657420657860008201527f6365737300000000000000000000000000000000000000000000000000000000602082015250565b600061254e6024836121a3565b9150612559826124f2565b604082019050919050565b6000602082019050818103600083015261257d81612541565b9050919050565b600061258f82611fcc565b915061259a83611fcc565b9250828203905063ffffffff8111156125b6576125b5612246565b5b92915050565b60006060820190506125d160008301866120dc565b6125de6020830185611fbd565b6125eb6040830184611e31565b949350505050565b600060408201905061260860008301856120dc565b6126156020830184611ebe565b939250505056fea2646970667358221220c7092c5e07a6d0d6ff23c54c356e53dd31cc696f7f0ada5577f50605a81c48d364736f6c63430008180033",
  "linkReferences": {},
  "deployedLinkReferences": {}
}