{
  "_format": "hh-sol-artifact-1",
  "contractName": "DeviceRegistry",
  "sourceName": "contracts/DeviceRegistry.sol",
  "abi": [
    {
      "inputs": [],
      "stateMutability": "nonpayable",
      "type": "constructor"
    },
    {
      "inputs": [],
      "name": "AccessControlBadConfirmation",
      "type": "error"
    },
    {
      "inputs": [
        {
          "internalType": "address",
          "name": "account",
          "type": "address"
        },
        {
          "internalType": "bytes32",
          "name": "neededRole",
          "type": "bytes32"
        }
      ],
      "name": "AccessControlUnauthorizedAccount",
      "type": "error"
    },
    {
      "anonymous": false,
      "inputs": [
        {
          "indexed": false,
          "internalType": "address",
          "name": "_allowanceContract",
          "type": "address"
        }
      ],
      "name": "AllowanceContractSet",
      "type": "event"
    },
    {
      "anonymous": false,
      "inputs": [
        {
          "indexed": false,
          "internalType": "string",
          "name": "deviceID",
          "type": "string"
        },
        {
          "indexed": false,
          "internalType": "address",
          "name": "_wallet",
          "type": "address"
        },
        {
          "indexed": false,
          "internalType": "bool",
          "name": "isBound",
          "type": "bool"
        }
      ],
      "name": "DeviceBound",
      "type": "event"
    },
    {
      "anonymous": false,
      "inputs": [
        {
          "indexed": false,
          "internalType": "string",
          "name": "deviceID",
          "type": "string"
        },
        {
          "indexed": false,
          "internalType": "string",
          "name": "vehicleId",
          "type": "string"
        },
        {
          "indexed": false,
          "internalType": "bool",
          "name": "isRegistered",
          "type": "bool"
        }
      ],
      "name": "DeviceRegistered",
      "type": "event"
    },
    {
      "anonymous": false,
      "inputs": [
        {
          "indexed": true,
          "internalType": "bytes32",
          "name": "role",
          "type": "bytes32"
        },
        {
          "indexed": true,
          "internalType": "bytes32",
          "name": "previousAdminRole",
          "type": "bytes32"
        },
        {
          "indexed": true,
          "internalType": "bytes32",
          "name": "newAdminRole",
          "type": "bytes32"
        }
      ],
      "name": "RoleAdminChanged",
      "type": "event"
    },
    {
      "anonymous": false,
      "inputs": [
        {
          "indexed": true,
          "internalType": "bytes32",
          "name": "role",
          "type": "bytes32"
        },
        {
          "indexed": true,
          "internalType": "address",
          "name": "account",
          "type": "address"
        },
        {
          "indexed": true,
          "internalType": "address",
          "name": "sender",
          "type": "address"
        }
      ],
      "name": "RoleGranted",
      "type": "event"
    },
    {
      "anonymous": false,
      "inputs": [
        {
          "indexed": true,
          "internalType": "bytes32",
          "name": "role",
          "type": "bytes32"
        },
        {
          "indexed": true,
          "internalType": "address",
          "name": "account",
          "type": "address"
        },
        {
          "indexed": true,
          "internalType": "address",
          "name": "sender",
          "type": "address"
        }
      ],
      "name": "RoleRevoked",
      "type": "event"
    },
    {
      "inputs": [],
      "name": "ADMIN_ROLE",
      "outputs": [
        {
          "internalType": "bytes32",
          "name": "",
          "type": "bytes32"
        }
      ],
      "stateMutability": "view",
      "type": "function"
    },
    {
      "inputs": [],
      "name": "DEFAULT_ADMIN_ROLE",
      "outputs": [
        {
          "internalType": "bytes32",
          "name": "",
          "type": "bytes32"
        }
      ],
      "stateMutability": "view",
      "type": "function"
    },
    {
      "inputs": [],
      "name": "OPERATOR_ROLE",
      "outputs": [
        {
          "internalType": "bytes32",
          "name": "",
          "type": "bytes32"
        }
      ],
      "stateMutability": "view",
      "type": "function"
    },
    {
      "inputs": [
        {
          "internalType": "string",
          "name": "_deviceID",
          "type": "string"
        }
      ],
      "name": "getDeviceWallet",
      "outputs": [
        {
          "internalType": "address",
          "name": "",
          "type": "address"
        }
      ],
      "stateMutability": "view",
      "type": "function"
    },
    {
      "inputs": [
        {
          "internalType": "address",
          "name": "_wallet",
          "type": "address"
        }
      ],
      "name": "getDevicesByWallet",
      "outputs": [
        {
          "internalType": "string[]",
          "name": "",
          "type": "string[]"
        }
      ],
      "stateMutability": "view",
      "type": "function"
    },
    {
      "inputs": [
        {
          "internalType": "bytes32",
          "name": "role",
          "type": "bytes32"
        }
      ],
      "name": "getRoleAdmin",
      "outputs": [
        {
          "internalType": "bytes32",
          "name": "",
          "type": "bytes32"
        }
      ],
      "stateMutability": "view",
      "type": "function"
    },
    {
      "inputs": [
        {
          "internalType": "bytes32",
          "name": "role",
          "type": "bytes32"
        },
        {
          "internalType": "address",
          "name": "account",
          "type": "address"
        }
      ],
      "name": "grantRole",
      "outputs": [],
      "stateMutability": "nonpayable",
      "type": "function"
    },
    {
      "inputs": [
        {
          "internalType": "bytes32",
          "name": "role",
          "type": "bytes32"
        },
        {
          "internalType": "address",
          "name": "account",
          "type": "address"
        }
      ],
      "name": "hasRole",
      "outputs": [
        {
          "internalType": "bool",
          "name": "",
          "type": "bool"
        }
      ],
      "stateMutability": "view",
      "type": "function"
    },
    {
      "inputs": [],
      "name": "pebblesCount",
      "outputs": [
        {
          "internalType": "uint256",
          "name": "",
          "type": "uint256"
        }
      ],
      "stateMutability": "view",
      "type": "function"
    },
    {
      "inputs": [
        {
          "internalType": "string",
          "name": "_deviceID",
          "type": "string"
        },
        {
          "internalType": "string",
          "name": "_vehicleId",
          "type": "string"
        },
        {
          "internalType": "address",
          "name": "_wallet",
          "type": "address"
        }
      ],
      "name": "registerDevice",
      "outputs": [],
      "stateMutability": "nonpayable",
      "type": "function"
    },
    {
      "inputs": [
        {
          "internalType": "string",
          "name": "_vehicleId",
          "type": "string"
        },
        {
          "internalType": "string",
          "name": "_vehicleType",
          "type": "string"
        },
        {
          "internalType": "uint256",
          "name": "_avgEmissions",
          "type": "uint256"
        }
      ],
      "name": "registerVehicle",
      "outputs": [],
      "stateMutability": "nonpayable",
      "type": "function"
    },
    {
      "inputs": [
        {
          "internalType": "bytes32",
          "name": "role",
          "type": "bytes32"
        },
        {
          "internalType": "address",
          "name": "callerConfirmation",
          "type": "address"
        }
      ],
      "name": "renounceRole",
      "outputs": [],
      "stateMutability": "nonpayable",
      "type": "function"
    },
    {
      "inputs": [
        {
          "internalType": "bytes32",
          "name": "role",
          "type": "bytes32"
        },
        {
          "internalType": "address",
          "name": "account",
          "type": "address"
        }
      ],
      "name": "revokeRole",
      "outputs": [],
      "stateMutability": "nonpayable",
      "type": "function"
    },
    {
      "inputs": [
        {
          "internalType": "address",
          "name": "_allowanceContract",
          "type": "address"
        }
      ],
      "name": "setAllowanceContract",
      "outputs": [],
      "stateMutability": "nonpayable",
      "type": "function"
    },
    {
      "inputs": [
        {
          "internalType": "bytes4",
          "name": "interfaceId",
          "type": "bytes4"
        }
      ],
      "name": "supportsInterface",
      "outputs": [
        {
          "internalType": "bool",
          "name": "",
          "type": "bool"
        }
      ],
      "stateMutability": "view",
      "type": "function"
    },
    {
      "inputs": [
        {
          "internalType": "string",
          "name": "_deviceID",
          "type": "string"
        },
        {
          "internalType": "string",
          "name": "_vehicleId",
          "type": "string"
        }
      ],
      "name": "switchVehicle",
      "outputs": [],
      "stateMutability": "nonpayable",
      "type": "function"
    },
    {
      "inputs": [
        {
          "internalType": "string",
          "name": "_deviceID",
          "type": "string"
        },
        {
          "internalType": "address",
          "name": "_wallet",
          "type": "address"
        }
      ],
      "name": "transferDeviceOwnerIoCarb",
      "outputs": [],
      "stateMutability": "nonpayable",
      "type": "function"
    },
    {
      "inputs": [
        {
          "internalType": "string",
          "name": "_deviceID",
          "type": "string"
        }
      ],
      "name": "unregisterDevice",
      "outputs": [],
      "stateMutability": "nonpayable",
      "type": "function"
    }
  ],
  "bytecode": "0x608060405260006001553480156200001657600080fd5b50620000497fa49807205ce4d355092ef5a8a18f56e8913cf4a201fbe287825b095693c21775336200008360201b60201c565b506200007c7f97667070c54ef182b0f5858b034beac1b6f3089aa2d3188bb1e8929f4fa9b929336200008360201b60201c565b50620001f8565b60006200009783836200018660201b60201c565b6200017b57600160008085815260200190815260200160002060000160008473ffffffffffffffffffffffffffffffffffffffff1673ffffffffffffffffffffffffffffffffffffffff16815260200190815260200160002060006101000a81548160ff02191690831515021790555062000117620001f060201b60201c565b73ffffffffffffffffffffffffffffffffffffffff168273ffffffffffffffffffffffffffffffffffffffff16847f2f8788117e7eff1d82e926ec794901d17c78024a50270940304540a733656f0d60405160405180910390a46001905062000180565b600090505b92915050565b600080600084815260200190815260200160002060000160008373ffffffffffffffffffffffffffffffffffffffff1673ffffffffffffffffffffffffffffffffffffffff16815260200190815260200160002060009054906101000a900460ff16905092915050565b600033905090565b61218a80620002086000396000f3fe608060405234801561001057600080fd5b50600436106101165760003560e01c806375b238fc116100a2578063d547741f11610071578063d547741f146102ef578063ea4c16191461030b578063ed507bbf14610327578063f38ab9f614610343578063f5b541a61461036157610116565b806375b238fc1461025357806391d1485414610271578063a217fddf146102a1578063cbed9d1e146102bf57610116565b806331b61704116100e957806331b61704146101b357806336568abe146101cf5780633d748d4e146101eb5780635b86becb146102075780636d2442b01461022357610116565b806301ffc9a71461011b5780630b2948141461014b578063248a9ca3146101675780632f2ff15d14610197575b600080fd5b61013560048036038101906101309190611397565b61037f565b60405161014291906113df565b60405180910390f35b6101656004803603810190610160919061145f565b6103f9565b005b610181600480360381019061017c91906114e2565b6105b6565b60405161018e919061151e565b60405180910390f35b6101b160048036038101906101ac9190611597565b6105d5565b005b6101cd60048036038101906101c891906115d7565b6105f7565b005b6101e960048036038101906101e49190611597565b61069d565b005b61020560048036038101906102009190611604565b610718565b005b610221600480360381019061021c9190611664565b6107e8565b005b61023d600480360381019061023891906115d7565b61088c565b60405161024a9190611837565b60405180910390f35b61025b610b2e565b604051610268919061151e565b60405180910390f35b61028b60048036038101906102869190611597565b610b52565b60405161029891906113df565b60405180910390f35b6102a9610bbc565b6040516102b6919061151e565b60405180910390f35b6102d960048036038101906102d4919061145f565b610bc3565b6040516102e69190611868565b60405180910390f35b61030960048036038101906103049190611597565b610c11565b005b61032560048036038101906103209190611883565b610c33565b005b610341600480360381019061033c919061194e565b610f26565b005b61034b610ff4565b60405161035891906119f2565b60405180910390f35b610369610ffa565b604051610376919061151e565b60405180910390f35b60007f7965db0b000000000000000000000000000000000000000000000000000000007bffffffffffffffffffffffffffffffffffffffffffffffffffffffff1916827bffffffffffffffffffffffffffffffffffffffffffffffffffffffff191614806103f257506103f18261101e565b5b9050919050565b7f97667070c54ef182b0f5858b034beac1b6f3089aa2d3188bb1e8929f4fa9b92961042381611088565b600560009054906101000a900473ffffffffffffffffffffffffffffffffffffffff1673ffffffffffffffffffffffffffffffffffffffff1663d627452b60028585604051610473929190611a4c565b908152602001604051809103902060010160019054906101000a900473ffffffffffffffffffffffffffffffffffffffff166040518263ffffffff1660e01b81526004016104c19190611868565b600060405180830381600087803b1580156104db57600080fd5b505af11580156104ef573d6000803e3d6000fd5b5050505060028383604051610505929190611a4c565b90815260200160405180910390206000808201600061052491906112d8565b6001820160006101000a81549060ff02191690556001820160016101000a81549073ffffffffffffffffffffffffffffffffffffffff02191690556001820160156101000a81549060ff021916905550507f7f7a0070b9690367dd417f95bb237c24d6b0c3f0b0e38d3cc894b338edc43922838360006040516105a993929190611ac9565b60405180910390a1505050565b6000806000838152602001908152602001600020600101549050919050565b6105de826105b6565b6105e781611088565b6105f1838361109c565b50505050565b7fa49807205ce4d355092ef5a8a18f56e8913cf4a201fbe287825b095693c2177561062181611088565b81600560006101000a81548173ffffffffffffffffffffffffffffffffffffffff021916908373ffffffffffffffffffffffffffffffffffffffff1602179055507f7d972887013bc922872d7ec66f74c2888129d7917edec15b9eabb2276385d580826040516106919190611868565b60405180910390a15050565b6106a561118d565b73ffffffffffffffffffffffffffffffffffffffff168173ffffffffffffffffffffffffffffffffffffffff1614610709576040517f6697b23200000000000000000000000000000000000000000000000000000000815260040160405180910390fd5b6107138282611195565b505050565b7f97667070c54ef182b0f5858b034beac1b6f3089aa2d3188bb1e8929f4fa9b92961074281611088565b8160028585604051610755929190611a4c565b908152602001604051809103902060010160016101000a81548173ffffffffffffffffffffffffffffffffffffffff021916908373ffffffffffffffffffffffffffffffffffffffff1602179055507f74bce22327487d789fd5be584e1c913d2f53976124c713f453920fe03871ad2c84848460016040516107da9493929190611b0e565b60405180910390a150505050565b7f97667070c54ef182b0f5858b034beac1b6f3089aa2d3188bb1e8929f4fa9b92961081281611088565b828260028787604051610826929190611a4c565b90815260200160405180910390206000019182610844929190611d94565b507f7f7a0070b9690367dd417f95bb237c24d6b0c3f0b0e38d3cc894b338edc4392285858585600160405161087d959493929190611e64565b60405180910390a15050505050565b60606000805b60038054905081101561094c578373ffffffffffffffffffffffffffffffffffffffff166002600383815481106108cc576108cb611ead565b5b906000526020600020016040516108e39190611f5f565b908152602001604051809103902060010160019054906101000a900473ffffffffffffffffffffffffffffffffffffffff1673ffffffffffffffffffffffffffffffffffffffff160361093f57818061093b90611fa5565b9250505b8080600101915050610892565b5060008167ffffffffffffffff81111561096957610968611b59565b5b60405190808252806020026020018201604052801561099c57816020015b60608152602001906001900390816109875790505b5090506000805b600380549050811015610b22578573ffffffffffffffffffffffffffffffffffffffff166002600383815481106109dd576109dc611ead565b5b906000526020600020016040516109f49190611f5f565b908152602001604051809103902060010160019054906101000a900473ffffffffffffffffffffffffffffffffffffffff1673ffffffffffffffffffffffffffffffffffffffff1603610b155760038181548110610a5557610a54611ead565b5b906000526020600020018054610a6a90611bb7565b80601f0160208091040260200160405190810160405280929190818152602001828054610a9690611bb7565b8015610ae35780601f10610ab857610100808354040283529160200191610ae3565b820191906000526020600020905b815481529060010190602001808311610ac657829003601f168201915b5050505050838381518110610afb57610afa611ead565b5b60200260200101819052508180610b1190611fa5565b9250505b80806001019150506109a3565b50819350505050919050565b7fa49807205ce4d355092ef5a8a18f56e8913cf4a201fbe287825b095693c2177581565b600080600084815260200190815260200160002060000160008373ffffffffffffffffffffffffffffffffffffffff1673ffffffffffffffffffffffffffffffffffffffff16815260200190815260200160002060009054906101000a900460ff16905092915050565b6000801b81565b600060028383604051610bd7929190611a4c565b908152602001604051809103902060010160019054906101000a900473ffffffffffffffffffffffffffffffffffffffff16905092915050565b610c1a826105b6565b610c2381611088565b610c2d8383611195565b50505050565b7f97667070c54ef182b0f5858b034beac1b6f3089aa2d3188bb1e8929f4fa9b929610c5d81611088565b858560028282604051610c71929190611a4c565b908152602001604051809103902060010160009054906101000a900460ff1615610cd0576040517f08c379a0000000000000000000000000000000000000000000000000000000008152600401610cc790612039565b60405180910390fd5b604051806080016040528087878080601f016020809104026020016040519081016040528093929190818152602001838380828437600081840152601f19601f8201169050808301925050505050505081526020016001151581526020018573ffffffffffffffffffffffffffffffffffffffff1681526020016001151581525060028989604051610d63929190611a4c565b90815260200160405180910390206000820151816000019081610d869190612059565b5060208201518160010160006101000a81548160ff02191690831515021790555060408201518160010160016101000a81548173ffffffffffffffffffffffffffffffffffffffff021916908373ffffffffffffffffffffffffffffffffffffffff16021790555060608201518160010160156101000a81548160ff0219169083151502179055509050506003888890918060018154018082558091505060019003906000526020600020016000909192909192909192909192509182610e4e929190611d94565b50600560009054906101000a900473ffffffffffffffffffffffffffffffffffffffff1673ffffffffffffffffffffffffffffffffffffffff1663e8fbc0ad856040518263ffffffff1660e01b8152600401610eaa9190611868565b600060405180830381600087803b158015610ec457600080fd5b505af1158015610ed8573d6000803e3d6000fd5b505050507f7f7a0070b9690367dd417f95bb237c24d6b0c3f0b0e38d3cc894b338edc43922888888886001604051610f14959493929190611e64565b60405180910390a15050505050505050565b7f97667070c54ef182b0f5858b034beac1b6f3089aa2d3188bb1e8929f4fa9b929610f5081611088565b604051806040016040528085858080601f016020809104026020016040519081016040528093929190818152602001838380828437600081840152601f19601f8201169050808301925050505050505081526020018381525060048787604051610fbb929190611a4c565b90815260200160405180910390206000820151816000019081610fde9190612059565b5060208201518160010155905050505050505050565b60015481565b7f97667070c54ef182b0f5858b034beac1b6f3089aa2d3188bb1e8929f4fa9b92981565b60007f01ffc9a7000000000000000000000000000000000000000000000000000000007bffffffffffffffffffffffffffffffffffffffffffffffffffffffff1916827bffffffffffffffffffffffffffffffffffffffffffffffffffffffff1916149050919050565b6110998161109461118d565b611287565b50565b60006110a88383610b52565b61118257600160008085815260200190815260200160002060000160008473ffffffffffffffffffffffffffffffffffffffff1673ffffffffffffffffffffffffffffffffffffffff16815260200190815260200160002060006101000a81548160ff02191690831515021790555061111f61118d565b73ffffffffffffffffffffffffffffffffffffffff168273ffffffffffffffffffffffffffffffffffffffff16847f2f8788117e7eff1d82e926ec794901d17c78024a50270940304540a733656f0d60405160405180910390a460019050611187565b600090505b92915050565b600033905090565b60006111a18383610b52565b1561127c57600080600085815260200190815260200160002060000160008473ffffffffffffffffffffffffffffffffffffffff1673ffffffffffffffffffffffffffffffffffffffff16815260200190815260200160002060006101000a81548160ff02191690831515021790555061121961118d565b73ffffffffffffffffffffffffffffffffffffffff168273ffffffffffffffffffffffffffffffffffffffff16847ff6391f5c32d9c69d2a47ea670b442974b53935d1edc7fd64eb21e047a839171b60405160405180910390a460019050611281565b600090505b92915050565b6112918282610b52565b6112d45780826040517fe2517d3f0000000000000000000000000000000000000000000000000000000081526004016112cb92919061212b565b60405180910390fd5b5050565b5080546112e490611bb7565b6000825580601f106112f65750611315565b601f0160209004906000526020600020908101906113149190611318565b5b50565b5b80821115611331576000816000905550600101611319565b5090565b600080fd5b600080fd5b60007fffffffff0000000000000000000000000000000000000000000000000000000082169050919050565b6113748161133f565b811461137f57600080fd5b50565b6000813590506113918161136b565b92915050565b6000602082840312156113ad576113ac611335565b5b60006113bb84828501611382565b91505092915050565b60008115159050919050565b6113d9816113c4565b82525050565b60006020820190506113f460008301846113d0565b92915050565b600080fd5b600080fd5b600080fd5b60008083601f84011261141f5761141e6113fa565b5b8235905067ffffffffffffffff81111561143c5761143b6113ff565b5b60208301915083600182028301111561145857611457611404565b5b9250929050565b6000806020838503121561147657611475611335565b5b600083013567ffffffffffffffff8111156114945761149361133a565b5b6114a085828601611409565b92509250509250929050565b6000819050919050565b6114bf816114ac565b81146114ca57600080fd5b50565b6000813590506114dc816114b6565b92915050565b6000602082840312156114f8576114f7611335565b5b6000611506848285016114cd565b91505092915050565b611518816114ac565b82525050565b6000602082019050611533600083018461150f565b92915050565b600073ffffffffffffffffffffffffffffffffffffffff82169050919050565b600061156482611539565b9050919050565b61157481611559565b811461157f57600080fd5b50565b6000813590506115918161156b565b92915050565b600080604083850312156115ae576115ad611335565b5b60006115bc858286016114cd565b92505060206115cd85828601611582565b9150509250929050565b6000602082840312156115ed576115ec611335565b5b60006115fb84828501611582565b91505092915050565b60008060006040848603121561161d5761161c611335565b5b600084013567ffffffffffffffff81111561163b5761163a61133a565b5b61164786828701611409565b9350935050602061165a86828701611582565b9150509250925092565b6000806000806040858703121561167e5761167d611335565b5b600085013567ffffffffffffffff81111561169c5761169b61133a565b5b6116a887828801611409565b9450945050602085013567ffffffffffffffff8111156116cb576116ca61133a565b5b6116d787828801611409565b925092505092959194509250565b600081519050919050565b600082825260208201905092915050565b6000819050602082019050919050565b600081519050919050565b600082825260208201905092915050565b60005b8381101561174b578082015181840152602081019050611730565b60008484015250505050565b6000601f19601f8301169050919050565b600061177382611711565b61177d818561171c565b935061178d81856020860161172d565b61179681611757565b840191505092915050565b60006117ad8383611768565b905092915050565b6000602082019050919050565b60006117cd826116e5565b6117d781856116f0565b9350836020820285016117e985611701565b8060005b85811015611825578484038952815161180685826117a1565b9450611811836117b5565b925060208a019950506001810190506117ed565b50829750879550505050505092915050565b6000602082019050818103600083015261185181846117c2565b905092915050565b61186281611559565b82525050565b600060208201905061187d6000830184611859565b92915050565b60008060008060006060868803121561189f5761189e611335565b5b600086013567ffffffffffffffff8111156118bd576118bc61133a565b5b6118c988828901611409565b9550955050602086013567ffffffffffffffff8111156118ec576118eb61133a565b5b6118f888828901611409565b9350935050604061190b88828901611582565b9150509295509295909350565b6000819050919050565b61192b81611918565b811461193657600080fd5b50565b60008135905061194881611922565b92915050565b60008060008060006060868803121561196a57611969611335565b5b600086013567ffffffffffffffff8111156119885761198761133a565b5b61199488828901611409565b9550955050602086013567ffffffffffffffff8111156119b7576119b661133a565b5b6119c388828901611409565b935093505060406119d688828901611939565b9150509295509295909350565b6119ec81611918565b82525050565b6000602082019050611a0760008301846119e3565b92915050565b600081905092915050565b82818337600083830152505050565b6000611a338385611a0d565b9350611a40838584611a18565b82840190509392505050565b6000611a59828486611a27565b91508190509392505050565b600082825260208201905092915050565b6000611a828385611a65565b9350611a8f838584611a18565b611a9883611757565b840190509392505050565b50565b6000611ab3600083611a65565b9150611abe82611aa3565b600082019050919050565b60006060820190508181036000830152611ae4818587611a76565b90508181036020830152611af781611aa6565b9050611b0660408301846113d0565b949350505050565b60006060820190508181036000830152611b29818688611a76565b9050611b386020830185611859565b611b4560408301846113d0565b95945050505050565b600082905092915050565b7f4e487b7100000000000000000000000000000000000000000000000000000000600052604160045260246000fd5b7f4e487b7100000000000000000000000000000000000000000000000000000000600052602260045260246000fd5b60006002820490506001821680611bcf57607f821691505b602082108103611be257611be1611b88565b5b50919050565b60008190508160005260206000209050919050565b60006020601f8301049050919050565b600082821b905092915050565b600060088302611c4a7fffffffffffffffffffffffffffffffffffffffffffffffffffffffffffffffff82611c0d565b611c548683611c0d565b95508019841693508086168417925050509392505050565b6000819050919050565b6000611c91611c8c611c8784611918565b611c6c565b611918565b9050919050565b6000819050919050565b611cab83611c76565b611cbf611cb782611c98565b848454611c1a565b825550505050565b600090565b611cd4611cc7565b611cdf818484611ca2565b505050565b5b81811015611d0357611cf8600082611ccc565b600181019050611ce5565b5050565b601f821115611d4857611d1981611be8565b611d2284611bfd565b81016020851015611d31578190505b611d45611d3d85611bfd565b830182611ce4565b50505b505050565b600082821c905092915050565b6000611d6b60001984600802611d4d565b1980831691505092915050565b6000611d848383611d5a565b9150826002028217905092915050565b611d9e8383611b4e565b67ffffffffffffffff811115611db757611db6611b59565b5b611dc18254611bb7565b611dcc828285611d07565b6000601f831160018114611dfb5760008415611de9578287013590505b611df38582611d78565b865550611e5b565b601f198416611e0986611be8565b60005b82811015611e3157848901358255600182019150602085019450602081019050611e0c565b86831015611e4e5784890135611e4a601f891682611d5a565b8355505b6001600288020188555050505b50505050505050565b60006060820190508181036000830152611e7f818789611a76565b90508181036020830152611e94818587611a76565b9050611ea360408301846113d0565b9695505050505050565b7f4e487b7100000000000000000000000000000000000000000000000000000000600052603260045260246000fd5b60008154611ee981611bb7565b611ef38186611a0d565b94506001821660008114611f0e5760018114611f2357611f56565b60ff1983168652811515820286019350611f56565b611f2c85611be8565b60005b83811015611f4e57815481890152600182019150602081019050611f2f565b838801955050505b50505092915050565b6000611f6b8284611edc565b915081905092915050565b7f4e487b7100000000000000000000000000000000000000000000000000000000600052601160045260246000fd5b6000611fb082611918565b91507fffffffffffffffffffffffffffffffffffffffffffffffffffffffffffffffff8203611fe257611fe1611f76565b5b600182019050919050565b7f44657669636520616c7265616479207265676973746572656400000000000000600082015250565b6000612023601983611a65565b915061202e82611fed565b602082019050919050565b6000602082019050818103600083015261205281612016565b9050919050565b61206282611711565b67ffffffffffffffff81111561207b5761207a611b59565b5b6120858254611bb7565b612090828285611d07565b600060209050601f8311600181146120c357600084156120b1578287015190505b6120bb8582611d78565b865550612123565b601f1984166120d186611be8565b60005b828110156120f9578489015182556001820191506020850194506020810190506120d4565b868310156121165784890151612112601f891682611d5a565b8355505b6001600288020188555050505b505050505050565b60006040820190506121406000830185611859565b61214d602083018461150f565b939250505056fea2646970667358221220d4b508d68e1b4c7addfef78194a1ef390f5d9c4d2afc296af806ad2fc4e1267564736f6c63430008180033",
  "linkReferences": {},
  "deployedLinkReferences": {}
}