{
  "_format": "hh-sol-artifact-1",
  "contractName": "AllowanceContract",
  "sourceName": "contracts/AllowanceContract.sol",
  "abi": [
    {
      "inputs": [],
      "stateMutability": "nonpayable",
      "type": "constructor"
    },
    {
      "inputs": [],
      "name": "AccessControlBadConfirmation",
      "type": "error"
    },
    {
      "inputs": [
        {
          "internalType": "address",
          "name": "account",
          "type": "address"
        },
        {
          "internalType": "bytes32",
          "name": "neededRole",
          "type": "bytes32"
        }
      ],
      "name": "AccessControlUnauthorizedAccount",
      "type": "error"
    },
    {
      "anonymous": false,
      "inputs": [
        {
          "indexed": false,
          "internalType": "address",
          "name": "company",
          "type": "address"
        },
        {
          "indexed": false,
          "internalType": "bool",
          "name": "ready",
          "type": "bool"
        }
      ],
      "name": "CompanyDataReady",
      "type": "event"
    },
    {
      "anonymous": false,
      "inputs": [
        {
          "indexed": false,
          "internalType": "address",
          "name": "company",
          "type": "address"
        },
        {
          "indexed": false,
          "internalType": "uint256",
          "name": "excess",
          "type": "uint256"
        },
        {
          "indexed": false,
          "internalType": "bool",
          "name": "achieved",
          "type": "bool"
        }
      ],
      "name": "EmissionReportReceived",
      "type": "event"
    },
    {
      "anonymous": false,
      "inputs": [
        {
          "indexed": true,
          "internalType": "bytes32",
          "name": "role",
          "type": "bytes32"
        },
        {
          "indexed": true,
          "internalType": "bytes32",
          "name": "previousAdminRole",
          "type": "bytes32"
        },
        {
          "indexed": true,
          "internalType": "bytes32",
          "name": "newAdminRole",
          "type": "bytes32"
        }
      ],
      "name": "RoleAdminChanged",
      "type": "event"
    },
    {
      "anonymous": false,
      "inputs": [
        {
          "indexed": true,
          "internalType": "bytes32",
          "name": "role",
          "type": "bytes32"
        },
        {
          "indexed": true,
          "internalType": "address",
          "name": "account",
          "type": "address"
        },
        {
          "indexed": true,
          "internalType": "address",
          "name": "sender",
          "type": "address"
        }
      ],
      "name": "RoleGranted",
      "type": "event"
    },
    {
      "anonymous": false,
      "inputs": [
        {
          "indexed": true,
          "internalType": "bytes32",
          "name": "role",
          "type": "bytes32"
        },
        {
          "indexed": true,
          "internalType": "address",
          "name": "account",
          "type": "address"
        },
        {
          "indexed": true,
          "internalType": "address",
          "name": "sender",
          "type": "address"
        }
      ],
      "name": "RoleRevoked",
      "type": "event"
    },
    {
      "anonymous": false,
      "inputs": [
        {
          "indexed": false,
          "internalType": "address",
          "name": "certContract",
          "type": "address"
        }
      ],
      "name": "certContractSet",
      "type": "event"
    },
    {
      "anonymous": false,
      "inputs": [
        {
          "indexed": false,
          "internalType": "address",
          "name": "operator",
          "type": "address"
        }
      ],
      "name": "operatorRoleSet",
      "type": "event"
    },
    {
      "anonymous": false,
      "inputs": [
        {
          "indexed": false,
          "internalType": "address",
          "name": "tokenContract",
          "type": "address"
        }
      ],
      "name": "tokenContractSet",
      "type": "event"
    },
    {
      "anonymous": false,
      "inputs": [
        {
          "indexed": false,
          "internalType": "address",
          "name": "verifier",
          "type": "address"
        }
      ],
      "name": "verifierRoleSet",
      "type": "event"
    },
    {
      "inputs": [],
      "name": "ADMIN_ROLE",
      "outputs": [
        {
          "internalType": "bytes32",
          "name": "",
          "type": "bytes32"
        }
      ],
      "stateMutability": "view",
      "type": "function"
    },
    {
      "inputs": [],
      "name": "DEFAULT_ADMIN_ROLE",
      "outputs": [
        {
          "internalType": "bytes32",
          "name": "",
          "type": "bytes32"
        }
      ],
      "stateMutability": "view",
      "type": "function"
    },
    {
      "inputs": [],
      "name": "OPERATOR_ROLE",
      "outputs": [
        {
          "internalType": "bytes32",
          "name": "",
          "type": "bytes32"
        }
      ],
      "stateMutability": "view",
      "type": "function"
    },
    {
      "inputs": [],
      "name": "VERIFIER_ROLE",
      "outputs": [
        {
          "internalType": "bytes32",
          "name": "",
          "type": "bytes32"
        }
      ],
      "stateMutability": "view",
      "type": "function"
    },
    {
      "inputs": [
        {
          "internalType": "address",
          "name": "_company",
          "type": "address"
        },
        {
          "internalType": "uint256",
          "name": "_allowance",
          "type": "uint256"
        }
      ],
      "name": "addCompany",
      "outputs": [],
      "stateMutability": "nonpayable",
      "type": "function"
    },
    {
      "inputs": [
        {
          "internalType": "address",
          "name": "_company",
          "type": "address"
        },
        {
          "internalType": "uint256",
          "name": "_newAllowance",
          "type": "uint256"
        }
      ],
      "name": "adjustAllowance",
      "outputs": [],
      "stateMutability": "nonpayable",
      "type": "function"
    },
    {
      "inputs": [
        {
          "internalType": "uint256",
          "name": "_amount",
          "type": "uint256"
        }
      ],
      "name": "burnTokens",
      "outputs": [],
      "stateMutability": "nonpayable",
      "type": "function"
    },
    {
      "inputs": [
        {
          "internalType": "address",
          "name": "_company",
          "type": "address"
        }
      ],
      "name": "checkAllowance",
      "outputs": [],
      "stateMutability": "nonpayable",
      "type": "function"
    },
    {
      "inputs": [
        {
          "internalType": "address",
          "name": "",
          "type": "address"
        }
      ],
      "name": "companies",
      "outputs": [
        {
          "internalType": "uint256",
          "name": "allowance",
          "type": "uint256"
        },
        {
          "internalType": "uint256",
          "name": "trackedCO2",
          "type": "uint256"
        },
        {
          "internalType": "uint32",
          "name": "num_vehicles",
          "type": "uint32"
        },
        {
          "internalType": "uint32",
          "name": "vehicles_tracked",
          "type": "uint32"
        }
      ],
      "stateMutability": "view",
      "type": "function"
    },
    {
      "inputs": [
        {
          "internalType": "uint256",
          "name": "",
          "type": "uint256"
        }
      ],
      "name": "companyAddresses",
      "outputs": [
        {
          "internalType": "address",
          "name": "",
          "type": "address"
        }
      ],
      "stateMutability": "view",
      "type": "function"
    },
    {
      "inputs": [
        {
          "internalType": "address",
          "name": "_company",
          "type": "address"
        }
      ],
      "name": "decreaseVehicleCount",
      "outputs": [],
      "stateMutability": "nonpayable",
      "type": "function"
    },
    {
      "inputs": [
        {
          "internalType": "uint256",
          "name": "_vehicleID",
          "type": "uint256"
        },
        {
          "internalType": "address",
          "name": "_company",
          "type": "address"
        },
        {
          "internalType": "uint256",
          "name": "_trackedCO2",
          "type": "uint256"
        }
      ],
      "name": "emissionReport",
      "outputs": [],
      "stateMutability": "nonpayable",
      "type": "function"
    },
    {
      "inputs": [
        {
          "internalType": "bytes32",
          "name": "role",
          "type": "bytes32"
        }
      ],
      "name": "getRoleAdmin",
      "outputs": [
        {
          "internalType": "bytes32",
          "name": "",
          "type": "bytes32"
        }
      ],
      "stateMutability": "view",
      "type": "function"
    },
    {
      "inputs": [
        {
          "internalType": "bytes32",
          "name": "role",
          "type": "bytes32"
        },
        {
          "internalType": "address",
          "name": "account",
          "type": "address"
        }
      ],
      "name": "grantRole",
      "outputs": [],
      "stateMutability": "nonpayable",
      "type": "function"
    },
    {
      "inputs": [
        {
          "internalType": "bytes32",
          "name": "role",
          "type": "bytes32"
        },
        {
          "internalType": "address",
          "name": "account",
          "type": "address"
        }
      ],
      "name": "hasRole",
      "outputs": [
        {
          "internalType": "bool",
          "name": "",
          "type": "bool"
        }
      ],
      "stateMutability": "view",
      "type": "function"
    },
    {
      "inputs": [
        {
          "internalType": "address",
          "name": "_company",
          "type": "address"
        }
      ],
      "name": "increaseVehicleCount",
      "outputs": [],
      "stateMutability": "nonpayable",
      "type": "function"
    },
    {
      "inputs": [],
      "name": "offsetExcess",
      "outputs": [],
      "stateMutability": "nonpayable",
      "type": "function"
    },
    {
      "inputs": [
        {
          "internalType": "bytes32",
          "name": "role",
          "type": "bytes32"
        },
        {
          "internalType": "address",
          "name": "callerConfirmation",
          "type": "address"
        }
      ],
      "name": "renounceRole",
      "outputs": [],
      "stateMutability": "nonpayable",
      "type": "function"
    },
    {
      "inputs": [
        {
          "internalType": "address",
          "name": "_company",
          "type": "address"
        }
      ],
      "name": "resetCompanyData",
      "outputs": [],
      "stateMutability": "nonpayable",
      "type": "function"
    },
    {
      "inputs": [
        {
          "internalType": "bytes32",
          "name": "role",
          "type": "bytes32"
        },
        {
          "internalType": "address",
          "name": "account",
          "type": "address"
        }
      ],
      "name": "revokeRole",
      "outputs": [],
      "stateMutability": "nonpayable",
      "type": "function"
    },
    {
      "inputs": [
        {
          "internalType": "address",
          "name": "_certContract",
          "type": "address"
        }
      ],
      "name": "setCertContract",
      "outputs": [],
      "stateMutability": "nonpayable",
      "type": "function"
    },
    {
      "inputs": [
        {
          "internalType": "address",
          "name": "_mintingContract",
          "type": "address"
        }
      ],
      "name": "setMintingContract",
      "outputs": [],
      "stateMutability": "nonpayable",
      "type": "function"
    },
    {
      "inputs": [
        {
          "internalType": "address",
          "name": "_operator",
          "type": "address"
        }
      ],
      "name": "setOperatorRole",
      "outputs": [],
      "stateMutability": "nonpayable",
      "type": "function"
    },
    {
      "inputs": [
        {
          "internalType": "address",
          "name": "_verifier",
          "type": "address"
        }
      ],
      "name": "setVerifierRole",
      "outputs": [],
      "stateMutability": "nonpayable",
      "type": "function"
    },
    {
      "inputs": [
        {
          "internalType": "bytes4",
          "name": "interfaceId",
          "type": "bytes4"
        }
      ],
      "name": "supportsInterface",
      "outputs": [
        {
          "internalType": "bool",
          "name": "",
          "type": "bool"
        }
      ],
      "stateMutability": "view",
      "type": "function"
    }
  ],
  "bytecode": "0x60806040523480156200001157600080fd5b50620000447fa49807205ce4d355092ef5a8a18f56e8913cf4a201fbe287825b095693c21775336200007e60201b60201c565b50620000777f97667070c54ef182b0f5858b034beac1b6f3089aa2d3188bb1e8929f4fa9b929336200007e60201b60201c565b50620001f3565b60006200009283836200018160201b60201c565b6200017657600160008085815260200190815260200160002060000160008473ffffffffffffffffffffffffffffffffffffffff1673ffffffffffffffffffffffffffffffffffffffff16815260200190815260200160002060006101000a81548160ff02191690831515021790555062000112620001eb60201b60201c565b73ffffffffffffffffffffffffffffffffffffffff168273ffffffffffffffffffffffffffffffffffffffff16847f2f8788117e7eff1d82e926ec794901d17c78024a50270940304540a733656f0d60405160405180910390a4600190506200017b565b600090505b92915050565b600080600084815260200190815260200160002060000160008373ffffffffffffffffffffffffffffffffffffffff1673ffffffffffffffffffffffffffffffffffffffff16815260200190815260200160002060009054906101000a900460ff16905092915050565b600033905090565b61263080620002036000396000f3fe608060405234801561001057600080fd5b50600436106101735760003560e01c80637fd1d980116100de578063aedf65c511610097578063d627452b11610071578063d627452b1461041d578063e7705db614610439578063e8fbc0ad14610457578063f5b541a61461047357610173565b8063aedf65c5146103c9578063c56e1375146103e5578063d547741f1461040157610173565b80637fd1d9801461030957806391d14854146103135780639968784514610343578063a1eb6f3c14610373578063a217fddf1461038f578063acc69261146103ad57610173565b806349ea55461161013057806349ea55461461025f5780634cf8a1301461027b5780634e84951c146102975780635deed13a146102b35780636d1b229d146102cf57806375b238fc146102eb57610173565b806301ffc9a7146101785780631a197a26146101a8578063248a9ca3146101c45780632f2ff15d146101f4578063355e6ce81461021057806336568abe14610243575b600080fd5b610192600480360381019061018d9190611da5565b610491565b60405161019f9190611ded565b60405180910390f35b6101c260048036038101906101bd9190611e66565b61050b565b005b6101de60048036038101906101d99190611ec9565b610953565b6040516101eb9190611f05565b60405180910390f35b61020e60048036038101906102099190611f20565b610972565b005b61022a60048036038101906102259190611e66565b610994565b60405161023a9493929190611f98565b60405180910390f35b61025d60048036038101906102589190611f20565b6109e4565b005b61027960048036038101906102749190611e66565b610a5f565b005b61029560048036038101906102909190611e66565b610b37565b005b6102b160048036038101906102ac9190612009565b610bc7565b005b6102cd60048036038101906102c89190611e66565b610f06565b005b6102e960048036038101906102e4919061205c565b610f96565b005b6102f36111af565b6040516103009190611f05565b60405180910390f35b6103116111d3565b005b61032d60048036038101906103289190611f20565b6114f2565b60405161033a9190611ded565b60405180910390f35b61035d6004803603810190610358919061205c565b61155c565b60405161036a9190612098565b60405180910390f35b61038d600480360381019061038891906120b3565b61159b565b005b610397611611565b6040516103a49190611f05565b60405180910390f35b6103c760048036038101906103c291906120b3565b611618565b005b6103e360048036038101906103de9190611e66565b61177e565b005b6103ff60048036038101906103fa9190611e66565b611824565b005b61041b60048036038101906104169190611f20565b6118ca565b005b61043760048036038101906104329190611e66565b6118ec565b005b610441611999565b60405161044e9190611f05565b60405180910390f35b610471600480360381019061046c9190611e66565b6119bd565b005b61047b611a6a565b6040516104889190611f05565b60405180910390f35b60007f7965db0b000000000000000000000000000000000000000000000000000000007bffffffffffffffffffffffffffffffffffffffffffffffffffffffff1916827bffffffffffffffffffffffffffffffffffffffffffffffffffffffff19161480610504575061050382611a8e565b5b9050919050565b7f97667070c54ef182b0f5858b034beac1b6f3089aa2d3188bb1e8929f4fa9b92961053581611af8565b600160008373ffffffffffffffffffffffffffffffffffffffff1673ffffffffffffffffffffffffffffffffffffffff16815260200190815260200160002060000154600160008473ffffffffffffffffffffffffffffffffffffffff1673ffffffffffffffffffffffffffffffffffffffff1681526020019081526020016000206001015403610602577fc3a557ee4569dbf1b0e6eb12ed4b6f06e305d5dd0dff22d87277251de09607fc82600060016040516105f593929190612138565b60405180910390a161094f565b600160008373ffffffffffffffffffffffffffffffffffffffff1673ffffffffffffffffffffffffffffffffffffffff16815260200190815260200160002060000154600160008473ffffffffffffffffffffffffffffffffffffffff1673ffffffffffffffffffffffffffffffffffffffff16815260200190815260200160002060010154101561087c576000600160008473ffffffffffffffffffffffffffffffffffffffff1673ffffffffffffffffffffffffffffffffffffffff16815260200190815260200160002060010154600160008573ffffffffffffffffffffffffffffffffffffffff1673ffffffffffffffffffffffffffffffffffffffff16815260200190815260200160002060000154610720919061219e565b9050600360009054906101000a900473ffffffffffffffffffffffffffffffffffffffff1673ffffffffffffffffffffffffffffffffffffffff166340c10f1984836040518363ffffffff1660e01b815260040161077f9291906121d2565b600060405180830381600087803b15801561079957600080fd5b505af11580156107ad573d6000803e3d6000fd5b50505050600160008473ffffffffffffffffffffffffffffffffffffffff1673ffffffffffffffffffffffffffffffffffffffff16815260200190815260200160002060000154600160008573ffffffffffffffffffffffffffffffffffffffff1673ffffffffffffffffffffffffffffffffffffffff168152602001908152602001600020600101819055507fc3a557ee4569dbf1b0e6eb12ed4b6f06e305d5dd0dff22d87277251de09607fc8382600160405161086e939291906121fb565b60405180910390a15061094e565b6000600160008473ffffffffffffffffffffffffffffffffffffffff1673ffffffffffffffffffffffffffffffffffffffff16815260200190815260200160002060000154600160008573ffffffffffffffffffffffffffffffffffffffff1673ffffffffffffffffffffffffffffffffffffffff1681526020019081526020016000206001015461090e919061219e565b90507fc3a557ee4569dbf1b0e6eb12ed4b6f06e305d5dd0dff22d87277251de09607fc83826000604051610944939291906121fb565b60405180910390a1505b5b5050565b6000806000838152602001908152602001600020600101549050919050565b61097b82610953565b61098481611af8565b61098e8383611b0c565b50505050565b60016020528060005260406000206000915090508060000154908060010154908060020160009054906101000a900463ffffffff16908060020160049054906101000a900463ffffffff16905084565b6109ec611bfd565b73ffffffffffffffffffffffffffffffffffffffff168173ffffffffffffffffffffffffffffffffffffffff1614610a50576040517f6697b23200000000000000000000000000000000000000000000000000000000815260040160405180910390fd5b610a5a8282611c05565b505050565b7f97667070c54ef182b0f5858b034beac1b6f3089aa2d3188bb1e8929f4fa9b929610a8981611af8565b6000600160008473ffffffffffffffffffffffffffffffffffffffff1673ffffffffffffffffffffffffffffffffffffffff168152602001908152602001600020600101819055506000600160008473ffffffffffffffffffffffffffffffffffffffff1673ffffffffffffffffffffffffffffffffffffffff16815260200190815260200160002060020160046101000a81548163ffffffff021916908363ffffffff1602179055505050565b7fa49807205ce4d355092ef5a8a18f56e8913cf4a201fbe287825b095693c21775610b6181611af8565b610b8b7f97667070c54ef182b0f5858b034beac1b6f3089aa2d3188bb1e8929f4fa9b92983611b0c565b507f693663dca4b53ef71deb189fd198973d5b279f1fb4b8eafb86e2261fb9c8694982604051610bbb9190612098565b60405180910390a15050565b7f0ce23c3e399818cfee81a7ab0880f714e53d7672b08df0fa62f2843416e1ea09610bf181611af8565b8273ffffffffffffffffffffffffffffffffffffffff16600560009054906101000a900473ffffffffffffffffffffffffffffffffffffffff1673ffffffffffffffffffffffffffffffffffffffff16630adfe0a0866040518263ffffffff1660e01b8152600401610c639190612232565b6020604051808303816000875af1158015610c82573d6000803e3d6000fd5b505050506040513d601f19601f82011682018060405250810190610ca69190612262565b73ffffffffffffffffffffffffffffffffffffffff1614610cfc576040517f08c379a0000000000000000000000000000000000000000000000000000000008152600401610cf390612312565b60405180910390fd5b81600160008573ffffffffffffffffffffffffffffffffffffffff1673ffffffffffffffffffffffffffffffffffffffff1681526020019081526020016000206001016000828254610d4e9190612332565b9250508190555060018060008573ffffffffffffffffffffffffffffffffffffffff1673ffffffffffffffffffffffffffffffffffffffff16815260200190815260200160002060020160048282829054906101000a900463ffffffff16610db69190612366565b92506101000a81548163ffffffff021916908363ffffffff1602179055507f027c9a84e285e86574a18a4b6544d7ff031f1bc6e67be0b8780a322f8cdcec6c836000604051610e0692919061239e565b60405180910390a1600160008473ffffffffffffffffffffffffffffffffffffffff1673ffffffffffffffffffffffffffffffffffffffff16815260200190815260200160002060020160009054906101000a900463ffffffff1663ffffffff16600160008573ffffffffffffffffffffffffffffffffffffffff1673ffffffffffffffffffffffffffffffffffffffff16815260200190815260200160002060020160049054906101000a900463ffffffff1663ffffffff1603610f00577f027c9a84e285e86574a18a4b6544d7ff031f1bc6e67be0b8780a322f8cdcec6c836001604051610ef792919061239e565b60405180910390a15b50505050565b7fa49807205ce4d355092ef5a8a18f56e8913cf4a201fbe287825b095693c21775610f3081611af8565b610f5a7f0ce23c3e399818cfee81a7ab0880f714e53d7672b08df0fa62f2843416e1ea0983611b0c565b507f704ea5d92f6606a9566da5dcdee5a4fcac4d1ba84763e573e81acf43a902fce282604051610f8a9190612098565b60405180910390a15050565b60003390506000820361104457600360009054906101000a900473ffffffffffffffffffffffffffffffffffffffff1673ffffffffffffffffffffffffffffffffffffffff1663450efe21826040518263ffffffff1660e01b8152600401610ffe9190612098565b6020604051808303816000875af115801561101d573d6000803e3d6000fd5b505050506040513d601f19601f8201168201806040525081019061104191906123dc565b91505b6000821180156110d75750600160008273ffffffffffffffffffffffffffffffffffffffff1673ffffffffffffffffffffffffffffffffffffffff16815260200190815260200160002060000154600160008373ffffffffffffffffffffffffffffffffffffffff1673ffffffffffffffffffffffffffffffffffffffff16815260200190815260200160002060010154145b1561117057600360009054906101000a900473ffffffffffffffffffffffffffffffffffffffff1673ffffffffffffffffffffffffffffffffffffffff16639dc29fac82846040518363ffffffff1660e01b81526004016111399291906121d2565b600060405180830381600087803b15801561115357600080fd5b505af1158015611167573d6000803e3d6000fd5b505050506111ab565b6040517f08c379a00000000000000000000000000000000000000000000000000000000081526004016111a29061247b565b60405180910390fd5b5050565b7fa49807205ce4d355092ef5a8a18f56e8913cf4a201fbe287825b095693c2177581565b60003390506000600160008373ffffffffffffffffffffffffffffffffffffffff1673ffffffffffffffffffffffffffffffffffffffff16815260200190815260200160002060000154600160008473ffffffffffffffffffffffffffffffffffffffff1673ffffffffffffffffffffffffffffffffffffffff1681526020019081526020016000206001015461126a919061219e565b9050600081036112af576040517f08c379a00000000000000000000000000000000000000000000000000000000081526004016112a6906124e7565b60405180910390fd5b6000600360009054906101000a900473ffffffffffffffffffffffffffffffffffffffff1673ffffffffffffffffffffffffffffffffffffffff1663450efe21846040518263ffffffff1660e01b815260040161130c9190612098565b6020604051808303816000875af115801561132b573d6000803e3d6000fd5b505050506040513d601f19601f8201168201806040525081019061134f91906123dc565b90508181106114b257600360009054906101000a900473ffffffffffffffffffffffffffffffffffffffff1673ffffffffffffffffffffffffffffffffffffffff16639dc29fac84846040518363ffffffff1660e01b81526004016113b59291906121d2565b600060405180830381600087803b1580156113cf57600080fd5b505af11580156113e3573d6000803e3d6000fd5b50505050600160008473ffffffffffffffffffffffffffffffffffffffff1673ffffffffffffffffffffffffffffffffffffffff16815260200190815260200160002060000154600160008573ffffffffffffffffffffffffffffffffffffffff1673ffffffffffffffffffffffffffffffffffffffff168152602001908152602001600020600101819055507fc3a557ee4569dbf1b0e6eb12ed4b6f06e305d5dd0dff22d87277251de09607fc83600060016040516114a593929190612138565b60405180910390a16114ed565b6040517f08c379a00000000000000000000000000000000000000000000000000000000081526004016114e490612579565b60405180910390fd5b505050565b600080600084815260200190815260200160002060000160008373ffffffffffffffffffffffffffffffffffffffff1673ffffffffffffffffffffffffffffffffffffffff16815260200190815260200160002060009054906101000a900460ff16905092915050565b6002818154811061156c57600080fd5b906000526020600020016000915054906101000a900473ffffffffffffffffffffffffffffffffffffffff1681565b7f97667070c54ef182b0f5858b034beac1b6f3089aa2d3188bb1e8929f4fa9b9296115c581611af8565b81600160008573ffffffffffffffffffffffffffffffffffffffff1673ffffffffffffffffffffffffffffffffffffffff16815260200190815260200160002060000181905550505050565b6000801b81565b7f97667070c54ef182b0f5858b034beac1b6f3089aa2d3188bb1e8929f4fa9b92961164281611af8565b604051806080016040528083815260200160008152602001600063ffffffff168152602001600063ffffffff16815250600160008573ffffffffffffffffffffffffffffffffffffffff1673ffffffffffffffffffffffffffffffffffffffff168152602001908152602001600020600082015181600001556020820151816001015560408201518160020160006101000a81548163ffffffff021916908363ffffffff16021790555060608201518160020160046101000a81548163ffffffff021916908363ffffffff1602179055509050506002839080600181540180825580915050600190039060005260206000200160009091909190916101000a81548173ffffffffffffffffffffffffffffffffffffffff021916908373ffffffffffffffffffffffffffffffffffffffff160217905550505050565b7fa49807205ce4d355092ef5a8a18f56e8913cf4a201fbe287825b095693c217756117a881611af8565b81600460006101000a81548173ffffffffffffffffffffffffffffffffffffffff021916908373ffffffffffffffffffffffffffffffffffffffff1602179055507fe0fe7079f3e1809e47f9258cb71768986e8c13cb9eaf8dd5cb803cf766d7a0fa826040516118189190612098565b60405180910390a15050565b7fa49807205ce4d355092ef5a8a18f56e8913cf4a201fbe287825b095693c2177561184e81611af8565b81600360006101000a81548173ffffffffffffffffffffffffffffffffffffffff021916908373ffffffffffffffffffffffffffffffffffffffff1602179055507f96bd71a123598a1873f3691f46f557092eda081a94f6e6d8e370b4e8c7cbd41f826040516118be9190612098565b60405180910390a15050565b6118d382610953565b6118dc81611af8565b6118e68383611c05565b50505050565b7f97667070c54ef182b0f5858b034beac1b6f3089aa2d3188bb1e8929f4fa9b92961191681611af8565b60018060008473ffffffffffffffffffffffffffffffffffffffff1673ffffffffffffffffffffffffffffffffffffffff16815260200190815260200160002060020160008282829054906101000a900463ffffffff166119779190612599565b92506101000a81548163ffffffff021916908363ffffffff1602179055505050565b7f0ce23c3e399818cfee81a7ab0880f714e53d7672b08df0fa62f2843416e1ea0981565b7f97667070c54ef182b0f5858b034beac1b6f3089aa2d3188bb1e8929f4fa9b9296119e781611af8565b60018060008473ffffffffffffffffffffffffffffffffffffffff1673ffffffffffffffffffffffffffffffffffffffff16815260200190815260200160002060020160008282829054906101000a900463ffffffff16611a489190612366565b92506101000a81548163ffffffff021916908363ffffffff1602179055505050565b7f97667070c54ef182b0f5858b034beac1b6f3089aa2d3188bb1e8929f4fa9b92981565b60007f01ffc9a7000000000000000000000000000000000000000000000000000000007bffffffffffffffffffffffffffffffffffffffffffffffffffffffff1916827bffffffffffffffffffffffffffffffffffffffffffffffffffffffff1916149050919050565b611b0981611b04611bfd565b611cf7565b50565b6000611b1883836114f2565b611bf257600160008085815260200190815260200160002060000160008473ffffffffffffffffffffffffffffffffffffffff1673ffffffffffffffffffffffffffffffffffffffff16815260200190815260200160002060006101000a81548160ff021916908315150217905550611b8f611bfd565b73ffffffffffffffffffffffffffffffffffffffff168273ffffffffffffffffffffffffffffffffffffffff16847f2f8788117e7eff1d82e926ec794901d17c78024a50270940304540a733656f0d60405160405180910390a460019050611bf7565b600090505b92915050565b600033905090565b6000611c1183836114f2565b15611cec57600080600085815260200190815260200160002060000160008473ffffffffffffffffffffffffffffffffffffffff1673ffffffffffffffffffffffffffffffffffffffff16815260200190815260200160002060006101000a81548160ff021916908315150217905550611c89611bfd565b73ffffffffffffffffffffffffffffffffffffffff168273ffffffffffffffffffffffffffffffffffffffff16847ff6391f5c32d9c69d2a47ea670b442974b53935d1edc7fd64eb21e047a839171b60405160405180910390a460019050611cf1565b600090505b92915050565b611d0182826114f2565b611d445780826040517fe2517d3f000000000000000000000000000000000000000000000000000000008152600401611d3b9291906125d1565b60405180910390fd5b5050565b600080fd5b60007fffffffff0000000000000000000000000000000000000000000000000000000082169050919050565b611d8281611d4d565b8114611d8d57600080fd5b50565b600081359050611d9f81611d79565b92915050565b600060208284031215611dbb57611dba611d48565b5b6000611dc984828501611d90565b91505092915050565b60008115159050919050565b611de781611dd2565b82525050565b6000602082019050611e026000830184611dde565b92915050565b600073ffffffffffffffffffffffffffffffffffffffff82169050919050565b6000611e3382611e08565b9050919050565b611e4381611e28565b8114611e4e57600080fd5b50565b600081359050611e6081611e3a565b92915050565b600060208284031215611e7c57611e7b611d48565b5b6000611e8a84828501611e51565b91505092915050565b6000819050919050565b611ea681611e93565b8114611eb157600080fd5b50565b600081359050611ec381611e9d565b92915050565b600060208284031215611edf57611ede611d48565b5b6000611eed84828501611eb4565b91505092915050565b611eff81611e93565b82525050565b6000602082019050611f1a6000830184611ef6565b92915050565b60008060408385031215611f3757611f36611d48565b5b6000611f4585828601611eb4565b9250506020611f5685828601611e51565b9150509250929050565b6000819050919050565b611f7381611f60565b82525050565b600063ffffffff82169050919050565b611f9281611f79565b82525050565b6000608082019050611fad6000830187611f6a565b611fba6020830186611f6a565b611fc76040830185611f89565b611fd46060830184611f89565b95945050505050565b611fe681611f60565b8114611ff157600080fd5b50565b60008135905061200381611fdd565b92915050565b60008060006060848603121561202257612021611d48565b5b600061203086828701611ff4565b935050602061204186828701611e51565b925050604061205286828701611ff4565b9150509250925092565b60006020828403121561207257612071611d48565b5b600061208084828501611ff4565b91505092915050565b61209281611e28565b82525050565b60006020820190506120ad6000830184612089565b92915050565b600080604083850312156120ca576120c9611d48565b5b60006120d885828601611e51565b92505060206120e985828601611ff4565b9150509250929050565b6000819050919050565b6000819050919050565b600061212261211d612118846120f3565b6120fd565b611f60565b9050919050565b61213281612107565b82525050565b600060608201905061214d6000830186612089565b61215a6020830185612129565b6121676040830184611dde565b949350505050565b7f4e487b7100000000000000000000000000000000000000000000000000000000600052601160045260246000fd5b60006121a982611f60565b91506121b483611f60565b92508282039050818111156121cc576121cb61216f565b5b92915050565b60006040820190506121e76000830185612089565b6121f46020830184611f6a565b9392505050565b60006060820190506122106000830186612089565b61221d6020830185611f6a565b61222a6040830184611dde565b949350505050565b60006020820190506122476000830184611f6a565b92915050565b60008151905061225c81611e3a565b92915050565b60006020828403121561227857612277611d48565b5b60006122868482850161224d565b91505092915050565b600082825260208201905092915050565b7f56656869636c65206e6f74207265676973746572656420746f20636f6d70616e60008201527f7900000000000000000000000000000000000000000000000000000000000000602082015250565b60006122fc60218361228f565b9150612307826122a0565b604082019050919050565b6000602082019050818103600083015261232b816122ef565b9050919050565b600061233d82611f60565b915061234883611f60565b92508282019050808211156123605761235f61216f565b5b92915050565b600061237182611f79565b915061237c83611f79565b9250828201905063ffffffff8111156123985761239761216f565b5b92915050565b60006040820190506123b36000830185612089565b6123c06020830184611dde565b9392505050565b6000815190506123d681611fdd565b92915050565b6000602082840312156123f2576123f1611d48565b5b6000612400848285016123c7565b91505092915050565b7f4e6f20746f6b656e7320746f206275726e206f72207374696c6c20657863657360008201527f7320434f3220656d697373696f6e7320746f206f666673657400000000000000602082015250565b600061246560398361228f565b915061247082612409565b604082019050919050565b6000602082019050818103600083015261249481612458565b9050919050565b7f4e6f2065786365737320746f206f666673657400000000000000000000000000600082015250565b60006124d160138361228f565b91506124dc8261249b565b602082019050919050565b60006020820190508181036000830152612500816124c4565b9050919050565b7f496e73756666696369656e7420746f6b656e7320746f206f666673657420657860008201527f6365737300000000000000000000000000000000000000000000000000000000602082015250565b600061256360248361228f565b915061256e82612507565b604082019050919050565b6000602082019050818103600083015261259281612556565b9050919050565b60006125a482611f79565b91506125af83611f79565b9250828203905063ffffffff8111156125cb576125ca61216f565b5b92915050565b60006040820190506125e66000830185612089565b6125f36020830184611ef6565b939250505056fea264697066735822122048d8ca62dd5d248ffbe51ed6cf4a460a8e90c9d961e39c920403968f0298447864736f6c63430008180033",
  "linkReferences": {},
  "deployedLinkReferences": {}
}