{
  "_format": "hh-sol-artifact-1",
  "contractName": "AllowanceContract",
  "sourceName": "contracts/AllowanceContract.sol",
  "abi": [
    {
      "inputs": [],
      "stateMutability": "nonpayable",
      "type": "constructor"
    },
    {
      "inputs": [],
      "name": "AccessControlBadConfirmation",
      "type": "error"
    },
    {
      "inputs": [
        {
          "internalType": "address",
          "name": "account",
          "type": "address"
        },
        {
          "internalType": "bytes32",
          "name": "neededRole",
          "type": "bytes32"
        }
      ],
      "name": "AccessControlUnauthorizedAccount",
      "type": "error"
    },
    {
      "anonymous": false,
      "inputs": [
        {
          "indexed": false,
          "internalType": "address",
          "name": "company",
          "type": "address"
        },
        {
          "indexed": false,
          "internalType": "uint256",
          "name": "allowance",
          "type": "uint256"
        }
      ],
      "name": "CompanyAdded",
      "type": "event"
    },
    {
      "anonymous": false,
      "inputs": [
        {
          "indexed": false,
          "internalType": "uint256",
          "name": "_vehicleID",
          "type": "uint256"
        },
        {
          "indexed": false,
          "internalType": "address",
          "name": "_company",
          "type": "address"
        },
        {
          "indexed": false,
          "internalType": "uint256",
          "name": "_trackedCO2",
          "type": "uint256"
        },
        {
          "indexed": false,
          "internalType": "bool",
          "name": "r",
          "type": "bool"
        }
      ],
      "name": "CompanyDataReady",
      "type": "event"
    },
    {
      "anonymous": false,
      "inputs": [
        {
          "indexed": false,
          "internalType": "address",
          "name": "company",
          "type": "address"
        },
        {
          "indexed": false,
          "internalType": "uint256",
          "name": "excess",
          "type": "uint256"
        },
        {
          "indexed": false,
          "internalType": "bool",
          "name": "achieved",
          "type": "bool"
        }
      ],
      "name": "EmissionReportReceived",
      "type": "event"
    },
    {
      "anonymous": false,
      "inputs": [
        {
          "indexed": true,
          "internalType": "bytes32",
          "name": "role",
          "type": "bytes32"
        },
        {
          "indexed": true,
          "internalType": "bytes32",
          "name": "previousAdminRole",
          "type": "bytes32"
        },
        {
          "indexed": true,
          "internalType": "bytes32",
          "name": "newAdminRole",
          "type": "bytes32"
        }
      ],
      "name": "RoleAdminChanged",
      "type": "event"
    },
    {
      "anonymous": false,
      "inputs": [
        {
          "indexed": true,
          "internalType": "bytes32",
          "name": "role",
          "type": "bytes32"
        },
        {
          "indexed": true,
          "internalType": "address",
          "name": "account",
          "type": "address"
        },
        {
          "indexed": true,
          "internalType": "address",
          "name": "sender",
          "type": "address"
        }
      ],
      "name": "RoleGranted",
      "type": "event"
    },
    {
      "anonymous": false,
      "inputs": [
        {
          "indexed": true,
          "internalType": "bytes32",
          "name": "role",
          "type": "bytes32"
        },
        {
          "indexed": true,
          "internalType": "address",
          "name": "account",
          "type": "address"
        },
        {
          "indexed": true,
          "internalType": "address",
          "name": "sender",
          "type": "address"
        }
      ],
      "name": "RoleRevoked",
      "type": "event"
    },
    {
      "anonymous": false,
      "inputs": [
        {
          "indexed": false,
          "internalType": "address",
          "name": "certContract",
          "type": "address"
        }
      ],
      "name": "certContractSet",
      "type": "event"
    },
    {
      "anonymous": false,
      "inputs": [
        {
          "indexed": false,
          "internalType": "address",
          "name": "deviceRegistry",
          "type": "address"
        }
      ],
      "name": "deviceRegistrySet",
      "type": "event"
    },
    {
      "anonymous": false,
      "inputs": [
        {
          "indexed": false,
          "internalType": "address",
          "name": "operator",
          "type": "address"
        }
      ],
      "name": "operatorRoleSet",
      "type": "event"
    },
    {
      "anonymous": false,
      "inputs": [
        {
          "indexed": false,
          "internalType": "address",
          "name": "tokenContract",
          "type": "address"
        }
      ],
      "name": "tokenContractSet",
      "type": "event"
    },
    {
      "anonymous": false,
      "inputs": [
        {
          "indexed": false,
          "internalType": "address",
          "name": "verifier",
          "type": "address"
        }
      ],
      "name": "verifierRoleSet",
      "type": "event"
    },
    {
      "inputs": [],
      "name": "ADMIN_ROLE",
      "outputs": [
        {
          "internalType": "bytes32",
          "name": "",
          "type": "bytes32"
        }
      ],
      "stateMutability": "view",
      "type": "function"
    },
    {
      "inputs": [],
      "name": "DEFAULT_ADMIN_ROLE",
      "outputs": [
        {
          "internalType": "bytes32",
          "name": "",
          "type": "bytes32"
        }
      ],
      "stateMutability": "view",
      "type": "function"
    },
    {
      "inputs": [],
      "name": "OPERATOR_ROLE",
      "outputs": [
        {
          "internalType": "bytes32",
          "name": "",
          "type": "bytes32"
        }
      ],
      "stateMutability": "view",
      "type": "function"
    },
    {
      "inputs": [],
      "name": "VERIFIER_ROLE",
      "outputs": [
        {
          "internalType": "bytes32",
          "name": "",
          "type": "bytes32"
        }
      ],
      "stateMutability": "view",
      "type": "function"
    },
    {
      "inputs": [
        {
          "internalType": "address",
          "name": "_company",
          "type": "address"
        },
        {
          "internalType": "uint256",
          "name": "_allowance",
          "type": "uint256"
        }
      ],
      "name": "addCompany",
      "outputs": [],
      "stateMutability": "nonpayable",
      "type": "function"
    },
    {
      "inputs": [
        {
          "internalType": "address",
          "name": "_company",
          "type": "address"
        },
        {
          "internalType": "uint256",
          "name": "_newAllowance",
          "type": "uint256"
        }
      ],
      "name": "adjustAllowance",
      "outputs": [],
      "stateMutability": "nonpayable",
      "type": "function"
    },
    {
      "inputs": [
        {
          "internalType": "uint256",
          "name": "_amount",
          "type": "uint256"
        }
      ],
      "name": "burnTokens",
      "outputs": [],
      "stateMutability": "nonpayable",
      "type": "function"
    },
    {
      "inputs": [
        {
          "internalType": "address",
          "name": "_company",
          "type": "address"
        }
      ],
      "name": "checkAllowance",
      "outputs": [],
      "stateMutability": "nonpayable",
      "type": "function"
    },
    {
      "inputs": [
        {
          "internalType": "address",
          "name": "",
          "type": "address"
        }
      ],
      "name": "companies",
      "outputs": [
        {
          "internalType": "uint256",
          "name": "allowance",
          "type": "uint256"
        },
        {
          "internalType": "uint256",
          "name": "trackedCO2",
          "type": "uint256"
        },
        {
          "internalType": "uint32",
          "name": "num_vehicles",
          "type": "uint32"
        },
        {
          "internalType": "uint32",
          "name": "vehicles_tracked",
          "type": "uint32"
        }
      ],
      "stateMutability": "view",
      "type": "function"
    },
    {
      "inputs": [
        {
          "internalType": "uint256",
          "name": "",
          "type": "uint256"
        }
      ],
      "name": "companyAddresses",
      "outputs": [
        {
          "internalType": "address",
          "name": "",
          "type": "address"
        }
      ],
      "stateMutability": "view",
      "type": "function"
    },
    {
      "inputs": [
        {
          "internalType": "address",
          "name": "_company",
          "type": "address"
        }
      ],
      "name": "decreaseVehicleCount",
      "outputs": [],
      "stateMutability": "nonpayable",
      "type": "function"
    },
    {
      "inputs": [
        {
          "internalType": "uint256",
          "name": "_deviceID",
          "type": "uint256"
        },
        {
          "internalType": "address",
          "name": "_company",
          "type": "address"
        },
        {
          "internalType": "uint256",
          "name": "_trackedCO2",
          "type": "uint256"
        }
      ],
      "name": "emissionReport",
      "outputs": [],
      "stateMutability": "nonpayable",
      "type": "function"
    },
    {
      "inputs": [
        {
          "internalType": "address",
          "name": "_company",
          "type": "address"
        }
      ],
      "name": "getCompanyStats",
      "outputs": [
        {
          "internalType": "uint256",
          "name": "",
          "type": "uint256"
        },
        {
          "internalType": "uint256",
          "name": "",
          "type": "uint256"
        },
        {
          "internalType": "uint32",
          "name": "",
          "type": "uint32"
        },
        {
          "internalType": "uint32",
          "name": "",
          "type": "uint32"
        }
      ],
      "stateMutability": "view",
      "type": "function"
    },
    {
      "inputs": [
        {
          "internalType": "bytes32",
          "name": "role",
          "type": "bytes32"
        }
      ],
      "name": "getRoleAdmin",
      "outputs": [
        {
          "internalType": "bytes32",
          "name": "",
          "type": "bytes32"
        }
      ],
      "stateMutability": "view",
      "type": "function"
    },
    {
      "inputs": [
        {
          "internalType": "bytes32",
          "name": "role",
          "type": "bytes32"
        },
        {
          "internalType": "address",
          "name": "account",
          "type": "address"
        }
      ],
      "name": "grantRole",
      "outputs": [],
      "stateMutability": "nonpayable",
      "type": "function"
    },
    {
      "inputs": [
        {
          "internalType": "bytes32",
          "name": "role",
          "type": "bytes32"
        },
        {
          "internalType": "address",
          "name": "account",
          "type": "address"
        }
      ],
      "name": "hasRole",
      "outputs": [
        {
          "internalType": "bool",
          "name": "",
          "type": "bool"
        }
      ],
      "stateMutability": "view",
      "type": "function"
    },
    {
      "inputs": [
        {
          "internalType": "address",
          "name": "_company",
          "type": "address"
        }
      ],
      "name": "increaseVehicleCount",
      "outputs": [],
      "stateMutability": "nonpayable",
      "type": "function"
    },
    {
      "inputs": [],
      "name": "offsetExcess",
      "outputs": [],
      "stateMutability": "nonpayable",
      "type": "function"
    },
    {
      "inputs": [
        {
          "internalType": "bytes32",
          "name": "role",
          "type": "bytes32"
        },
        {
          "internalType": "address",
          "name": "callerConfirmation",
          "type": "address"
        }
      ],
      "name": "renounceRole",
      "outputs": [],
      "stateMutability": "nonpayable",
      "type": "function"
    },
    {
      "inputs": [
        {
          "internalType": "address",
          "name": "_company",
          "type": "address"
        }
      ],
      "name": "resetCompanyData",
      "outputs": [],
      "stateMutability": "nonpayable",
      "type": "function"
    },
    {
      "inputs": [
        {
          "internalType": "bytes32",
          "name": "role",
          "type": "bytes32"
        },
        {
          "internalType": "address",
          "name": "account",
          "type": "address"
        }
      ],
      "name": "revokeRole",
      "outputs": [],
      "stateMutability": "nonpayable",
      "type": "function"
    },
    {
      "inputs": [
        {
          "internalType": "address",
          "name": "_certContract",
          "type": "address"
        }
      ],
      "name": "setCertContract",
      "outputs": [],
      "stateMutability": "nonpayable",
      "type": "function"
    },
    {
      "inputs": [
        {
          "internalType": "address",
          "name": "_deviceRegistry",
          "type": "address"
        }
      ],
      "name": "setDeviceRegistry",
      "outputs": [],
      "stateMutability": "nonpayable",
      "type": "function"
    },
    {
      "inputs": [
        {
          "internalType": "address",
          "name": "_mintingContract",
          "type": "address"
        }
      ],
      "name": "setMintingContract",
      "outputs": [],
      "stateMutability": "nonpayable",
      "type": "function"
    },
    {
      "inputs": [
        {
          "internalType": "address",
          "name": "_operator",
          "type": "address"
        }
      ],
      "name": "setOperatorRole",
      "outputs": [],
      "stateMutability": "nonpayable",
      "type": "function"
    },
    {
      "inputs": [
        {
          "internalType": "address",
          "name": "_verifier",
          "type": "address"
        }
      ],
      "name": "setVerifierRole",
      "outputs": [],
      "stateMutability": "nonpayable",
      "type": "function"
    },
    {
      "inputs": [
        {
          "internalType": "bytes4",
          "name": "interfaceId",
          "type": "bytes4"
        }
      ],
      "name": "supportsInterface",
      "outputs": [
        {
          "internalType": "bool",
          "name": "",
          "type": "bool"
        }
      ],
      "stateMutability": "view",
      "type": "function"
    }
  ],
  "bytecode": "0x60806040523480156200001157600080fd5b50620000447fa49807205ce4d355092ef5a8a18f56e8913cf4a201fbe287825b095693c21775336200007e60201b60201c565b50620000777f97667070c54ef182b0f5858b034beac1b6f3089aa2d3188bb1e8929f4fa9b929336200007e60201b60201c565b50620001f3565b60006200009283836200018160201b60201c565b6200017657600160008085815260200190815260200160002060000160008473ffffffffffffffffffffffffffffffffffffffff1673ffffffffffffffffffffffffffffffffffffffff16815260200190815260200160002060006101000a81548160ff02191690831515021790555062000112620001eb60201b60201c565b73ffffffffffffffffffffffffffffffffffffffff168273ffffffffffffffffffffffffffffffffffffffff16847f2f8788117e7eff1d82e926ec794901d17c78024a50270940304540a733656f0d60405160405180910390a4600190506200017b565b600090505b92915050565b600080600084815260200190815260200160002060000160008373ffffffffffffffffffffffffffffffffffffffff1673ffffffffffffffffffffffffffffffffffffffff16815260200190815260200160002060009054906101000a900460ff16905092915050565b600033905090565b6128a480620002036000396000f3fe608060405234801561001057600080fd5b50600436106101a95760003560e01c806375b238fc116100f9578063aedf65c511610097578063d627452b11610071578063d627452b146104a2578063e7705db6146104be578063e8fbc0ad146104dc578063f5b541a6146104f8576101a9565b8063aedf65c51461044e578063c56e13751461046a578063d547741f14610486576101a9565b806399687845116100d357806399687845146103c8578063a1eb6f3c146103f8578063a217fddf14610414578063acc6926114610432576101a9565b806375b238fc146103705780637fd1d9801461038e57806391d1485414610398576101a9565b8063462721e4116101665780634e84951c116101405780634e84951c146103005780635deed13a1461031c5780636d1b229d146103385780637137a23e14610354576101a9565b8063462721e41461029557806349ea5546146102c85780634cf8a130146102e4576101a9565b806301ffc9a7146101ae5780631a197a26146101de578063248a9ca3146101fa5780632f2ff15d1461022a578063355e6ce81461024657806336568abe14610279575b600080fd5b6101c860048036038101906101c3919061208f565b610516565b6040516101d591906120d7565b60405180910390f35b6101f860048036038101906101f39190612150565b610590565b005b610214600480360381019061020f91906121b3565b6109d8565b60405161022191906121ef565b60405180910390f35b610244600480360381019061023f919061220a565b6109f7565b005b610260600480360381019061025b9190612150565b610a19565b6040516102709493929190612282565b60405180910390f35b610293600480360381019061028e919061220a565b610a69565b005b6102af60048036038101906102aa9190612150565b610ae4565b6040516102bf9493929190612282565b60405180910390f35b6102e260048036038101906102dd9190612150565b610c25565b005b6102fe60048036038101906102f99190612150565b610cfd565b005b61031a600480360381019061031591906122f3565b610d8d565b005b61033660048036038101906103319190612150565b611111565b005b610352600480360381019061034d9190612346565b6111a1565b005b61036e60048036038101906103699190612150565b6113ba565b005b610378611460565b60405161038591906121ef565b60405180910390f35b610396611484565b005b6103b260048036038101906103ad919061220a565b6117a3565b6040516103bf91906120d7565b60405180910390f35b6103e260048036038101906103dd9190612346565b61180d565b6040516103ef9190612382565b60405180910390f35b610412600480360381019061040d919061239d565b61184c565b005b61041c6118c2565b60405161042991906121ef565b60405180910390f35b61044c6004803603810190610447919061239d565b6118c9565b005b61046860048036038101906104639190612150565b611a68565b005b610484600480360381019061047f9190612150565b611b0e565b005b6104a0600480360381019061049b919061220a565b611bb4565b005b6104bc60048036038101906104b79190612150565b611bd6565b005b6104c6611c83565b6040516104d391906121ef565b60405180910390f35b6104f660048036038101906104f19190612150565b611ca7565b005b610500611d54565b60405161050d91906121ef565b60405180910390f35b60007f7965db0b000000000000000000000000000000000000000000000000000000007bffffffffffffffffffffffffffffffffffffffffffffffffffffffff1916827bffffffffffffffffffffffffffffffffffffffffffffffffffffffff19161480610589575061058882611d78565b5b9050919050565b7fa49807205ce4d355092ef5a8a18f56e8913cf4a201fbe287825b095693c217756105ba81611de2565b600160008373ffffffffffffffffffffffffffffffffffffffff1673ffffffffffffffffffffffffffffffffffffffff16815260200190815260200160002060000154600160008473ffffffffffffffffffffffffffffffffffffffff1673ffffffffffffffffffffffffffffffffffffffff1681526020019081526020016000206001015403610687577fc3a557ee4569dbf1b0e6eb12ed4b6f06e305d5dd0dff22d87277251de09607fc826000600160405161067a93929190612422565b60405180910390a16109d4565b600160008373ffffffffffffffffffffffffffffffffffffffff1673ffffffffffffffffffffffffffffffffffffffff16815260200190815260200160002060000154600160008473ffffffffffffffffffffffffffffffffffffffff1673ffffffffffffffffffffffffffffffffffffffff168152602001908152602001600020600101541015610901576000600160008473ffffffffffffffffffffffffffffffffffffffff1673ffffffffffffffffffffffffffffffffffffffff16815260200190815260200160002060010154600160008573ffffffffffffffffffffffffffffffffffffffff1673ffffffffffffffffffffffffffffffffffffffff168152602001908152602001600020600001546107a59190612488565b9050600360009054906101000a900473ffffffffffffffffffffffffffffffffffffffff1673ffffffffffffffffffffffffffffffffffffffff166340c10f1984836040518363ffffffff1660e01b81526004016108049291906124bc565b600060405180830381600087803b15801561081e57600080fd5b505af1158015610832573d6000803e3d6000fd5b50505050600160008473ffffffffffffffffffffffffffffffffffffffff1673ffffffffffffffffffffffffffffffffffffffff16815260200190815260200160002060000154600160008573ffffffffffffffffffffffffffffffffffffffff1673ffffffffffffffffffffffffffffffffffffffff168152602001908152602001600020600101819055507fc3a557ee4569dbf1b0e6eb12ed4b6f06e305d5dd0dff22d87277251de09607fc838260016040516108f3939291906124e5565b60405180910390a1506109d3565b6000600160008473ffffffffffffffffffffffffffffffffffffffff1673ffffffffffffffffffffffffffffffffffffffff16815260200190815260200160002060000154600160008573ffffffffffffffffffffffffffffffffffffffff1673ffffffffffffffffffffffffffffffffffffffff168152602001908152602001600020600101546109939190612488565b90507fc3a557ee4569dbf1b0e6eb12ed4b6f06e305d5dd0dff22d87277251de09607fc838260006040516109c9939291906124e5565b60405180910390a1505b5b5050565b6000806000838152602001908152602001600020600101549050919050565b610a00826109d8565b610a0981611de2565b610a138383611df6565b50505050565b60016020528060005260406000206000915090508060000154908060010154908060020160009054906101000a900463ffffffff16908060020160049054906101000a900463ffffffff16905084565b610a71611ee7565b73ffffffffffffffffffffffffffffffffffffffff168173ffffffffffffffffffffffffffffffffffffffff1614610ad5576040517f6697b23200000000000000000000000000000000000000000000000000000000815260040160405180910390fd5b610adf8282611eef565b505050565b600080600080600160008673ffffffffffffffffffffffffffffffffffffffff1673ffffffffffffffffffffffffffffffffffffffff16815260200190815260200160002060000154600160008773ffffffffffffffffffffffffffffffffffffffff1673ffffffffffffffffffffffffffffffffffffffff16815260200190815260200160002060010154600160008873ffffffffffffffffffffffffffffffffffffffff1673ffffffffffffffffffffffffffffffffffffffff16815260200190815260200160002060020160009054906101000a900463ffffffff16600160008973ffffffffffffffffffffffffffffffffffffffff1673ffffffffffffffffffffffffffffffffffffffff16815260200190815260200160002060020160049054906101000a900463ffffffff1693509350935093509193509193565b7f97667070c54ef182b0f5858b034beac1b6f3089aa2d3188bb1e8929f4fa9b929610c4f81611de2565b6000600160008473ffffffffffffffffffffffffffffffffffffffff1673ffffffffffffffffffffffffffffffffffffffff168152602001908152602001600020600101819055506000600160008473ffffffffffffffffffffffffffffffffffffffff1673ffffffffffffffffffffffffffffffffffffffff16815260200190815260200160002060020160046101000a81548163ffffffff021916908363ffffffff1602179055505050565b7fa49807205ce4d355092ef5a8a18f56e8913cf4a201fbe287825b095693c21775610d2781611de2565b610d517f97667070c54ef182b0f5858b034beac1b6f3089aa2d3188bb1e8929f4fa9b92983611df6565b507f693663dca4b53ef71deb189fd198973d5b279f1fb4b8eafb86e2261fb9c8694982604051610d819190612382565b60405180910390a15050565b7f0ce23c3e399818cfee81a7ab0880f714e53d7672b08df0fa62f2843416e1ea09610db781611de2565b81600160008573ffffffffffffffffffffffffffffffffffffffff1673ffffffffffffffffffffffffffffffffffffffff1681526020019081526020016000206001016000828254610e09919061251c565b9250508190555060018060008573ffffffffffffffffffffffffffffffffffffffff1673ffffffffffffffffffffffffffffffffffffffff16815260200190815260200160002060020160048282829054906101000a900463ffffffff16610e719190612550565b92506101000a81548163ffffffff021916908363ffffffff160217905550600160008473ffffffffffffffffffffffffffffffffffffffff1673ffffffffffffffffffffffffffffffffffffffff16815260200190815260200160002060020160009054906101000a900463ffffffff1663ffffffff16600160008573ffffffffffffffffffffffffffffffffffffffff1673ffffffffffffffffffffffffffffffffffffffff16815260200190815260200160002060020160049054906101000a900463ffffffff1663ffffffff160361102f577f5e0fd333e7e30834af48b08aada743ba7867586084525bf6ff9e0528475bd36084600560009054906101000a900473ffffffffffffffffffffffffffffffffffffffff1673ffffffffffffffffffffffffffffffffffffffff16630adfe0a0876040518263ffffffff1660e01b8152600401610fc39190612588565b6020604051808303816000875af1158015610fe2573d6000803e3d6000fd5b505050506040513d601f19601f8201168201806040525081019061100691906125b8565b84600160405161101994939291906125e5565b60405180910390a161102a83610590565b61110b565b7f5e0fd333e7e30834af48b08aada743ba7867586084525bf6ff9e0528475bd36084600560009054906101000a900473ffffffffffffffffffffffffffffffffffffffff1673ffffffffffffffffffffffffffffffffffffffff16630adfe0a0876040518263ffffffff1660e01b81526004016110ac9190612588565b6020604051808303816000875af11580156110cb573d6000803e3d6000fd5b505050506040513d601f19601f820116820180604052508101906110ef91906125b8565b84600060405161110294939291906125e5565b60405180910390a15b50505050565b7fa49807205ce4d355092ef5a8a18f56e8913cf4a201fbe287825b095693c2177561113b81611de2565b6111657f0ce23c3e399818cfee81a7ab0880f714e53d7672b08df0fa62f2843416e1ea0983611df6565b507f704ea5d92f6606a9566da5dcdee5a4fcac4d1ba84763e573e81acf43a902fce2826040516111959190612382565b60405180910390a15050565b60003390506000820361124f57600360009054906101000a900473ffffffffffffffffffffffffffffffffffffffff1673ffffffffffffffffffffffffffffffffffffffff1663450efe21826040518263ffffffff1660e01b81526004016112099190612382565b6020604051808303816000875af1158015611228573d6000803e3d6000fd5b505050506040513d601f19601f8201168201806040525081019061124c919061263f565b91505b6000821180156112e25750600160008273ffffffffffffffffffffffffffffffffffffffff1673ffffffffffffffffffffffffffffffffffffffff16815260200190815260200160002060000154600160008373ffffffffffffffffffffffffffffffffffffffff1673ffffffffffffffffffffffffffffffffffffffff16815260200190815260200160002060010154145b1561137b57600360009054906101000a900473ffffffffffffffffffffffffffffffffffffffff1673ffffffffffffffffffffffffffffffffffffffff16639dc29fac82846040518363ffffffff1660e01b81526004016113449291906124bc565b600060405180830381600087803b15801561135e57600080fd5b505af1158015611372573d6000803e3d6000fd5b505050506113b6565b6040517f08c379a00000000000000000000000000000000000000000000000000000000081526004016113ad906126ef565b60405180910390fd5b5050565b7fa49807205ce4d355092ef5a8a18f56e8913cf4a201fbe287825b095693c217756113e481611de2565b81600560006101000a81548173ffffffffffffffffffffffffffffffffffffffff021916908373ffffffffffffffffffffffffffffffffffffffff1602179055507f82811345e2ada6493499e58f8aae89e17fa54b10ee17c0df1e87e92b76bb8075826040516114549190612382565b60405180910390a15050565b7fa49807205ce4d355092ef5a8a18f56e8913cf4a201fbe287825b095693c2177581565b60003390506000600160008373ffffffffffffffffffffffffffffffffffffffff1673ffffffffffffffffffffffffffffffffffffffff16815260200190815260200160002060000154600160008473ffffffffffffffffffffffffffffffffffffffff1673ffffffffffffffffffffffffffffffffffffffff1681526020019081526020016000206001015461151b9190612488565b905060008103611560576040517f08c379a00000000000000000000000000000000000000000000000000000000081526004016115579061275b565b60405180910390fd5b6000600360009054906101000a900473ffffffffffffffffffffffffffffffffffffffff1673ffffffffffffffffffffffffffffffffffffffff1663450efe21846040518263ffffffff1660e01b81526004016115bd9190612382565b6020604051808303816000875af11580156115dc573d6000803e3d6000fd5b505050506040513d601f19601f82011682018060405250810190611600919061263f565b905081811061176357600360009054906101000a900473ffffffffffffffffffffffffffffffffffffffff1673ffffffffffffffffffffffffffffffffffffffff16639dc29fac84846040518363ffffffff1660e01b81526004016116669291906124bc565b600060405180830381600087803b15801561168057600080fd5b505af1158015611694573d6000803e3d6000fd5b50505050600160008473ffffffffffffffffffffffffffffffffffffffff1673ffffffffffffffffffffffffffffffffffffffff16815260200190815260200160002060000154600160008573ffffffffffffffffffffffffffffffffffffffff1673ffffffffffffffffffffffffffffffffffffffff168152602001908152602001600020600101819055507fc3a557ee4569dbf1b0e6eb12ed4b6f06e305d5dd0dff22d87277251de09607fc836000600160405161175693929190612422565b60405180910390a161179e565b6040517f08c379a0000000000000000000000000000000000000000000000000000000008152600401611795906127ed565b60405180910390fd5b505050565b600080600084815260200190815260200160002060000160008373ffffffffffffffffffffffffffffffffffffffff1673ffffffffffffffffffffffffffffffffffffffff16815260200190815260200160002060009054906101000a900460ff16905092915050565b6002818154811061181d57600080fd5b906000526020600020016000915054906101000a900473ffffffffffffffffffffffffffffffffffffffff1681565b7f97667070c54ef182b0f5858b034beac1b6f3089aa2d3188bb1e8929f4fa9b92961187681611de2565b81600160008573ffffffffffffffffffffffffffffffffffffffff1673ffffffffffffffffffffffffffffffffffffffff16815260200190815260200160002060000181905550505050565b6000801b81565b7f97667070c54ef182b0f5858b034beac1b6f3089aa2d3188bb1e8929f4fa9b9296118f381611de2565b604051806080016040528083815260200160008152602001600063ffffffff168152602001600063ffffffff16815250600160008573ffffffffffffffffffffffffffffffffffffffff1673ffffffffffffffffffffffffffffffffffffffff168152602001908152602001600020600082015181600001556020820151816001015560408201518160020160006101000a81548163ffffffff021916908363ffffffff16021790555060608201518160020160046101000a81548163ffffffff021916908363ffffffff1602179055509050506002839080600181540180825580915050600190039060005260206000200160009091909190916101000a81548173ffffffffffffffffffffffffffffffffffffffff021916908373ffffffffffffffffffffffffffffffffffffffff1602179055507f691cdb19bc623305219a269af7817a9193c5be73b0cb419d1b6f6c080306893a8383604051611a5b9291906124bc565b60405180910390a1505050565b7fa49807205ce4d355092ef5a8a18f56e8913cf4a201fbe287825b095693c21775611a9281611de2565b81600460006101000a81548173ffffffffffffffffffffffffffffffffffffffff021916908373ffffffffffffffffffffffffffffffffffffffff1602179055507fe0fe7079f3e1809e47f9258cb71768986e8c13cb9eaf8dd5cb803cf766d7a0fa82604051611b029190612382565b60405180910390a15050565b7fa49807205ce4d355092ef5a8a18f56e8913cf4a201fbe287825b095693c21775611b3881611de2565b81600360006101000a81548173ffffffffffffffffffffffffffffffffffffffff021916908373ffffffffffffffffffffffffffffffffffffffff1602179055507f96bd71a123598a1873f3691f46f557092eda081a94f6e6d8e370b4e8c7cbd41f82604051611ba89190612382565b60405180910390a15050565b611bbd826109d8565b611bc681611de2565b611bd08383611eef565b50505050565b7f97667070c54ef182b0f5858b034beac1b6f3089aa2d3188bb1e8929f4fa9b929611c0081611de2565b60018060008473ffffffffffffffffffffffffffffffffffffffff1673ffffffffffffffffffffffffffffffffffffffff16815260200190815260200160002060020160008282829054906101000a900463ffffffff16611c61919061280d565b92506101000a81548163ffffffff021916908363ffffffff1602179055505050565b7f0ce23c3e399818cfee81a7ab0880f714e53d7672b08df0fa62f2843416e1ea0981565b7f97667070c54ef182b0f5858b034beac1b6f3089aa2d3188bb1e8929f4fa9b929611cd181611de2565b60018060008473ffffffffffffffffffffffffffffffffffffffff1673ffffffffffffffffffffffffffffffffffffffff16815260200190815260200160002060020160008282829054906101000a900463ffffffff16611d329190612550565b92506101000a81548163ffffffff021916908363ffffffff1602179055505050565b7f97667070c54ef182b0f5858b034beac1b6f3089aa2d3188bb1e8929f4fa9b92981565b60007f01ffc9a7000000000000000000000000000000000000000000000000000000007bffffffffffffffffffffffffffffffffffffffffffffffffffffffff1916827bffffffffffffffffffffffffffffffffffffffffffffffffffffffff1916149050919050565b611df381611dee611ee7565b611fe1565b50565b6000611e0283836117a3565b611edc57600160008085815260200190815260200160002060000160008473ffffffffffffffffffffffffffffffffffffffff1673ffffffffffffffffffffffffffffffffffffffff16815260200190815260200160002060006101000a81548160ff021916908315150217905550611e79611ee7565b73ffffffffffffffffffffffffffffffffffffffff168273ffffffffffffffffffffffffffffffffffffffff16847f2f8788117e7eff1d82e926ec794901d17c78024a50270940304540a733656f0d60405160405180910390a460019050611ee1565b600090505b92915050565b600033905090565b6000611efb83836117a3565b15611fd657600080600085815260200190815260200160002060000160008473ffffffffffffffffffffffffffffffffffffffff1673ffffffffffffffffffffffffffffffffffffffff16815260200190815260200160002060006101000a81548160ff021916908315150217905550611f73611ee7565b73ffffffffffffffffffffffffffffffffffffffff168273ffffffffffffffffffffffffffffffffffffffff16847ff6391f5c32d9c69d2a47ea670b442974b53935d1edc7fd64eb21e047a839171b60405160405180910390a460019050611fdb565b600090505b92915050565b611feb82826117a3565b61202e5780826040517fe2517d3f000000000000000000000000000000000000000000000000000000008152600401612025929190612845565b60405180910390fd5b5050565b600080fd5b60007fffffffff0000000000000000000000000000000000000000000000000000000082169050919050565b61206c81612037565b811461207757600080fd5b50565b60008135905061208981612063565b92915050565b6000602082840312156120a5576120a4612032565b5b60006120b38482850161207a565b91505092915050565b60008115159050919050565b6120d1816120bc565b82525050565b60006020820190506120ec60008301846120c8565b92915050565b600073ffffffffffffffffffffffffffffffffffffffff82169050919050565b600061211d826120f2565b9050919050565b61212d81612112565b811461213857600080fd5b50565b60008135905061214a81612124565b92915050565b60006020828403121561216657612165612032565b5b60006121748482850161213b565b91505092915050565b6000819050919050565b6121908161217d565b811461219b57600080fd5b50565b6000813590506121ad81612187565b92915050565b6000602082840312156121c9576121c8612032565b5b60006121d78482850161219e565b91505092915050565b6121e98161217d565b82525050565b600060208201905061220460008301846121e0565b92915050565b6000806040838503121561222157612220612032565b5b600061222f8582860161219e565b92505060206122408582860161213b565b9150509250929050565b6000819050919050565b61225d8161224a565b82525050565b600063ffffffff82169050919050565b61227c81612263565b82525050565b60006080820190506122976000830187612254565b6122a46020830186612254565b6122b16040830185612273565b6122be6060830184612273565b95945050505050565b6122d08161224a565b81146122db57600080fd5b50565b6000813590506122ed816122c7565b92915050565b60008060006060848603121561230c5761230b612032565b5b600061231a868287016122de565b935050602061232b8682870161213b565b925050604061233c868287016122de565b9150509250925092565b60006020828403121561235c5761235b612032565b5b600061236a848285016122de565b91505092915050565b61237c81612112565b82525050565b60006020820190506123976000830184612373565b92915050565b600080604083850312156123b4576123b3612032565b5b60006123c28582860161213b565b92505060206123d3858286016122de565b9150509250929050565b6000819050919050565b6000819050919050565b600061240c612407612402846123dd565b6123e7565b61224a565b9050919050565b61241c816123f1565b82525050565b60006060820190506124376000830186612373565b6124446020830185612413565b61245160408301846120c8565b949350505050565b7f4e487b7100000000000000000000000000000000000000000000000000000000600052601160045260246000fd5b60006124938261224a565b915061249e8361224a565b92508282039050818111156124b6576124b5612459565b5b92915050565b60006040820190506124d16000830185612373565b6124de6020830184612254565b9392505050565b60006060820190506124fa6000830186612373565b6125076020830185612254565b61251460408301846120c8565b949350505050565b60006125278261224a565b91506125328361224a565b925082820190508082111561254a57612549612459565b5b92915050565b600061255b82612263565b915061256683612263565b9250828201905063ffffffff81111561258257612581612459565b5b92915050565b600060208201905061259d6000830184612254565b92915050565b6000815190506125b281612124565b92915050565b6000602082840312156125ce576125cd612032565b5b60006125dc848285016125a3565b91505092915050565b60006080820190506125fa6000830187612254565b6126076020830186612373565b6126146040830185612254565b61262160608301846120c8565b95945050505050565b600081519050612639816122c7565b92915050565b60006020828403121561265557612654612032565b5b60006126638482850161262a565b91505092915050565b600082825260208201905092915050565b7f4e6f20746f6b656e7320746f206275726e206f72207374696c6c20657863657360008201527f7320434f3220656d697373696f6e7320746f206f666673657400000000000000602082015250565b60006126d960398361266c565b91506126e48261267d565b604082019050919050565b60006020820190508181036000830152612708816126cc565b9050919050565b7f4e6f2065786365737320746f206f666673657400000000000000000000000000600082015250565b600061274560138361266c565b91506127508261270f565b602082019050919050565b6000602082019050818103600083015261277481612738565b9050919050565b7f496e73756666696369656e7420746f6b656e7320746f206f666673657420657860008201527f6365737300000000000000000000000000000000000000000000000000000000602082015250565b60006127d760248361266c565b91506127e28261277b565b604082019050919050565b60006020820190508181036000830152612806816127ca565b9050919050565b600061281882612263565b915061282383612263565b9250828203905063ffffffff81111561283f5761283e612459565b5b92915050565b600060408201905061285a6000830185612373565b61286760208301846121e0565b939250505056fea26469706673582212201eb2cbcc10fa2a0f9260a1946a2faa7dc662c0034a81b3e90bd402acec7d90fe64736f6c63430008180033",
  "linkReferences": {},
  "deployedLinkReferences": {}
}