{
  "_format": "hh-sol-artifact-1",
  "contractName": "DeviceRegistry",
  "sourceName": "contracts/DeviceRegistry.sol",
  "abi": [
    {
      "inputs": [],
      "stateMutability": "nonpayable",
      "type": "constructor"
    },
    {
      "inputs": [],
      "name": "AccessControlBadConfirmation",
      "type": "error"
    },
    {
      "inputs": [
        {
          "internalType": "address",
          "name": "account",
          "type": "address"
        },
        {
          "internalType": "bytes32",
          "name": "neededRole",
          "type": "bytes32"
        }
      ],
      "name": "AccessControlUnauthorizedAccount",
      "type": "error"
    },
    {
      "anonymous": false,
      "inputs": [
        {
          "indexed": false,
          "internalType": "address",
          "name": "_allowanceContract",
          "type": "address"
        }
      ],
      "name": "AllowanceContractSet",
      "type": "event"
    },
    {
      "anonymous": false,
      "inputs": [
        {
          "indexed": false,
          "internalType": "uint256",
          "name": "deviceID",
          "type": "uint256"
        },
        {
          "indexed": false,
          "internalType": "address",
          "name": "_wallet",
          "type": "address"
        },
        {
          "indexed": false,
          "internalType": "bool",
          "name": "isBound",
          "type": "bool"
        }
      ],
      "name": "DeviceBound",
      "type": "event"
    },
    {
      "anonymous": false,
      "inputs": [
        {
          "indexed": false,
          "internalType": "uint256",
          "name": "deviceID",
          "type": "uint256"
        },
        {
          "indexed": false,
          "internalType": "uint256",
          "name": "vehicleId",
          "type": "uint256"
        },
        {
          "indexed": false,
          "internalType": "bool",
          "name": "isRegistered",
          "type": "bool"
        }
      ],
      "name": "DeviceRegistered",
      "type": "event"
    },
    {
      "anonymous": false,
      "inputs": [
        {
          "indexed": true,
          "internalType": "bytes32",
          "name": "role",
          "type": "bytes32"
        },
        {
          "indexed": true,
          "internalType": "bytes32",
          "name": "previousAdminRole",
          "type": "bytes32"
        },
        {
          "indexed": true,
          "internalType": "bytes32",
          "name": "newAdminRole",
          "type": "bytes32"
        }
      ],
      "name": "RoleAdminChanged",
      "type": "event"
    },
    {
      "anonymous": false,
      "inputs": [
        {
          "indexed": true,
          "internalType": "bytes32",
          "name": "role",
          "type": "bytes32"
        },
        {
          "indexed": true,
          "internalType": "address",
          "name": "account",
          "type": "address"
        },
        {
          "indexed": true,
          "internalType": "address",
          "name": "sender",
          "type": "address"
        }
      ],
      "name": "RoleGranted",
      "type": "event"
    },
    {
      "anonymous": false,
      "inputs": [
        {
          "indexed": true,
          "internalType": "bytes32",
          "name": "role",
          "type": "bytes32"
        },
        {
          "indexed": true,
          "internalType": "address",
          "name": "account",
          "type": "address"
        },
        {
          "indexed": true,
          "internalType": "address",
          "name": "sender",
          "type": "address"
        }
      ],
      "name": "RoleRevoked",
      "type": "event"
    },
    {
      "inputs": [],
      "name": "ADMIN_ROLE",
      "outputs": [
        {
          "internalType": "bytes32",
          "name": "",
          "type": "bytes32"
        }
      ],
      "stateMutability": "view",
      "type": "function"
    },
    {
      "inputs": [],
      "name": "DEFAULT_ADMIN_ROLE",
      "outputs": [
        {
          "internalType": "bytes32",
          "name": "",
          "type": "bytes32"
        }
      ],
      "stateMutability": "view",
      "type": "function"
    },
    {
      "inputs": [],
      "name": "OPERATOR_ROLE",
      "outputs": [
        {
          "internalType": "bytes32",
          "name": "",
          "type": "bytes32"
        }
      ],
      "stateMutability": "view",
      "type": "function"
    },
    {
      "inputs": [
        {
          "internalType": "uint256",
          "name": "_deviceID",
          "type": "uint256"
        }
      ],
      "name": "getDeviceData",
      "outputs": [
        {
          "internalType": "uint256",
          "name": "",
          "type": "uint256"
        },
        {
          "internalType": "uint256",
          "name": "",
          "type": "uint256"
        },
        {
          "internalType": "address",
          "name": "",
          "type": "address"
        },
        {
          "internalType": "bool",
          "name": "",
          "type": "bool"
        }
      ],
      "stateMutability": "view",
      "type": "function"
    },
    {
      "inputs": [
        {
          "internalType": "uint256",
          "name": "_deviceID",
          "type": "uint256"
        }
      ],
      "name": "getDeviceWallet",
      "outputs": [
        {
          "internalType": "address",
          "name": "",
          "type": "address"
        }
      ],
      "stateMutability": "view",
      "type": "function"
    },
    {
      "inputs": [
        {
          "internalType": "address",
          "name": "_wallet",
          "type": "address"
        }
      ],
      "name": "getDevicesByWallet",
      "outputs": [
        {
          "internalType": "uint256[]",
          "name": "",
          "type": "uint256[]"
        }
      ],
      "stateMutability": "view",
      "type": "function"
    },
    {
      "inputs": [
        {
          "internalType": "bytes32",
          "name": "role",
          "type": "bytes32"
        }
      ],
      "name": "getRoleAdmin",
      "outputs": [
        {
          "internalType": "bytes32",
          "name": "",
          "type": "bytes32"
        }
      ],
      "stateMutability": "view",
      "type": "function"
    },
    {
      "inputs": [
        {
          "internalType": "uint256",
          "name": "_vehicleId",
          "type": "uint256"
        }
      ],
      "name": "getVehicleData",
      "outputs": [
        {
          "internalType": "string",
          "name": "",
          "type": "string"
        },
        {
          "internalType": "uint256",
          "name": "",
          "type": "uint256"
        }
      ],
      "stateMutability": "view",
      "type": "function"
    },
    {
      "inputs": [
        {
          "internalType": "bytes32",
          "name": "role",
          "type": "bytes32"
        },
        {
          "internalType": "address",
          "name": "account",
          "type": "address"
        }
      ],
      "name": "grantRole",
      "outputs": [],
      "stateMutability": "nonpayable",
      "type": "function"
    },
    {
      "inputs": [
        {
          "internalType": "bytes32",
          "name": "role",
          "type": "bytes32"
        },
        {
          "internalType": "address",
          "name": "account",
          "type": "address"
        }
      ],
      "name": "hasRole",
      "outputs": [
        {
          "internalType": "bool",
          "name": "",
          "type": "bool"
        }
      ],
      "stateMutability": "view",
      "type": "function"
    },
    {
      "inputs": [],
      "name": "pebblesCount",
      "outputs": [
        {
          "internalType": "uint256",
          "name": "",
          "type": "uint256"
        }
      ],
      "stateMutability": "view",
      "type": "function"
    },
    {
      "inputs": [
        {
          "internalType": "uint256",
          "name": "_deviceID",
          "type": "uint256"
        },
        {
          "internalType": "uint256",
          "name": "_vehicleId",
          "type": "uint256"
        },
        {
          "internalType": "address",
          "name": "_wallet",
          "type": "address"
        }
      ],
      "name": "registerDevice",
      "outputs": [],
      "stateMutability": "nonpayable",
      "type": "function"
    },
    {
      "inputs": [
        {
          "internalType": "uint256",
          "name": "_vehicleId",
          "type": "uint256"
        },
        {
          "internalType": "string",
          "name": "_vehicleType",
          "type": "string"
        },
        {
          "internalType": "uint256",
          "name": "_avgEmissions",
          "type": "uint256"
        }
      ],
      "name": "registerVehicle",
      "outputs": [],
      "stateMutability": "nonpayable",
      "type": "function"
    },
    {
      "inputs": [
        {
          "internalType": "bytes32",
          "name": "role",
          "type": "bytes32"
        },
        {
          "internalType": "address",
          "name": "callerConfirmation",
          "type": "address"
        }
      ],
      "name": "renounceRole",
      "outputs": [],
      "stateMutability": "nonpayable",
      "type": "function"
    },
    {
      "inputs": [
        {
          "internalType": "bytes32",
          "name": "role",
          "type": "bytes32"
        },
        {
          "internalType": "address",
          "name": "account",
          "type": "address"
        }
      ],
      "name": "revokeRole",
      "outputs": [],
      "stateMutability": "nonpayable",
      "type": "function"
    },
    {
      "inputs": [
        {
          "internalType": "address",
          "name": "_allowanceContract",
          "type": "address"
        }
      ],
      "name": "setAllowanceContract",
      "outputs": [],
      "stateMutability": "nonpayable",
      "type": "function"
    },
    {
      "inputs": [
        {
          "internalType": "bytes4",
          "name": "interfaceId",
          "type": "bytes4"
        }
      ],
      "name": "supportsInterface",
      "outputs": [
        {
          "internalType": "bool",
          "name": "",
          "type": "bool"
        }
      ],
      "stateMutability": "view",
      "type": "function"
    },
    {
      "inputs": [
        {
          "internalType": "uint256",
          "name": "_deviceID",
          "type": "uint256"
        },
        {
          "internalType": "uint256",
          "name": "_vehicleId",
          "type": "uint256"
        }
      ],
      "name": "switchVehicle",
      "outputs": [],
      "stateMutability": "nonpayable",
      "type": "function"
    },
    {
      "inputs": [
        {
          "internalType": "uint256",
          "name": "_deviceID",
          "type": "uint256"
        },
        {
          "internalType": "address",
          "name": "_wallet",
          "type": "address"
        }
      ],
      "name": "transferDeviceOwner",
      "outputs": [],
      "stateMutability": "nonpayable",
      "type": "function"
    },
    {
      "inputs": [
        {
          "internalType": "uint256",
          "name": "_deviceID",
          "type": "uint256"
        }
      ],
      "name": "unregisterDevice",
      "outputs": [],
      "stateMutability": "nonpayable",
      "type": "function"
    }
  ],
  "bytecode": "0x608060405260006001553480156200001657600080fd5b50620000497fa49807205ce4d355092ef5a8a18f56e8913cf4a201fbe287825b095693c21775336200008360201b60201c565b506200007c7f97667070c54ef182b0f5858b034beac1b6f3089aa2d3188bb1e8929f4fa9b929336200008360201b60201c565b50620001f8565b60006200009783836200018660201b60201c565b6200017b57600160008085815260200190815260200160002060000160008473ffffffffffffffffffffffffffffffffffffffff1673ffffffffffffffffffffffffffffffffffffffff16815260200190815260200160002060006101000a81548160ff02191690831515021790555062000117620001f060201b60201c565b73ffffffffffffffffffffffffffffffffffffffff168273ffffffffffffffffffffffffffffffffffffffff16847f2f8788117e7eff1d82e926ec794901d17c78024a50270940304540a733656f0d60405160405180910390a46001905062000180565b600090505b92915050565b600080600084815260200190815260200160002060000160008373ffffffffffffffffffffffffffffffffffffffff1673ffffffffffffffffffffffffffffffffffffffff16815260200190815260200160002060009054906101000a900460ff16905092915050565b600033905090565b611fa180620002086000396000f3fe608060405234801561001057600080fd5b506004361061012c5760003560e01c806383e0da69116100ad578063d547741f11610071578063d547741f14610352578063d96cabfa1461036e578063ec898be0146103a1578063f38ab9f6146103bd578063f5b541a6146103db5761012c565b806383e0da691461029b5780638a927c0d146102b757806391d14854146102d3578063a217fddf14610303578063c8920eb1146103215761012c565b806331b61704116100f457806331b61704146101f957806336568abe146102155780635db0ea18146102315780636d2442b01461024d57806375b238fc1461027d5761012c565b806301ffc9a7146101315780630adfe0a0146101615780631b9de71914610191578063248a9ca3146101ad5780632f2ff15d146101dd575b600080fd5b61014b600480360381019061014691906113d4565b6103f9565b604051610158919061141c565b60405180910390f35b61017b6004803603810190610176919061146d565b610473565b60405161018891906114db565b60405180910390f35b6101ab60048036038101906101a691906114f6565b6104b3565b005b6101c760048036038101906101c2919061156c565b610539565b6040516101d491906115a8565b60405180910390f35b6101f760048036038101906101f291906115ef565b610558565b005b610213600480360381019061020e919061162f565b61057a565b005b61022f600480360381019061022a91906115ef565b610620565b005b61024b6004803603810190610246919061165c565b61069b565b005b6102676004803603810190610262919061162f565b610907565b604051610274919061176d565b60405180910390f35b610285610b09565b60405161029291906115a8565b60405180910390f35b6102b560048036038101906102b0919061178f565b610b2d565b005b6102d160048036038101906102cc919061146d565b610bed565b005b6102ed60048036038101906102e891906115ef565b610d87565b6040516102fa919061141c565b60405180910390f35b61030b610df1565b60405161031891906115a8565b60405180910390f35b61033b6004803603810190610336919061146d565b610df8565b60405161034992919061186e565b60405180910390f35b61036c600480360381019061036791906115ef565b610ebe565b005b6103886004803603810190610383919061146d565b610ee0565b604051610398949392919061189e565b60405180910390f35b6103bb60048036038101906103b69190611948565b610f68565b005b6103c561108e565b6040516103d291906119bc565b60405180910390f35b6103e3611094565b6040516103f091906115a8565b60405180910390f35b60007f7965db0b000000000000000000000000000000000000000000000000000000007bffffffffffffffffffffffffffffffffffffffffffffffffffffffff1916827bffffffffffffffffffffffffffffffffffffffffffffffffffffffff1916148061046c575061046b826110b8565b5b9050919050565b60006002600083815260200190815260200160002060010160019054906101000a900473ffffffffffffffffffffffffffffffffffffffff169050919050565b7f97667070c54ef182b0f5858b034beac1b6f3089aa2d3188bb1e8929f4fa9b9296104dd81611122565b8160026000858152602001908152602001600020600001819055507f7e8dec059885cb6a28a2358ae4ee52ac03d92845b1a9b5c5e0b6337bed4db0938383600160405161052c939291906119d7565b60405180910390a1505050565b6000806000838152602001908152602001600020600101549050919050565b61056182610539565b61056a81611122565b6105748383611136565b50505050565b7fa49807205ce4d355092ef5a8a18f56e8913cf4a201fbe287825b095693c217756105a481611122565b81600560006101000a81548173ffffffffffffffffffffffffffffffffffffffff021916908373ffffffffffffffffffffffffffffffffffffffff1602179055507f7d972887013bc922872d7ec66f74c2888129d7917edec15b9eabb2276385d5808260405161061491906114db565b60405180910390a15050565b610628611227565b73ffffffffffffffffffffffffffffffffffffffff168173ffffffffffffffffffffffffffffffffffffffff161461068c576040517f6697b23200000000000000000000000000000000000000000000000000000000815260040160405180910390fd5b610696828261122f565b505050565b7f97667070c54ef182b0f5858b034beac1b6f3089aa2d3188bb1e8929f4fa9b9296106c581611122565b836002600082815260200190815260200160002060010160009054906101000a900460ff161561072a576040517f08c379a000000000000000000000000000000000000000000000000000000000815260040161072190611a5a565b60405180910390fd5b60405180608001604052808581526020016001151581526020018473ffffffffffffffffffffffffffffffffffffffff16815260200160011515815250600260008781526020019081526020016000206000820151816000015560208201518160010160006101000a81548160ff02191690831515021790555060408201518160010160016101000a81548173ffffffffffffffffffffffffffffffffffffffff021916908373ffffffffffffffffffffffffffffffffffffffff16021790555060608201518160010160156101000a81548160ff0219169083151502179055509050506003859080600181540180825580915050600190039060005260206000200160009091909190915055600560009054906101000a900473ffffffffffffffffffffffffffffffffffffffff1673ffffffffffffffffffffffffffffffffffffffff1663e8fbc0ad846040518263ffffffff1660e01b815260040161089291906114db565b600060405180830381600087803b1580156108ac57600080fd5b505af11580156108c0573d6000803e3d6000fd5b505050507f7e8dec059885cb6a28a2358ae4ee52ac03d92845b1a9b5c5e0b6337bed4db093858560016040516108f8939291906119d7565b60405180910390a15050505050565b60606000805b6003805490508110156109bd578373ffffffffffffffffffffffffffffffffffffffff16600260006003848154811061094957610948611a7a565b5b9060005260206000200154815260200190815260200160002060010160019054906101000a900473ffffffffffffffffffffffffffffffffffffffff1673ffffffffffffffffffffffffffffffffffffffff16036109b05781806109ac90611ad8565b9250505b808060010191505061090d565b5060008167ffffffffffffffff8111156109da576109d9611b20565b5b604051908082528060200260200182016040528015610a085781602001602082028036833780820191505090505b5090506000805b600380549050811015610afd578573ffffffffffffffffffffffffffffffffffffffff166002600060038481548110610a4b57610a4a611a7a565b5b9060005260206000200154815260200190815260200160002060010160019054906101000a900473ffffffffffffffffffffffffffffffffffffffff1673ffffffffffffffffffffffffffffffffffffffff1603610af05760038181548110610ab757610ab6611a7a565b5b9060005260206000200154838381518110610ad557610ad4611a7a565b5b6020026020010181815250508180610aec90611ad8565b9250505b8080600101915050610a0f565b50819350505050919050565b7fa49807205ce4d355092ef5a8a18f56e8913cf4a201fbe287825b095693c2177581565b7f97667070c54ef182b0f5858b034beac1b6f3089aa2d3188bb1e8929f4fa9b929610b5781611122565b816002600085815260200190815260200160002060010160016101000a81548173ffffffffffffffffffffffffffffffffffffffff021916908373ffffffffffffffffffffffffffffffffffffffff1602179055507f12ffffb044c84fce987ba48036a31771a7f66c7b3f86040bdaba74a450ff9acb83836001604051610be093929190611b4f565b60405180910390a1505050565b7f97667070c54ef182b0f5858b034beac1b6f3089aa2d3188bb1e8929f4fa9b929610c1781611122565b600560009054906101000a900473ffffffffffffffffffffffffffffffffffffffff1673ffffffffffffffffffffffffffffffffffffffff1663d627452b6002600085815260200190815260200160002060010160019054906101000a900473ffffffffffffffffffffffffffffffffffffffff166040518263ffffffff1660e01b8152600401610ca891906114db565b600060405180830381600087803b158015610cc257600080fd5b505af1158015610cd6573d6000803e3d6000fd5b50505050600260008381526020019081526020016000206000808201600090556001820160006101000a81549060ff02191690556001820160016101000a81549073ffffffffffffffffffffffffffffffffffffffff02191690556001820160156101000a81549060ff021916905550507f7e8dec059885cb6a28a2358ae4ee52ac03d92845b1a9b5c5e0b6337bed4db09382600080604051610d7b93929190611bcb565b60405180910390a15050565b600080600084815260200190815260200160002060000160008373ffffffffffffffffffffffffffffffffffffffff1673ffffffffffffffffffffffffffffffffffffffff16815260200190815260200160002060009054906101000a900460ff16905092915050565b6000801b81565b60606000600460008481526020019081526020016000206000016004600085815260200190815260200160002060010154818054610e3590611c31565b80601f0160208091040260200160405190810160405280929190818152602001828054610e6190611c31565b8015610eae5780601f10610e8357610100808354040283529160200191610eae565b820191906000526020600020905b815481529060010190602001808311610e9157829003601f168201915b5050505050915091509150915091565b610ec782610539565b610ed081611122565b610eda838361122f565b50505050565b6000806000806002600086815260200190815260200160002060000154856002600088815260200190815260200160002060010160019054906101000a900473ffffffffffffffffffffffffffffffffffffffff166002600089815260200190815260200160002060010160159054906101000a900460ff1693509350935093509193509193565b7f97667070c54ef182b0f5858b034beac1b6f3089aa2d3188bb1e8929f4fa9b929610f9281611122565b846002600082815260200190815260200160002060010160159054906101000a900460ff1615610ff7576040517f08c379a0000000000000000000000000000000000000000000000000000000008152600401610fee90611cae565b60405180910390fd5b604051806040016040528086868080601f016020809104026020016040519081016040528093929190818152602001838380828437600081840152601f19601f820116905080830192505050505050508152602001848152506004600088815260200190815260200160002060008201518160000190816110789190611e70565b5060208201518160010155905050505050505050565b60015481565b7f97667070c54ef182b0f5858b034beac1b6f3089aa2d3188bb1e8929f4fa9b92981565b60007f01ffc9a7000000000000000000000000000000000000000000000000000000007bffffffffffffffffffffffffffffffffffffffffffffffffffffffff1916827bffffffffffffffffffffffffffffffffffffffffffffffffffffffff1916149050919050565b6111338161112e611227565b611321565b50565b60006111428383610d87565b61121c57600160008085815260200190815260200160002060000160008473ffffffffffffffffffffffffffffffffffffffff1673ffffffffffffffffffffffffffffffffffffffff16815260200190815260200160002060006101000a81548160ff0219169083151502179055506111b9611227565b73ffffffffffffffffffffffffffffffffffffffff168273ffffffffffffffffffffffffffffffffffffffff16847f2f8788117e7eff1d82e926ec794901d17c78024a50270940304540a733656f0d60405160405180910390a460019050611221565b600090505b92915050565b600033905090565b600061123b8383610d87565b1561131657600080600085815260200190815260200160002060000160008473ffffffffffffffffffffffffffffffffffffffff1673ffffffffffffffffffffffffffffffffffffffff16815260200190815260200160002060006101000a81548160ff0219169083151502179055506112b3611227565b73ffffffffffffffffffffffffffffffffffffffff168273ffffffffffffffffffffffffffffffffffffffff16847ff6391f5c32d9c69d2a47ea670b442974b53935d1edc7fd64eb21e047a839171b60405160405180910390a46001905061131b565b600090505b92915050565b61132b8282610d87565b61136e5780826040517fe2517d3f000000000000000000000000000000000000000000000000000000008152600401611365929190611f42565b60405180910390fd5b5050565b600080fd5b600080fd5b60007fffffffff0000000000000000000000000000000000000000000000000000000082169050919050565b6113b18161137c565b81146113bc57600080fd5b50565b6000813590506113ce816113a8565b92915050565b6000602082840312156113ea576113e9611372565b5b60006113f8848285016113bf565b91505092915050565b60008115159050919050565b61141681611401565b82525050565b6000602082019050611431600083018461140d565b92915050565b6000819050919050565b61144a81611437565b811461145557600080fd5b50565b60008135905061146781611441565b92915050565b60006020828403121561148357611482611372565b5b600061149184828501611458565b91505092915050565b600073ffffffffffffffffffffffffffffffffffffffff82169050919050565b60006114c58261149a565b9050919050565b6114d5816114ba565b82525050565b60006020820190506114f060008301846114cc565b92915050565b6000806040838503121561150d5761150c611372565b5b600061151b85828601611458565b925050602061152c85828601611458565b9150509250929050565b6000819050919050565b61154981611536565b811461155457600080fd5b50565b60008135905061156681611540565b92915050565b60006020828403121561158257611581611372565b5b600061159084828501611557565b91505092915050565b6115a281611536565b82525050565b60006020820190506115bd6000830184611599565b92915050565b6115cc816114ba565b81146115d757600080fd5b50565b6000813590506115e9816115c3565b92915050565b6000806040838503121561160657611605611372565b5b600061161485828601611557565b9250506020611625858286016115da565b9150509250929050565b60006020828403121561164557611644611372565b5b6000611653848285016115da565b91505092915050565b60008060006060848603121561167557611674611372565b5b600061168386828701611458565b935050602061169486828701611458565b92505060406116a5868287016115da565b9150509250925092565b600081519050919050565b600082825260208201905092915050565b6000819050602082019050919050565b6116e481611437565b82525050565b60006116f683836116db565b60208301905092915050565b6000602082019050919050565b600061171a826116af565b61172481856116ba565b935061172f836116cb565b8060005b8381101561176057815161174788826116ea565b975061175283611702565b925050600181019050611733565b5085935050505092915050565b60006020820190508181036000830152611787818461170f565b905092915050565b600080604083850312156117a6576117a5611372565b5b60006117b485828601611458565b92505060206117c5858286016115da565b9150509250929050565b600081519050919050565b600082825260208201905092915050565b60005b838110156118095780820151818401526020810190506117ee565b60008484015250505050565b6000601f19601f8301169050919050565b6000611831826117cf565b61183b81856117da565b935061184b8185602086016117eb565b61185481611815565b840191505092915050565b61186881611437565b82525050565b600060408201905081810360008301526118888185611826565b9050611897602083018461185f565b9392505050565b60006080820190506118b3600083018761185f565b6118c0602083018661185f565b6118cd60408301856114cc565b6118da606083018461140d565b95945050505050565b600080fd5b600080fd5b600080fd5b60008083601f840112611908576119076118e3565b5b8235905067ffffffffffffffff811115611925576119246118e8565b5b602083019150836001820283011115611941576119406118ed565b5b9250929050565b6000806000806060858703121561196257611961611372565b5b600061197087828801611458565b945050602085013567ffffffffffffffff81111561199157611990611377565b5b61199d878288016118f2565b935093505060406119b087828801611458565b91505092959194509250565b60006020820190506119d1600083018461185f565b92915050565b60006060820190506119ec600083018661185f565b6119f9602083018561185f565b611a06604083018461140d565b949350505050565b7f44657669636520616c7265616479207265676973746572656400000000000000600082015250565b6000611a446019836117da565b9150611a4f82611a0e565b602082019050919050565b60006020820190508181036000830152611a7381611a37565b9050919050565b7f4e487b7100000000000000000000000000000000000000000000000000000000600052603260045260246000fd5b7f4e487b7100000000000000000000000000000000000000000000000000000000600052601160045260246000fd5b6000611ae382611437565b91507fffffffffffffffffffffffffffffffffffffffffffffffffffffffffffffffff8203611b1557611b14611aa9565b5b600182019050919050565b7f4e487b7100000000000000000000000000000000000000000000000000000000600052604160045260246000fd5b6000606082019050611b64600083018661185f565b611b7160208301856114cc565b611b7e604083018461140d565b949350505050565b6000819050919050565b6000819050919050565b6000611bb5611bb0611bab84611b86565b611b90565b611437565b9050919050565b611bc581611b9a565b82525050565b6000606082019050611be0600083018661185f565b611bed6020830185611bbc565b611bfa604083018461140d565b949350505050565b7f4e487b7100000000000000000000000000000000000000000000000000000000600052602260045260246000fd5b60006002820490506001821680611c4957607f821691505b602082108103611c5c57611c5b611c02565b5b50919050565b7f56656869636c6520697320616c72656164792072656769737465726564000000600082015250565b6000611c98601d836117da565b9150611ca382611c62565b602082019050919050565b60006020820190508181036000830152611cc781611c8b565b9050919050565b60008190508160005260206000209050919050565b60006020601f8301049050919050565b600082821b905092915050565b600060088302611d307fffffffffffffffffffffffffffffffffffffffffffffffffffffffffffffffff82611cf3565b611d3a8683611cf3565b95508019841693508086168417925050509392505050565b6000611d6d611d68611d6384611437565b611b90565b611437565b9050919050565b6000819050919050565b611d8783611d52565b611d9b611d9382611d74565b848454611d00565b825550505050565b600090565b611db0611da3565b611dbb818484611d7e565b505050565b5b81811015611ddf57611dd4600082611da8565b600181019050611dc1565b5050565b601f821115611e2457611df581611cce565b611dfe84611ce3565b81016020851015611e0d578190505b611e21611e1985611ce3565b830182611dc0565b50505b505050565b600082821c905092915050565b6000611e4760001984600802611e29565b1980831691505092915050565b6000611e608383611e36565b9150826002028217905092915050565b611e79826117cf565b67ffffffffffffffff811115611e9257611e91611b20565b5b611e9c8254611c31565b611ea7828285611de3565b600060209050601f831160018114611eda5760008415611ec8578287015190505b611ed28582611e54565b865550611f3a565b601f198416611ee886611cce565b60005b82811015611f1057848901518255600182019150602085019450602081019050611eeb565b86831015611f2d5784890151611f29601f891682611e36565b8355505b6001600288020188555050505b505050505050565b6000604082019050611f5760008301856114cc565b611f646020830184611599565b939250505056fea264697066735822122014d674c050c6c4a93c3e9fb4fcce2b255ce7da0086f46fe6b19e4b284f12b10864736f6c63430008180033",
  "linkReferences": {},
  "deployedLinkReferences": {}
}