{
  "_format": "hh-sol-artifact-1",
  "contractName": "DeviceRegistry",
  "sourceName": "contracts/DeviceRegistry.sol",
  "abi": [
    {
      "inputs": [],
      "stateMutability": "nonpayable",
      "type": "constructor"
    },
    {
      "inputs": [],
      "name": "AccessControlBadConfirmation",
      "type": "error"
    },
    {
      "inputs": [
        {
          "internalType": "address",
          "name": "account",
          "type": "address"
        },
        {
          "internalType": "bytes32",
          "name": "neededRole",
          "type": "bytes32"
        }
      ],
      "name": "AccessControlUnauthorizedAccount",
      "type": "error"
    },
    {
      "anonymous": false,
      "inputs": [
        {
          "indexed": false,
          "internalType": "address",
          "name": "_allowanceContract",
          "type": "address"
        }
      ],
      "name": "AllowanceContractSet",
      "type": "event"
    },
    {
      "anonymous": false,
      "inputs": [
        {
          "indexed": false,
          "internalType": "uint256",
          "name": "deviceID",
          "type": "uint256"
        },
        {
          "indexed": false,
          "internalType": "address",
          "name": "_wallet",
          "type": "address"
        },
        {
          "indexed": false,
          "internalType": "bool",
          "name": "isBound",
          "type": "bool"
        }
      ],
      "name": "DeviceBound",
      "type": "event"
    },
    {
      "anonymous": false,
      "inputs": [
        {
          "indexed": false,
          "internalType": "uint256",
          "name": "deviceID",
          "type": "uint256"
        },
        {
          "indexed": false,
          "internalType": "uint256",
          "name": "vehicleId",
          "type": "uint256"
        },
        {
          "indexed": false,
          "internalType": "bool",
          "name": "isRegistered",
          "type": "bool"
        }
      ],
      "name": "DeviceRegistered",
      "type": "event"
    },
    {
      "anonymous": false,
      "inputs": [
        {
          "indexed": true,
          "internalType": "bytes32",
          "name": "role",
          "type": "bytes32"
        },
        {
          "indexed": true,
          "internalType": "bytes32",
          "name": "previousAdminRole",
          "type": "bytes32"
        },
        {
          "indexed": true,
          "internalType": "bytes32",
          "name": "newAdminRole",
          "type": "bytes32"
        }
      ],
      "name": "RoleAdminChanged",
      "type": "event"
    },
    {
      "anonymous": false,
      "inputs": [
        {
          "indexed": true,
          "internalType": "bytes32",
          "name": "role",
          "type": "bytes32"
        },
        {
          "indexed": true,
          "internalType": "address",
          "name": "account",
          "type": "address"
        },
        {
          "indexed": true,
          "internalType": "address",
          "name": "sender",
          "type": "address"
        }
      ],
      "name": "RoleGranted",
      "type": "event"
    },
    {
      "anonymous": false,
      "inputs": [
        {
          "indexed": true,
          "internalType": "bytes32",
          "name": "role",
          "type": "bytes32"
        },
        {
          "indexed": true,
          "internalType": "address",
          "name": "account",
          "type": "address"
        },
        {
          "indexed": true,
          "internalType": "address",
          "name": "sender",
          "type": "address"
        }
      ],
      "name": "RoleRevoked",
      "type": "event"
    },
    {
      "inputs": [],
      "name": "ADMIN_ROLE",
      "outputs": [
        {
          "internalType": "bytes32",
          "name": "",
          "type": "bytes32"
        }
      ],
      "stateMutability": "view",
      "type": "function"
    },
    {
      "inputs": [],
      "name": "DEFAULT_ADMIN_ROLE",
      "outputs": [
        {
          "internalType": "bytes32",
          "name": "",
          "type": "bytes32"
        }
      ],
      "stateMutability": "view",
      "type": "function"
    },
    {
      "inputs": [],
      "name": "OPERATOR_ROLE",
      "outputs": [
        {
          "internalType": "bytes32",
          "name": "",
          "type": "bytes32"
        }
      ],
      "stateMutability": "view",
      "type": "function"
    },
    {
      "inputs": [
        {
          "internalType": "uint256",
          "name": "_deviceID",
          "type": "uint256"
        }
      ],
      "name": "getDeviceWallet",
      "outputs": [
        {
          "internalType": "address",
          "name": "",
          "type": "address"
        }
      ],
      "stateMutability": "view",
      "type": "function"
    },
    {
      "inputs": [
        {
          "internalType": "address",
          "name": "_wallet",
          "type": "address"
        }
      ],
      "name": "getDevicesByWallet",
      "outputs": [
        {
          "internalType": "uint256[]",
          "name": "",
          "type": "uint256[]"
        }
      ],
      "stateMutability": "view",
      "type": "function"
    },
    {
      "inputs": [
        {
          "internalType": "bytes32",
          "name": "role",
          "type": "bytes32"
        }
      ],
      "name": "getRoleAdmin",
      "outputs": [
        {
          "internalType": "bytes32",
          "name": "",
          "type": "bytes32"
        }
      ],
      "stateMutability": "view",
      "type": "function"
    },
    {
      "inputs": [
        {
          "internalType": "bytes32",
          "name": "role",
          "type": "bytes32"
        },
        {
          "internalType": "address",
          "name": "account",
          "type": "address"
        }
      ],
      "name": "grantRole",
      "outputs": [],
      "stateMutability": "nonpayable",
      "type": "function"
    },
    {
      "inputs": [
        {
          "internalType": "bytes32",
          "name": "role",
          "type": "bytes32"
        },
        {
          "internalType": "address",
          "name": "account",
          "type": "address"
        }
      ],
      "name": "hasRole",
      "outputs": [
        {
          "internalType": "bool",
          "name": "",
          "type": "bool"
        }
      ],
      "stateMutability": "view",
      "type": "function"
    },
    {
      "inputs": [],
      "name": "pebblesCount",
      "outputs": [
        {
          "internalType": "uint256",
          "name": "",
          "type": "uint256"
        }
      ],
      "stateMutability": "view",
      "type": "function"
    },
    {
      "inputs": [
        {
          "internalType": "uint256",
          "name": "_deviceID",
          "type": "uint256"
        },
        {
          "internalType": "uint256",
          "name": "_vehicleId",
          "type": "uint256"
        },
        {
          "internalType": "address",
          "name": "_wallet",
          "type": "address"
        }
      ],
      "name": "registerDevice",
      "outputs": [],
      "stateMutability": "nonpayable",
      "type": "function"
    },
    {
      "inputs": [
        {
          "internalType": "uint256",
          "name": "_vehicleId",
          "type": "uint256"
        },
        {
          "internalType": "string",
          "name": "_vehicleType",
          "type": "string"
        },
        {
          "internalType": "uint256",
          "name": "_avgEmissions",
          "type": "uint256"
        }
      ],
      "name": "registerVehicle",
      "outputs": [],
      "stateMutability": "nonpayable",
      "type": "function"
    },
    {
      "inputs": [
        {
          "internalType": "bytes32",
          "name": "role",
          "type": "bytes32"
        },
        {
          "internalType": "address",
          "name": "callerConfirmation",
          "type": "address"
        }
      ],
      "name": "renounceRole",
      "outputs": [],
      "stateMutability": "nonpayable",
      "type": "function"
    },
    {
      "inputs": [
        {
          "internalType": "bytes32",
          "name": "role",
          "type": "bytes32"
        },
        {
          "internalType": "address",
          "name": "account",
          "type": "address"
        }
      ],
      "name": "revokeRole",
      "outputs": [],
      "stateMutability": "nonpayable",
      "type": "function"
    },
    {
      "inputs": [
        {
          "internalType": "address",
          "name": "_allowanceContract",
          "type": "address"
        }
      ],
      "name": "setAllowanceContract",
      "outputs": [],
      "stateMutability": "nonpayable",
      "type": "function"
    },
    {
      "inputs": [
        {
          "internalType": "bytes4",
          "name": "interfaceId",
          "type": "bytes4"
        }
      ],
      "name": "supportsInterface",
      "outputs": [
        {
          "internalType": "bool",
          "name": "",
          "type": "bool"
        }
      ],
      "stateMutability": "view",
      "type": "function"
    },
    {
      "inputs": [
        {
          "internalType": "uint256",
          "name": "_deviceID",
          "type": "uint256"
        },
        {
          "internalType": "uint256",
          "name": "_vehicleId",
          "type": "uint256"
        }
      ],
      "name": "switchVehicle",
      "outputs": [],
      "stateMutability": "nonpayable",
      "type": "function"
    },
    {
      "inputs": [
        {
          "internalType": "uint256",
          "name": "_deviceID",
          "type": "uint256"
        },
        {
          "internalType": "address",
          "name": "_wallet",
          "type": "address"
        }
      ],
      "name": "transferDeviceOwnerIoCarb",
      "outputs": [],
      "stateMutability": "nonpayable",
      "type": "function"
    },
    {
      "inputs": [
        {
          "internalType": "uint256",
          "name": "_deviceID",
          "type": "uint256"
        }
      ],
      "name": "unregisterDevice",
      "outputs": [],
      "stateMutability": "nonpayable",
      "type": "function"
    }
  ],
  "bytecode": "0x608060405260006001553480156200001657600080fd5b50620000497fa49807205ce4d355092ef5a8a18f56e8913cf4a201fbe287825b095693c21775336200008360201b60201c565b506200007c7f97667070c54ef182b0f5858b034beac1b6f3089aa2d3188bb1e8929f4fa9b929336200008360201b60201c565b50620001f8565b60006200009783836200018660201b60201c565b6200017b57600160008085815260200190815260200160002060000160008473ffffffffffffffffffffffffffffffffffffffff1673ffffffffffffffffffffffffffffffffffffffff16815260200190815260200160002060006101000a81548160ff02191690831515021790555062000117620001f060201b60201c565b73ffffffffffffffffffffffffffffffffffffffff168273ffffffffffffffffffffffffffffffffffffffff16847f2f8788117e7eff1d82e926ec794901d17c78024a50270940304540a733656f0d60405160405180910390a46001905062000180565b600090505b92915050565b600080600084815260200190815260200160002060000160008373ffffffffffffffffffffffffffffffffffffffff1673ffffffffffffffffffffffffffffffffffffffff16815260200190815260200160002060009054906101000a900460ff16905092915050565b600033905090565b611cf080620002086000396000f3fe608060405234801561001057600080fd5b50600436106101165760003560e01c806375b238fc116100a2578063a217fddf11610071578063a217fddf146102ed578063d547741f1461030b578063ec898be014610327578063f38ab9f614610343578063f5b541a61461036157610116565b806375b238fc146102675780637ba260dd146102855780638a927c0d146102a157806391d14854146102bd57610116565b80632f2ff15d116100e95780632f2ff15d146101c757806331b61704146101e357806336568abe146101ff5780635db0ea181461021b5780636d2442b01461023757610116565b806301ffc9a71461011b5780630adfe0a01461014b5780631b9de7191461017b578063248a9ca314610197575b600080fd5b6101356004803603810190610130919061120c565b61037f565b6040516101429190611254565b60405180910390f35b610165600480360381019061016091906112a5565b6103f9565b6040516101729190611313565b60405180910390f35b6101956004803603810190610190919061132e565b610439565b005b6101b160048036038101906101ac91906113a4565b6104bf565b6040516101be91906113e0565b60405180910390f35b6101e160048036038101906101dc9190611427565b6104de565b005b6101fd60048036038101906101f89190611467565b610500565b005b61021960048036038101906102149190611427565b6105a6565b005b61023560048036038101906102309190611494565b610621565b005b610251600480360381019061024c9190611467565b61088d565b60405161025e91906115a5565b60405180910390f35b61026f610a8f565b60405161027c91906113e0565b60405180910390f35b61029f600480360381019061029a91906115c7565b610ab3565b005b6102bb60048036038101906102b691906112a5565b610b73565b005b6102d760048036038101906102d29190611427565b610d0d565b6040516102e49190611254565b60405180910390f35b6102f5610d77565b60405161030291906113e0565b60405180910390f35b61032560048036038101906103209190611427565b610d7e565b005b610341600480360381019061033c919061166c565b610da0565b005b61034b610ec6565b60405161035891906116ef565b60405180910390f35b610369610ecc565b60405161037691906113e0565b60405180910390f35b60007f7965db0b000000000000000000000000000000000000000000000000000000007bffffffffffffffffffffffffffffffffffffffffffffffffffffffff1916827bffffffffffffffffffffffffffffffffffffffffffffffffffffffff191614806103f257506103f182610ef0565b5b9050919050565b60006002600083815260200190815260200160002060010160019054906101000a900473ffffffffffffffffffffffffffffffffffffffff169050919050565b7f97667070c54ef182b0f5858b034beac1b6f3089aa2d3188bb1e8929f4fa9b92961046381610f5a565b8160026000858152602001908152602001600020600001819055507f7e8dec059885cb6a28a2358ae4ee52ac03d92845b1a9b5c5e0b6337bed4db093838360016040516104b29392919061170a565b60405180910390a1505050565b6000806000838152602001908152602001600020600101549050919050565b6104e7826104bf565b6104f081610f5a565b6104fa8383610f6e565b50505050565b7fa49807205ce4d355092ef5a8a18f56e8913cf4a201fbe287825b095693c2177561052a81610f5a565b81600560006101000a81548173ffffffffffffffffffffffffffffffffffffffff021916908373ffffffffffffffffffffffffffffffffffffffff1602179055507f7d972887013bc922872d7ec66f74c2888129d7917edec15b9eabb2276385d5808260405161059a9190611313565b60405180910390a15050565b6105ae61105f565b73ffffffffffffffffffffffffffffffffffffffff168173ffffffffffffffffffffffffffffffffffffffff1614610612576040517f6697b23200000000000000000000000000000000000000000000000000000000815260040160405180910390fd5b61061c8282611067565b505050565b7f97667070c54ef182b0f5858b034beac1b6f3089aa2d3188bb1e8929f4fa9b92961064b81610f5a565b836002600082815260200190815260200160002060010160009054906101000a900460ff16156106b0576040517f08c379a00000000000000000000000000000000000000000000000000000000081526004016106a79061179e565b60405180910390fd5b60405180608001604052808581526020016001151581526020018473ffffffffffffffffffffffffffffffffffffffff16815260200160011515815250600260008781526020019081526020016000206000820151816000015560208201518160010160006101000a81548160ff02191690831515021790555060408201518160010160016101000a81548173ffffffffffffffffffffffffffffffffffffffff021916908373ffffffffffffffffffffffffffffffffffffffff16021790555060608201518160010160156101000a81548160ff0219169083151502179055509050506003859080600181540180825580915050600190039060005260206000200160009091909190915055600560009054906101000a900473ffffffffffffffffffffffffffffffffffffffff1673ffffffffffffffffffffffffffffffffffffffff1663e8fbc0ad846040518263ffffffff1660e01b81526004016108189190611313565b600060405180830381600087803b15801561083257600080fd5b505af1158015610846573d6000803e3d6000fd5b505050507f7e8dec059885cb6a28a2358ae4ee52ac03d92845b1a9b5c5e0b6337bed4db0938585600160405161087e9392919061170a565b60405180910390a15050505050565b60606000805b600380549050811015610943578373ffffffffffffffffffffffffffffffffffffffff1660026000600384815481106108cf576108ce6117be565b5b9060005260206000200154815260200190815260200160002060010160019054906101000a900473ffffffffffffffffffffffffffffffffffffffff1673ffffffffffffffffffffffffffffffffffffffff16036109365781806109329061181c565b9250505b8080600101915050610893565b5060008167ffffffffffffffff8111156109605761095f611864565b5b60405190808252806020026020018201604052801561098e5781602001602082028036833780820191505090505b5090506000805b600380549050811015610a83578573ffffffffffffffffffffffffffffffffffffffff1660026000600384815481106109d1576109d06117be565b5b9060005260206000200154815260200190815260200160002060010160019054906101000a900473ffffffffffffffffffffffffffffffffffffffff1673ffffffffffffffffffffffffffffffffffffffff1603610a765760038181548110610a3d57610a3c6117be565b5b9060005260206000200154838381518110610a5b57610a5a6117be565b5b6020026020010181815250508180610a729061181c565b9250505b8080600101915050610995565b50819350505050919050565b7fa49807205ce4d355092ef5a8a18f56e8913cf4a201fbe287825b095693c2177581565b7f97667070c54ef182b0f5858b034beac1b6f3089aa2d3188bb1e8929f4fa9b929610add81610f5a565b816002600085815260200190815260200160002060010160016101000a81548173ffffffffffffffffffffffffffffffffffffffff021916908373ffffffffffffffffffffffffffffffffffffffff1602179055507f12ffffb044c84fce987ba48036a31771a7f66c7b3f86040bdaba74a450ff9acb83836001604051610b6693929190611893565b60405180910390a1505050565b7f97667070c54ef182b0f5858b034beac1b6f3089aa2d3188bb1e8929f4fa9b929610b9d81610f5a565b600560009054906101000a900473ffffffffffffffffffffffffffffffffffffffff1673ffffffffffffffffffffffffffffffffffffffff1663d627452b6002600085815260200190815260200160002060010160019054906101000a900473ffffffffffffffffffffffffffffffffffffffff166040518263ffffffff1660e01b8152600401610c2e9190611313565b600060405180830381600087803b158015610c4857600080fd5b505af1158015610c5c573d6000803e3d6000fd5b50505050600260008381526020019081526020016000206000808201600090556001820160006101000a81549060ff02191690556001820160016101000a81549073ffffffffffffffffffffffffffffffffffffffff02191690556001820160156101000a81549060ff021916905550507f7e8dec059885cb6a28a2358ae4ee52ac03d92845b1a9b5c5e0b6337bed4db09382600080604051610d019392919061190f565b60405180910390a15050565b600080600084815260200190815260200160002060000160008373ffffffffffffffffffffffffffffffffffffffff1673ffffffffffffffffffffffffffffffffffffffff16815260200190815260200160002060009054906101000a900460ff16905092915050565b6000801b81565b610d87826104bf565b610d9081610f5a565b610d9a8383611067565b50505050565b7f97667070c54ef182b0f5858b034beac1b6f3089aa2d3188bb1e8929f4fa9b929610dca81610f5a565b846002600082815260200190815260200160002060010160159054906101000a900460ff1615610e2f576040517f08c379a0000000000000000000000000000000000000000000000000000000008152600401610e2690611992565b60405180910390fd5b604051806040016040528086868080601f016020809104026020016040519081016040528093929190818152602001838380828437600081840152601f19601f82011690508083019250505050505050815260200184815250600460008881526020019081526020016000206000820151816000019081610eb09190611bbf565b5060208201518160010155905050505050505050565b60015481565b7f97667070c54ef182b0f5858b034beac1b6f3089aa2d3188bb1e8929f4fa9b92981565b60007f01ffc9a7000000000000000000000000000000000000000000000000000000007bffffffffffffffffffffffffffffffffffffffffffffffffffffffff1916827bffffffffffffffffffffffffffffffffffffffffffffffffffffffff1916149050919050565b610f6b81610f6661105f565b611159565b50565b6000610f7a8383610d0d565b61105457600160008085815260200190815260200160002060000160008473ffffffffffffffffffffffffffffffffffffffff1673ffffffffffffffffffffffffffffffffffffffff16815260200190815260200160002060006101000a81548160ff021916908315150217905550610ff161105f565b73ffffffffffffffffffffffffffffffffffffffff168273ffffffffffffffffffffffffffffffffffffffff16847f2f8788117e7eff1d82e926ec794901d17c78024a50270940304540a733656f0d60405160405180910390a460019050611059565b600090505b92915050565b600033905090565b60006110738383610d0d565b1561114e57600080600085815260200190815260200160002060000160008473ffffffffffffffffffffffffffffffffffffffff1673ffffffffffffffffffffffffffffffffffffffff16815260200190815260200160002060006101000a81548160ff0219169083151502179055506110eb61105f565b73ffffffffffffffffffffffffffffffffffffffff168273ffffffffffffffffffffffffffffffffffffffff16847ff6391f5c32d9c69d2a47ea670b442974b53935d1edc7fd64eb21e047a839171b60405160405180910390a460019050611153565b600090505b92915050565b6111638282610d0d565b6111a65780826040517fe2517d3f00000000000000000000000000000000000000000000000000000000815260040161119d929190611c91565b60405180910390fd5b5050565b600080fd5b600080fd5b60007fffffffff0000000000000000000000000000000000000000000000000000000082169050919050565b6111e9816111b4565b81146111f457600080fd5b50565b600081359050611206816111e0565b92915050565b600060208284031215611222576112216111aa565b5b6000611230848285016111f7565b91505092915050565b60008115159050919050565b61124e81611239565b82525050565b60006020820190506112696000830184611245565b92915050565b6000819050919050565b6112828161126f565b811461128d57600080fd5b50565b60008135905061129f81611279565b92915050565b6000602082840312156112bb576112ba6111aa565b5b60006112c984828501611290565b91505092915050565b600073ffffffffffffffffffffffffffffffffffffffff82169050919050565b60006112fd826112d2565b9050919050565b61130d816112f2565b82525050565b60006020820190506113286000830184611304565b92915050565b60008060408385031215611345576113446111aa565b5b600061135385828601611290565b925050602061136485828601611290565b9150509250929050565b6000819050919050565b6113818161136e565b811461138c57600080fd5b50565b60008135905061139e81611378565b92915050565b6000602082840312156113ba576113b96111aa565b5b60006113c88482850161138f565b91505092915050565b6113da8161136e565b82525050565b60006020820190506113f560008301846113d1565b92915050565b611404816112f2565b811461140f57600080fd5b50565b600081359050611421816113fb565b92915050565b6000806040838503121561143e5761143d6111aa565b5b600061144c8582860161138f565b925050602061145d85828601611412565b9150509250929050565b60006020828403121561147d5761147c6111aa565b5b600061148b84828501611412565b91505092915050565b6000806000606084860312156114ad576114ac6111aa565b5b60006114bb86828701611290565b93505060206114cc86828701611290565b92505060406114dd86828701611412565b9150509250925092565b600081519050919050565b600082825260208201905092915050565b6000819050602082019050919050565b61151c8161126f565b82525050565b600061152e8383611513565b60208301905092915050565b6000602082019050919050565b6000611552826114e7565b61155c81856114f2565b935061156783611503565b8060005b8381101561159857815161157f8882611522565b975061158a8361153a565b92505060018101905061156b565b5085935050505092915050565b600060208201905081810360008301526115bf8184611547565b905092915050565b600080604083850312156115de576115dd6111aa565b5b60006115ec85828601611290565b92505060206115fd85828601611412565b9150509250929050565b600080fd5b600080fd5b600080fd5b60008083601f84011261162c5761162b611607565b5b8235905067ffffffffffffffff8111156116495761164861160c565b5b60208301915083600182028301111561166557611664611611565b5b9250929050565b60008060008060608587031215611686576116856111aa565b5b600061169487828801611290565b945050602085013567ffffffffffffffff8111156116b5576116b46111af565b5b6116c187828801611616565b935093505060406116d487828801611290565b91505092959194509250565b6116e98161126f565b82525050565b600060208201905061170460008301846116e0565b92915050565b600060608201905061171f60008301866116e0565b61172c60208301856116e0565b6117396040830184611245565b949350505050565b600082825260208201905092915050565b7f44657669636520616c7265616479207265676973746572656400000000000000600082015250565b6000611788601983611741565b915061179382611752565b602082019050919050565b600060208201905081810360008301526117b78161177b565b9050919050565b7f4e487b7100000000000000000000000000000000000000000000000000000000600052603260045260246000fd5b7f4e487b7100000000000000000000000000000000000000000000000000000000600052601160045260246000fd5b60006118278261126f565b91507fffffffffffffffffffffffffffffffffffffffffffffffffffffffffffffffff8203611859576118586117ed565b5b600182019050919050565b7f4e487b7100000000000000000000000000000000000000000000000000000000600052604160045260246000fd5b60006060820190506118a860008301866116e0565b6118b56020830185611304565b6118c26040830184611245565b949350505050565b6000819050919050565b6000819050919050565b60006118f96118f46118ef846118ca565b6118d4565b61126f565b9050919050565b611909816118de565b82525050565b600060608201905061192460008301866116e0565b6119316020830185611900565b61193e6040830184611245565b949350505050565b7f56656869636c6520697320616c72656164792072656769737465726564000000600082015250565b600061197c601d83611741565b915061198782611946565b602082019050919050565b600060208201905081810360008301526119ab8161196f565b9050919050565b600081519050919050565b7f4e487b7100000000000000000000000000000000000000000000000000000000600052602260045260246000fd5b60006002820490506001821680611a0457607f821691505b602082108103611a1757611a166119bd565b5b50919050565b60008190508160005260206000209050919050565b60006020601f8301049050919050565b600082821b905092915050565b600060088302611a7f7fffffffffffffffffffffffffffffffffffffffffffffffffffffffffffffffff82611a42565b611a898683611a42565b95508019841693508086168417925050509392505050565b6000611abc611ab7611ab28461126f565b6118d4565b61126f565b9050919050565b6000819050919050565b611ad683611aa1565b611aea611ae282611ac3565b848454611a4f565b825550505050565b600090565b611aff611af2565b611b0a818484611acd565b505050565b5b81811015611b2e57611b23600082611af7565b600181019050611b10565b5050565b601f821115611b7357611b4481611a1d565b611b4d84611a32565b81016020851015611b5c578190505b611b70611b6885611a32565b830182611b0f565b50505b505050565b600082821c905092915050565b6000611b9660001984600802611b78565b1980831691505092915050565b6000611baf8383611b85565b9150826002028217905092915050565b611bc8826119b2565b67ffffffffffffffff811115611be157611be0611864565b5b611beb82546119ec565b611bf6828285611b32565b600060209050601f831160018114611c295760008415611c17578287015190505b611c218582611ba3565b865550611c89565b601f198416611c3786611a1d565b60005b82811015611c5f57848901518255600182019150602085019450602081019050611c3a565b86831015611c7c5784890151611c78601f891682611b85565b8355505b6001600288020188555050505b505050505050565b6000604082019050611ca66000830185611304565b611cb360208301846113d1565b939250505056fea2646970667358221220fd73b366fe1656db89f33ba3e2d560728d223ceeaf4034d8c881831bd8f218c064736f6c63430008180033",
  "linkReferences": {},
  "deployedLinkReferences": {}
}