{
  "_format": "hh-sol-artifact-1",
  "contractName": "CRBTokenExchange",
  "sourceName": "contracts/CRBTokenExchange.sol",
  "abi": [
    {
      "inputs": [
        {
          "internalType": "address",
          "name": "_crbTokenAddress",
          "type": "address"
        }
      ],
      "stateMutability": "nonpayable",
      "type": "constructor"
    },
    {
      "inputs": [],
      "name": "ReentrancyGuardReentrantCall",
      "type": "error"
    },
    {
      "anonymous": false,
      "inputs": [
        {
          "indexed": true,
          "internalType": "uint256",
          "name": "offerId",
          "type": "uint256"
        },
        {
          "indexed": true,
          "internalType": "address",
          "name": "taker",
          "type": "address"
        }
      ],
      "name": "OfferAccepted",
      "type": "event"
    },
    {
      "anonymous": false,
      "inputs": [
        {
          "indexed": true,
          "internalType": "uint256",
          "name": "offerId",
          "type": "uint256"
        }
      ],
      "name": "OfferCancelled",
      "type": "event"
    },
    {
      "anonymous": false,
      "inputs": [
        {
          "indexed": true,
          "internalType": "uint256",
          "name": "offerId",
          "type": "uint256"
        },
        {
          "indexed": true,
          "internalType": "address",
          "name": "maker",
          "type": "address"
        },
        {
          "indexed": false,
          "internalType": "uint256",
          "name": "crbAmount",
          "type": "uint256"
        },
        {
          "indexed": false,
          "internalType": "uint256",
          "name": "iotxAmount",
          "type": "uint256"
        },
        {
          "indexed": false,
          "internalType": "bool",
          "name": "isBuyOffer",
          "type": "bool"
        }
      ],
      "name": "OfferCreated",
      "type": "event"
    },
    {
      "inputs": [
        {
          "internalType": "uint256",
          "name": "_offerId",
          "type": "uint256"
        }
      ],
      "name": "acceptOffer",
      "outputs": [],
      "stateMutability": "payable",
      "type": "function"
    },
    {
      "inputs": [
        {
          "internalType": "uint256",
          "name": "_offerId",
          "type": "uint256"
        }
      ],
      "name": "cancelOffer",
      "outputs": [],
      "stateMutability": "nonpayable",
      "type": "function"
    },
    {
      "inputs": [],
      "name": "crbToken",
      "outputs": [
        {
          "internalType": "contract IERC20",
          "name": "",
          "type": "address"
        }
      ],
      "stateMutability": "view",
      "type": "function"
    },
    {
      "inputs": [
        {
          "internalType": "uint256",
          "name": "_crbAmount",
          "type": "uint256"
        }
      ],
      "name": "createBuyOffer",
      "outputs": [],
      "stateMutability": "payable",
      "type": "function"
    },
    {
      "inputs": [
        {
          "internalType": "uint256",
          "name": "_crbAmount",
          "type": "uint256"
        },
        {
          "internalType": "uint256",
          "name": "_iotxAmount",
          "type": "uint256"
        }
      ],
      "name": "createSellOffer",
      "outputs": [],
      "stateMutability": "nonpayable",
      "type": "function"
    },
    {
      "inputs": [],
      "name": "getOffersCount",
      "outputs": [
        {
          "internalType": "uint256",
          "name": "",
          "type": "uint256"
        }
      ],
      "stateMutability": "view",
      "type": "function"
    },
    {
      "inputs": [
        {
          "internalType": "uint256",
          "name": "",
          "type": "uint256"
        }
      ],
      "name": "offers",
      "outputs": [
        {
          "internalType": "address",
          "name": "maker",
          "type": "address"
        },
        {
          "internalType": "uint256",
          "name": "crbAmount",
          "type": "uint256"
        },
        {
          "internalType": "uint256",
          "name": "iotxAmount",
          "type": "uint256"
        },
        {
          "internalType": "bool",
          "name": "isBuyOffer",
          "type": "bool"
        }
      ],
      "stateMutability": "view",
      "type": "function"
    }
  ],
  "bytecode": "0x60806040523480156200001157600080fd5b50604051620016b5380380620016b58339818101604052810190620000379190620000f1565b600160008190555080600160006101000a81548173ffffffffffffffffffffffffffffffffffffffff021916908373ffffffffffffffffffffffffffffffffffffffff1602179055505062000123565b600080fd5b600073ffffffffffffffffffffffffffffffffffffffff82169050919050565b6000620000b9826200008c565b9050919050565b620000cb81620000ac565b8114620000d757600080fd5b50565b600081519050620000eb81620000c0565b92915050565b6000602082840312156200010a576200010962000087565b5b60006200011a84828501620000da565b91505092915050565b61158280620001336000396000f3fe6080604052600436106100705760003560e01c8063b880b8d01161004e578063b880b8d0146100fc578063c31b90e314610125578063c815729d14610150578063ef706adf1461016c57610070565b80632f2e7b7514610075578063385d886d146100a05780638a72ea6a146100bc575b600080fd5b34801561008157600080fd5b5061008a610195565b6040516100979190610ee2565b60405180910390f35b6100ba60048036038101906100b59190610f2e565b6101a2565b005b3480156100c857600080fd5b506100e360048036038101906100de9190610f2e565b61033f565b6040516100f39493929190610fb7565b60405180910390f35b34801561010857600080fd5b50610123600480360381019061011e9190610ffc565b6103ac565b005b34801561013157600080fd5b5061013a61066e565b604051610147919061109b565b60405180910390f35b61016a60048036038101906101659190610f2e565b610694565b005b34801561017857600080fd5b50610193600480360381019061018e9190610f2e565b610ab3565b005b6000600280549050905090565b6101aa610d00565b600034116101ed576040517f08c379a00000000000000000000000000000000000000000000000000000000081526004016101e490611139565b60405180910390fd5b600260405180608001604052803373ffffffffffffffffffffffffffffffffffffffff16815260200183815260200134815260200160011515815250908060018154018082558091505060019003906000526020600020906004020160009091909190915060008201518160000160006101000a81548173ffffffffffffffffffffffffffffffffffffffff021916908373ffffffffffffffffffffffffffffffffffffffff160217905550602082015181600101556040820151816002015560608201518160030160006101000a81548160ff02191690831515021790555050503373ffffffffffffffffffffffffffffffffffffffff1660016002805490506102f89190611188565b7f975bbf8accabdae2dcd5c5abd3245f7a26b84fa0660062917994f682ab8a635a8334600160405161032c939291906111bc565b60405180910390a361033c610d46565b50565b6002818154811061034f57600080fd5b90600052602060002090600402016000915090508060000160009054906101000a900473ffffffffffffffffffffffffffffffffffffffff16908060010154908060020154908060030160009054906101000a900460ff16905084565b6103b4610d00565b600082116103f7576040517f08c379a00000000000000000000000000000000000000000000000000000000081526004016103ee90611265565b60405180910390fd5b6000811161043a576040517f08c379a000000000000000000000000000000000000000000000000000000000815260040161043190611139565b60405180910390fd5b600160009054906101000a900473ffffffffffffffffffffffffffffffffffffffff1673ffffffffffffffffffffffffffffffffffffffff166323b872dd3330856040518463ffffffff1660e01b815260040161049993929190611285565b6020604051808303816000875af11580156104b8573d6000803e3d6000fd5b505050506040513d601f19601f820116820180604052508101906104dc91906112e8565b61051b576040517f08c379a000000000000000000000000000000000000000000000000000000000815260040161051290611361565b60405180910390fd5b600260405180608001604052803373ffffffffffffffffffffffffffffffffffffffff16815260200184815260200183815260200160001515815250908060018154018082558091505060019003906000526020600020906004020160009091909190915060008201518160000160006101000a81548173ffffffffffffffffffffffffffffffffffffffff021916908373ffffffffffffffffffffffffffffffffffffffff160217905550602082015181600101556040820151816002015560608201518160030160006101000a81548160ff02191690831515021790555050503373ffffffffffffffffffffffffffffffffffffffff1660016002805490506106269190611188565b7f975bbf8accabdae2dcd5c5abd3245f7a26b84fa0660062917994f682ab8a635a8484600060405161065a939291906111bc565b60405180910390a361066a610d46565b5050565b600160009054906101000a900473ffffffffffffffffffffffffffffffffffffffff1681565b61069c610d00565b6000600282815481106106b2576106b1611381565b5b90600052602060002090600402019050600073ffffffffffffffffffffffffffffffffffffffff168160000160009054906101000a900473ffffffffffffffffffffffffffffffffffffffff1673ffffffffffffffffffffffffffffffffffffffff1603610755576040517f08c379a000000000000000000000000000000000000000000000000000000000815260040161074c906113fc565b60405180910390fd5b8060030160009054906101000a900460ff16156108c557600160009054906101000a900473ffffffffffffffffffffffffffffffffffffffff1673ffffffffffffffffffffffffffffffffffffffff166323b872dd338360000160009054906101000a900473ffffffffffffffffffffffffffffffffffffffff1684600101546040518463ffffffff1660e01b81526004016107f393929190611285565b6020604051808303816000875af1158015610812573d6000803e3d6000fd5b505050506040513d601f19601f8201168201806040525081019061083691906112e8565b610875576040517f08c379a000000000000000000000000000000000000000000000000000000000815260040161086c90611361565b60405180910390fd5b3373ffffffffffffffffffffffffffffffffffffffff166108fc82600201549081150290604051600060405180830381858888f193505050501580156108bf573d6000803e3d6000fd5b50610a5a565b8060020154341461090b576040517f08c379a000000000000000000000000000000000000000000000000000000000815260040161090290611468565b60405180910390fd5b600160009054906101000a900473ffffffffffffffffffffffffffffffffffffffff1673ffffffffffffffffffffffffffffffffffffffff1663a9059cbb3383600101546040518363ffffffff1660e01b815260040161096c929190611488565b6020604051808303816000875af115801561098b573d6000803e3d6000fd5b505050506040513d601f19601f820116820180604052508101906109af91906112e8565b6109ee576040517f08c379a00000000000000000000000000000000000000000000000000000000081526004016109e590611361565b60405180910390fd5b8060000160009054906101000a900473ffffffffffffffffffffffffffffffffffffffff1673ffffffffffffffffffffffffffffffffffffffff166108fc349081150290604051600060405180830381858888f19350505050158015610a58573d6000803e3d6000fd5b505b3373ffffffffffffffffffffffffffffffffffffffff16827fa7a40af5a1d0c10a3eb94af90cb008170915e8a71a6aaff052794cd762c72fc060405160405180910390a3610aa782610d50565b50610ab0610d46565b50565b610abb610d00565b600060028281548110610ad157610ad0611381565b5b906000526020600020906004020190503373ffffffffffffffffffffffffffffffffffffffff168160000160009054906101000a900473ffffffffffffffffffffffffffffffffffffffff1673ffffffffffffffffffffffffffffffffffffffff1614610b73576040517f08c379a0000000000000000000000000000000000000000000000000000000008152600401610b6a906114fd565b60405180910390fd5b8060030160009054906101000a900460ff1615610bda573373ffffffffffffffffffffffffffffffffffffffff166108fc82600201549081150290604051600060405180830381858888f19350505050158015610bd4573d6000803e3d6000fd5b50610cbe565b600160009054906101000a900473ffffffffffffffffffffffffffffffffffffffff1673ffffffffffffffffffffffffffffffffffffffff1663a9059cbb3383600101546040518363ffffffff1660e01b8152600401610c3b929190611488565b6020604051808303816000875af1158015610c5a573d6000803e3d6000fd5b505050506040513d601f19601f82011682018060405250810190610c7e91906112e8565b610cbd576040517f08c379a0000000000000000000000000000000000000000000000000000000008152600401610cb490611361565b60405180910390fd5b5b817fc28b4aed030bfacc245c0501326e1beb8c0ef0d60e4edc21067fdeb52da2a7aa60405160405180910390a2610cf482610d50565b50610cfd610d46565b50565b600260005403610d3c576040517f3ee5aeb500000000000000000000000000000000000000000000000000000000815260040160405180910390fd5b6002600081905550565b6001600081905550565b60026001600280549050610d649190611188565b81548110610d7557610d74611381565b5b906000526020600020906004020160028281548110610d9757610d96611381565b5b90600052602060002090600402016000820160009054906101000a900473ffffffffffffffffffffffffffffffffffffffff168160000160006101000a81548173ffffffffffffffffffffffffffffffffffffffff021916908373ffffffffffffffffffffffffffffffffffffffff16021790555060018201548160010155600282015481600201556003820160009054906101000a900460ff168160030160006101000a81548160ff0219169083151502179055509050506002805480610e6257610e6161151d565b5b6001900381819060005260206000209060040201600080820160006101000a81549073ffffffffffffffffffffffffffffffffffffffff0219169055600182016000905560028201600090556003820160006101000a81549060ff02191690555050905550565b6000819050919050565b610edc81610ec9565b82525050565b6000602082019050610ef76000830184610ed3565b92915050565b600080fd5b610f0b81610ec9565b8114610f1657600080fd5b50565b600081359050610f2881610f02565b92915050565b600060208284031215610f4457610f43610efd565b5b6000610f5284828501610f19565b91505092915050565b600073ffffffffffffffffffffffffffffffffffffffff82169050919050565b6000610f8682610f5b565b9050919050565b610f9681610f7b565b82525050565b60008115159050919050565b610fb181610f9c565b82525050565b6000608082019050610fcc6000830187610f8d565b610fd96020830186610ed3565b610fe66040830185610ed3565b610ff36060830184610fa8565b95945050505050565b6000806040838503121561101357611012610efd565b5b600061102185828601610f19565b925050602061103285828601610f19565b9150509250929050565b6000819050919050565b600061106161105c61105784610f5b565b61103c565b610f5b565b9050919050565b600061107382611046565b9050919050565b600061108582611068565b9050919050565b6110958161107a565b82525050565b60006020820190506110b0600083018461108c565b92915050565b600082825260208201905092915050565b7f494f545820616d6f756e74206d7573742062652067726561746572207468616e60008201527f2030000000000000000000000000000000000000000000000000000000000000602082015250565b60006111236022836110b6565b915061112e826110c7565b604082019050919050565b6000602082019050818103600083015261115281611116565b9050919050565b7f4e487b7100000000000000000000000000000000000000000000000000000000600052601160045260246000fd5b600061119382610ec9565b915061119e83610ec9565b92508282039050818111156111b6576111b5611159565b5b92915050565b60006060820190506111d16000830186610ed3565b6111de6020830185610ed3565b6111eb6040830184610fa8565b949350505050565b7f43524220616d6f756e74206d7573742062652067726561746572207468616e2060008201527f3000000000000000000000000000000000000000000000000000000000000000602082015250565b600061124f6021836110b6565b915061125a826111f3565b604082019050919050565b6000602082019050818103600083015261127e81611242565b9050919050565b600060608201905061129a6000830186610f8d565b6112a76020830185610f8d565b6112b46040830184610ed3565b949350505050565b6112c581610f9c565b81146112d057600080fd5b50565b6000815190506112e2816112bc565b92915050565b6000602082840312156112fe576112fd610efd565b5b600061130c848285016112d3565b91505092915050565b7f5472616e73666572206661696c65640000000000000000000000000000000000600082015250565b600061134b600f836110b6565b915061135682611315565b602082019050919050565b6000602082019050818103600083015261137a8161133e565b9050919050565b7f4e487b7100000000000000000000000000000000000000000000000000000000600052603260045260246000fd5b7f4f6666657220646f6573206e6f74206578697374000000000000000000000000600082015250565b60006113e66014836110b6565b91506113f1826113b0565b602082019050919050565b60006020820190508181036000830152611415816113d9565b9050919050565b7f496e636f727265637420494f545820616d6f756e740000000000000000000000600082015250565b60006114526015836110b6565b915061145d8261141c565b602082019050919050565b6000602082019050818103600083015261148181611445565b9050919050565b600060408201905061149d6000830185610f8d565b6114aa6020830184610ed3565b9392505050565b7f4e6f7420746865206f66666572206d616b657200000000000000000000000000600082015250565b60006114e76013836110b6565b91506114f2826114b1565b602082019050919050565b60006020820190508181036000830152611516816114da565b9050919050565b7f4e487b7100000000000000000000000000000000000000000000000000000000600052603160045260246000fdfea2646970667358221220362491d07ed1f7d42df8110c5de888fa1ade90df989d708507e578d3e468bc7f64736f6c63430008180033",
  "linkReferences": {},
  "deployedLinkReferences": {}
}